{
  "_format": "hh-sol-artifact-1",
  "contractName": "InsurancePool",
  "sourceName": "contracts/InsurancePool.sol",
  "abi": [
    {
      "inputs": [
        {
          "internalType": "address",
          "name": "treasury",
          "type": "address"
        }
      ],
      "stateMutability": "nonpayable",
      "type": "constructor"
    },
    {
      "inputs": [],
      "name": "ClaimAlreadyExists",
      "type": "error"
    },
    {
      "inputs": [],
      "name": "ClaimNotFound",
      "type": "error"
    },
    {
      "inputs": [
        {
          "internalType": "uint256",
          "name": "requested",
          "type": "uint256"
        },
        {
          "internalType": "uint256",
          "name": "available",
          "type": "uint256"
        }
      ],
      "name": "InsufficientPoolBalance",
      "type": "error"
    },
    {
      "inputs": [],
      "name": "InvalidClaimAmount",
      "type": "error"
    },
    {
      "inputs": [],
      "name": "InvalidTreasuryAddress",
      "type": "error"
    },
    {
      "inputs": [
        {
          "internalType": "address",
          "name": "owner",
          "type": "address"
        }
      ],
      "name": "OwnableInvalidOwner",
      "type": "error"
    },
    {
      "inputs": [
        {
          "internalType": "address",
          "name": "account",
          "type": "address"
        }
      ],
      "name": "OwnableUnauthorizedAccount",
      "type": "error"
    },
    {
      "inputs": [],
      "name": "ReentrancyGuardReentrantCall",
      "type": "error"
    },
    {
      "inputs": [],
      "name": "TransferFailed",
      "type": "error"
    },
    {
      "inputs": [],
      "name": "Unauthorized",
      "type": "error"
    },
    {
      "inputs": [],
      "name": "UnauthorizedClaim",
      "type": "error"
    },
    {
      "anonymous": false,
      "inputs": [
        {
          "indexed": true,
          "internalType": "uint256",
          "name": "escrowId",
          "type": "uint256"
        },
        {
          "indexed": true,
          "internalType": "address",
          "name": "claimant",
          "type": "address"
        },
        {
          "indexed": false,
          "internalType": "uint256",
          "name": "approvedAmount",
          "type": "uint256"
        }
      ],
      "name": "ClaimApproved",
      "type": "event"
    },
    {
      "anonymous": false,
      "inputs": [
        {
          "indexed": true,
          "internalType": "uint256",
          "name": "escrowId",
          "type": "uint256"
        },
        {
          "indexed": true,
          "internalType": "address",
          "name": "claimant",
          "type": "address"
        },
        {
          "indexed": false,
          "internalType": "uint256",
          "name": "requestedAmount",
          "type": "uint256"
        }
      ],
      "name": "ClaimFiled",
      "type": "event"
    },
    {
      "anonymous": false,
      "inputs": [
        {
          "indexed": true,
          "internalType": "uint256",
          "name": "escrowId",
          "type": "uint256"
        },
        {
          "indexed": true,
          "internalType": "address",
          "name": "claimant",
          "type": "address"
        },
        {
          "indexed": false,
          "internalType": "string",
          "name": "reason",
          "type": "string"
        }
      ],
      "name": "ClaimRejected",
      "type": "event"
    },
    {
      "anonymous": false,
      "inputs": [
        {
          "indexed": true,
          "internalType": "address",
          "name": "previousOwner",
          "type": "address"
        },
        {
          "indexed": true,
          "internalType": "address",
          "name": "newOwner",
          "type": "address"
        }
      ],
      "name": "OwnershipTransferred",
      "type": "event"
    },
    {
      "anonymous": false,
      "inputs": [
        {
          "indexed": true,
          "internalType": "uint256",
          "name": "escrowId",
          "type": "uint256"
        },
        {
          "indexed": true,
          "internalType": "address",
          "name": "recipient",
          "type": "address"
        },
        {
          "indexed": false,
          "internalType": "uint256",
          "name": "amount",
          "type": "uint256"
        }
      ],
      "name": "PayoutProcessed",
      "type": "event"
    },
    {
      "anonymous": false,
      "inputs": [
        {
          "indexed": true,
          "internalType": "uint256",
          "name": "escrowId",
          "type": "uint256"
        },
        {
          "indexed": false,
          "internalType": "uint256",
          "name": "amount",
          "type": "uint256"
        },
        {
          "indexed": true,
          "internalType": "address",
          "name": "payer",
          "type": "address"
        }
      ],
      "name": "PremiumCollected",
      "type": "event"
    },
    {
      "inputs": [],
      "name": "FULL_COLLATERAL_PAYOUT",
      "outputs": [
        {
          "internalType": "uint256",
          "name": "",
          "type": "uint256"
        }
      ],
      "stateMutability": "view",
      "type": "function"
    },
    {
      "inputs": [],
      "name": "MIN_RESERVE_RATIO",
      "outputs": [
        {
          "internalType": "uint256",
          "name": "",
          "type": "uint256"
        }
      ],
      "stateMutability": "view",
      "type": "function"
    },
    {
      "inputs": [],
      "name": "PARTIAL_COLLATERAL_PAYOUT",
      "outputs": [
        {
          "internalType": "uint256",
          "name": "",
          "type": "uint256"
        }
      ],
      "stateMutability": "view",
      "type": "function"
    },
    {
      "inputs": [],
      "name": "PREMIUM_PERCENTAGE",
      "outputs": [
        {
          "internalType": "uint256",
          "name": "",
          "type": "uint256"
        }
      ],
      "stateMutability": "view",
      "type": "function"
    },
    {
      "inputs": [],
      "name": "PREMIUM_RATE_BASE",
      "outputs": [
        {
          "internalType": "uint256",
          "name": "",
          "type": "uint256"
        }
      ],
      "stateMutability": "view",
      "type": "function"
    },
    {
      "inputs": [],
      "name": "athenyxCore",
      "outputs": [
        {
          "internalType": "address",
          "name": "",
          "type": "address"
        }
      ],
      "stateMutability": "view",
      "type": "function"
    },
    {
      "inputs": [
        {
          "internalType": "uint256",
          "name": "loanAmount",
          "type": "uint256"
        },
        {
          "internalType": "uint256",
          "name": "duration",
          "type": "uint256"
        },
        {
          "internalType": "uint256",
          "name": "riskScore",
          "type": "uint256"
        }
      ],
      "name": "calculatePremium",
      "outputs": [
        {
          "internalType": "uint256",
          "name": "",
          "type": "uint256"
        }
      ],
      "stateMutability": "pure",
      "type": "function"
    },
    {
      "inputs": [
        {
          "internalType": "uint256",
          "name": "escrowId",
          "type": "uint256"
        }
      ],
      "name": "collectPremium",
      "outputs": [],
      "stateMutability": "payable",
      "type": "function"
    },
    {
      "inputs": [
        {
          "internalType": "uint256",
          "name": "escrowId",
          "type": "uint256"
        },
        {
          "internalType": "uint256",
          "name": "requestedAmount",
          "type": "uint256"
        },
        {
          "internalType": "bytes",
          "name": "evidence",
          "type": "bytes"
        }
      ],
      "name": "fileClaim",
      "outputs": [],
      "stateMutability": "nonpayable",
      "type": "function"
    },
    {
      "inputs": [],
      "name": "getAvailableLiquidity",
      "outputs": [
        {
          "internalType": "uint256",
          "name": "",
          "type": "uint256"
        }
      ],
      "stateMutability": "view",
      "type": "function"
    },
    {
      "inputs": [
        {
          "internalType": "uint256",
          "name": "escrowId",
          "type": "uint256"
        }
      ],
      "name": "getClaim",
      "outputs": [
        {
          "components": [
            {
              "internalType": "uint256",
              "name": "escrowId",
              "type": "uint256"
            },
            {
              "internalType": "address",
              "name": "claimant",
              "type": "address"
            },
            {
              "internalType": "uint256",
              "name": "requestedAmount",
              "type": "uint256"
            },
            {
              "internalType": "uint256",
              "name": "approvedAmount",
              "type": "uint256"
            },
            {
              "internalType": "bool",
              "name": "processed",
              "type": "bool"
            },
            {
              "internalType": "bool",
              "name": "approved",
              "type": "bool"
            },
            {
              "internalType": "uint256",
              "name": "filedAt",
              "type": "uint256"
            },
            {
              "internalType": "bytes",
              "name": "evidence",
              "type": "bytes"
            }
          ],
          "internalType": "struct InsurancePool.Claim",
          "name": "",
          "type": "tuple"
        }
      ],
      "stateMutability": "view",
      "type": "function"
    },
    {
      "inputs": [
        {
          "internalType": "uint256",
          "name": "escrowId",
          "type": "uint256"
        }
      ],
      "name": "getEscrowPremium",
      "outputs": [
        {
          "internalType": "uint256",
          "name": "",
          "type": "uint256"
        }
      ],
      "stateMutability": "view",
      "type": "function"
    },
    {
      "inputs": [],
      "name": "getPoolStats",
      "outputs": [
        {
          "components": [
            {
              "internalType": "uint256",
              "name": "totalCollected",
              "type": "uint256"
            },
            {
              "internalType": "uint256",
              "name": "totalPaidOut",
              "type": "uint256"
            },
            {
              "internalType": "uint256",
              "name": "currentBalance",
              "type": "uint256"
            },
            {
              "internalType": "uint256",
              "name": "reserveRatio",
              "type": "uint256"
            },
            {
              "internalType": "uint256",
              "name": "activeClaims",
              "type": "uint256"
            }
          ],
          "internalType": "struct IInsurancePool.PoolStats",
          "name": "",
          "type": "tuple"
        }
      ],
      "stateMutability": "view",
      "type": "function"
    },
    {
      "inputs": [],
      "name": "owner",
      "outputs": [
        {
          "internalType": "address",
          "name": "",
          "type": "address"
        }
      ],
      "stateMutability": "view",
      "type": "function"
    },
    {
      "inputs": [
        {
          "internalType": "uint256",
          "name": "escrowId",
          "type": "uint256"
        },
        {
          "internalType": "bool",
          "name": "approved",
          "type": "bool"
        },
        {
          "internalType": "uint256",
          "name": "payoutAmount",
          "type": "uint256"
        }
      ],
      "name": "processClaim",
      "outputs": [],
      "stateMutability": "nonpayable",
      "type": "function"
    },
    {
      "inputs": [],
      "name": "renounceOwnership",
      "outputs": [],
      "stateMutability": "nonpayable",
      "type": "function"
    },
    {
      "inputs": [
        {
          "internalType": "address",
          "name": "coreAddress",
          "type": "address"
        }
      ],
      "name": "setAthenyxCore",
      "outputs": [],
      "stateMutability": "nonpayable",
      "type": "function"
    },
    {
      "inputs": [
        {
          "internalType": "address",
          "name": "treasury",
          "type": "address"
        }
      ],
      "name": "setTreasuryAddress",
      "outputs": [],
      "stateMutability": "nonpayable",
      "type": "function"
    },
    {
      "inputs": [
        {
          "internalType": "address",
          "name": "newOwner",
          "type": "address"
        }
      ],
      "name": "transferOwnership",
      "outputs": [],
      "stateMutability": "nonpayable",
      "type": "function"
    },
    {
      "inputs": [],
      "name": "treasuryAddress",
      "outputs": [
        {
          "internalType": "address",
          "name": "",
          "type": "address"
        }
      ],
      "stateMutability": "view",
      "type": "function"
    },
    {
      "inputs": [],
      "name": "withdrawExcessReserves",
      "outputs": [],
      "stateMutability": "nonpayable",
      "type": "function"
    },
    {
      "stateMutability": "payable",
      "type": "receive"
    }
  ],
  "bytecode": "0x608060405234801561001057600080fd5b506040516114b43803806114b483398101604081905261002f9161011b565b6001600055338061005a57604051631e4fbdf760e01b81526000600482015260240160405180910390fd5b610063816100c9565b506001600160a01b03811661008b5760405163cfe2ea6360e01b815260040160405180910390fd5b600b80546001600160a01b0319166001600160a01b03929092169190911790556000600281905560038190556004819055606460055560065561014b565b600180546001600160a01b038381166001600160a01b0319831681179093556040519116919082907f8be0079c531659141344cd1fd0a4f28419497f9722a3daafe3b4186f6b6457e090600090a35050565b60006020828403121561012d57600080fd5b81516001600160a01b038116811461014457600080fd5b9392505050565b61135a8061015a6000396000f3fe60806040526004361061012e5760003560e01c806377e7f51a116100ab578063ae6003e51161006f578063ae6003e51461033f578063bbb851881461035f578063c5f956af146103b6578063d05447ac146103d6578063ee1e4b84146103e9578063f2fde38b1461040957600080fd5b806377e7f51a146102b95780637dfce5e9146102ce5780638da5cb5b146102e35780639b745aec146103155780639e9096dc1461032a57600080fd5b8063503c1a32116100f2578063503c1a321461022c5780635aef2447146102415780635cdab0bc1461026e5780636605bfda14610284578063715018a6146102a457600080fd5b80630287abb514610177578063156f1d74146101b757806324552f33146101d75780633ab979d8146101ec57806349b374cf1461020c57600080fd5b366101725734600260000160008282546101489190610f38565b909155505060048054349190600090610162908490610f38565b909155506101709050610429565b005b600080fd5b34801561018357600080fd5b506101a4610192366004610f51565b60009081526007602052604090205490565b6040519081526020015b60405180910390f35b3480156101c357600080fd5b506101a46101d2366004610f6a565b61045b565b3480156101e357600080fd5b506101a4601481565b3480156101f857600080fd5b50610170610207366004610f96565b6104dd565b34801561021857600080fd5b50610170610227366004610fd3565b6107c2565b34801561023857600080fd5b506101a4603281565b34801561024d57600080fd5b5061026161025c366004610f51565b6109c9565b6040516101ae919061109c565b34801561027a57600080fd5b506101a46103e881565b34801561029057600080fd5b5061017061029f36600461111b565b610b2f565b3480156102b057600080fd5b50610170610b80565b3480156102c557600080fd5b506101a4600a81565b3480156102da57600080fd5b50610170610b92565b3480156102ef57600080fd5b506001546001600160a01b03165b6040516001600160a01b0390911681526020016101ae565b34801561032157600080fd5b506004546101a4565b34801561033657600080fd5b506101a4606481565b34801561034b57600080fd5b50600a546102fd906001600160a01b031681565b34801561036b57600080fd5b50610374610c9f565b6040516101ae9190600060a082019050825182526020830151602083015260408301516040830152606083015160608301526080830151608083015292915050565b3480156103c257600080fd5b50600b546102fd906001600160a01b031681565b6101706103e4366004610f51565b610d06565b3480156103f557600080fd5b5061017061040436600461111b565b610deb565b34801561041557600080fd5b5061017061042436600461111b565b610e3b565b60025460000361043a576064600555565b60025460045461044b90606461114b565b6104559190611162565b6005555b565b600080606461046b600a8761114b565b6104759190611162565b9050600061048662278d0086611162565b905080600003610494575060015b60006104a1856064610f38565b905060006104b26103e8606461114b565b826104bd858761114b565b6104c7919061114b565b6104d19190611162565b98975050505050505050565b600a546001600160a01b03163314610507576040516282b42960e81b815260040160405180910390fd5b61050f610e79565b60008381526009602052604090205460ff1661053e5760405163022af77760e11b815260040160405180910390fd5b6000838152600860205260409020600481015460ff1615610572576040516380497e3b60e01b815260040160405180910390fd5b600481018054841580156101000261ffff1990921691909117600117909155610728576004548211156105c8576004805460405163ce9514f960e01b815291820184905260248201526044015b60405180910390fd5b60038101829055600480548391906000906105e4908490611184565b9091555050600380548391906000906105fe908490610f38565b90915550506006805490600061061383611197565b909155505060018101546040516000916001600160a01b03169084908381818185875af1925050503d8060008114610667576040519150601f19603f3d011682016040523d82523d6000602084013e61066c565b606091505b505090508061068e576040516312171d8360e31b815260040160405180910390fd5b610696610429565b60018201546040518481526001600160a01b039091169086907f0b582d60859bb6c5e17bb049bc83044c0c8dab7d0a026b4e3a4a2966d8926de59060200160405180910390a360018201546040518481526001600160a01b039091169086907fdc699d0c4948c96a3265f3c8997ad793f263f495e1809c0e2a2926c4da7fc7979060200160405180910390a3506107b2565b6006805490600061073883611197565b909155505060018101546040516001600160a01b039091169085907f4682ef87b3db3f66192d1dc1efd5d2a314cdd9c61e14219f671c03e6f507823a906107a990602080825260169082015275436c61696d2072656a656374656420627920636f726560501b604082015260600190565b60405180910390a35b506107bd6001600055565b505050565b60008481526009602052604090205460ff16156107f2576040516380497e3b60e01b815260040160405180910390fd5b826000036108135760405163843ce46b60e01b815260040160405180910390fd5b600454831115610841576004805460405163ce9514f960e01b815291820185905260248201526044016105bf565b604051806101000160405280858152602001336001600160a01b031681526020018481526020016000815260200160001515815260200160001515815260200142815260200183838080601f01602080910402602001604051908101604052809392919081815260200183838082843760009201829052509390945250508681526008602090815260409182902084518155908401516001820180546001600160a01b039092166001600160a01b031990921691909117905590830151600282015560608301516003820155608083015160048201805460a086015115156101000261ff00199315159390931661ffff199091161791909117905560c0830151600582015560e0830151909150600682019061095d908261124c565b5050506000848152600960205260408120805460ff1916600117905560068054916109878361130b565b9091555050604051838152339085907f4da691d72ff2d837d51477b0b23e1fcde537dc9bf3181e20249086f024b348bd9060200160405180910390a350505050565b610a1e6040518061010001604052806000815260200160006001600160a01b03168152602001600081526020016000815260200160001515815260200160001515815260200160008152602001606081525090565b600082815260086020908152604091829020825161010080820185528254825260018301546001600160a01b03169382019390935260028201549381019390935260038101546060840152600481015460ff80821615156080860152929004909116151560a0830152600581015460c083015260068101805460e084019190610aa6906111c4565b80601f0160208091040260200160405190810160405280929190818152602001828054610ad2906111c4565b8015610b1f5780601f10610af457610100808354040283529160200191610b1f565b820191906000526020600020905b815481529060010190602001808311610b0257829003601f168201915b5050505050815250509050919050565b610b37610ea3565b6001600160a01b038116610b5e5760405163cfe2ea6360e01b815260040160405180910390fd5b600b80546001600160a01b0319166001600160a01b0392909216919091179055565b610b88610ea3565b6104596000610ed0565b610b9a610ea3565b610ba2610e79565b600060646014600260000154610bb8919061114b565b610bc29190611162565b905080600280015411610bf25760405163ce9514f960e01b815260006004820181905260248201526044016105bf565b600454600090610c03908390611184565b905080600280016000828254610c199190611184565b9091555050600b546040516000916001600160a01b03169083908381818185875af1925050503d8060008114610c6b576040519150601f19603f3d011682016040523d82523d6000602084013e610c70565b606091505b5050905080610c92576040516312171d8360e31b815260040160405180910390fd5b5050506104596001600055565b610cd16040518060a0016040528060008152602001600081526020016000815260200160008152602001600081525090565b506040805160a08101825260025481526003546020820152600454918101919091526005546060820152600654608082015290565b600a546001600160a01b03163314610d30576040516282b42960e81b815260040160405180910390fd5b34600003610d515760405163843ce46b60e01b815260040160405180910390fd5b60008181526007602052604081208054349290610d6f908490610f38565b909155505060028054349190600090610d89908490610f38565b909155505060048054349190600090610da3908490610f38565b90915550610db19050610429565b604051348152339082907fe05838ac5fc3ca252998178856d38ba04c002631c18c206e50d03df2dbc3bd6c9060200160405180910390a350565b610df3610ea3565b6001600160a01b038116610e19576040516282b42960e81b815260040160405180910390fd5b600a80546001600160a01b0319166001600160a01b0392909216919091179055565b610e43610ea3565b6001600160a01b038116610e6d57604051631e4fbdf760e01b8152600060048201526024016105bf565b610e7681610ed0565b50565b600260005403610e9c57604051633ee5aeb560e01b815260040160405180910390fd5b6002600055565b6001546001600160a01b031633146104595760405163118cdaa760e01b81523360048201526024016105bf565b600180546001600160a01b038381166001600160a01b0319831681179093556040519116919082907f8be0079c531659141344cd1fd0a4f28419497f9722a3daafe3b4186f6b6457e090600090a35050565b634e487b7160e01b600052601160045260246000fd5b80820180821115610f4b57610f4b610f22565b92915050565b600060208284031215610f6357600080fd5b5035919050565b600080600060608486031215610f7f57600080fd5b505081359360208301359350604090920135919050565b600080600060608486031215610fab57600080fd5b8335925060208401358015158114610fc257600080fd5b929592945050506040919091013590565b60008060008060608587031215610fe957600080fd5b8435935060208501359250604085013567ffffffffffffffff81111561100e57600080fd5b8501601f8101871361101f57600080fd5b803567ffffffffffffffff81111561103657600080fd5b87602082840101111561104857600080fd5b949793965060200194505050565b6000815180845260005b8181101561107c57602081850181015186830182015201611060565b506000602082860101526020601f19601f83011685010191505092915050565b602081528151602082015260018060a01b03602083015116604082015260408201516060820152606082015160808201526080820151151560a0820152600060a08301516110ee60c084018215159052565b5060c083015160e083015260e083015161010080840152611113610120840182611056565b949350505050565b60006020828403121561112d57600080fd5b81356001600160a01b038116811461114457600080fd5b9392505050565b8082028115828204841417610f4b57610f4b610f22565b60008261117f57634e487b7160e01b600052601260045260246000fd5b500490565b81810381811115610f4b57610f4b610f22565b6000816111a6576111a6610f22565b506000190190565b634e487b7160e01b600052604160045260246000fd5b600181811c908216806111d857607f821691505b6020821081036111f857634e487b7160e01b600052602260045260246000fd5b50919050565b601f8211156107bd57806000526020600020601f840160051c810160208510156112255750805b601f840160051c820191505b818110156112455760008155600101611231565b5050505050565b815167ffffffffffffffff811115611266576112666111ae565b61127a8161127484546111c4565b846111fe565b6020601f8211600181146112ae57600083156112965750848201515b600019600385901b1c1916600184901b178455611245565b600084815260208120601f198516915b828110156112de57878501518255602094850194600190920191016112be565b50848210156112fc5786840151600019600387901b60f8161c191681555b50505050600190811b01905550565b60006001820161131d5761131d610f22565b506001019056fea26469706673582212204fbfa4ecd9b795c5cd778342b72b47f2625f4ad7ae869abe52ab6e7d8ecfb55064736f6c634300081e0033",
  "linkReferences": {},
  "deployedLinkReferences": {}
}