{"contracts/InsurancePool.sol":{"InsurancePool":{"abi":[{"inputs":[{"internalType":"address","name":"treasury","type":"address"}],"stateMutability":"nonpayable","type":"constructor"},{"inputs":[],"name":"ClaimAlreadyExists","type":"error"},{"inputs":[],"name":"ClaimNotFound","type":"error"},{"inputs":[{"internalType":"uint256","name":"requested","type":"uint256"},{"internalType":"uint256","name":"available","type":"uint256"}],"name":"InsufficientPoolBalance","type":"error"},{"inputs":[],"name":"InvalidClaimAmount","type":"error"},{"inputs":[],"name":"InvalidTreasuryAddress","type":"error"},{"inputs":[{"internalType":"address","name":"owner","type":"address"}],"name":"OwnableInvalidOwner","type":"error"},{"inputs":[{"internalType":"address","name":"account","type":"address"}],"name":"OwnableUnauthorizedAccount","type":"error"},{"inputs":[],"name":"ReentrancyGuardReentrantCall","type":"error"},{"inputs":[],"name":"TransferFailed","type":"error"},{"inputs":[],"name":"Unauthorized","type":"error"},{"inputs":[],"name":"UnauthorizedClaim","type":"error"},{"anonymous":false,"inputs":[{"indexed":true,"internalType":"uint256","name":"escrowId","type":"uint256"},{"indexed":true,"internalType":"address","name":"claimant","type":"address"},{"indexed":false,"internalType":"uint256","name":"approvedAmount","type":"uint256"}],"name":"ClaimApproved","type":"event"},{"anonymous":false,"inputs":[{"indexed":true,"internalType":"uint256","name":"escrowId","type":"uint256"},{"indexed":true,"internalType":"address","name":"claimant","type":"address"},{"indexed":false,"internalType":"uint256","name":"requestedAmount","type":"uint256"}],"name":"ClaimFiled","type":"event"},{"anonymous":false,"inputs":[{"indexed":true,"internalType":"uint256","name":"escrowId","type":"uint256"},{"indexed":true,"internalType":"address","name":"claimant","type":"address"},{"indexed":false,"internalType":"string","name":"reason","type":"string"}],"name":"ClaimRejected","type":"event"},{"anonymous":false,"inputs":[{"indexed":true,"internalType":"address","name":"previousOwner","type":"address"},{"indexed":true,"internalType":"address","name":"newOwner","type":"address"}],"name":"OwnershipTransferred","type":"event"},{"anonymous":false,"inputs":[{"indexed":true,"internalType":"uint256","name":"escrowId","type":"uint256"},{"indexed":true,"internalType":"address","name":"recipient","type":"address"},{"indexed":false,"internalType":"uint256","name":"amount","type":"uint256"}],"name":"PayoutProcessed","type":"event"},{"anonymous":false,"inputs":[{"indexed":true,"internalType":"uint256","name":"escrowId","type":"uint256"},{"indexed":false,"internalType":"uint256","name":"amount","type":"uint256"},{"indexed":true,"internalType":"address","name":"payer","type":"address"}],"name":"PremiumCollected","type":"event"},{"inputs":[],"name":"FULL_COLLATERAL_PAYOUT","outputs":[{"internalType":"uint256","name":"","type":"uint256"}],"stateMutability":"view","type":"function"},{"inputs":[],"name":"MIN_RESERVE_RATIO","outputs":[{"internalType":"uint256","name":"","type":"uint256"}],"stateMutability":"view","type":"function"},{"inputs":[],"name":"PARTIAL_COLLATERAL_PAYOUT","outputs":[{"internalType":"uint256","name":"","type":"uint256"}],"stateMutability":"view","type":"function"},{"inputs":[],"name":"PREMIUM_PERCENTAGE","outputs":[{"internalType":"uint256","name":"","type":"uint256"}],"stateMutability":"view","type":"function"},{"inputs":[],"name":"PREMIUM_RATE_BASE","outputs":[{"internalType":"uint256","name":"","type":"uint256"}],"stateMutability":"view","type":"function"},{"inputs":[],"name":"athenyxCore","outputs":[{"internalType":"address","name":"","type":"address"}],"stateMutability":"view","type":"function"},{"inputs":[{"internalType":"uint256","name":"loanAmount","type":"uint256"},{"internalType":"uint256","name":"duration","type":"uint256"},{"internalType":"uint256","name":"riskScore","type":"uint256"}],"name":"calculatePremium","outputs":[{"internalType":"uint256","name":"","type":"uint256"}],"stateMutability":"pure","type":"function"},{"inputs":[{"internalType":"uint256","name":"escrowId","type":"uint256"}],"name":"collectPremium","outputs":[],"stateMutability":"payable","type":"function"},{"inputs":[{"internalType":"uint256","name":"escrowId","type":"uint256"},{"internalType":"uint256","name":"requestedAmount","type":"uint256"},{"internalType":"bytes","name":"evidence","type":"bytes"}],"name":"fileClaim","outputs":[],"stateMutability":"nonpayable","type":"function"},{"inputs":[],"name":"getAvailableLiquidity","outputs":[{"internalType":"uint256","name":"","type":"uint256"}],"stateMutability":"view","type":"function"},{"inputs":[{"internalType":"uint256","name":"escrowId","type":"uint256"}],"name":"getClaim","outputs":[{"components":[{"internalType":"uint256","name":"escrowId","type":"uint256"},{"internalType":"address","name":"claimant","type":"address"},{"internalType":"uint256","name":"requestedAmount","type":"uint256"},{"internalType":"uint256","name":"approvedAmount","type":"uint256"},{"internalType":"bool","name":"processed","type":"bool"},{"internalType":"bool","name":"approved","type":"bool"},{"internalType":"uint256","name":"filedAt","type":"uint256"},{"internalType":"bytes","name":"evidence","type":"bytes"}],"internalType":"struct InsurancePool.Claim","name":"","type":"tuple"}],"stateMutability":"view","type":"function"},{"inputs":[{"internalType":"uint256","name":"escrowId","type":"uint256"}],"name":"getEscrowPremium","outputs":[{"internalType":"uint256","name":"","type":"uint256"}],"stateMutability":"view","type":"function"},{"inputs":[],"name":"getPoolStats","outputs":[{"components":[{"internalType":"uint256","name":"totalCollected","type":"uint256"},{"internalType":"uint256","name":"totalPaidOut","type":"uint256"},{"internalType":"uint256","name":"currentBalance","type":"uint256"},{"internalType":"uint256","name":"reserveRatio","type":"uint256"},{"internalType":"uint256","name":"activeClaims","type":"uint256"}],"internalType":"struct IInsurancePool.PoolStats","name":"","type":"tuple"}],"stateMutability":"view","type":"function"},{"inputs":[],"name":"owner","outputs":[{"internalType":"address","name":"","type":"address"}],"stateMutability":"view","type":"function"},{"inputs":[{"internalType":"uint256","name":"escrowId","type":"uint256"},{"internalType":"bool","name":"approved","type":"bool"},{"internalType":"uint256","name":"payoutAmount","type":"uint256"}],"name":"processClaim","outputs":[],"stateMutability":"nonpayable","type":"function"},{"inputs":[],"name":"renounceOwnership","outputs":[],"stateMutability":"nonpayable","type":"function"},{"inputs":[{"internalType":"address","name":"coreAddress","type":"address"}],"name":"setAthenyxCore","outputs":[],"stateMutability":"nonpayable","type":"function"},{"inputs":[{"internalType":"address","name":"treasury","type":"address"}],"name":"setTreasuryAddress","outputs":[],"stateMutability":"nonpayable","type":"function"},{"inputs":[{"internalType":"address","name":"newOwner","type":"address"}],"name":"transferOwnership","outputs":[],"stateMutability":"nonpayable","type":"function"},{"inputs":[],"name":"treasuryAddress","outputs":[{"internalType":"address","name":"","type":"address"}],"stateMutability":"view","type":"function"},{"inputs":[],"name":"withdrawExcessReserves","outputs":[],"stateMutability":"nonpayable","type":"function"},{"stateMutability":"payable","type":"receive"}],"evm":{"bytecode":{"linkReferences":{},"object":"608060405234801561001057600080fd5b506040516114b43803806114b483398101604081905261002f9161011b565b6001600055338061005a57604051631e4fbdf760e01b81526000600482015260240160405180910390fd5b610063816100c9565b506001600160a01b03811661008b5760405163cfe2ea6360e01b815260040160405180910390fd5b600b80546001600160a01b0319166001600160a01b03929092169190911790556000600281905560038190556004819055606460055560065561014b565b600180546001600160a01b038381166001600160a01b0319831681179093556040519116919082907f8be0079c531659141344cd1fd0a4f28419497f9722a3daafe3b4186f6b6457e090600090a35050565b60006020828403121561012d57600080fd5b81516001600160a01b038116811461014457600080fd5b9392505050565b61135a8061015a6000396000f3fe60806040526004361061012e5760003560e01c806377e7f51a116100ab578063ae6003e51161006f578063ae6003e51461033f578063bbb851881461035f578063c5f956af146103b6578063d05447ac146103d6578063ee1e4b84146103e9578063f2fde38b1461040957600080fd5b806377e7f51a146102b95780637dfce5e9146102ce5780638da5cb5b146102e35780639b745aec146103155780639e9096dc1461032a57600080fd5b8063503c1a32116100f2578063503c1a321461022c5780635aef2447146102415780635cdab0bc1461026e5780636605bfda14610284578063715018a6146102a457600080fd5b80630287abb514610177578063156f1d74146101b757806324552f33146101d75780633ab979d8146101ec57806349b374cf1461020c57600080fd5b366101725734600260000160008282546101489190610f38565b909155505060048054349190600090610162908490610f38565b909155506101709050610429565b005b600080fd5b34801561018357600080fd5b506101a4610192366004610f51565b60009081526007602052604090205490565b6040519081526020015b60405180910390f35b3480156101c357600080fd5b506101a46101d2366004610f6a565b61045b565b3480156101e357600080fd5b506101a4601481565b3480156101f857600080fd5b50610170610207366004610f96565b6104dd565b34801561021857600080fd5b50610170610227366004610fd3565b6107c2565b34801561023857600080fd5b506101a4603281565b34801561024d57600080fd5b5061026161025c366004610f51565b6109c9565b6040516101ae919061109c565b34801561027a57600080fd5b506101a46103e881565b34801561029057600080fd5b5061017061029f36600461111b565b610b2f565b3480156102b057600080fd5b50610170610b80565b3480156102c557600080fd5b506101a4600a81565b3480156102da57600080fd5b50610170610b92565b3480156102ef57600080fd5b506001546001600160a01b03165b6040516001600160a01b0390911681526020016101ae565b34801561032157600080fd5b506004546101a4565b34801561033657600080fd5b506101a4606481565b34801561034b57600080fd5b50600a546102fd906001600160a01b031681565b34801561036b57600080fd5b50610374610c9f565b6040516101ae9190600060a082019050825182526020830151602083015260408301516040830152606083015160608301526080830151608083015292915050565b3480156103c257600080fd5b50600b546102fd906001600160a01b031681565b6101706103e4366004610f51565b610d06565b3480156103f557600080fd5b5061017061040436600461111b565b610deb565b34801561041557600080fd5b5061017061042436600461111b565b610e3b565b60025460000361043a576064600555565b60025460045461044b90606461114b565b6104559190611162565b6005555b565b600080606461046b600a8761114b565b6104759190611162565b9050600061048662278d0086611162565b905080600003610494575060015b60006104a1856064610f38565b905060006104b26103e8606461114b565b826104bd858761114b565b6104c7919061114b565b6104d19190611162565b98975050505050505050565b600a546001600160a01b03163314610507576040516282b42960e81b815260040160405180910390fd5b61050f610e79565b60008381526009602052604090205460ff1661053e5760405163022af77760e11b815260040160405180910390fd5b6000838152600860205260409020600481015460ff1615610572576040516380497e3b60e01b815260040160405180910390fd5b600481018054841580156101000261ffff1990921691909117600117909155610728576004548211156105c8576004805460405163ce9514f960e01b815291820184905260248201526044015b60405180910390fd5b60038101829055600480548391906000906105e4908490611184565b9091555050600380548391906000906105fe908490610f38565b90915550506006805490600061061383611197565b909155505060018101546040516000916001600160a01b03169084908381818185875af1925050503d8060008114610667576040519150601f19603f3d011682016040523d82523d6000602084013e61066c565b606091505b505090508061068e576040516312171d8360e31b815260040160405180910390fd5b610696610429565b60018201546040518481526001600160a01b039091169086907f0b582d60859bb6c5e17bb049bc83044c0c8dab7d0a026b4e3a4a2966d8926de59060200160405180910390a360018201546040518481526001600160a01b039091169086907fdc699d0c4948c96a3265f3c8997ad793f263f495e1809c0e2a2926c4da7fc7979060200160405180910390a3506107b2565b6006805490600061073883611197565b909155505060018101546040516001600160a01b039091169085907f4682ef87b3db3f66192d1dc1efd5d2a314cdd9c61e14219f671c03e6f507823a906107a990602080825260169082015275436c61696d2072656a656374656420627920636f726560501b604082015260600190565b60405180910390a35b506107bd6001600055565b505050565b60008481526009602052604090205460ff16156107f2576040516380497e3b60e01b815260040160405180910390fd5b826000036108135760405163843ce46b60e01b815260040160405180910390fd5b600454831115610841576004805460405163ce9514f960e01b815291820185905260248201526044016105bf565b604051806101000160405280858152602001336001600160a01b031681526020018481526020016000815260200160001515815260200160001515815260200142815260200183838080601f01602080910402602001604051908101604052809392919081815260200183838082843760009201829052509390945250508681526008602090815260409182902084518155908401516001820180546001600160a01b039092166001600160a01b031990921691909117905590830151600282015560608301516003820155608083015160048201805460a086015115156101000261ff00199315159390931661ffff199091161791909117905560c0830151600582015560e0830151909150600682019061095d908261124c565b5050506000848152600960205260408120805460ff1916600117905560068054916109878361130b565b9091555050604051838152339085907f4da691d72ff2d837d51477b0b23e1fcde537dc9bf3181e20249086f024b348bd9060200160405180910390a350505050565b610a1e6040518061010001604052806000815260200160006001600160a01b03168152602001600081526020016000815260200160001515815260200160001515815260200160008152602001606081525090565b600082815260086020908152604091829020825161010080820185528254825260018301546001600160a01b03169382019390935260028201549381019390935260038101546060840152600481015460ff80821615156080860152929004909116151560a0830152600581015460c083015260068101805460e084019190610aa6906111c4565b80601f0160208091040260200160405190810160405280929190818152602001828054610ad2906111c4565b8015610b1f5780601f10610af457610100808354040283529160200191610b1f565b820191906000526020600020905b815481529060010190602001808311610b0257829003601f168201915b5050505050815250509050919050565b610b37610ea3565b6001600160a01b038116610b5e5760405163cfe2ea6360e01b815260040160405180910390fd5b600b80546001600160a01b0319166001600160a01b0392909216919091179055565b610b88610ea3565b6104596000610ed0565b610b9a610ea3565b610ba2610e79565b600060646014600260000154610bb8919061114b565b610bc29190611162565b905080600280015411610bf25760405163ce9514f960e01b815260006004820181905260248201526044016105bf565b600454600090610c03908390611184565b905080600280016000828254610c199190611184565b9091555050600b546040516000916001600160a01b03169083908381818185875af1925050503d8060008114610c6b576040519150601f19603f3d011682016040523d82523d6000602084013e610c70565b606091505b5050905080610c92576040516312171d8360e31b815260040160405180910390fd5b5050506104596001600055565b610cd16040518060a0016040528060008152602001600081526020016000815260200160008152602001600081525090565b506040805160a08101825260025481526003546020820152600454918101919091526005546060820152600654608082015290565b600a546001600160a01b03163314610d30576040516282b42960e81b815260040160405180910390fd5b34600003610d515760405163843ce46b60e01b815260040160405180910390fd5b60008181526007602052604081208054349290610d6f908490610f38565b909155505060028054349190600090610d89908490610f38565b909155505060048054349190600090610da3908490610f38565b90915550610db19050610429565b604051348152339082907fe05838ac5fc3ca252998178856d38ba04c002631c18c206e50d03df2dbc3bd6c9060200160405180910390a350565b610df3610ea3565b6001600160a01b038116610e19576040516282b42960e81b815260040160405180910390fd5b600a80546001600160a01b0319166001600160a01b0392909216919091179055565b610e43610ea3565b6001600160a01b038116610e6d57604051631e4fbdf760e01b8152600060048201526024016105bf565b610e7681610ed0565b50565b600260005403610e9c57604051633ee5aeb560e01b815260040160405180910390fd5b6002600055565b6001546001600160a01b031633146104595760405163118cdaa760e01b81523360048201526024016105bf565b600180546001600160a01b038381166001600160a01b0319831681179093556040519116919082907f8be0079c531659141344cd1fd0a4f28419497f9722a3daafe3b4186f6b6457e090600090a35050565b634e487b7160e01b600052601160045260246000fd5b80820180821115610f4b57610f4b610f22565b92915050565b600060208284031215610f6357600080fd5b5035919050565b600080600060608486031215610f7f57600080fd5b505081359360208301359350604090920135919050565b600080600060608486031215610fab57600080fd5b8335925060208401358015158114610fc257600080fd5b929592945050506040919091013590565b60008060008060608587031215610fe957600080fd5b8435935060208501359250604085013567ffffffffffffffff81111561100e57600080fd5b8501601f8101871361101f57600080fd5b803567ffffffffffffffff81111561103657600080fd5b87602082840101111561104857600080fd5b949793965060200194505050565b6000815180845260005b8181101561107c57602081850181015186830182015201611060565b506000602082860101526020601f19601f83011685010191505092915050565b602081528151602082015260018060a01b03602083015116604082015260408201516060820152606082015160808201526080820151151560a0820152600060a08301516110ee60c084018215159052565b5060c083015160e083015260e083015161010080840152611113610120840182611056565b949350505050565b60006020828403121561112d57600080fd5b81356001600160a01b038116811461114457600080fd5b9392505050565b8082028115828204841417610f4b57610f4b610f22565b60008261117f57634e487b7160e01b600052601260045260246000fd5b500490565b81810381811115610f4b57610f4b610f22565b6000816111a6576111a6610f22565b506000190190565b634e487b7160e01b600052604160045260246000fd5b600181811c908216806111d857607f821691505b6020821081036111f857634e487b7160e01b600052602260045260246000fd5b50919050565b601f8211156107bd57806000526020600020601f840160051c810160208510156112255750805b601f840160051c820191505b818110156112455760008155600101611231565b5050505050565b815167ffffffffffffffff811115611266576112666111ae565b61127a8161127484546111c4565b846111fe565b6020601f8211600181146112ae57600083156112965750848201515b600019600385901b1c1916600184901b178455611245565b600084815260208120601f198516915b828110156112de57878501518255602094850194600190920191016112be565b50848210156112fc5786840151600019600387901b60f8161c191681555b50505050600190811b01905550565b60006001820161131d5761131d610f22565b506001019056fea26469706673582212204fbfa4ecd9b795c5cd778342b72b47f2625f4ad7ae869abe52ab6e7d8ecfb55064736f6c634300081e0033","opcodes":"PUSH1 0x80 PUSH1 0x40 MSTORE CALLVALUE DUP1 ISZERO PUSH2 0x10 JUMPI PUSH1 0x0 DUP1 REVERT JUMPDEST POP PUSH1 0x40 MLOAD PUSH2 0x14B4 CODESIZE SUB DUP1 PUSH2 0x14B4 DUP4 CODECOPY DUP2 ADD PUSH1 0x40 DUP2 SWAP1 MSTORE PUSH2 0x2F SWAP2 PUSH2 0x11B JUMP JUMPDEST PUSH1 0x1 PUSH1 0x0 SSTORE CALLER DUP1 PUSH2 0x5A JUMPI PUSH1 0x40 MLOAD PUSH4 0x1E4FBDF7 PUSH1 0xE0 SHL DUP2 MSTORE PUSH1 0x0 PUSH1 0x4 DUP3 ADD MSTORE PUSH1 0x24 ADD PUSH1 0x40 MLOAD DUP1 SWAP2 SUB SWAP1 REVERT JUMPDEST PUSH2 0x63 DUP2 PUSH2 0xC9 JUMP JUMPDEST POP PUSH1 0x1 PUSH1 0x1 PUSH1 0xA0 SHL SUB DUP2 AND PUSH2 0x8B JUMPI PUSH1 0x40 MLOAD PUSH4 0xCFE2EA63 PUSH1 0xE0 SHL DUP2 MSTORE PUSH1 0x4 ADD PUSH1 0x40 MLOAD DUP1 SWAP2 SUB SWAP1 REVERT JUMPDEST PUSH1 0xB DUP1 SLOAD PUSH1 0x1 PUSH1 0x1 PUSH1 0xA0 SHL SUB NOT AND PUSH1 0x1 PUSH1 0x1 PUSH1 0xA0 SHL SUB SWAP3 SWAP1 SWAP3 AND SWAP2 SWAP1 SWAP2 OR SWAP1 SSTORE PUSH1 0x0 PUSH1 0x2 DUP2 SWAP1 SSTORE PUSH1 0x3 DUP2 SWAP1 SSTORE PUSH1 0x4 DUP2 SWAP1 SSTORE PUSH1 0x64 PUSH1 0x5 SSTORE PUSH1 0x6 SSTORE PUSH2 0x14B JUMP JUMPDEST PUSH1 0x1 DUP1 SLOAD PUSH1 0x1 PUSH1 0x1 PUSH1 0xA0 SHL SUB DUP4 DUP2 AND PUSH1 0x1 PUSH1 0x1 PUSH1 0xA0 SHL SUB NOT DUP4 AND DUP2 OR SWAP1 SWAP4 SSTORE PUSH1 0x40 MLOAD SWAP2 AND SWAP2 SWAP1 DUP3 SWAP1 PUSH32 0x8BE0079C531659141344CD1FD0A4F28419497F9722A3DAAFE3B4186F6B6457E0 SWAP1 PUSH1 0x0 SWAP1 LOG3 POP POP JUMP JUMPDEST PUSH1 0x0 PUSH1 0x20 DUP3 DUP5 SUB SLT ISZERO PUSH2 0x12D JUMPI PUSH1 0x0 DUP1 REVERT JUMPDEST DUP2 MLOAD PUSH1 0x1 PUSH1 0x1 PUSH1 0xA0 SHL SUB DUP2 AND DUP2 EQ PUSH2 0x144 JUMPI PUSH1 0x0 DUP1 REVERT JUMPDEST SWAP4 SWAP3 POP POP POP JUMP JUMPDEST PUSH2 0x135A DUP1 PUSH2 0x15A PUSH1 0x0 CODECOPY PUSH1 0x0 RETURN INVALID PUSH1 0x80 PUSH1 0x40 MSTORE PUSH1 0x4 CALLDATASIZE LT PUSH2 0x12E JUMPI PUSH1 0x0 CALLDATALOAD PUSH1 0xE0 SHR DUP1 PUSH4 0x77E7F51A GT PUSH2 0xAB JUMPI DUP1 PUSH4 0xAE6003E5 GT PUSH2 0x6F JUMPI DUP1 PUSH4 0xAE6003E5 EQ PUSH2 0x33F JUMPI DUP1 PUSH4 0xBBB85188 EQ PUSH2 0x35F JUMPI DUP1 PUSH4 0xC5F956AF EQ PUSH2 0x3B6 JUMPI DUP1 PUSH4 0xD05447AC EQ PUSH2 0x3D6 JUMPI DUP1 PUSH4 0xEE1E4B84 EQ PUSH2 0x3E9 JUMPI DUP1 PUSH4 0xF2FDE38B EQ PUSH2 0x409 JUMPI PUSH1 0x0 DUP1 REVERT JUMPDEST DUP1 PUSH4 0x77E7F51A EQ PUSH2 0x2B9 JUMPI DUP1 PUSH4 0x7DFCE5E9 EQ PUSH2 0x2CE JUMPI DUP1 PUSH4 0x8DA5CB5B EQ PUSH2 0x2E3 JUMPI DUP1 PUSH4 0x9B745AEC EQ PUSH2 0x315 JUMPI DUP1 PUSH4 0x9E9096DC EQ PUSH2 0x32A JUMPI PUSH1 0x0 DUP1 REVERT JUMPDEST DUP1 PUSH4 0x503C1A32 GT PUSH2 0xF2 JUMPI DUP1 PUSH4 0x503C1A32 EQ PUSH2 0x22C JUMPI DUP1 PUSH4 0x5AEF2447 EQ PUSH2 0x241 JUMPI DUP1 PUSH4 0x5CDAB0BC EQ PUSH2 0x26E JUMPI DUP1 PUSH4 0x6605BFDA EQ PUSH2 0x284 JUMPI DUP1 PUSH4 0x715018A6 EQ PUSH2 0x2A4 JUMPI PUSH1 0x0 DUP1 REVERT JUMPDEST DUP1 PUSH4 0x287ABB5 EQ PUSH2 0x177 JUMPI DUP1 PUSH4 0x156F1D74 EQ PUSH2 0x1B7 JUMPI DUP1 PUSH4 0x24552F33 EQ PUSH2 0x1D7 JUMPI DUP1 PUSH4 0x3AB979D8 EQ PUSH2 0x1EC JUMPI DUP1 PUSH4 0x49B374CF EQ PUSH2 0x20C JUMPI PUSH1 0x0 DUP1 REVERT JUMPDEST CALLDATASIZE PUSH2 0x172 JUMPI CALLVALUE PUSH1 0x2 PUSH1 0x0 ADD PUSH1 0x0 DUP3 DUP3 SLOAD PUSH2 0x148 SWAP2 SWAP1 PUSH2 0xF38 JUMP JUMPDEST SWAP1 SWAP2 SSTORE POP POP PUSH1 0x4 DUP1 SLOAD CALLVALUE SWAP2 SWAP1 PUSH1 0x0 SWAP1 PUSH2 0x162 SWAP1 DUP5 SWAP1 PUSH2 0xF38 JUMP JUMPDEST SWAP1 SWAP2 SSTORE POP PUSH2 0x170 SWAP1 POP PUSH2 0x429 JUMP JUMPDEST STOP JUMPDEST PUSH1 0x0 DUP1 REVERT JUMPDEST CALLVALUE DUP1 ISZERO PUSH2 0x183 JUMPI PUSH1 0x0 DUP1 REVERT JUMPDEST POP PUSH2 0x1A4 PUSH2 0x192 CALLDATASIZE PUSH1 0x4 PUSH2 0xF51 JUMP JUMPDEST PUSH1 0x0 SWAP1 DUP2 MSTORE PUSH1 0x7 PUSH1 0x20 MSTORE PUSH1 0x40 SWAP1 KECCAK256 SLOAD SWAP1 JUMP JUMPDEST PUSH1 0x40 MLOAD SWAP1 DUP2 MSTORE PUSH1 0x20 ADD JUMPDEST PUSH1 0x40 MLOAD DUP1 SWAP2 SUB SWAP1 RETURN JUMPDEST CALLVALUE DUP1 ISZERO PUSH2 0x1C3 JUMPI PUSH1 0x0 DUP1 REVERT JUMPDEST POP PUSH2 0x1A4 PUSH2 0x1D2 CALLDATASIZE PUSH1 0x4 PUSH2 0xF6A JUMP JUMPDEST PUSH2 0x45B JUMP JUMPDEST CALLVALUE DUP1 ISZERO PUSH2 0x1E3 JUMPI PUSH1 0x0 DUP1 REVERT JUMPDEST POP PUSH2 0x1A4 PUSH1 0x14 DUP2 JUMP JUMPDEST CALLVALUE DUP1 ISZERO PUSH2 0x1F8 JUMPI PUSH1 0x0 DUP1 REVERT JUMPDEST POP PUSH2 0x170 PUSH2 0x207 CALLDATASIZE PUSH1 0x4 PUSH2 0xF96 JUMP JUMPDEST PUSH2 0x4DD JUMP JUMPDEST CALLVALUE DUP1 ISZERO PUSH2 0x218 JUMPI PUSH1 0x0 DUP1 REVERT JUMPDEST POP PUSH2 0x170 PUSH2 0x227 CALLDATASIZE PUSH1 0x4 PUSH2 0xFD3 JUMP JUMPDEST PUSH2 0x7C2 JUMP JUMPDEST CALLVALUE DUP1 ISZERO PUSH2 0x238 JUMPI PUSH1 0x0 DUP1 REVERT JUMPDEST POP PUSH2 0x1A4 PUSH1 0x32 DUP2 JUMP JUMPDEST CALLVALUE DUP1 ISZERO PUSH2 0x24D JUMPI PUSH1 0x0 DUP1 REVERT JUMPDEST POP PUSH2 0x261 PUSH2 0x25C CALLDATASIZE PUSH1 0x4 PUSH2 0xF51 JUMP JUMPDEST PUSH2 0x9C9 JUMP JUMPDEST PUSH1 0x40 MLOAD PUSH2 0x1AE SWAP2 SWAP1 PUSH2 0x109C JUMP JUMPDEST CALLVALUE DUP1 ISZERO PUSH2 0x27A JUMPI PUSH1 0x0 DUP1 REVERT JUMPDEST POP PUSH2 0x1A4 PUSH2 0x3E8 DUP2 JUMP JUMPDEST CALLVALUE DUP1 ISZERO PUSH2 0x290 JUMPI PUSH1 0x0 DUP1 REVERT JUMPDEST POP PUSH2 0x170 PUSH2 0x29F CALLDATASIZE PUSH1 0x4 PUSH2 0x111B JUMP JUMPDEST PUSH2 0xB2F JUMP JUMPDEST CALLVALUE DUP1 ISZERO PUSH2 0x2B0 JUMPI PUSH1 0x0 DUP1 REVERT JUMPDEST POP PUSH2 0x170 PUSH2 0xB80 JUMP JUMPDEST CALLVALUE DUP1 ISZERO PUSH2 0x2C5 JUMPI PUSH1 0x0 DUP1 REVERT JUMPDEST POP PUSH2 0x1A4 PUSH1 0xA DUP2 JUMP JUMPDEST CALLVALUE DUP1 ISZERO PUSH2 0x2DA JUMPI PUSH1 0x0 DUP1 REVERT JUMPDEST POP PUSH2 0x170 PUSH2 0xB92 JUMP JUMPDEST CALLVALUE DUP1 ISZERO PUSH2 0x2EF JUMPI PUSH1 0x0 DUP1 REVERT JUMPDEST POP PUSH1 0x1 SLOAD PUSH1 0x1 PUSH1 0x1 PUSH1 0xA0 SHL SUB AND JUMPDEST PUSH1 0x40 MLOAD PUSH1 0x1 PUSH1 0x1 PUSH1 0xA0 SHL SUB SWAP1 SWAP2 AND DUP2 MSTORE PUSH1 0x20 ADD PUSH2 0x1AE JUMP JUMPDEST CALLVALUE DUP1 ISZERO PUSH2 0x321 JUMPI PUSH1 0x0 DUP1 REVERT JUMPDEST POP PUSH1 0x4 SLOAD PUSH2 0x1A4 JUMP JUMPDEST CALLVALUE DUP1 ISZERO PUSH2 0x336 JUMPI PUSH1 0x0 DUP1 REVERT JUMPDEST POP PUSH2 0x1A4 PUSH1 0x64 DUP2 JUMP JUMPDEST CALLVALUE DUP1 ISZERO PUSH2 0x34B JUMPI PUSH1 0x0 DUP1 REVERT JUMPDEST POP PUSH1 0xA SLOAD PUSH2 0x2FD SWAP1 PUSH1 0x1 PUSH1 0x1 PUSH1 0xA0 SHL SUB AND DUP2 JUMP JUMPDEST CALLVALUE DUP1 ISZERO PUSH2 0x36B JUMPI PUSH1 0x0 DUP1 REVERT JUMPDEST POP PUSH2 0x374 PUSH2 0xC9F JUMP JUMPDEST PUSH1 0x40 MLOAD PUSH2 0x1AE SWAP2 SWAP1 PUSH1 0x0 PUSH1 0xA0 DUP3 ADD SWAP1 POP DUP3 MLOAD DUP3 MSTORE PUSH1 0x20 DUP4 ADD MLOAD PUSH1 0x20 DUP4 ADD MSTORE PUSH1 0x40 DUP4 ADD MLOAD PUSH1 0x40 DUP4 ADD MSTORE PUSH1 0x60 DUP4 ADD MLOAD PUSH1 0x60 DUP4 ADD MSTORE PUSH1 0x80 DUP4 ADD MLOAD PUSH1 0x80 DUP4 ADD MSTORE SWAP3 SWAP2 POP POP JUMP JUMPDEST CALLVALUE DUP1 ISZERO PUSH2 0x3C2 JUMPI PUSH1 0x0 DUP1 REVERT JUMPDEST POP PUSH1 0xB SLOAD PUSH2 0x2FD SWAP1 PUSH1 0x1 PUSH1 0x1 PUSH1 0xA0 SHL SUB AND DUP2 JUMP JUMPDEST PUSH2 0x170 PUSH2 0x3E4 CALLDATASIZE PUSH1 0x4 PUSH2 0xF51 JUMP JUMPDEST PUSH2 0xD06 JUMP JUMPDEST CALLVALUE DUP1 ISZERO PUSH2 0x3F5 JUMPI PUSH1 0x0 DUP1 REVERT JUMPDEST POP PUSH2 0x170 PUSH2 0x404 CALLDATASIZE PUSH1 0x4 PUSH2 0x111B JUMP JUMPDEST PUSH2 0xDEB JUMP JUMPDEST CALLVALUE DUP1 ISZERO PUSH2 0x415 JUMPI PUSH1 0x0 DUP1 REVERT JUMPDEST POP PUSH2 0x170 PUSH2 0x424 CALLDATASIZE PUSH1 0x4 PUSH2 0x111B JUMP JUMPDEST PUSH2 0xE3B JUMP JUMPDEST PUSH1 0x2 SLOAD PUSH1 0x0 SUB PUSH2 0x43A JUMPI PUSH1 0x64 PUSH1 0x5 SSTORE JUMP JUMPDEST PUSH1 0x2 SLOAD PUSH1 0x4 SLOAD PUSH2 0x44B SWAP1 PUSH1 0x64 PUSH2 0x114B JUMP JUMPDEST PUSH2 0x455 SWAP2 SWAP1 PUSH2 0x1162 JUMP JUMPDEST PUSH1 0x5 SSTORE JUMPDEST JUMP JUMPDEST PUSH1 0x0 DUP1 PUSH1 0x64 PUSH2 0x46B PUSH1 0xA DUP8 PUSH2 0x114B JUMP JUMPDEST PUSH2 0x475 SWAP2 SWAP1 PUSH2 0x1162 JUMP JUMPDEST SWAP1 POP PUSH1 0x0 PUSH2 0x486 PUSH3 0x278D00 DUP7 PUSH2 0x1162 JUMP JUMPDEST SWAP1 POP DUP1 PUSH1 0x0 SUB PUSH2 0x494 JUMPI POP PUSH1 0x1 JUMPDEST PUSH1 0x0 PUSH2 0x4A1 DUP6 PUSH1 0x64 PUSH2 0xF38 JUMP JUMPDEST SWAP1 POP PUSH1 0x0 PUSH2 0x4B2 PUSH2 0x3E8 PUSH1 0x64 PUSH2 0x114B JUMP JUMPDEST DUP3 PUSH2 0x4BD DUP6 DUP8 PUSH2 0x114B JUMP JUMPDEST PUSH2 0x4C7 SWAP2 SWAP1 PUSH2 0x114B JUMP JUMPDEST PUSH2 0x4D1 SWAP2 SWAP1 PUSH2 0x1162 JUMP JUMPDEST SWAP9 SWAP8 POP POP POP POP POP POP POP POP JUMP JUMPDEST PUSH1 0xA SLOAD PUSH1 0x1 PUSH1 0x1 PUSH1 0xA0 SHL SUB AND CALLER EQ PUSH2 0x507 JUMPI PUSH1 0x40 MLOAD PUSH3 0x82B429 PUSH1 0xE8 SHL DUP2 MSTORE PUSH1 0x4 ADD PUSH1 0x40 MLOAD DUP1 SWAP2 SUB SWAP1 REVERT JUMPDEST PUSH2 0x50F PUSH2 0xE79 JUMP JUMPDEST PUSH1 0x0 DUP4 DUP2 MSTORE PUSH1 0x9 PUSH1 0x20 MSTORE PUSH1 0x40 SWAP1 KECCAK256 SLOAD PUSH1 0xFF AND PUSH2 0x53E JUMPI PUSH1 0x40 MLOAD PUSH4 0x22AF777 PUSH1 0xE1 SHL DUP2 MSTORE PUSH1 0x4 ADD PUSH1 0x40 MLOAD DUP1 SWAP2 SUB SWAP1 REVERT JUMPDEST PUSH1 0x0 DUP4 DUP2 MSTORE PUSH1 0x8 PUSH1 0x20 MSTORE PUSH1 0x40 SWAP1 KECCAK256 PUSH1 0x4 DUP2 ADD SLOAD PUSH1 0xFF AND ISZERO PUSH2 0x572 JUMPI PUSH1 0x40 MLOAD PUSH4 0x80497E3B PUSH1 0xE0 SHL DUP2 MSTORE PUSH1 0x4 ADD PUSH1 0x40 MLOAD DUP1 SWAP2 SUB SWAP1 REVERT JUMPDEST PUSH1 0x4 DUP2 ADD DUP1 SLOAD DUP5 ISZERO DUP1 ISZERO PUSH2 0x100 MUL PUSH2 0xFFFF NOT SWAP1 SWAP3 AND SWAP2 SWAP1 SWAP2 OR PUSH1 0x1 OR SWAP1 SWAP2 SSTORE PUSH2 0x728 JUMPI PUSH1 0x4 SLOAD DUP3 GT ISZERO PUSH2 0x5C8 JUMPI PUSH1 0x4 DUP1 SLOAD PUSH1 0x40 MLOAD PUSH4 0xCE9514F9 PUSH1 0xE0 SHL DUP2 MSTORE SWAP2 DUP3 ADD DUP5 SWAP1 MSTORE PUSH1 0x24 DUP3 ADD MSTORE PUSH1 0x44 ADD JUMPDEST PUSH1 0x40 MLOAD DUP1 SWAP2 SUB SWAP1 REVERT JUMPDEST PUSH1 0x3 DUP2 ADD DUP3 SWAP1 SSTORE PUSH1 0x4 DUP1 SLOAD DUP4 SWAP2 SWAP1 PUSH1 0x0 SWAP1 PUSH2 0x5E4 SWAP1 DUP5 SWAP1 PUSH2 0x1184 JUMP JUMPDEST SWAP1 SWAP2 SSTORE POP POP PUSH1 0x3 DUP1 SLOAD DUP4 SWAP2 SWAP1 PUSH1 0x0 SWAP1 PUSH2 0x5FE SWAP1 DUP5 SWAP1 PUSH2 0xF38 JUMP JUMPDEST SWAP1 SWAP2 SSTORE POP POP PUSH1 0x6 DUP1 SLOAD SWAP1 PUSH1 0x0 PUSH2 0x613 DUP4 PUSH2 0x1197 JUMP JUMPDEST SWAP1 SWAP2 SSTORE POP POP PUSH1 0x1 DUP2 ADD SLOAD PUSH1 0x40 MLOAD PUSH1 0x0 SWAP2 PUSH1 0x1 PUSH1 0x1 PUSH1 0xA0 SHL SUB AND SWAP1 DUP5 SWAP1 DUP4 DUP2 DUP2 DUP2 DUP6 DUP8 GAS CALL SWAP3 POP POP POP RETURNDATASIZE DUP1 PUSH1 0x0 DUP2 EQ PUSH2 0x667 JUMPI PUSH1 0x40 MLOAD SWAP2 POP PUSH1 0x1F NOT PUSH1 0x3F RETURNDATASIZE ADD AND DUP3 ADD PUSH1 0x40 MSTORE RETURNDATASIZE DUP3 MSTORE RETURNDATASIZE PUSH1 0x0 PUSH1 0x20 DUP5 ADD RETURNDATACOPY PUSH2 0x66C JUMP JUMPDEST PUSH1 0x60 SWAP2 POP JUMPDEST POP POP SWAP1 POP DUP1 PUSH2 0x68E JUMPI PUSH1 0x40 MLOAD PUSH4 0x12171D83 PUSH1 0xE3 SHL DUP2 MSTORE PUSH1 0x4 ADD PUSH1 0x40 MLOAD DUP1 SWAP2 SUB SWAP1 REVERT JUMPDEST PUSH2 0x696 PUSH2 0x429 JUMP JUMPDEST PUSH1 0x1 DUP3 ADD SLOAD PUSH1 0x40 MLOAD DUP5 DUP2 MSTORE PUSH1 0x1 PUSH1 0x1 PUSH1 0xA0 SHL SUB SWAP1 SWAP2 AND SWAP1 DUP7 SWAP1 PUSH32 0xB582D60859BB6C5E17BB049BC83044C0C8DAB7D0A026B4E3A4A2966D8926DE5 SWAP1 PUSH1 0x20 ADD PUSH1 0x40 MLOAD DUP1 SWAP2 SUB SWAP1 LOG3 PUSH1 0x1 DUP3 ADD SLOAD PUSH1 0x40 MLOAD DUP5 DUP2 MSTORE PUSH1 0x1 PUSH1 0x1 PUSH1 0xA0 SHL SUB SWAP1 SWAP2 AND SWAP1 DUP7 SWAP1 PUSH32 0xDC699D0C4948C96A3265F3C8997AD793F263F495E1809C0E2A2926C4DA7FC797 SWAP1 PUSH1 0x20 ADD PUSH1 0x40 MLOAD DUP1 SWAP2 SUB SWAP1 LOG3 POP PUSH2 0x7B2 JUMP JUMPDEST PUSH1 0x6 DUP1 SLOAD SWAP1 PUSH1 0x0 PUSH2 0x738 DUP4 PUSH2 0x1197 JUMP JUMPDEST SWAP1 SWAP2 SSTORE POP POP PUSH1 0x1 DUP2 ADD SLOAD PUSH1 0x40 MLOAD PUSH1 0x1 PUSH1 0x1 PUSH1 0xA0 SHL SUB SWAP1 SWAP2 AND SWAP1 DUP6 SWAP1 PUSH32 0x4682EF87B3DB3F66192D1DC1EFD5D2A314CDD9C61E14219F671C03E6F507823A SWAP1 PUSH2 0x7A9 SWAP1 PUSH1 0x20 DUP1 DUP3 MSTORE PUSH1 0x16 SWAP1 DUP3 ADD MSTORE PUSH22 0x436C61696D2072656A656374656420627920636F7265 PUSH1 0x50 SHL PUSH1 0x40 DUP3 ADD MSTORE PUSH1 0x60 ADD SWAP1 JUMP JUMPDEST PUSH1 0x40 MLOAD DUP1 SWAP2 SUB SWAP1 LOG3 JUMPDEST POP PUSH2 0x7BD PUSH1 0x1 PUSH1 0x0 SSTORE JUMP JUMPDEST POP POP POP JUMP JUMPDEST PUSH1 0x0 DUP5 DUP2 MSTORE PUSH1 0x9 PUSH1 0x20 MSTORE PUSH1 0x40 SWAP1 KECCAK256 SLOAD PUSH1 0xFF AND ISZERO PUSH2 0x7F2 JUMPI PUSH1 0x40 MLOAD PUSH4 0x80497E3B PUSH1 0xE0 SHL DUP2 MSTORE PUSH1 0x4 ADD PUSH1 0x40 MLOAD DUP1 SWAP2 SUB SWAP1 REVERT JUMPDEST DUP3 PUSH1 0x0 SUB PUSH2 0x813 JUMPI PUSH1 0x40 MLOAD PUSH4 0x843CE46B PUSH1 0xE0 SHL DUP2 MSTORE PUSH1 0x4 ADD PUSH1 0x40 MLOAD DUP1 SWAP2 SUB SWAP1 REVERT JUMPDEST PUSH1 0x4 SLOAD DUP4 GT ISZERO PUSH2 0x841 JUMPI PUSH1 0x4 DUP1 SLOAD PUSH1 0x40 MLOAD PUSH4 0xCE9514F9 PUSH1 0xE0 SHL DUP2 MSTORE SWAP2 DUP3 ADD DUP6 SWAP1 MSTORE PUSH1 0x24 DUP3 ADD MSTORE PUSH1 0x44 ADD PUSH2 0x5BF JUMP JUMPDEST PUSH1 0x40 MLOAD DUP1 PUSH2 0x100 ADD PUSH1 0x40 MSTORE DUP1 DUP6 DUP2 MSTORE PUSH1 0x20 ADD CALLER PUSH1 0x1 PUSH1 0x1 PUSH1 0xA0 SHL SUB AND DUP2 MSTORE PUSH1 0x20 ADD DUP5 DUP2 MSTORE PUSH1 0x20 ADD PUSH1 0x0 DUP2 MSTORE PUSH1 0x20 ADD PUSH1 0x0 ISZERO ISZERO DUP2 MSTORE PUSH1 0x20 ADD PUSH1 0x0 ISZERO ISZERO DUP2 MSTORE PUSH1 0x20 ADD TIMESTAMP DUP2 MSTORE PUSH1 0x20 ADD DUP4 DUP4 DUP1 DUP1 PUSH1 0x1F ADD PUSH1 0x20 DUP1 SWAP2 DIV MUL PUSH1 0x20 ADD PUSH1 0x40 MLOAD SWAP1 DUP2 ADD PUSH1 0x40 MSTORE DUP1 SWAP4 SWAP3 SWAP2 SWAP1 DUP2 DUP2 MSTORE PUSH1 0x20 ADD DUP4 DUP4 DUP1 DUP3 DUP5 CALLDATACOPY PUSH1 0x0 SWAP3 ADD DUP3 SWAP1 MSTORE POP SWAP4 SWAP1 SWAP5 MSTORE POP POP DUP7 DUP2 MSTORE PUSH1 0x8 PUSH1 0x20 SWAP1 DUP2 MSTORE PUSH1 0x40 SWAP2 DUP3 SWAP1 KECCAK256 DUP5 MLOAD DUP2 SSTORE SWAP1 DUP5 ADD MLOAD PUSH1 0x1 DUP3 ADD DUP1 SLOAD PUSH1 0x1 PUSH1 0x1 PUSH1 0xA0 SHL SUB SWAP1 SWAP3 AND PUSH1 0x1 PUSH1 0x1 PUSH1 0xA0 SHL SUB NOT SWAP1 SWAP3 AND SWAP2 SWAP1 SWAP2 OR SWAP1 SSTORE SWAP1 DUP4 ADD MLOAD PUSH1 0x2 DUP3 ADD SSTORE PUSH1 0x60 DUP4 ADD MLOAD PUSH1 0x3 DUP3 ADD SSTORE PUSH1 0x80 DUP4 ADD MLOAD PUSH1 0x4 DUP3 ADD DUP1 SLOAD PUSH1 0xA0 DUP7 ADD MLOAD ISZERO ISZERO PUSH2 0x100 MUL PUSH2 0xFF00 NOT SWAP4 ISZERO ISZERO SWAP4 SWAP1 SWAP4 AND PUSH2 0xFFFF NOT SWAP1 SWAP2 AND OR SWAP2 SWAP1 SWAP2 OR SWAP1 SSTORE PUSH1 0xC0 DUP4 ADD MLOAD PUSH1 0x5 DUP3 ADD SSTORE PUSH1 0xE0 DUP4 ADD MLOAD SWAP1 SWAP2 POP PUSH1 0x6 DUP3 ADD SWAP1 PUSH2 0x95D SWAP1 DUP3 PUSH2 0x124C JUMP JUMPDEST POP POP POP PUSH1 0x0 DUP5 DUP2 MSTORE PUSH1 0x9 PUSH1 0x20 MSTORE PUSH1 0x40 DUP2 KECCAK256 DUP1 SLOAD PUSH1 0xFF NOT AND PUSH1 0x1 OR SWAP1 SSTORE PUSH1 0x6 DUP1 SLOAD SWAP2 PUSH2 0x987 DUP4 PUSH2 0x130B JUMP JUMPDEST SWAP1 SWAP2 SSTORE POP POP PUSH1 0x40 MLOAD DUP4 DUP2 MSTORE CALLER SWAP1 DUP6 SWAP1 PUSH32 0x4DA691D72FF2D837D51477B0B23E1FCDE537DC9BF3181E20249086F024B348BD SWAP1 PUSH1 0x20 ADD PUSH1 0x40 MLOAD DUP1 SWAP2 SUB SWAP1 LOG3 POP POP POP POP JUMP JUMPDEST PUSH2 0xA1E PUSH1 0x40 MLOAD DUP1 PUSH2 0x100 ADD PUSH1 0x40 MSTORE DUP1 PUSH1 0x0 DUP2 MSTORE PUSH1 0x20 ADD PUSH1 0x0 PUSH1 0x1 PUSH1 0x1 PUSH1 0xA0 SHL SUB AND DUP2 MSTORE PUSH1 0x20 ADD PUSH1 0x0 DUP2 MSTORE PUSH1 0x20 ADD PUSH1 0x0 DUP2 MSTORE PUSH1 0x20 ADD PUSH1 0x0 ISZERO ISZERO DUP2 MSTORE PUSH1 0x20 ADD PUSH1 0x0 ISZERO ISZERO DUP2 MSTORE PUSH1 0x20 ADD PUSH1 0x0 DUP2 MSTORE PUSH1 0x20 ADD PUSH1 0x60 DUP2 MSTORE POP SWAP1 JUMP JUMPDEST PUSH1 0x0 DUP3 DUP2 MSTORE PUSH1 0x8 PUSH1 0x20 SWAP1 DUP2 MSTORE PUSH1 0x40 SWAP2 DUP3 SWAP1 KECCAK256 DUP3 MLOAD PUSH2 0x100 DUP1 DUP3 ADD DUP6 MSTORE DUP3 SLOAD DUP3 MSTORE PUSH1 0x1 DUP4 ADD SLOAD PUSH1 0x1 PUSH1 0x1 PUSH1 0xA0 SHL SUB AND SWAP4 DUP3 ADD SWAP4 SWAP1 SWAP4 MSTORE PUSH1 0x2 DUP3 ADD SLOAD SWAP4 DUP2 ADD SWAP4 SWAP1 SWAP4 MSTORE PUSH1 0x3 DUP2 ADD SLOAD PUSH1 0x60 DUP5 ADD MSTORE PUSH1 0x4 DUP2 ADD SLOAD PUSH1 0xFF DUP1 DUP3 AND ISZERO ISZERO PUSH1 0x80 DUP7 ADD MSTORE SWAP3 SWAP1 DIV SWAP1 SWAP2 AND ISZERO ISZERO PUSH1 0xA0 DUP4 ADD MSTORE PUSH1 0x5 DUP2 ADD SLOAD PUSH1 0xC0 DUP4 ADD MSTORE PUSH1 0x6 DUP2 ADD DUP1 SLOAD PUSH1 0xE0 DUP5 ADD SWAP2 SWAP1 PUSH2 0xAA6 SWAP1 PUSH2 0x11C4 JUMP JUMPDEST DUP1 PUSH1 0x1F ADD PUSH1 0x20 DUP1 SWAP2 DIV MUL PUSH1 0x20 ADD PUSH1 0x40 MLOAD SWAP1 DUP2 ADD PUSH1 0x40 MSTORE DUP1 SWAP3 SWAP2 SWAP1 DUP2 DUP2 MSTORE PUSH1 0x20 ADD DUP3 DUP1 SLOAD PUSH2 0xAD2 SWAP1 PUSH2 0x11C4 JUMP JUMPDEST DUP1 ISZERO PUSH2 0xB1F JUMPI DUP1 PUSH1 0x1F LT PUSH2 0xAF4 JUMPI PUSH2 0x100 DUP1 DUP4 SLOAD DIV MUL DUP4 MSTORE SWAP2 PUSH1 0x20 ADD SWAP2 PUSH2 0xB1F JUMP JUMPDEST DUP3 ADD SWAP2 SWAP1 PUSH1 0x0 MSTORE PUSH1 0x20 PUSH1 0x0 KECCAK256 SWAP1 JUMPDEST DUP2 SLOAD DUP2 MSTORE SWAP1 PUSH1 0x1 ADD SWAP1 PUSH1 0x20 ADD DUP1 DUP4 GT PUSH2 0xB02 JUMPI DUP3 SWAP1 SUB PUSH1 0x1F AND DUP3 ADD SWAP2 JUMPDEST POP POP POP POP POP DUP2 MSTORE POP POP SWAP1 POP SWAP2 SWAP1 POP JUMP JUMPDEST PUSH2 0xB37 PUSH2 0xEA3 JUMP JUMPDEST PUSH1 0x1 PUSH1 0x1 PUSH1 0xA0 SHL SUB DUP2 AND PUSH2 0xB5E JUMPI PUSH1 0x40 MLOAD PUSH4 0xCFE2EA63 PUSH1 0xE0 SHL DUP2 MSTORE PUSH1 0x4 ADD PUSH1 0x40 MLOAD DUP1 SWAP2 SUB SWAP1 REVERT JUMPDEST PUSH1 0xB DUP1 SLOAD PUSH1 0x1 PUSH1 0x1 PUSH1 0xA0 SHL SUB NOT AND PUSH1 0x1 PUSH1 0x1 PUSH1 0xA0 SHL SUB SWAP3 SWAP1 SWAP3 AND SWAP2 SWAP1 SWAP2 OR SWAP1 SSTORE JUMP JUMPDEST PUSH2 0xB88 PUSH2 0xEA3 JUMP JUMPDEST PUSH2 0x459 PUSH1 0x0 PUSH2 0xED0 JUMP JUMPDEST PUSH2 0xB9A PUSH2 0xEA3 JUMP JUMPDEST PUSH2 0xBA2 PUSH2 0xE79 JUMP JUMPDEST PUSH1 0x0 PUSH1 0x64 PUSH1 0x14 PUSH1 0x2 PUSH1 0x0 ADD SLOAD PUSH2 0xBB8 SWAP2 SWAP1 PUSH2 0x114B JUMP JUMPDEST PUSH2 0xBC2 SWAP2 SWAP1 PUSH2 0x1162 JUMP JUMPDEST SWAP1 POP DUP1 PUSH1 0x2 DUP1 ADD SLOAD GT PUSH2 0xBF2 JUMPI PUSH1 0x40 MLOAD PUSH4 0xCE9514F9 PUSH1 0xE0 SHL DUP2 MSTORE PUSH1 0x0 PUSH1 0x4 DUP3 ADD DUP2 SWAP1 MSTORE PUSH1 0x24 DUP3 ADD MSTORE PUSH1 0x44 ADD PUSH2 0x5BF JUMP JUMPDEST PUSH1 0x4 SLOAD PUSH1 0x0 SWAP1 PUSH2 0xC03 SWAP1 DUP4 SWAP1 PUSH2 0x1184 JUMP JUMPDEST SWAP1 POP DUP1 PUSH1 0x2 DUP1 ADD PUSH1 0x0 DUP3 DUP3 SLOAD PUSH2 0xC19 SWAP2 SWAP1 PUSH2 0x1184 JUMP JUMPDEST SWAP1 SWAP2 SSTORE POP POP PUSH1 0xB SLOAD PUSH1 0x40 MLOAD PUSH1 0x0 SWAP2 PUSH1 0x1 PUSH1 0x1 PUSH1 0xA0 SHL SUB AND SWAP1 DUP4 SWAP1 DUP4 DUP2 DUP2 DUP2 DUP6 DUP8 GAS CALL SWAP3 POP POP POP RETURNDATASIZE DUP1 PUSH1 0x0 DUP2 EQ PUSH2 0xC6B JUMPI PUSH1 0x40 MLOAD SWAP2 POP PUSH1 0x1F NOT PUSH1 0x3F RETURNDATASIZE ADD AND DUP3 ADD PUSH1 0x40 MSTORE RETURNDATASIZE DUP3 MSTORE RETURNDATASIZE PUSH1 0x0 PUSH1 0x20 DUP5 ADD RETURNDATACOPY PUSH2 0xC70 JUMP JUMPDEST PUSH1 0x60 SWAP2 POP JUMPDEST POP POP SWAP1 POP DUP1 PUSH2 0xC92 JUMPI PUSH1 0x40 MLOAD PUSH4 0x12171D83 PUSH1 0xE3 SHL DUP2 MSTORE PUSH1 0x4 ADD PUSH1 0x40 MLOAD DUP1 SWAP2 SUB SWAP1 REVERT JUMPDEST POP POP POP PUSH2 0x459 PUSH1 0x1 PUSH1 0x0 SSTORE JUMP JUMPDEST PUSH2 0xCD1 PUSH1 0x40 MLOAD DUP1 PUSH1 0xA0 ADD PUSH1 0x40 MSTORE DUP1 PUSH1 0x0 DUP2 MSTORE PUSH1 0x20 ADD PUSH1 0x0 DUP2 MSTORE PUSH1 0x20 ADD PUSH1 0x0 DUP2 MSTORE PUSH1 0x20 ADD PUSH1 0x0 DUP2 MSTORE PUSH1 0x20 ADD PUSH1 0x0 DUP2 MSTORE POP SWAP1 JUMP JUMPDEST POP PUSH1 0x40 DUP1 MLOAD PUSH1 0xA0 DUP2 ADD DUP3 MSTORE PUSH1 0x2 SLOAD DUP2 MSTORE PUSH1 0x3 SLOAD PUSH1 0x20 DUP3 ADD MSTORE PUSH1 0x4 SLOAD SWAP2 DUP2 ADD SWAP2 SWAP1 SWAP2 MSTORE PUSH1 0x5 SLOAD PUSH1 0x60 DUP3 ADD MSTORE PUSH1 0x6 SLOAD PUSH1 0x80 DUP3 ADD MSTORE SWAP1 JUMP JUMPDEST PUSH1 0xA SLOAD PUSH1 0x1 PUSH1 0x1 PUSH1 0xA0 SHL SUB AND CALLER EQ PUSH2 0xD30 JUMPI PUSH1 0x40 MLOAD PUSH3 0x82B429 PUSH1 0xE8 SHL DUP2 MSTORE PUSH1 0x4 ADD PUSH1 0x40 MLOAD DUP1 SWAP2 SUB SWAP1 REVERT JUMPDEST CALLVALUE PUSH1 0x0 SUB PUSH2 0xD51 JUMPI PUSH1 0x40 MLOAD PUSH4 0x843CE46B PUSH1 0xE0 SHL DUP2 MSTORE PUSH1 0x4 ADD PUSH1 0x40 MLOAD DUP1 SWAP2 SUB SWAP1 REVERT JUMPDEST PUSH1 0x0 DUP2 DUP2 MSTORE PUSH1 0x7 PUSH1 0x20 MSTORE PUSH1 0x40 DUP2 KECCAK256 DUP1 SLOAD CALLVALUE SWAP3 SWAP1 PUSH2 0xD6F SWAP1 DUP5 SWAP1 PUSH2 0xF38 JUMP JUMPDEST SWAP1 SWAP2 SSTORE POP POP PUSH1 0x2 DUP1 SLOAD CALLVALUE SWAP2 SWAP1 PUSH1 0x0 SWAP1 PUSH2 0xD89 SWAP1 DUP5 SWAP1 PUSH2 0xF38 JUMP JUMPDEST SWAP1 SWAP2 SSTORE POP POP PUSH1 0x4 DUP1 SLOAD CALLVALUE SWAP2 SWAP1 PUSH1 0x0 SWAP1 PUSH2 0xDA3 SWAP1 DUP5 SWAP1 PUSH2 0xF38 JUMP JUMPDEST SWAP1 SWAP2 SSTORE POP PUSH2 0xDB1 SWAP1 POP PUSH2 0x429 JUMP JUMPDEST PUSH1 0x40 MLOAD CALLVALUE DUP2 MSTORE CALLER SWAP1 DUP3 SWAP1 PUSH32 0xE05838AC5FC3CA252998178856D38BA04C002631C18C206E50D03DF2DBC3BD6C SWAP1 PUSH1 0x20 ADD PUSH1 0x40 MLOAD DUP1 SWAP2 SUB SWAP1 LOG3 POP JUMP JUMPDEST PUSH2 0xDF3 PUSH2 0xEA3 JUMP JUMPDEST PUSH1 0x1 PUSH1 0x1 PUSH1 0xA0 SHL SUB DUP2 AND PUSH2 0xE19 JUMPI PUSH1 0x40 MLOAD PUSH3 0x82B429 PUSH1 0xE8 SHL DUP2 MSTORE PUSH1 0x4 ADD PUSH1 0x40 MLOAD DUP1 SWAP2 SUB SWAP1 REVERT JUMPDEST PUSH1 0xA DUP1 SLOAD PUSH1 0x1 PUSH1 0x1 PUSH1 0xA0 SHL SUB NOT AND PUSH1 0x1 PUSH1 0x1 PUSH1 0xA0 SHL SUB SWAP3 SWAP1 SWAP3 AND SWAP2 SWAP1 SWAP2 OR SWAP1 SSTORE JUMP JUMPDEST PUSH2 0xE43 PUSH2 0xEA3 JUMP JUMPDEST PUSH1 0x1 PUSH1 0x1 PUSH1 0xA0 SHL SUB DUP2 AND PUSH2 0xE6D JUMPI PUSH1 0x40 MLOAD PUSH4 0x1E4FBDF7 PUSH1 0xE0 SHL DUP2 MSTORE PUSH1 0x0 PUSH1 0x4 DUP3 ADD MSTORE PUSH1 0x24 ADD PUSH2 0x5BF JUMP JUMPDEST PUSH2 0xE76 DUP2 PUSH2 0xED0 JUMP JUMPDEST POP JUMP JUMPDEST PUSH1 0x2 PUSH1 0x0 SLOAD SUB PUSH2 0xE9C JUMPI PUSH1 0x40 MLOAD PUSH4 0x3EE5AEB5 PUSH1 0xE0 SHL DUP2 MSTORE PUSH1 0x4 ADD PUSH1 0x40 MLOAD DUP1 SWAP2 SUB SWAP1 REVERT JUMPDEST PUSH1 0x2 PUSH1 0x0 SSTORE JUMP JUMPDEST PUSH1 0x1 SLOAD PUSH1 0x1 PUSH1 0x1 PUSH1 0xA0 SHL SUB AND CALLER EQ PUSH2 0x459 JUMPI PUSH1 0x40 MLOAD PUSH4 0x118CDAA7 PUSH1 0xE0 SHL DUP2 MSTORE CALLER PUSH1 0x4 DUP3 ADD MSTORE PUSH1 0x24 ADD PUSH2 0x5BF JUMP JUMPDEST PUSH1 0x1 DUP1 SLOAD PUSH1 0x1 PUSH1 0x1 PUSH1 0xA0 SHL SUB DUP4 DUP2 AND PUSH1 0x1 PUSH1 0x1 PUSH1 0xA0 SHL SUB NOT DUP4 AND DUP2 OR SWAP1 SWAP4 SSTORE PUSH1 0x40 MLOAD SWAP2 AND SWAP2 SWAP1 DUP3 SWAP1 PUSH32 0x8BE0079C531659141344CD1FD0A4F28419497F9722A3DAAFE3B4186F6B6457E0 SWAP1 PUSH1 0x0 SWAP1 LOG3 POP POP JUMP JUMPDEST PUSH4 0x4E487B71 PUSH1 0xE0 SHL PUSH1 0x0 MSTORE PUSH1 0x11 PUSH1 0x4 MSTORE PUSH1 0x24 PUSH1 0x0 REVERT JUMPDEST DUP1 DUP3 ADD DUP1 DUP3 GT ISZERO PUSH2 0xF4B JUMPI PUSH2 0xF4B PUSH2 0xF22 JUMP JUMPDEST SWAP3 SWAP2 POP POP JUMP JUMPDEST PUSH1 0x0 PUSH1 0x20 DUP3 DUP5 SUB SLT ISZERO PUSH2 0xF63 JUMPI PUSH1 0x0 DUP1 REVERT JUMPDEST POP CALLDATALOAD SWAP2 SWAP1 POP JUMP JUMPDEST PUSH1 0x0 DUP1 PUSH1 0x0 PUSH1 0x60 DUP5 DUP7 SUB SLT ISZERO PUSH2 0xF7F JUMPI PUSH1 0x0 DUP1 REVERT JUMPDEST POP POP DUP2 CALLDATALOAD SWAP4 PUSH1 0x20 DUP4 ADD CALLDATALOAD SWAP4 POP PUSH1 0x40 SWAP1 SWAP3 ADD CALLDATALOAD SWAP2 SWAP1 POP JUMP JUMPDEST PUSH1 0x0 DUP1 PUSH1 0x0 PUSH1 0x60 DUP5 DUP7 SUB SLT ISZERO PUSH2 0xFAB JUMPI PUSH1 0x0 DUP1 REVERT JUMPDEST DUP4 CALLDATALOAD SWAP3 POP PUSH1 0x20 DUP5 ADD CALLDATALOAD DUP1 ISZERO ISZERO DUP2 EQ PUSH2 0xFC2 JUMPI PUSH1 0x0 DUP1 REVERT JUMPDEST SWAP3 SWAP6 SWAP3 SWAP5 POP POP POP PUSH1 0x40 SWAP2 SWAP1 SWAP2 ADD CALLDATALOAD SWAP1 JUMP JUMPDEST PUSH1 0x0 DUP1 PUSH1 0x0 DUP1 PUSH1 0x60 DUP6 DUP8 SUB SLT ISZERO PUSH2 0xFE9 JUMPI PUSH1 0x0 DUP1 REVERT JUMPDEST DUP5 CALLDATALOAD SWAP4 POP PUSH1 0x20 DUP6 ADD CALLDATALOAD SWAP3 POP PUSH1 0x40 DUP6 ADD CALLDATALOAD PUSH8 0xFFFFFFFFFFFFFFFF DUP2 GT ISZERO PUSH2 0x100E JUMPI PUSH1 0x0 DUP1 REVERT JUMPDEST DUP6 ADD PUSH1 0x1F DUP2 ADD DUP8 SGT PUSH2 0x101F JUMPI PUSH1 0x0 DUP1 REVERT JUMPDEST DUP1 CALLDATALOAD PUSH8 0xFFFFFFFFFFFFFFFF DUP2 GT ISZERO PUSH2 0x1036 JUMPI PUSH1 0x0 DUP1 REVERT JUMPDEST DUP8 PUSH1 0x20 DUP3 DUP5 ADD ADD GT ISZERO PUSH2 0x1048 JUMPI PUSH1 0x0 DUP1 REVERT JUMPDEST SWAP5 SWAP8 SWAP4 SWAP7 POP PUSH1 0x20 ADD SWAP5 POP POP POP JUMP JUMPDEST PUSH1 0x0 DUP2 MLOAD DUP1 DUP5 MSTORE PUSH1 0x0 JUMPDEST DUP2 DUP2 LT ISZERO PUSH2 0x107C JUMPI PUSH1 0x20 DUP2 DUP6 ADD DUP2 ADD MLOAD DUP7 DUP4 ADD DUP3 ADD MSTORE ADD PUSH2 0x1060 JUMP JUMPDEST POP PUSH1 0x0 PUSH1 0x20 DUP3 DUP7 ADD ADD MSTORE PUSH1 0x20 PUSH1 0x1F NOT PUSH1 0x1F DUP4 ADD AND DUP6 ADD ADD SWAP2 POP POP SWAP3 SWAP2 POP POP JUMP JUMPDEST PUSH1 0x20 DUP2 MSTORE DUP2 MLOAD PUSH1 0x20 DUP3 ADD MSTORE PUSH1 0x1 DUP1 PUSH1 0xA0 SHL SUB PUSH1 0x20 DUP4 ADD MLOAD AND PUSH1 0x40 DUP3 ADD MSTORE PUSH1 0x40 DUP3 ADD MLOAD PUSH1 0x60 DUP3 ADD MSTORE PUSH1 0x60 DUP3 ADD MLOAD PUSH1 0x80 DUP3 ADD MSTORE PUSH1 0x80 DUP3 ADD MLOAD ISZERO ISZERO PUSH1 0xA0 DUP3 ADD MSTORE PUSH1 0x0 PUSH1 0xA0 DUP4 ADD MLOAD PUSH2 0x10EE PUSH1 0xC0 DUP5 ADD DUP3 ISZERO ISZERO SWAP1 MSTORE JUMP JUMPDEST POP PUSH1 0xC0 DUP4 ADD MLOAD PUSH1 0xE0 DUP4 ADD MSTORE PUSH1 0xE0 DUP4 ADD MLOAD PUSH2 0x100 DUP1 DUP5 ADD MSTORE PUSH2 0x1113 PUSH2 0x120 DUP5 ADD DUP3 PUSH2 0x1056 JUMP JUMPDEST SWAP5 SWAP4 POP POP POP POP JUMP JUMPDEST PUSH1 0x0 PUSH1 0x20 DUP3 DUP5 SUB SLT ISZERO PUSH2 0x112D JUMPI PUSH1 0x0 DUP1 REVERT JUMPDEST DUP2 CALLDATALOAD PUSH1 0x1 PUSH1 0x1 PUSH1 0xA0 SHL SUB DUP2 AND DUP2 EQ PUSH2 0x1144 JUMPI PUSH1 0x0 DUP1 REVERT JUMPDEST SWAP4 SWAP3 POP POP POP JUMP JUMPDEST DUP1 DUP3 MUL DUP2 ISZERO DUP3 DUP3 DIV DUP5 EQ OR PUSH2 0xF4B JUMPI PUSH2 0xF4B PUSH2 0xF22 JUMP JUMPDEST PUSH1 0x0 DUP3 PUSH2 0x117F JUMPI PUSH4 0x4E487B71 PUSH1 0xE0 SHL PUSH1 0x0 MSTORE PUSH1 0x12 PUSH1 0x4 MSTORE PUSH1 0x24 PUSH1 0x0 REVERT JUMPDEST POP DIV SWAP1 JUMP JUMPDEST DUP2 DUP2 SUB DUP2 DUP2 GT ISZERO PUSH2 0xF4B JUMPI PUSH2 0xF4B PUSH2 0xF22 JUMP JUMPDEST PUSH1 0x0 DUP2 PUSH2 0x11A6 JUMPI PUSH2 0x11A6 PUSH2 0xF22 JUMP JUMPDEST POP PUSH1 0x0 NOT ADD SWAP1 JUMP JUMPDEST PUSH4 0x4E487B71 PUSH1 0xE0 SHL PUSH1 0x0 MSTORE PUSH1 0x41 PUSH1 0x4 MSTORE PUSH1 0x24 PUSH1 0x0 REVERT JUMPDEST PUSH1 0x1 DUP2 DUP2 SHR SWAP1 DUP3 AND DUP1 PUSH2 0x11D8 JUMPI PUSH1 0x7F DUP3 AND SWAP2 POP JUMPDEST PUSH1 0x20 DUP3 LT DUP2 SUB PUSH2 0x11F8 JUMPI PUSH4 0x4E487B71 PUSH1 0xE0 SHL PUSH1 0x0 MSTORE PUSH1 0x22 PUSH1 0x4 MSTORE PUSH1 0x24 PUSH1 0x0 REVERT JUMPDEST POP SWAP2 SWAP1 POP JUMP JUMPDEST PUSH1 0x1F DUP3 GT ISZERO PUSH2 0x7BD JUMPI DUP1 PUSH1 0x0 MSTORE PUSH1 0x20 PUSH1 0x0 KECCAK256 PUSH1 0x1F DUP5 ADD PUSH1 0x5 SHR DUP2 ADD PUSH1 0x20 DUP6 LT ISZERO PUSH2 0x1225 JUMPI POP DUP1 JUMPDEST PUSH1 0x1F DUP5 ADD PUSH1 0x5 SHR DUP3 ADD SWAP2 POP JUMPDEST DUP2 DUP2 LT ISZERO PUSH2 0x1245 JUMPI PUSH1 0x0 DUP2 SSTORE PUSH1 0x1 ADD PUSH2 0x1231 JUMP JUMPDEST POP POP POP POP POP JUMP JUMPDEST DUP2 MLOAD PUSH8 0xFFFFFFFFFFFFFFFF DUP2 GT ISZERO PUSH2 0x1266 JUMPI PUSH2 0x1266 PUSH2 0x11AE JUMP JUMPDEST PUSH2 0x127A DUP2 PUSH2 0x1274 DUP5 SLOAD PUSH2 0x11C4 JUMP JUMPDEST DUP5 PUSH2 0x11FE JUMP JUMPDEST PUSH1 0x20 PUSH1 0x1F DUP3 GT PUSH1 0x1 DUP2 EQ PUSH2 0x12AE JUMPI PUSH1 0x0 DUP4 ISZERO PUSH2 0x1296 JUMPI POP DUP5 DUP3 ADD MLOAD JUMPDEST PUSH1 0x0 NOT PUSH1 0x3 DUP6 SWAP1 SHL SHR NOT AND PUSH1 0x1 DUP5 SWAP1 SHL OR DUP5 SSTORE PUSH2 0x1245 JUMP JUMPDEST PUSH1 0x0 DUP5 DUP2 MSTORE PUSH1 0x20 DUP2 KECCAK256 PUSH1 0x1F NOT DUP6 AND SWAP2 JUMPDEST DUP3 DUP2 LT ISZERO PUSH2 0x12DE JUMPI DUP8 DUP6 ADD MLOAD DUP3 SSTORE PUSH1 0x20 SWAP5 DUP6 ADD SWAP5 PUSH1 0x1 SWAP1 SWAP3 ADD SWAP2 ADD PUSH2 0x12BE JUMP JUMPDEST POP DUP5 DUP3 LT ISZERO PUSH2 0x12FC JUMPI DUP7 DUP5 ADD MLOAD PUSH1 0x0 NOT PUSH1 0x3 DUP8 SWAP1 SHL PUSH1 0xF8 AND SHR NOT AND DUP2 SSTORE JUMPDEST POP POP POP POP PUSH1 0x1 SWAP1 DUP2 SHL ADD SWAP1 SSTORE POP JUMP JUMPDEST PUSH1 0x0 PUSH1 0x1 DUP3 ADD PUSH2 0x131D JUMPI PUSH2 0x131D PUSH2 0xF22 JUMP JUMPDEST POP PUSH1 0x1 ADD SWAP1 JUMP INVALID LOG2 PUSH5 0x6970667358 0x22 SLT KECCAK256 0x4F 0xBF LOG4 EOFCREATE 0xD9 0xB7 SWAP6 0xC5 0xCD PUSH24 0x8342B72B47F2625F4AD7AE869ABE52AB6E7D8ECFB5506473 PUSH16 0x6C634300081E00330000000000000000 "},"methodIdentifiers":{"FULL_COLLATERAL_PAYOUT()":"9e9096dc","MIN_RESERVE_RATIO()":"24552f33","PARTIAL_COLLATERAL_PAYOUT()":"503c1a32","PREMIUM_PERCENTAGE()":"77e7f51a","PREMIUM_RATE_BASE()":"5cdab0bc","athenyxCore()":"ae6003e5","calculatePremium(uint256,uint256,uint256)":"156f1d74","collectPremium(uint256)":"d05447ac","fileClaim(uint256,uint256,bytes)":"49b374cf","getAvailableLiquidity()":"9b745aec","getClaim(uint256)":"5aef2447","getEscrowPremium(uint256)":"0287abb5","getPoolStats()":"bbb85188","owner()":"8da5cb5b","processClaim(uint256,bool,uint256)":"3ab979d8","renounceOwnership()":"715018a6","setAthenyxCore(address)":"ee1e4b84","setTreasuryAddress(address)":"6605bfda","transferOwnership(address)":"f2fde38b","treasuryAddress()":"c5f956af","withdrawExcessReserves()":"7dfce5e9"}}}}}