{"contracts/standard/examples/FullFeaturedEscrow.sol":{"FullFeaturedEscrow":{"abi":[{"inputs":[],"stateMutability":"nonpayable","type":"constructor"},{"inputs":[],"name":"CommitmentWindowClosed","type":"error"},{"inputs":[],"name":"DeadlineNotPassed","type":"error"},{"inputs":[],"name":"EscrowNotFound","type":"error"},{"inputs":[],"name":"GuarantorAlreadyCommitted","type":"error"},{"inputs":[],"name":"GuarantorNotCommitted","type":"error"},{"inputs":[],"name":"InsufficientFunds","type":"error"},{"inputs":[],"name":"InsufficientGuarantors","type":"error"},{"inputs":[],"name":"InsufficientStake","type":"error"},{"inputs":[],"name":"InvalidAmount","type":"error"},{"inputs":[],"name":"InvalidCommitmentHash","type":"error"},{"inputs":[],"name":"InvalidDeadline","type":"error"},{"inputs":[],"name":"InvalidMilestoneCount","type":"error"},{"inputs":[],"name":"InvalidState","type":"error"},{"inputs":[],"name":"InvalidTier","type":"error"},{"inputs":[],"name":"MilestoneAlreadyApproved","type":"error"},{"inputs":[],"name":"MilestoneAlreadyReleased","type":"error"},{"inputs":[],"name":"MilestoneNotApproved","type":"error"},{"inputs":[],"name":"MilestoneNotFound","type":"error"},{"inputs":[],"name":"ReentrancyGuardReentrantCall","type":"error"},{"inputs":[],"name":"RevealWindowNotOpen","type":"error"},{"inputs":[],"name":"TransferFailed","type":"error"},{"inputs":[],"name":"Unauthorized","type":"error"},{"inputs":[],"name":"ZeroAddress","type":"error"},{"anonymous":false,"inputs":[{"indexed":true,"internalType":"uint256","name":"escrowId","type":"uint256"},{"indexed":false,"internalType":"uint256","name":"refundedAmount","type":"uint256"}],"name":"EscrowCancelled","type":"event"},{"anonymous":false,"inputs":[{"indexed":true,"internalType":"uint256","name":"escrowId","type":"uint256"}],"name":"EscrowCompleted","type":"event"},{"anonymous":false,"inputs":[{"indexed":true,"internalType":"uint256","name":"escrowId","type":"uint256"},{"indexed":true,"internalType":"address","name":"creator","type":"address"},{"indexed":true,"internalType":"address","name":"beneficiary","type":"address"},{"indexed":false,"internalType":"uint256","name":"amount","type":"uint256"}],"name":"EscrowCreated","type":"event"},{"anonymous":false,"inputs":[{"indexed":true,"internalType":"uint256","name":"escrowId","type":"uint256"},{"indexed":true,"internalType":"address","name":"funder","type":"address"},{"indexed":false,"internalType":"uint256","name":"amount","type":"uint256"}],"name":"EscrowFunded","type":"event"},{"anonymous":false,"inputs":[{"indexed":true,"internalType":"uint256","name":"escrowId","type":"uint256"},{"indexed":true,"internalType":"address","name":"beneficiary","type":"address"},{"indexed":false,"internalType":"uint256","name":"amount","type":"uint256"}],"name":"EscrowReleased","type":"event"},{"anonymous":false,"inputs":[{"indexed":true,"internalType":"uint256","name":"escrowId","type":"uint256"},{"indexed":true,"internalType":"address","name":"guarantor","type":"address"},{"indexed":false,"internalType":"enum IEscrowGuarantors.GuarantorTier","name":"tier","type":"uint8"},{"indexed":false,"internalType":"uint256","name":"stakeAmount","type":"uint256"}],"name":"GuarantorCommitted","type":"event"},{"anonymous":false,"inputs":[{"indexed":true,"internalType":"uint256","name":"escrowId","type":"uint256"},{"indexed":true,"internalType":"address","name":"guarantor","type":"address"}],"name":"GuarantorRevealed","type":"event"},{"anonymous":false,"inputs":[{"indexed":true,"internalType":"uint256","name":"escrowId","type":"uint256"},{"indexed":true,"internalType":"address","name":"guarantor","type":"address"},{"indexed":false,"internalType":"uint256","name":"rewardAmount","type":"uint256"}],"name":"GuarantorRewarded","type":"event"},{"anonymous":false,"inputs":[{"indexed":true,"internalType":"uint256","name":"escrowId","type":"uint256"},{"indexed":true,"internalType":"address","name":"guarantor","type":"address"},{"indexed":false,"internalType":"uint256","name":"slashedAmount","type":"uint256"}],"name":"GuarantorSlashed","type":"event"},{"anonymous":false,"inputs":[{"indexed":true,"internalType":"uint256","name":"escrowId","type":"uint256"},{"indexed":true,"internalType":"uint256","name":"milestoneIndex","type":"uint256"},{"indexed":true,"internalType":"address","name":"approver","type":"address"}],"name":"MilestoneApproved","type":"event"},{"anonymous":false,"inputs":[{"indexed":true,"internalType":"uint256","name":"escrowId","type":"uint256"},{"indexed":true,"internalType":"uint256","name":"milestoneIndex","type":"uint256"},{"indexed":false,"internalType":"uint256","name":"amount","type":"uint256"},{"indexed":false,"internalType":"uint256","name":"deadline","type":"uint256"}],"name":"MilestoneCreated","type":"event"},{"anonymous":false,"inputs":[{"indexed":true,"internalType":"uint256","name":"escrowId","type":"uint256"},{"indexed":true,"internalType":"uint256","name":"milestoneIndex","type":"uint256"},{"indexed":false,"internalType":"uint256","name":"amount","type":"uint256"}],"name":"MilestoneReleased","type":"event"},{"inputs":[],"name":"COMMITMENT_WINDOW","outputs":[{"internalType":"uint256","name":"","type":"uint256"}],"stateMutability":"view","type":"function"},{"inputs":[],"name":"MIN_PRIMARY_STAKE_PERCENTAGE","outputs":[{"internalType":"uint256","name":"","type":"uint256"}],"stateMutability":"view","type":"function"},{"inputs":[],"name":"MIN_SECONDARY_STAKE_PERCENTAGE","outputs":[{"internalType":"uint256","name":"","type":"uint256"}],"stateMutability":"view","type":"function"},{"inputs":[],"name":"REVEAL_WINDOW","outputs":[{"internalType":"uint256","name":"","type":"uint256"}],"stateMutability":"view","type":"function"},{"inputs":[{"internalType":"uint256","name":"escrowId","type":"uint256"},{"internalType":"uint256","name":"milestoneIndex","type":"uint256"}],"name":"approveMilestone","outputs":[],"stateMutability":"nonpayable","type":"function"},{"inputs":[{"internalType":"uint256","name":"escrowId","type":"uint256"}],"name":"canActivateEscrow","outputs":[{"internalType":"bool","name":"","type":"bool"}],"stateMutability":"view","type":"function"},{"inputs":[{"internalType":"uint256","name":"escrowId","type":"uint256"}],"name":"cancelEscrow","outputs":[],"stateMutability":"nonpayable","type":"function"},{"inputs":[{"internalType":"uint256","name":"escrowId","type":"uint256"},{"internalType":"enum IEscrowGuarantors.GuarantorTier","name":"tier","type":"uint8"},{"internalType":"bytes32","name":"commitmentHash","type":"bytes32"}],"name":"commitAsGuarantor","outputs":[],"stateMutability":"payable","type":"function"},{"inputs":[{"internalType":"address","name":"beneficiary","type":"address"},{"internalType":"address","name":"arbiter","type":"address"},{"internalType":"uint256","name":"amount","type":"uint256"},{"internalType":"uint256","name":"deadline","type":"uint256"}],"name":"createEscrow","outputs":[{"internalType":"uint256","name":"escrowId","type":"uint256"}],"stateMutability":"payable","type":"function"},{"inputs":[{"internalType":"address","name":"beneficiary","type":"address"},{"internalType":"address","name":"arbiter","type":"address"},{"internalType":"uint256","name":"amount","type":"uint256"},{"internalType":"uint256","name":"deadline","type":"uint256"},{"internalType":"uint256","name":"minGuarantors","type":"uint256"}],"name":"createEscrowWithGuarantors","outputs":[{"internalType":"uint256","name":"escrowId","type":"uint256"}],"stateMutability":"payable","type":"function"},{"inputs":[{"internalType":"address","name":"beneficiary","type":"address"},{"internalType":"address","name":"arbiter","type":"address"},{"internalType":"uint256[]","name":"milestoneAmounts","type":"uint256[]"},{"internalType":"uint256[]","name":"milestoneDeadlines","type":"uint256[]"},{"internalType":"string[]","name":"milestoneDescriptions","type":"string[]"}],"name":"createEscrowWithMilestones","outputs":[{"internalType":"uint256","name":"escrowId","type":"uint256"}],"stateMutability":"payable","type":"function"},{"inputs":[{"internalType":"uint256","name":"escrowId","type":"uint256"}],"name":"fundEscrow","outputs":[],"stateMutability":"payable","type":"function"},{"inputs":[{"internalType":"uint256","name":"escrowId","type":"uint256"}],"name":"getAllMilestones","outputs":[{"components":[{"internalType":"uint256","name":"amount","type":"uint256"},{"internalType":"uint256","name":"deadline","type":"uint256"},{"internalType":"bool","name":"approved","type":"bool"},{"internalType":"bool","name":"released","type":"bool"},{"internalType":"string","name":"description","type":"string"}],"internalType":"struct IEscrowMilestones.Milestone[]","name":"","type":"tuple[]"}],"stateMutability":"view","type":"function"},{"inputs":[{"internalType":"uint256","name":"escrowId","type":"uint256"}],"name":"getEscrowInfo","outputs":[{"components":[{"internalType":"address","name":"creator","type":"address"},{"internalType":"address","name":"beneficiary","type":"address"},{"internalType":"address","name":"arbiter","type":"address"},{"internalType":"uint256","name":"amount","type":"uint256"},{"internalType":"uint256","name":"deadline","type":"uint256"},{"internalType":"enum IEscrowCore.EscrowState","name":"state","type":"uint8"},{"internalType":"uint256","name":"createdAt","type":"uint256"}],"internalType":"struct IEscrowCore.EscrowBasicInfo","name":"","type":"tuple"}],"stateMutability":"view","type":"function"},{"inputs":[{"internalType":"uint256","name":"escrowId","type":"uint256"}],"name":"getEscrowState","outputs":[{"internalType":"enum IEscrowCore.EscrowState","name":"","type":"uint8"}],"stateMutability":"view","type":"function"},{"inputs":[{"internalType":"uint256","name":"escrowId","type":"uint256"},{"internalType":"address","name":"guarantor","type":"address"}],"name":"getGuarantorCommitment","outputs":[{"components":[{"internalType":"address","name":"guarantor","type":"address"},{"internalType":"enum IEscrowGuarantors.GuarantorTier","name":"tier","type":"uint8"},{"internalType":"uint256","name":"stakeAmount","type":"uint256"},{"internalType":"bytes32","name":"commitmentHash","type":"bytes32"},{"internalType":"bool","name":"revealed","type":"bool"},{"internalType":"uint256","name":"commitedAt","type":"uint256"}],"internalType":"struct IEscrowGuarantors.GuarantorCommitment","name":"","type":"tuple"}],"stateMutability":"view","type":"function"},{"inputs":[{"internalType":"uint256","name":"escrowId","type":"uint256"}],"name":"getGuarantors","outputs":[{"internalType":"address[]","name":"","type":"address[]"}],"stateMutability":"view","type":"function"},{"inputs":[{"internalType":"uint256","name":"escrowId","type":"uint256"},{"internalType":"uint256","name":"milestoneIndex","type":"uint256"}],"name":"getMilestone","outputs":[{"components":[{"internalType":"uint256","name":"amount","type":"uint256"},{"internalType":"uint256","name":"deadline","type":"uint256"},{"internalType":"bool","name":"approved","type":"bool"},{"internalType":"bool","name":"released","type":"bool"},{"internalType":"string","name":"description","type":"string"}],"internalType":"struct IEscrowMilestones.Milestone","name":"","type":"tuple"}],"stateMutability":"view","type":"function"},{"inputs":[{"internalType":"uint256","name":"escrowId","type":"uint256"}],"name":"getMilestoneCount","outputs":[{"internalType":"uint256","name":"","type":"uint256"}],"stateMutability":"view","type":"function"},{"inputs":[{"internalType":"uint256","name":"","type":"uint256"},{"internalType":"address","name":"","type":"address"}],"name":"hasContributed","outputs":[{"internalType":"bool","name":"","type":"bool"}],"stateMutability":"view","type":"function"},{"inputs":[{"internalType":"uint256","name":"escrowId","type":"uint256"},{"internalType":"address","name":"guarantor","type":"address"}],"name":"isGuarantorVerified","outputs":[{"internalType":"bool","name":"","type":"bool"}],"stateMutability":"view","type":"function"},{"inputs":[],"name":"nextEscrowId","outputs":[{"internalType":"uint256","name":"","type":"uint256"}],"stateMutability":"view","type":"function"},{"inputs":[{"internalType":"uint256","name":"escrowId","type":"uint256"}],"name":"releaseEscrow","outputs":[],"stateMutability":"nonpayable","type":"function"},{"inputs":[{"internalType":"uint256","name":"escrowId","type":"uint256"},{"internalType":"uint256","name":"milestoneIndex","type":"uint256"}],"name":"releaseMilestone","outputs":[],"stateMutability":"nonpayable","type":"function"},{"inputs":[{"internalType":"uint256","name":"escrowId","type":"uint256"},{"internalType":"bytes32","name":"secret","type":"bytes32"}],"name":"revealCommitment","outputs":[],"stateMutability":"nonpayable","type":"function"},{"inputs":[{"internalType":"uint256","name":"escrowId","type":"uint256"},{"internalType":"address","name":"guarantor","type":"address"},{"internalType":"uint256","name":"rewardAmount","type":"uint256"}],"name":"rewardGuarantor","outputs":[],"stateMutability":"nonpayable","type":"function"},{"inputs":[{"internalType":"uint256","name":"escrowId","type":"uint256"},{"internalType":"address","name":"guarantor","type":"address"},{"internalType":"uint256","name":"slashAmount","type":"uint256"}],"name":"slashGuarantor","outputs":[],"stateMutability":"nonpayable","type":"function"}],"evm":{"bytecode":{"linkReferences":{},"object":"6080604052348015600f57600080fd5b506001600055612cfa806100246000396000f3fe60806040526004361061019c5760003560e01c8063a0b2389b116100ec578063c2010e501161008a578063ccbae5f611610064578063ccbae5f6146104a8578063dbaf0910146104bb578063e0182436146104db578063ed653164146104fb57600080fd5b8063c2010e5014610455578063c9c31af514610475578063cc24e30b1461048857600080fd5b8063ae0c0252116100c6578063ae0c0252146103d4578063b3090231146103f4578063b44b44a314610407578063b5b96ae01461041a57600080fd5b8063a0b2389b14610365578063a177531f14610392578063a7d61209146103bf57600080fd5b80635a8f6a891161015957806389cb29dd1161013357806389cb29dd146102d65780638ed9895c146102eb578063957a79ff146103185780639bffca541461033857600080fd5b80635a8f6a89146102815780638646405e1461029457806389ab7519146102c157600080fd5b80630cb9ce7b146101a157806310737d24146101cb57806314db2e7d146101fb57806317e931cf1461021b57806320913da5146102325780633a49995b14610254575b600080fd5b3480156101ad57600080fd5b506101b86202a30081565b6040519081526020015b60405180910390f35b3480156101d757600080fd5b506101eb6101e63660046125b7565b61051b565b60405190151581526020016101c2565b34801561020757600080fd5b506101eb6102163660046125e3565b610590565b34801561022757600080fd5b506101b86201518081565b34801561023e57600080fd5b5061025261024d3660046125fc565b61063f565b005b34801561026057600080fd5b5061027461026f3660046125e3565b6107ea565b6040516101c29190612648565b61025261028f36600461265c565b61083b565b3480156102a057600080fd5b506102b46102af3660046125e3565b610ae5565b6040516101c29190612698565b3480156102cd57600080fd5b506101b8601481565b3480156102e257600080fd5b506001546101b8565b3480156102f757600080fd5b5061030b6103063660046125fc565b610bdd565b6040516101c29190612777565b34801561032457600080fd5b506102526103333660046125fc565b610d83565b34801561034457600080fd5b506103586103533660046125e3565b610f32565b6040516101c29190612791565b34801561037157600080fd5b506103856103803660046125e3565b610fd3565b6040516101c291906127dd565b34801561039e57600080fd5b506103b26103ad3660046125b7565b61113b565b6040516101c29190612852565b3480156103cb57600080fd5b506101b8600a81565b3480156103e057600080fd5b506102526103ef3660046128a7565b611240565b6101b8610402366004612918565b6113a1565b6101b86104153660046129df565b6116e0565b34801561042657600080fd5b506101eb6104353660046125b7565b600360209081526000928352604080842090915290825290205460ff1681565b34801561046157600080fd5b506101b86104703660046125e3565b611725565b6102526104833660046125e3565b61176c565b34801561049457600080fd5b506102526104a33660046128a7565b6118ad565b6101b86104b6366004612a2c565b6119f0565b3480156104c757600080fd5b506102526104d63660046125fc565b611a75565b3480156104e757600080fd5b506102526104f63660046125e3565b611d5c565b34801561050757600080fd5b506102526105163660046125e3565b611f54565b6000828152600260205260408120600701548390820361054e5760405163f1d80ab160e01b815260040160405180910390fd5b60008481526005602090815260408083206001600160a01b03871684529091529020600381015460ff1680156105875750600481015415155b95945050505050565b6000818152600860205260408120548082036105af5750600192915050565b6000838152600660205260408120815b8154811015610635576005600087815260200190815260200160002060008383815481106105ef576105ef612a6e565b60009182526020808320909101546001600160a01b0316835282019290925260400190206003015460ff161561062d578261062981612a9a565b9350505b6001016105bf565b5050101592915050565b6000828152600260205260408120600701548391036106715760405163f1d80ab160e01b815260040160405180910390fd5b8260018060008381526002602052604090206006015460ff16600481111561069b5761069b61261e565b146106b95760405163baf3f0f760e01b815260040160405180910390fd5b600085815260036020908152604080832033845290915290205460ff166106f2576040516282b42960e81b815260040160405180910390fd5b600085815260046020526040902054841061072057604051630f10172360e11b815260040160405180910390fd5b600085815260046020526040812080548690811061074057610740612a6e565b60009182526020909120600490910201600281015490915060ff161561077957604051630535ed3960e41b815260040160405180910390fd5b6002810154610100900460ff16156107a4576040516340dabeef60e11b815260040160405180910390fd5b60028101805460ff191660011790556040513390869088907f9ffbb52f2a1362273cd74689a516ca4f52c4282dc13e2e68b7e0646a9a7af7a390600090a4505050505050565b6000818152600260205260408120600701548290820361081d5760405163f1d80ab160e01b815260040160405180910390fd5b60008381526002602052604090206006015460ff1691505b50919050565b60008381526002602052604081206007015484910361086d5760405163f1d80ab160e01b815260040160405180910390fd5b60008481526007602052604090205442111561089c5760405163ef7e72b360e01b815260040160405180910390fd5b6000848152600560209081526040808320338452909152902060040154156108d757604051636d5572f960e01b815260040160405180910390fd5b60008360028111156108eb576108eb61261e565b036109095760405163e142361760e01b815260040160405180910390fd5b600084815260026020819052604082206003015491908560028111156109315761093161261e565b1461093d57600a610940565b60145b9050600060646109508385612ab3565b61095a9190612aca565b90508034101561097d576040516378de4a6960e11b815260040160405180910390fd5b6040518060c00160405280336001600160a01b031681526020018760028111156109a9576109a961261e565b8152346020808301919091526040808301899052600060608401819052426080909401939093528a8352600582528083203384528252909120825181546001600160a01b03919091166001600160a01b031982168117835592840151919283916001600160a81b03191617600160a01b836002811115610a2b57610a2b61261e565b021790555060408281015160018381019190915560608401516002840155608084015160038401805460ff191691151591909117905560a09093015160049092019190915560008981526006602090815282822080549485018155825290209091018054336001600160a01b03199091168117909155905188907f983c5b9827d25fd511d90dd0616fc845ed16f91d3c9cecc8640d159d23df677e90610ad4908a903490612aec565b60405180910390a350505050505050565b6040805160e081018252600080825260208201819052918101829052606081018290526080810182905260a0810182905260c0810191909152600082815260026020526040812060070154839103610b505760405163f1d80ab160e01b815260040160405180910390fd5b600083815260026020818152604092839020835160e08101855281546001600160a01b039081168252600183015481169382019390935292810154909116928201929092526003820154606082015260058201546080820152600682015460a082019060ff166004811115610bc757610bc761261e565b8152602001826007015481525092505050919050565b610c136040518060a001604052806000815260200160008152602001600015158152602001600015158152602001606081525090565b600083815260026020526040812060070154849103610c455760405163f1d80ab160e01b815260040160405180910390fd5b6000848152600460205260409020548310610c7357604051630f10172360e11b815260040160405180910390fd5b6000848152600460205260409020805484908110610c9357610c93612a6e565b60009182526020918290206040805160a081018252600490930290910180548352600181015493830193909352600283015460ff80821615159284019290925261010090041615156060820152600382018054919291608084019190610cf890612b07565b80601f0160208091040260200160405190810160405280929190818152602001828054610d2490612b07565b8015610d715780601f10610d4657610100808354040283529160200191610d71565b820191906000526020600020905b815481529060010190602001808311610d5457829003601f168201915b50505050508152505091505092915050565b600082815260026020526040812060070154839103610db55760405163f1d80ab160e01b815260040160405180910390fd5b6000838152600760205260409020544211610de35760405163916176f760e01b815260040160405180910390fd5b600083815260076020526040902054610e00906201518090612b3b565b421115610e205760405163916176f760e01b815260040160405180910390fd5b600083815260056020908152604080832033845290915281206004810154909103610e5e5760405163078daeb160e41b815260040160405180910390fd5b600381015460ff1615610e8457604051636d5572f960e01b815260040160405180910390fd5b6040516bffffffffffffffffffffffff193360601b166020820152603481018490526054810185905260009060740160405160208183030381529060405280519060200120905081600201548114610eef5760405163029dd5dd60e41b815260040160405180910390fd5b60038201805460ff19166001179055604051339086907ff57a03868e2006a2efea9e9937096234348e58d47daf1b998ef34a6951bea6ea90600090a35050505050565b60008181526002602052604081206007015460609183919003610f685760405163f1d80ab160e01b815260040160405180910390fd5b60008381526006602090815260409182902080548351818402810184019094528084529091830182828015610fc657602002820191906000526020600020905b81546001600160a01b03168152600190910190602001808311610fa8575b5050505050915050919050565b600081815260026020526040812060070154606091839190036110095760405163f1d80ab160e01b815260040160405180910390fd5b600083815260046020908152604080832080548251818502810185019093528083529193909284015b8282101561112f5760008481526020908190206040805160a0810182526004860290920180548352600181015493830193909352600283015460ff8082161515928401929092526101009004161515606082015260038201805491929160808401919061109e90612b07565b80601f01602080910402602001604051908101604052809291908181526020018280546110ca90612b07565b80156111175780601f106110ec57610100808354040283529160200191611117565b820191906000526020600020905b8154815290600101906020018083116110fa57829003601f168201915b50505050508152505081526020019060010190611032565b50505050915050919050565b6040805160c081018252600080825260208201819052918101829052606081018290526080810182905260a081019190915260008381526002602052604081206007015484910361119f5760405163f1d80ab160e01b815260040160405180910390fd5b60008481526005602090815260408083206001600160a01b03878116855290835292819020815160c081019092528054938416825290929091830190600160a01b900460ff1660028111156111f6576111f661261e565b60028111156112075761120761261e565b81526001820154602082015260028201546040820152600382015460ff1615156060820152600490910154608090910152949350505050565b6000838152600260205260408120600701548491036112725760405163f1d80ab160e01b815260040160405180910390fd5b6000848152600260208190526040909120015484906001600160a01b031633146112ae576040516282b42960e81b815260040160405180910390fd5b60008581526005602090815260408083206001600160a01b0388168452909152812060048101549091036112f55760405163078daeb160e41b815260040160405180910390fd5b806001015484111561131a576040516378de4a6960e11b815260040160405180910390fd5b8381600101600082825461132e9190612b4e565b909155505060008681526002602052604081206004018054869290611354908490612b3b565b90915550506040518481526001600160a01b0386169087907fc589f50dddc35114cf3f48b6b230d8a1896bc2b40c09fc409d18f9d2104a5ab99060200160405180910390a3505050505050565b60008581036113c357604051633e4932f960e21b815260040160405180910390fd5b8584146113e357604051633e4932f960e21b815260040160405180910390fd5b81158015906113f25750818614155b1561141057604051633e4932f960e21b815260040160405180910390fd5b6000805b878110156114e25788888281811061142e5761142e612a6e565b905060200201356000036114555760405163162908e360e11b815260040160405180910390fd5b88888281811061146757611467612a6e565b90506020020135826114799190612b3b565b915086868281811061148d5761148d612a6e565b905060200201356000141580156114bc5750428787838181106114b2576114b2612a6e565b9050602002013511155b156114da57604051631da7447960e21b815260040160405180910390fd5b600101611414565b506114f2338b8b84346000612173565b915060005b878110156116d25760008461151b5760405180602001604052806000815250611574565b85858381811061152d5761152d612a6e565b905060200281019061153f9190612b61565b8080601f0160208091040260200160405190810160405280939291908181526020018383808284376000920191909152505050505b9050600460008581526020019081526020016000206040518060a001604052808c8c868181106115a6576115a6612a6e565b9050602002013581526020018a8a868181106115c4576115c4612a6e565b6020908102929092013583525060008282018190526040808401829052606093840187905285546001818101885596835291839020855160049093020191825591840151948101949094558201516002840180549284015115156101000261ff00199215159290921661ffff1990931692909217179055608081015190919060038201906116529082612c05565b50505081847fdd9c8b628c5ee6e97f53a818750c89e0ff818c9250075b01cb58b42d998589438c8c8681811061168a5761168a612a6e565b905060200201358b8b878181106116a3576116a3612a6e565b905060200201356040516116c1929190918252602082015260400190565b60405180910390a3506001016114f7565b505098975050505050505050565b60006116f0338787873488612173565b90506116ff6202a30042612b3b565b600082815260076020908152604080832093909355600890522082905595945050505050565b600081815260026020526040812060070154829082036117585760405163f1d80ab160e01b815260040160405180910390fd5b505060009081526004602052604090205490565b60008181526002602052604081206007015482910361179e5760405163f1d80ab160e01b815260040160405180910390fd5b8160008060008381526002602052604090206006015460ff1660048111156117c8576117c861261e565b146117e65760405163baf3f0f760e01b815260040160405180910390fd5b346000036118075760405163162908e360e11b815260040160405180910390fd5b60008481526002602052604081206004810180549192349261182a908490612b3b565b909155505060008581526003602090815260408083203380855290835292819020805460ff191660011790555134815287917f4a2cd88ec7a748d5b20b3512d7249c67745777b219009075c745923684e9653d910160405180910390a380600301548160040154106118a65760068101805460ff191660011790555b5050505050565b6000838152600260205260408120600701548491036118df5760405163f1d80ab160e01b815260040160405180910390fd5b60008481526005602090815260408083206001600160a01b0387168452909152812060048101549091036119265760405163078daeb160e41b815260040160405180910390fd5b60008382600101546119389190612b3b565b600060018401819055604051919250906001600160a01b0387169083908381818185875af1925050503d806000811461198d576040519150601f19603f3d011682016040523d82523d6000602084013e611992565b606091505b50509050806119b4576040516312171d8360e31b815260040160405180910390fd5b856001600160a01b0316877f37520d8fd090b71ac4380faa4334ae2e9f58bae768e4c8a88f112bbde669f83287604051610ad491815260200190565b60006001600160a01b038516611a195760405163d92e233d60e01b815260040160405180910390fd5b82600003611a3a5760405163162908e360e11b815260040160405180910390fd5b8115801590611a495750428211155b15611a6757604051631da7447960e21b815260040160405180910390fd5b610587338686863487612173565b611a7d6123b7565b600082815260026020526040812060070154839103611aaf5760405163f1d80ab160e01b815260040160405180910390fd5b8260018060008381526002602052604090206006015460ff166004811115611ad957611ad961261e565b14611af75760405163baf3f0f760e01b815260040160405180910390fd5b6000858152600460205260409020548410611b2557604051630f10172360e11b815260040160405180910390fd5b6000858152600460205260408120805486908110611b4557611b45612a6e565b60009182526020808320898452600291829052604084206004909302019081015490935090919060ff1680611ba35750600183015415801590611b8b5750826001015442115b8015611ba3575060018201546001600160a01b031633145b905080611bc35760405163b755348d60e01b815260040160405180910390fd5b6002830154610100900460ff1615611bee576040516340dabeef60e11b815260040160405180910390fd5b825460048301541015611c145760405163356680b760e01b815260040160405180910390fd5b60028301805461ff0019166101001790558254600483018054600090611c3b908490612b4e565b9091555050600182015483546040516000926001600160a01b031691908381818185875af1925050503d8060008114611c90576040519150601f19603f3d011682016040523d82523d6000602084013e611c95565b606091505b5050905080611cb7576040516312171d8360e31b815260040160405180910390fd5b87897fd33fcd27cbfb73a2d9058c968b560ccb306500bf536133802048489ecc7355e98660000154604051611cee91815260200190565b60405180910390a3611cff896123e1565b15611d475760068301805460ff1916600317905560405189907f9285bd636dda01bef18996aa38303bb742f6c67a6941646dddb17630cb492c2e90600090a2611d478961244b565b50505050505050611d586001600055565b5050565b611d646123b7565b600081815260026020526040812060070154829103611d965760405163f1d80ab160e01b815260040160405180910390fd5b600082815260026020526040812090600682015460ff166004811115611dbe57611dbe61261e565b14158015611de557506001600682015460ff166004811115611de257611de261261e565b14155b15611e035760405163baf3f0f760e01b815260040160405180910390fd5b80546000906001600160a01b0316331480611e2a575060028201546001600160a01b031633145b80611e5b5750600582015415801590611e465750816005015442115b8015611e5b575081546001600160a01b031633145b905080611e7a576040516282b42960e81b815260040160405180910390fd5b600482015460068301805460ff191660021790558015611f095782546040516000916001600160a01b03169083908381818185875af1925050503d8060008114611ee0576040519150601f19603f3d011682016040523d82523d6000602084013e611ee5565b606091505b5050905080611f07576040516312171d8360e31b815260040160405180910390fd5b505b847fdc48a08bb890bd1b8e4261212a97a5e711e80830d96ba56b362f3ac5f427d51e82604051611f3b91815260200190565b60405180910390a250505050611f516001600055565b50565b611f5c6123b7565b600081815260026020526040812060070154829103611f8e5760405163f1d80ab160e01b815260040160405180910390fd5b8160018060008381526002602052604090206006015460ff166004811115611fb857611fb861261e565b14611fd65760405163baf3f0f760e01b815260040160405180910390fd5b600084815260026020526040812080549091906001600160a01b031633148061200b575060028201546001600160a01b031633145b8061203f57506005820154158015906120275750816005015442115b801561203f575060018201546001600160a01b031633145b90508061205e576040516282b42960e81b815260040160405180910390fd5b600482015460068301805460ff1916600317905560018301546040516000916001600160a01b03169083908381818185875af1925050503d80600081146120c1576040519150601f19603f3d011682016040523d82523d6000602084013e6120c6565b606091505b50509050806120e8576040516312171d8360e31b815260040160405180910390fd5b60018401546040518381526001600160a01b039091169089907f6244ed823ca6be0f11bc890c3fafcf3c29cb23420c14243642e930b5e07e6d0a9060200160405180910390a360405188907f9285bd636dda01bef18996aa38303bb742f6c67a6941646dddb17630cb492c2e90600090a26121628861244b565b50505050505050611f516001600055565b600180546000918261218483612a9a565b919050559050604051806101000160405280886001600160a01b03168152602001876001600160a01b03168152602001866001600160a01b03168152602001858152602001848152602001838152602001858510156121e45760006121e7565b60015b60048111156121f8576121f861261e565b81524260209182015260008381526002808352604091829020845181546001600160a01b03199081166001600160a01b03928316178355948601516001808401805488169284169290921790915593860151928201805490951692169190911790925560608301516003830155608083015160048084019190915560a0840151600584015560c08401516006840180549193909260ff199092169184908111156122a4576122a461261e565b021790555060e0919091015160079091015582156122ea5760008181526003602090815260408083206001600160a01b038b1684529091529020805460ff191660011790555b856001600160a01b0316876001600160a01b0316827f9405ad0a6208539879349284d71265479b1623846f70303da1f9890d6e8c10a78760405161233091815260200190565b60405180910390a4821561238357866001600160a01b0316817f4a2cd88ec7a748d5b20b3512d7249c67745777b219009075c745923684e9653d8560405161237a91815260200190565b60405180910390a35b600160008281526002602052604090206006015460ff1660048111156123ab576123ab61261e565b50509695505050505050565b6002600054036123da57604051633ee5aeb560e01b815260040160405180910390fd5b6002600055565b6000818152600460205260408120815b81548110156124415781818154811061240c5761240c612a6e565b906000526020600020906004020160020160019054906101000a900460ff16612439575060009392505050565b6001016123f1565b5060019392505050565b611f51816000818152600660205260408120905b81548110156125965760008381526005602052604081208354829085908590811061248c5761248c612a6e565b60009182526020808320909101546001600160a01b03168352820192909252604001902060018101549091501561258d5760008383815481106124d1576124d1612a6e565b600091825260208220015460018401546040516001600160a01b039092169290919081818185875af1925050503d806000811461252a576040519150601f19603f3d011682016040523d82523d6000602084013e61252f565b606091505b50509050806125845760405162461bcd60e51b815260206004820152601760248201527f47756172616e746f7220726566756e64206661696c6564000000000000000000604482015260640160405180910390fd5b50600060018201555b5060010161245f565b505050565b80356001600160a01b03811681146125b257600080fd5b919050565b600080604083850312156125ca57600080fd5b823591506125da6020840161259b565b90509250929050565b6000602082840312156125f557600080fd5b5035919050565b6000806040838503121561260f57600080fd5b50508035926020909101359150565b634e487b7160e01b600052602160045260246000fd5b600581106126445761264461261e565b9052565b602081016126568284612634565b92915050565b60008060006060848603121561267157600080fd5b8335925060208401356003811061268757600080fd5b929592945050506040919091013590565b81516001600160a01b03908116825260208084015182169083015260408084015190911690820152606080830151908201526080808301519082015260a08281015160e08301916126eb90840182612634565b5060c092830151919092015290565b80518252602081015160208301526040810151151560408301526060810151151560608301526000608082015160a0608085015280518060a086015260005b8181101561275657602081840181015160c0888401015201612739565b50600060c0828701015260c0601f19601f8301168601019250505092915050565b60208152600061278a60208301846126fa565b9392505050565b602080825282518282018190526000918401906040840190835b818110156127d25783516001600160a01b03168352602093840193909201916001016127ab565b509095945050505050565b6000602082016020835280845180835260408501915060408160051b86010192506020860160005b8281101561283657603f198786030184526128218583516126fa565b94506020938401939190910190600101612805565b50929695505050505050565b600381106126445761264461261e565b81516001600160a01b0316815260208083015160c083019161287690840182612842565b50604083015160408301526060830151606083015260808301511515608083015260a083015160a083015292915050565b6000806000606084860312156128bc57600080fd5b833592506126876020850161259b565b60008083601f8401126128de57600080fd5b50813567ffffffffffffffff8111156128f657600080fd5b6020830191508360208260051b850101111561291157600080fd5b9250929050565b60008060008060008060008060a0898b03121561293457600080fd5b61293d8961259b565b975061294b60208a0161259b565b9650604089013567ffffffffffffffff81111561296757600080fd5b6129738b828c016128cc565b909750955050606089013567ffffffffffffffff81111561299357600080fd5b61299f8b828c016128cc565b909550935050608089013567ffffffffffffffff8111156129bf57600080fd5b6129cb8b828c016128cc565b999c989b5096995094979396929594505050565b600080600080600060a086880312156129f757600080fd5b612a008661259b565b9450612a0e6020870161259b565b94979496505050506040830135926060810135926080909101359150565b60008060008060808587031215612a4257600080fd5b612a4b8561259b565b9350612a596020860161259b565b93969395505050506040820135916060013590565b634e487b7160e01b600052603260045260246000fd5b634e487b7160e01b600052601160045260246000fd5b600060018201612aac57612aac612a84565b5060010190565b808202811582820484141761265657612656612a84565b600082612ae757634e487b7160e01b600052601260045260246000fd5b500490565b60408101612afa8285612842565b8260208301529392505050565b600181811c90821680612b1b57607f821691505b60208210810361083557634e487b7160e01b600052602260045260246000fd5b8082018082111561265657612656612a84565b8181038181111561265657612656612a84565b6000808335601e19843603018112612b7857600080fd5b83018035915067ffffffffffffffff821115612b9357600080fd5b60200191503681900382131561291157600080fd5b634e487b7160e01b600052604160045260246000fd5b601f82111561259657806000526020600020601f840160051c81016020851015612be55750805b601f840160051c820191505b818110156118a65760008155600101612bf1565b815167ffffffffffffffff811115612c1f57612c1f612ba8565b612c3381612c2d8454612b07565b84612bbe565b6020601f821160018114612c675760008315612c4f5750848201515b600019600385901b1c1916600184901b1784556118a6565b600084815260208120601f198516915b82811015612c975787850151825560209485019460019092019101612c77565b5084821015612cb55786840151600019600387901b60f8161c191681555b50505050600190811b0190555056fea2646970667358221220ac1018aab849c6b71405ae4cbaa49841e249e9c5a750a17ee3c1e2201118275b64736f6c634300081e0033","opcodes":"PUSH1 0x80 PUSH1 0x40 MSTORE CALLVALUE DUP1 ISZERO PUSH1 0xF JUMPI PUSH1 0x0 DUP1 REVERT JUMPDEST POP PUSH1 0x1 PUSH1 0x0 SSTORE PUSH2 0x2CFA DUP1 PUSH2 0x24 PUSH1 0x0 CODECOPY PUSH1 0x0 RETURN INVALID PUSH1 0x80 PUSH1 0x40 MSTORE PUSH1 0x4 CALLDATASIZE LT PUSH2 0x19C JUMPI PUSH1 0x0 CALLDATALOAD PUSH1 0xE0 SHR DUP1 PUSH4 0xA0B2389B GT PUSH2 0xEC JUMPI DUP1 PUSH4 0xC2010E50 GT PUSH2 0x8A JUMPI DUP1 PUSH4 0xCCBAE5F6 GT PUSH2 0x64 JUMPI DUP1 PUSH4 0xCCBAE5F6 EQ PUSH2 0x4A8 JUMPI DUP1 PUSH4 0xDBAF0910 EQ PUSH2 0x4BB JUMPI DUP1 PUSH4 0xE0182436 EQ PUSH2 0x4DB JUMPI DUP1 PUSH4 0xED653164 EQ PUSH2 0x4FB JUMPI PUSH1 0x0 DUP1 REVERT JUMPDEST DUP1 PUSH4 0xC2010E50 EQ PUSH2 0x455 JUMPI DUP1 PUSH4 0xC9C31AF5 EQ PUSH2 0x475 JUMPI DUP1 PUSH4 0xCC24E30B EQ PUSH2 0x488 JUMPI PUSH1 0x0 DUP1 REVERT JUMPDEST DUP1 PUSH4 0xAE0C0252 GT PUSH2 0xC6 JUMPI DUP1 PUSH4 0xAE0C0252 EQ PUSH2 0x3D4 JUMPI DUP1 PUSH4 0xB3090231 EQ PUSH2 0x3F4 JUMPI DUP1 PUSH4 0xB44B44A3 EQ PUSH2 0x407 JUMPI DUP1 PUSH4 0xB5B96AE0 EQ PUSH2 0x41A JUMPI PUSH1 0x0 DUP1 REVERT JUMPDEST DUP1 PUSH4 0xA0B2389B EQ PUSH2 0x365 JUMPI DUP1 PUSH4 0xA177531F EQ PUSH2 0x392 JUMPI DUP1 PUSH4 0xA7D61209 EQ PUSH2 0x3BF JUMPI PUSH1 0x0 DUP1 REVERT JUMPDEST DUP1 PUSH4 0x5A8F6A89 GT PUSH2 0x159 JUMPI DUP1 PUSH4 0x89CB29DD GT PUSH2 0x133 JUMPI DUP1 PUSH4 0x89CB29DD EQ PUSH2 0x2D6 JUMPI DUP1 PUSH4 0x8ED9895C EQ PUSH2 0x2EB JUMPI DUP1 PUSH4 0x957A79FF EQ PUSH2 0x318 JUMPI DUP1 PUSH4 0x9BFFCA54 EQ PUSH2 0x338 JUMPI PUSH1 0x0 DUP1 REVERT JUMPDEST DUP1 PUSH4 0x5A8F6A89 EQ PUSH2 0x281 JUMPI DUP1 PUSH4 0x8646405E EQ PUSH2 0x294 JUMPI DUP1 PUSH4 0x89AB7519 EQ PUSH2 0x2C1 JUMPI PUSH1 0x0 DUP1 REVERT JUMPDEST DUP1 PUSH4 0xCB9CE7B EQ PUSH2 0x1A1 JUMPI DUP1 PUSH4 0x10737D24 EQ PUSH2 0x1CB JUMPI DUP1 PUSH4 0x14DB2E7D EQ PUSH2 0x1FB JUMPI DUP1 PUSH4 0x17E931CF EQ PUSH2 0x21B JUMPI DUP1 PUSH4 0x20913DA5 EQ PUSH2 0x232 JUMPI DUP1 PUSH4 0x3A49995B EQ PUSH2 0x254 JUMPI JUMPDEST PUSH1 0x0 DUP1 REVERT JUMPDEST CALLVALUE DUP1 ISZERO PUSH2 0x1AD JUMPI PUSH1 0x0 DUP1 REVERT JUMPDEST POP PUSH2 0x1B8 PUSH3 0x2A300 DUP2 JUMP JUMPDEST PUSH1 0x40 MLOAD SWAP1 DUP2 MSTORE PUSH1 0x20 ADD JUMPDEST PUSH1 0x40 MLOAD DUP1 SWAP2 SUB SWAP1 RETURN JUMPDEST CALLVALUE DUP1 ISZERO PUSH2 0x1D7 JUMPI PUSH1 0x0 DUP1 REVERT JUMPDEST POP PUSH2 0x1EB PUSH2 0x1E6 CALLDATASIZE PUSH1 0x4 PUSH2 0x25B7 JUMP JUMPDEST PUSH2 0x51B JUMP JUMPDEST PUSH1 0x40 MLOAD SWAP1 ISZERO ISZERO DUP2 MSTORE PUSH1 0x20 ADD PUSH2 0x1C2 JUMP JUMPDEST CALLVALUE DUP1 ISZERO PUSH2 0x207 JUMPI PUSH1 0x0 DUP1 REVERT JUMPDEST POP PUSH2 0x1EB PUSH2 0x216 CALLDATASIZE PUSH1 0x4 PUSH2 0x25E3 JUMP JUMPDEST PUSH2 0x590 JUMP JUMPDEST CALLVALUE DUP1 ISZERO PUSH2 0x227 JUMPI PUSH1 0x0 DUP1 REVERT JUMPDEST POP PUSH2 0x1B8 PUSH3 0x15180 DUP2 JUMP JUMPDEST CALLVALUE DUP1 ISZERO PUSH2 0x23E JUMPI PUSH1 0x0 DUP1 REVERT JUMPDEST POP PUSH2 0x252 PUSH2 0x24D CALLDATASIZE PUSH1 0x4 PUSH2 0x25FC JUMP JUMPDEST PUSH2 0x63F JUMP JUMPDEST STOP JUMPDEST CALLVALUE DUP1 ISZERO PUSH2 0x260 JUMPI PUSH1 0x0 DUP1 REVERT JUMPDEST POP PUSH2 0x274 PUSH2 0x26F CALLDATASIZE PUSH1 0x4 PUSH2 0x25E3 JUMP JUMPDEST PUSH2 0x7EA JUMP JUMPDEST PUSH1 0x40 MLOAD PUSH2 0x1C2 SWAP2 SWAP1 PUSH2 0x2648 JUMP JUMPDEST PUSH2 0x252 PUSH2 0x28F CALLDATASIZE PUSH1 0x4 PUSH2 0x265C JUMP JUMPDEST PUSH2 0x83B JUMP JUMPDEST CALLVALUE DUP1 ISZERO PUSH2 0x2A0 JUMPI PUSH1 0x0 DUP1 REVERT JUMPDEST POP PUSH2 0x2B4 PUSH2 0x2AF CALLDATASIZE PUSH1 0x4 PUSH2 0x25E3 JUMP JUMPDEST PUSH2 0xAE5 JUMP JUMPDEST PUSH1 0x40 MLOAD PUSH2 0x1C2 SWAP2 SWAP1 PUSH2 0x2698 JUMP JUMPDEST CALLVALUE DUP1 ISZERO PUSH2 0x2CD JUMPI PUSH1 0x0 DUP1 REVERT JUMPDEST POP PUSH2 0x1B8 PUSH1 0x14 DUP2 JUMP JUMPDEST CALLVALUE DUP1 ISZERO PUSH2 0x2E2 JUMPI PUSH1 0x0 DUP1 REVERT JUMPDEST POP PUSH1 0x1 SLOAD PUSH2 0x1B8 JUMP JUMPDEST CALLVALUE DUP1 ISZERO PUSH2 0x2F7 JUMPI PUSH1 0x0 DUP1 REVERT JUMPDEST POP PUSH2 0x30B PUSH2 0x306 CALLDATASIZE PUSH1 0x4 PUSH2 0x25FC JUMP JUMPDEST PUSH2 0xBDD JUMP JUMPDEST PUSH1 0x40 MLOAD PUSH2 0x1C2 SWAP2 SWAP1 PUSH2 0x2777 JUMP JUMPDEST CALLVALUE DUP1 ISZERO PUSH2 0x324 JUMPI PUSH1 0x0 DUP1 REVERT JUMPDEST POP PUSH2 0x252 PUSH2 0x333 CALLDATASIZE PUSH1 0x4 PUSH2 0x25FC JUMP JUMPDEST PUSH2 0xD83 JUMP JUMPDEST CALLVALUE DUP1 ISZERO PUSH2 0x344 JUMPI PUSH1 0x0 DUP1 REVERT JUMPDEST POP PUSH2 0x358 PUSH2 0x353 CALLDATASIZE PUSH1 0x4 PUSH2 0x25E3 JUMP JUMPDEST PUSH2 0xF32 JUMP JUMPDEST PUSH1 0x40 MLOAD PUSH2 0x1C2 SWAP2 SWAP1 PUSH2 0x2791 JUMP JUMPDEST CALLVALUE DUP1 ISZERO PUSH2 0x371 JUMPI PUSH1 0x0 DUP1 REVERT JUMPDEST POP PUSH2 0x385 PUSH2 0x380 CALLDATASIZE PUSH1 0x4 PUSH2 0x25E3 JUMP JUMPDEST PUSH2 0xFD3 JUMP JUMPDEST PUSH1 0x40 MLOAD PUSH2 0x1C2 SWAP2 SWAP1 PUSH2 0x27DD JUMP JUMPDEST CALLVALUE DUP1 ISZERO PUSH2 0x39E JUMPI PUSH1 0x0 DUP1 REVERT JUMPDEST POP PUSH2 0x3B2 PUSH2 0x3AD CALLDATASIZE PUSH1 0x4 PUSH2 0x25B7 JUMP JUMPDEST PUSH2 0x113B JUMP JUMPDEST PUSH1 0x40 MLOAD PUSH2 0x1C2 SWAP2 SWAP1 PUSH2 0x2852 JUMP JUMPDEST CALLVALUE DUP1 ISZERO PUSH2 0x3CB JUMPI PUSH1 0x0 DUP1 REVERT JUMPDEST POP PUSH2 0x1B8 PUSH1 0xA DUP2 JUMP JUMPDEST CALLVALUE DUP1 ISZERO PUSH2 0x3E0 JUMPI PUSH1 0x0 DUP1 REVERT JUMPDEST POP PUSH2 0x252 PUSH2 0x3EF CALLDATASIZE PUSH1 0x4 PUSH2 0x28A7 JUMP JUMPDEST PUSH2 0x1240 JUMP JUMPDEST PUSH2 0x1B8 PUSH2 0x402 CALLDATASIZE PUSH1 0x4 PUSH2 0x2918 JUMP JUMPDEST PUSH2 0x13A1 JUMP JUMPDEST PUSH2 0x1B8 PUSH2 0x415 CALLDATASIZE PUSH1 0x4 PUSH2 0x29DF JUMP JUMPDEST PUSH2 0x16E0 JUMP JUMPDEST CALLVALUE DUP1 ISZERO PUSH2 0x426 JUMPI PUSH1 0x0 DUP1 REVERT JUMPDEST POP PUSH2 0x1EB PUSH2 0x435 CALLDATASIZE PUSH1 0x4 PUSH2 0x25B7 JUMP JUMPDEST PUSH1 0x3 PUSH1 0x20 SWAP1 DUP2 MSTORE PUSH1 0x0 SWAP3 DUP4 MSTORE PUSH1 0x40 DUP1 DUP5 KECCAK256 SWAP1 SWAP2 MSTORE SWAP1 DUP3 MSTORE SWAP1 KECCAK256 SLOAD PUSH1 0xFF AND DUP2 JUMP JUMPDEST CALLVALUE DUP1 ISZERO PUSH2 0x461 JUMPI PUSH1 0x0 DUP1 REVERT JUMPDEST POP PUSH2 0x1B8 PUSH2 0x470 CALLDATASIZE PUSH1 0x4 PUSH2 0x25E3 JUMP JUMPDEST PUSH2 0x1725 JUMP JUMPDEST PUSH2 0x252 PUSH2 0x483 CALLDATASIZE PUSH1 0x4 PUSH2 0x25E3 JUMP JUMPDEST PUSH2 0x176C JUMP JUMPDEST CALLVALUE DUP1 ISZERO PUSH2 0x494 JUMPI PUSH1 0x0 DUP1 REVERT JUMPDEST POP PUSH2 0x252 PUSH2 0x4A3 CALLDATASIZE PUSH1 0x4 PUSH2 0x28A7 JUMP JUMPDEST PUSH2 0x18AD JUMP JUMPDEST PUSH2 0x1B8 PUSH2 0x4B6 CALLDATASIZE PUSH1 0x4 PUSH2 0x2A2C JUMP JUMPDEST PUSH2 0x19F0 JUMP JUMPDEST CALLVALUE DUP1 ISZERO PUSH2 0x4C7 JUMPI PUSH1 0x0 DUP1 REVERT JUMPDEST POP PUSH2 0x252 PUSH2 0x4D6 CALLDATASIZE PUSH1 0x4 PUSH2 0x25FC JUMP JUMPDEST PUSH2 0x1A75 JUMP JUMPDEST CALLVALUE DUP1 ISZERO PUSH2 0x4E7 JUMPI PUSH1 0x0 DUP1 REVERT JUMPDEST POP PUSH2 0x252 PUSH2 0x4F6 CALLDATASIZE PUSH1 0x4 PUSH2 0x25E3 JUMP JUMPDEST PUSH2 0x1D5C JUMP JUMPDEST CALLVALUE DUP1 ISZERO PUSH2 0x507 JUMPI PUSH1 0x0 DUP1 REVERT JUMPDEST POP PUSH2 0x252 PUSH2 0x516 CALLDATASIZE PUSH1 0x4 PUSH2 0x25E3 JUMP JUMPDEST PUSH2 0x1F54 JUMP JUMPDEST PUSH1 0x0 DUP3 DUP2 MSTORE PUSH1 0x2 PUSH1 0x20 MSTORE PUSH1 0x40 DUP2 KECCAK256 PUSH1 0x7 ADD SLOAD DUP4 SWAP1 DUP3 SUB PUSH2 0x54E JUMPI PUSH1 0x40 MLOAD PUSH4 0xF1D80AB1 PUSH1 0xE0 SHL DUP2 MSTORE PUSH1 0x4 ADD PUSH1 0x40 MLOAD DUP1 SWAP2 SUB SWAP1 REVERT JUMPDEST PUSH1 0x0 DUP5 DUP2 MSTORE PUSH1 0x5 PUSH1 0x20 SWAP1 DUP2 MSTORE PUSH1 0x40 DUP1 DUP4 KECCAK256 PUSH1 0x1 PUSH1 0x1 PUSH1 0xA0 SHL SUB DUP8 AND DUP5 MSTORE SWAP1 SWAP2 MSTORE SWAP1 KECCAK256 PUSH1 0x3 DUP2 ADD SLOAD PUSH1 0xFF AND DUP1 ISZERO PUSH2 0x587 JUMPI POP PUSH1 0x4 DUP2 ADD SLOAD ISZERO ISZERO JUMPDEST SWAP6 SWAP5 POP POP POP POP POP JUMP JUMPDEST PUSH1 0x0 DUP2 DUP2 MSTORE PUSH1 0x8 PUSH1 0x20 MSTORE PUSH1 0x40 DUP2 KECCAK256 SLOAD DUP1 DUP3 SUB PUSH2 0x5AF JUMPI POP PUSH1 0x1 SWAP3 SWAP2 POP POP JUMP JUMPDEST PUSH1 0x0 DUP4 DUP2 MSTORE PUSH1 0x6 PUSH1 0x20 MSTORE PUSH1 0x40 DUP2 KECCAK256 DUP2 JUMPDEST DUP2 SLOAD DUP2 LT ISZERO PUSH2 0x635 JUMPI PUSH1 0x5 PUSH1 0x0 DUP8 DUP2 MSTORE PUSH1 0x20 ADD SWAP1 DUP2 MSTORE PUSH1 0x20 ADD PUSH1 0x0 KECCAK256 PUSH1 0x0 DUP4 DUP4 DUP2 SLOAD DUP2 LT PUSH2 0x5EF JUMPI PUSH2 0x5EF PUSH2 0x2A6E JUMP JUMPDEST PUSH1 0x0 SWAP2 DUP3 MSTORE PUSH1 0x20 DUP1 DUP4 KECCAK256 SWAP1 SWAP2 ADD SLOAD PUSH1 0x1 PUSH1 0x1 PUSH1 0xA0 SHL SUB AND DUP4 MSTORE DUP3 ADD SWAP3 SWAP1 SWAP3 MSTORE PUSH1 0x40 ADD SWAP1 KECCAK256 PUSH1 0x3 ADD SLOAD PUSH1 0xFF AND ISZERO PUSH2 0x62D JUMPI DUP3 PUSH2 0x629 DUP2 PUSH2 0x2A9A JUMP JUMPDEST SWAP4 POP POP JUMPDEST PUSH1 0x1 ADD PUSH2 0x5BF JUMP JUMPDEST POP POP LT ISZERO SWAP3 SWAP2 POP POP JUMP JUMPDEST PUSH1 0x0 DUP3 DUP2 MSTORE PUSH1 0x2 PUSH1 0x20 MSTORE PUSH1 0x40 DUP2 KECCAK256 PUSH1 0x7 ADD SLOAD DUP4 SWAP2 SUB PUSH2 0x671 JUMPI PUSH1 0x40 MLOAD PUSH4 0xF1D80AB1 PUSH1 0xE0 SHL DUP2 MSTORE PUSH1 0x4 ADD PUSH1 0x40 MLOAD DUP1 SWAP2 SUB SWAP1 REVERT JUMPDEST DUP3 PUSH1 0x1 DUP1 PUSH1 0x0 DUP4 DUP2 MSTORE PUSH1 0x2 PUSH1 0x20 MSTORE PUSH1 0x40 SWAP1 KECCAK256 PUSH1 0x6 ADD SLOAD PUSH1 0xFF AND PUSH1 0x4 DUP2 GT ISZERO PUSH2 0x69B JUMPI PUSH2 0x69B PUSH2 0x261E JUMP JUMPDEST EQ PUSH2 0x6B9 JUMPI PUSH1 0x40 MLOAD PUSH4 0xBAF3F0F7 PUSH1 0xE0 SHL DUP2 MSTORE PUSH1 0x4 ADD PUSH1 0x40 MLOAD DUP1 SWAP2 SUB SWAP1 REVERT JUMPDEST PUSH1 0x0 DUP6 DUP2 MSTORE PUSH1 0x3 PUSH1 0x20 SWAP1 DUP2 MSTORE PUSH1 0x40 DUP1 DUP4 KECCAK256 CALLER DUP5 MSTORE SWAP1 SWAP2 MSTORE SWAP1 KECCAK256 SLOAD PUSH1 0xFF AND PUSH2 0x6F2 JUMPI PUSH1 0x40 MLOAD PUSH3 0x82B429 PUSH1 0xE8 SHL DUP2 MSTORE PUSH1 0x4 ADD PUSH1 0x40 MLOAD DUP1 SWAP2 SUB SWAP1 REVERT JUMPDEST PUSH1 0x0 DUP6 DUP2 MSTORE PUSH1 0x4 PUSH1 0x20 MSTORE PUSH1 0x40 SWAP1 KECCAK256 SLOAD DUP5 LT PUSH2 0x720 JUMPI PUSH1 0x40 MLOAD PUSH4 0xF101723 PUSH1 0xE1 SHL DUP2 MSTORE PUSH1 0x4 ADD PUSH1 0x40 MLOAD DUP1 SWAP2 SUB SWAP1 REVERT JUMPDEST PUSH1 0x0 DUP6 DUP2 MSTORE PUSH1 0x4 PUSH1 0x20 MSTORE PUSH1 0x40 DUP2 KECCAK256 DUP1 SLOAD DUP7 SWAP1 DUP2 LT PUSH2 0x740 JUMPI PUSH2 0x740 PUSH2 0x2A6E JUMP JUMPDEST PUSH1 0x0 SWAP2 DUP3 MSTORE PUSH1 0x20 SWAP1 SWAP2 KECCAK256 PUSH1 0x4 SWAP1 SWAP2 MUL ADD PUSH1 0x2 DUP2 ADD SLOAD SWAP1 SWAP2 POP PUSH1 0xFF AND ISZERO PUSH2 0x779 JUMPI PUSH1 0x40 MLOAD PUSH4 0x535ED39 PUSH1 0xE4 SHL DUP2 MSTORE PUSH1 0x4 ADD PUSH1 0x40 MLOAD DUP1 SWAP2 SUB SWAP1 REVERT JUMPDEST PUSH1 0x2 DUP2 ADD SLOAD PUSH2 0x100 SWAP1 DIV PUSH1 0xFF AND ISZERO PUSH2 0x7A4 JUMPI PUSH1 0x40 MLOAD PUSH4 0x40DABEEF PUSH1 0xE1 SHL DUP2 MSTORE PUSH1 0x4 ADD PUSH1 0x40 MLOAD DUP1 SWAP2 SUB SWAP1 REVERT JUMPDEST PUSH1 0x2 DUP2 ADD DUP1 SLOAD PUSH1 0xFF NOT AND PUSH1 0x1 OR SWAP1 SSTORE PUSH1 0x40 MLOAD CALLER SWAP1 DUP7 SWAP1 DUP9 SWAP1 PUSH32 0x9FFBB52F2A1362273CD74689A516CA4F52C4282DC13E2E68B7E0646A9A7AF7A3 SWAP1 PUSH1 0x0 SWAP1 LOG4 POP POP POP POP POP POP JUMP JUMPDEST PUSH1 0x0 DUP2 DUP2 MSTORE PUSH1 0x2 PUSH1 0x20 MSTORE PUSH1 0x40 DUP2 KECCAK256 PUSH1 0x7 ADD SLOAD DUP3 SWAP1 DUP3 SUB PUSH2 0x81D JUMPI PUSH1 0x40 MLOAD PUSH4 0xF1D80AB1 PUSH1 0xE0 SHL DUP2 MSTORE PUSH1 0x4 ADD PUSH1 0x40 MLOAD DUP1 SWAP2 SUB SWAP1 REVERT JUMPDEST PUSH1 0x0 DUP4 DUP2 MSTORE PUSH1 0x2 PUSH1 0x20 MSTORE PUSH1 0x40 SWAP1 KECCAK256 PUSH1 0x6 ADD SLOAD PUSH1 0xFF AND SWAP2 POP JUMPDEST POP SWAP2 SWAP1 POP JUMP JUMPDEST PUSH1 0x0 DUP4 DUP2 MSTORE PUSH1 0x2 PUSH1 0x20 MSTORE PUSH1 0x40 DUP2 KECCAK256 PUSH1 0x7 ADD SLOAD DUP5 SWAP2 SUB PUSH2 0x86D JUMPI PUSH1 0x40 MLOAD PUSH4 0xF1D80AB1 PUSH1 0xE0 SHL DUP2 MSTORE PUSH1 0x4 ADD PUSH1 0x40 MLOAD DUP1 SWAP2 SUB SWAP1 REVERT JUMPDEST PUSH1 0x0 DUP5 DUP2 MSTORE PUSH1 0x7 PUSH1 0x20 MSTORE PUSH1 0x40 SWAP1 KECCAK256 SLOAD TIMESTAMP GT ISZERO PUSH2 0x89C JUMPI PUSH1 0x40 MLOAD PUSH4 0xEF7E72B3 PUSH1 0xE0 SHL DUP2 MSTORE PUSH1 0x4 ADD PUSH1 0x40 MLOAD DUP1 SWAP2 SUB SWAP1 REVERT JUMPDEST PUSH1 0x0 DUP5 DUP2 MSTORE PUSH1 0x5 PUSH1 0x20 SWAP1 DUP2 MSTORE PUSH1 0x40 DUP1 DUP4 KECCAK256 CALLER DUP5 MSTORE SWAP1 SWAP2 MSTORE SWAP1 KECCAK256 PUSH1 0x4 ADD SLOAD ISZERO PUSH2 0x8D7 JUMPI PUSH1 0x40 MLOAD PUSH4 0x6D5572F9 PUSH1 0xE0 SHL DUP2 MSTORE PUSH1 0x4 ADD PUSH1 0x40 MLOAD DUP1 SWAP2 SUB SWAP1 REVERT JUMPDEST PUSH1 0x0 DUP4 PUSH1 0x2 DUP2 GT ISZERO PUSH2 0x8EB JUMPI PUSH2 0x8EB PUSH2 0x261E JUMP JUMPDEST SUB PUSH2 0x909 JUMPI PUSH1 0x40 MLOAD PUSH4 0xE1423617 PUSH1 0xE0 SHL DUP2 MSTORE PUSH1 0x4 ADD PUSH1 0x40 MLOAD DUP1 SWAP2 SUB SWAP1 REVERT JUMPDEST PUSH1 0x0 DUP5 DUP2 MSTORE PUSH1 0x2 PUSH1 0x20 DUP2 SWAP1 MSTORE PUSH1 0x40 DUP3 KECCAK256 PUSH1 0x3 ADD SLOAD SWAP2 SWAP1 DUP6 PUSH1 0x2 DUP2 GT ISZERO PUSH2 0x931 JUMPI PUSH2 0x931 PUSH2 0x261E JUMP JUMPDEST EQ PUSH2 0x93D JUMPI PUSH1 0xA PUSH2 0x940 JUMP JUMPDEST PUSH1 0x14 JUMPDEST SWAP1 POP PUSH1 0x0 PUSH1 0x64 PUSH2 0x950 DUP4 DUP6 PUSH2 0x2AB3 JUMP JUMPDEST PUSH2 0x95A SWAP2 SWAP1 PUSH2 0x2ACA JUMP JUMPDEST SWAP1 POP DUP1 CALLVALUE LT ISZERO PUSH2 0x97D JUMPI PUSH1 0x40 MLOAD PUSH4 0x78DE4A69 PUSH1 0xE1 SHL DUP2 MSTORE PUSH1 0x4 ADD PUSH1 0x40 MLOAD DUP1 SWAP2 SUB SWAP1 REVERT JUMPDEST PUSH1 0x40 MLOAD DUP1 PUSH1 0xC0 ADD PUSH1 0x40 MSTORE DUP1 CALLER PUSH1 0x1 PUSH1 0x1 PUSH1 0xA0 SHL SUB AND DUP2 MSTORE PUSH1 0x20 ADD DUP8 PUSH1 0x2 DUP2 GT ISZERO PUSH2 0x9A9 JUMPI PUSH2 0x9A9 PUSH2 0x261E JUMP JUMPDEST DUP2 MSTORE CALLVALUE PUSH1 0x20 DUP1 DUP4 ADD SWAP2 SWAP1 SWAP2 MSTORE PUSH1 0x40 DUP1 DUP4 ADD DUP10 SWAP1 MSTORE PUSH1 0x0 PUSH1 0x60 DUP5 ADD DUP2 SWAP1 MSTORE TIMESTAMP PUSH1 0x80 SWAP1 SWAP5 ADD SWAP4 SWAP1 SWAP4 MSTORE DUP11 DUP4 MSTORE PUSH1 0x5 DUP3 MSTORE DUP1 DUP4 KECCAK256 CALLER DUP5 MSTORE DUP3 MSTORE SWAP1 SWAP2 KECCAK256 DUP3 MLOAD DUP2 SLOAD PUSH1 0x1 PUSH1 0x1 PUSH1 0xA0 SHL SUB SWAP2 SWAP1 SWAP2 AND PUSH1 0x1 PUSH1 0x1 PUSH1 0xA0 SHL SUB NOT DUP3 AND DUP2 OR DUP4 SSTORE SWAP3 DUP5 ADD MLOAD SWAP2 SWAP3 DUP4 SWAP2 PUSH1 0x1 PUSH1 0x1 PUSH1 0xA8 SHL SUB NOT AND OR PUSH1 0x1 PUSH1 0xA0 SHL DUP4 PUSH1 0x2 DUP2 GT ISZERO PUSH2 0xA2B JUMPI PUSH2 0xA2B PUSH2 0x261E JUMP JUMPDEST MUL OR SWAP1 SSTORE POP PUSH1 0x40 DUP3 DUP2 ADD MLOAD PUSH1 0x1 DUP4 DUP2 ADD SWAP2 SWAP1 SWAP2 SSTORE PUSH1 0x60 DUP5 ADD MLOAD PUSH1 0x2 DUP5 ADD SSTORE PUSH1 0x80 DUP5 ADD MLOAD PUSH1 0x3 DUP5 ADD DUP1 SLOAD PUSH1 0xFF NOT AND SWAP2 ISZERO ISZERO SWAP2 SWAP1 SWAP2 OR SWAP1 SSTORE PUSH1 0xA0 SWAP1 SWAP4 ADD MLOAD PUSH1 0x4 SWAP1 SWAP3 ADD SWAP2 SWAP1 SWAP2 SSTORE PUSH1 0x0 DUP10 DUP2 MSTORE PUSH1 0x6 PUSH1 0x20 SWAP1 DUP2 MSTORE DUP3 DUP3 KECCAK256 DUP1 SLOAD SWAP5 DUP6 ADD DUP2 SSTORE DUP3 MSTORE SWAP1 KECCAK256 SWAP1 SWAP2 ADD DUP1 SLOAD CALLER PUSH1 0x1 PUSH1 0x1 PUSH1 0xA0 SHL SUB NOT SWAP1 SWAP2 AND DUP2 OR SWAP1 SWAP2 SSTORE SWAP1 MLOAD DUP9 SWAP1 PUSH32 0x983C5B9827D25FD511D90DD0616FC845ED16F91D3C9CECC8640D159D23DF677E SWAP1 PUSH2 0xAD4 SWAP1 DUP11 SWAP1 CALLVALUE SWAP1 PUSH2 0x2AEC JUMP JUMPDEST PUSH1 0x40 MLOAD DUP1 SWAP2 SUB SWAP1 LOG3 POP POP POP POP POP POP POP JUMP JUMPDEST PUSH1 0x40 DUP1 MLOAD PUSH1 0xE0 DUP2 ADD DUP3 MSTORE PUSH1 0x0 DUP1 DUP3 MSTORE PUSH1 0x20 DUP3 ADD DUP2 SWAP1 MSTORE SWAP2 DUP2 ADD DUP3 SWAP1 MSTORE PUSH1 0x60 DUP2 ADD DUP3 SWAP1 MSTORE PUSH1 0x80 DUP2 ADD DUP3 SWAP1 MSTORE PUSH1 0xA0 DUP2 ADD DUP3 SWAP1 MSTORE PUSH1 0xC0 DUP2 ADD SWAP2 SWAP1 SWAP2 MSTORE PUSH1 0x0 DUP3 DUP2 MSTORE PUSH1 0x2 PUSH1 0x20 MSTORE PUSH1 0x40 DUP2 KECCAK256 PUSH1 0x7 ADD SLOAD DUP4 SWAP2 SUB PUSH2 0xB50 JUMPI PUSH1 0x40 MLOAD PUSH4 0xF1D80AB1 PUSH1 0xE0 SHL DUP2 MSTORE PUSH1 0x4 ADD PUSH1 0x40 MLOAD DUP1 SWAP2 SUB SWAP1 REVERT JUMPDEST PUSH1 0x0 DUP4 DUP2 MSTORE PUSH1 0x2 PUSH1 0x20 DUP2 DUP2 MSTORE PUSH1 0x40 SWAP3 DUP4 SWAP1 KECCAK256 DUP4 MLOAD PUSH1 0xE0 DUP2 ADD DUP6 MSTORE DUP2 SLOAD PUSH1 0x1 PUSH1 0x1 PUSH1 0xA0 SHL SUB SWAP1 DUP2 AND DUP3 MSTORE PUSH1 0x1 DUP4 ADD SLOAD DUP2 AND SWAP4 DUP3 ADD SWAP4 SWAP1 SWAP4 MSTORE SWAP3 DUP2 ADD SLOAD SWAP1 SWAP2 AND SWAP3 DUP3 ADD SWAP3 SWAP1 SWAP3 MSTORE PUSH1 0x3 DUP3 ADD SLOAD PUSH1 0x60 DUP3 ADD MSTORE PUSH1 0x5 DUP3 ADD SLOAD PUSH1 0x80 DUP3 ADD MSTORE PUSH1 0x6 DUP3 ADD SLOAD PUSH1 0xA0 DUP3 ADD SWAP1 PUSH1 0xFF AND PUSH1 0x4 DUP2 GT ISZERO PUSH2 0xBC7 JUMPI PUSH2 0xBC7 PUSH2 0x261E JUMP JUMPDEST DUP2 MSTORE PUSH1 0x20 ADD DUP3 PUSH1 0x7 ADD SLOAD DUP2 MSTORE POP SWAP3 POP POP POP SWAP2 SWAP1 POP JUMP JUMPDEST PUSH2 0xC13 PUSH1 0x40 MLOAD DUP1 PUSH1 0xA0 ADD PUSH1 0x40 MSTORE DUP1 PUSH1 0x0 DUP2 MSTORE PUSH1 0x20 ADD PUSH1 0x0 DUP2 MSTORE PUSH1 0x20 ADD PUSH1 0x0 ISZERO ISZERO DUP2 MSTORE PUSH1 0x20 ADD PUSH1 0x0 ISZERO ISZERO DUP2 MSTORE PUSH1 0x20 ADD PUSH1 0x60 DUP2 MSTORE POP SWAP1 JUMP JUMPDEST PUSH1 0x0 DUP4 DUP2 MSTORE PUSH1 0x2 PUSH1 0x20 MSTORE PUSH1 0x40 DUP2 KECCAK256 PUSH1 0x7 ADD SLOAD DUP5 SWAP2 SUB PUSH2 0xC45 JUMPI PUSH1 0x40 MLOAD PUSH4 0xF1D80AB1 PUSH1 0xE0 SHL DUP2 MSTORE PUSH1 0x4 ADD PUSH1 0x40 MLOAD DUP1 SWAP2 SUB SWAP1 REVERT JUMPDEST PUSH1 0x0 DUP5 DUP2 MSTORE PUSH1 0x4 PUSH1 0x20 MSTORE PUSH1 0x40 SWAP1 KECCAK256 SLOAD DUP4 LT PUSH2 0xC73 JUMPI PUSH1 0x40 MLOAD PUSH4 0xF101723 PUSH1 0xE1 SHL DUP2 MSTORE PUSH1 0x4 ADD PUSH1 0x40 MLOAD DUP1 SWAP2 SUB SWAP1 REVERT JUMPDEST PUSH1 0x0 DUP5 DUP2 MSTORE PUSH1 0x4 PUSH1 0x20 MSTORE PUSH1 0x40 SWAP1 KECCAK256 DUP1 SLOAD DUP5 SWAP1 DUP2 LT PUSH2 0xC93 JUMPI PUSH2 0xC93 PUSH2 0x2A6E JUMP JUMPDEST PUSH1 0x0 SWAP2 DUP3 MSTORE PUSH1 0x20 SWAP2 DUP3 SWAP1 KECCAK256 PUSH1 0x40 DUP1 MLOAD PUSH1 0xA0 DUP2 ADD DUP3 MSTORE PUSH1 0x4 SWAP1 SWAP4 MUL SWAP1 SWAP2 ADD DUP1 SLOAD DUP4 MSTORE PUSH1 0x1 DUP2 ADD SLOAD SWAP4 DUP4 ADD SWAP4 SWAP1 SWAP4 MSTORE PUSH1 0x2 DUP4 ADD SLOAD PUSH1 0xFF DUP1 DUP3 AND ISZERO ISZERO SWAP3 DUP5 ADD SWAP3 SWAP1 SWAP3 MSTORE PUSH2 0x100 SWAP1 DIV AND ISZERO ISZERO PUSH1 0x60 DUP3 ADD MSTORE PUSH1 0x3 DUP3 ADD DUP1 SLOAD SWAP2 SWAP3 SWAP2 PUSH1 0x80 DUP5 ADD SWAP2 SWAP1 PUSH2 0xCF8 SWAP1 PUSH2 0x2B07 JUMP JUMPDEST DUP1 PUSH1 0x1F ADD PUSH1 0x20 DUP1 SWAP2 DIV MUL PUSH1 0x20 ADD PUSH1 0x40 MLOAD SWAP1 DUP2 ADD PUSH1 0x40 MSTORE DUP1 SWAP3 SWAP2 SWAP1 DUP2 DUP2 MSTORE PUSH1 0x20 ADD DUP3 DUP1 SLOAD PUSH2 0xD24 SWAP1 PUSH2 0x2B07 JUMP JUMPDEST DUP1 ISZERO PUSH2 0xD71 JUMPI DUP1 PUSH1 0x1F LT PUSH2 0xD46 JUMPI PUSH2 0x100 DUP1 DUP4 SLOAD DIV MUL DUP4 MSTORE SWAP2 PUSH1 0x20 ADD SWAP2 PUSH2 0xD71 JUMP JUMPDEST DUP3 ADD SWAP2 SWAP1 PUSH1 0x0 MSTORE PUSH1 0x20 PUSH1 0x0 KECCAK256 SWAP1 JUMPDEST DUP2 SLOAD DUP2 MSTORE SWAP1 PUSH1 0x1 ADD SWAP1 PUSH1 0x20 ADD DUP1 DUP4 GT PUSH2 0xD54 JUMPI DUP3 SWAP1 SUB PUSH1 0x1F AND DUP3 ADD SWAP2 JUMPDEST POP POP POP POP POP DUP2 MSTORE POP POP SWAP2 POP POP SWAP3 SWAP2 POP POP JUMP JUMPDEST PUSH1 0x0 DUP3 DUP2 MSTORE PUSH1 0x2 PUSH1 0x20 MSTORE PUSH1 0x40 DUP2 KECCAK256 PUSH1 0x7 ADD SLOAD DUP4 SWAP2 SUB PUSH2 0xDB5 JUMPI PUSH1 0x40 MLOAD PUSH4 0xF1D80AB1 PUSH1 0xE0 SHL DUP2 MSTORE PUSH1 0x4 ADD PUSH1 0x40 MLOAD DUP1 SWAP2 SUB SWAP1 REVERT JUMPDEST PUSH1 0x0 DUP4 DUP2 MSTORE PUSH1 0x7 PUSH1 0x20 MSTORE PUSH1 0x40 SWAP1 KECCAK256 SLOAD TIMESTAMP GT PUSH2 0xDE3 JUMPI PUSH1 0x40 MLOAD PUSH4 0x916176F7 PUSH1 0xE0 SHL DUP2 MSTORE PUSH1 0x4 ADD PUSH1 0x40 MLOAD DUP1 SWAP2 SUB SWAP1 REVERT JUMPDEST PUSH1 0x0 DUP4 DUP2 MSTORE PUSH1 0x7 PUSH1 0x20 MSTORE PUSH1 0x40 SWAP1 KECCAK256 SLOAD PUSH2 0xE00 SWAP1 PUSH3 0x15180 SWAP1 PUSH2 0x2B3B JUMP JUMPDEST TIMESTAMP GT ISZERO PUSH2 0xE20 JUMPI PUSH1 0x40 MLOAD PUSH4 0x916176F7 PUSH1 0xE0 SHL DUP2 MSTORE PUSH1 0x4 ADD PUSH1 0x40 MLOAD DUP1 SWAP2 SUB SWAP1 REVERT JUMPDEST PUSH1 0x0 DUP4 DUP2 MSTORE PUSH1 0x5 PUSH1 0x20 SWAP1 DUP2 MSTORE PUSH1 0x40 DUP1 DUP4 KECCAK256 CALLER DUP5 MSTORE SWAP1 SWAP2 MSTORE DUP2 KECCAK256 PUSH1 0x4 DUP2 ADD SLOAD SWAP1 SWAP2 SUB PUSH2 0xE5E JUMPI PUSH1 0x40 MLOAD PUSH4 0x78DAEB1 PUSH1 0xE4 SHL DUP2 MSTORE PUSH1 0x4 ADD PUSH1 0x40 MLOAD DUP1 SWAP2 SUB SWAP1 REVERT JUMPDEST PUSH1 0x3 DUP2 ADD SLOAD PUSH1 0xFF AND ISZERO PUSH2 0xE84 JUMPI PUSH1 0x40 MLOAD PUSH4 0x6D5572F9 PUSH1 0xE0 SHL DUP2 MSTORE PUSH1 0x4 ADD PUSH1 0x40 MLOAD DUP1 SWAP2 SUB SWAP1 REVERT JUMPDEST PUSH1 0x40 MLOAD PUSH12 0xFFFFFFFFFFFFFFFFFFFFFFFF NOT CALLER PUSH1 0x60 SHL AND PUSH1 0x20 DUP3 ADD MSTORE PUSH1 0x34 DUP2 ADD DUP5 SWAP1 MSTORE PUSH1 0x54 DUP2 ADD DUP6 SWAP1 MSTORE PUSH1 0x0 SWAP1 PUSH1 0x74 ADD PUSH1 0x40 MLOAD PUSH1 0x20 DUP2 DUP4 SUB SUB DUP2 MSTORE SWAP1 PUSH1 0x40 MSTORE DUP1 MLOAD SWAP1 PUSH1 0x20 ADD KECCAK256 SWAP1 POP DUP2 PUSH1 0x2 ADD SLOAD DUP2 EQ PUSH2 0xEEF JUMPI PUSH1 0x40 MLOAD PUSH4 0x29DD5DD PUSH1 0xE4 SHL DUP2 MSTORE PUSH1 0x4 ADD PUSH1 0x40 MLOAD DUP1 SWAP2 SUB SWAP1 REVERT JUMPDEST PUSH1 0x3 DUP3 ADD DUP1 SLOAD PUSH1 0xFF NOT AND PUSH1 0x1 OR SWAP1 SSTORE PUSH1 0x40 MLOAD CALLER SWAP1 DUP7 SWAP1 PUSH32 0xF57A03868E2006A2EFEA9E9937096234348E58D47DAF1B998EF34A6951BEA6EA SWAP1 PUSH1 0x0 SWAP1 LOG3 POP POP POP POP POP JUMP JUMPDEST PUSH1 0x0 DUP2 DUP2 MSTORE PUSH1 0x2 PUSH1 0x20 MSTORE PUSH1 0x40 DUP2 KECCAK256 PUSH1 0x7 ADD SLOAD PUSH1 0x60 SWAP2 DUP4 SWAP2 SWAP1 SUB PUSH2 0xF68 JUMPI PUSH1 0x40 MLOAD PUSH4 0xF1D80AB1 PUSH1 0xE0 SHL DUP2 MSTORE PUSH1 0x4 ADD PUSH1 0x40 MLOAD DUP1 SWAP2 SUB SWAP1 REVERT JUMPDEST PUSH1 0x0 DUP4 DUP2 MSTORE PUSH1 0x6 PUSH1 0x20 SWAP1 DUP2 MSTORE PUSH1 0x40 SWAP2 DUP3 SWAP1 KECCAK256 DUP1 SLOAD DUP4 MLOAD DUP2 DUP5 MUL DUP2 ADD DUP5 ADD SWAP1 SWAP5 MSTORE DUP1 DUP5 MSTORE SWAP1 SWAP2 DUP4 ADD DUP3 DUP3 DUP1 ISZERO PUSH2 0xFC6 JUMPI PUSH1 0x20 MUL DUP3 ADD SWAP2 SWAP1 PUSH1 0x0 MSTORE PUSH1 0x20 PUSH1 0x0 KECCAK256 SWAP1 JUMPDEST DUP2 SLOAD PUSH1 0x1 PUSH1 0x1 PUSH1 0xA0 SHL SUB AND DUP2 MSTORE PUSH1 0x1 SWAP1 SWAP2 ADD SWAP1 PUSH1 0x20 ADD DUP1 DUP4 GT PUSH2 0xFA8 JUMPI JUMPDEST POP POP POP POP POP SWAP2 POP POP SWAP2 SWAP1 POP JUMP JUMPDEST PUSH1 0x0 DUP2 DUP2 MSTORE PUSH1 0x2 PUSH1 0x20 MSTORE PUSH1 0x40 DUP2 KECCAK256 PUSH1 0x7 ADD SLOAD PUSH1 0x60 SWAP2 DUP4 SWAP2 SWAP1 SUB PUSH2 0x1009 JUMPI PUSH1 0x40 MLOAD PUSH4 0xF1D80AB1 PUSH1 0xE0 SHL DUP2 MSTORE PUSH1 0x4 ADD PUSH1 0x40 MLOAD DUP1 SWAP2 SUB SWAP1 REVERT JUMPDEST PUSH1 0x0 DUP4 DUP2 MSTORE PUSH1 0x4 PUSH1 0x20 SWAP1 DUP2 MSTORE PUSH1 0x40 DUP1 DUP4 KECCAK256 DUP1 SLOAD DUP3 MLOAD DUP2 DUP6 MUL DUP2 ADD DUP6 ADD SWAP1 SWAP4 MSTORE DUP1 DUP4 MSTORE SWAP2 SWAP4 SWAP1 SWAP3 DUP5 ADD JUMPDEST DUP3 DUP3 LT ISZERO PUSH2 0x112F JUMPI PUSH1 0x0 DUP5 DUP2 MSTORE PUSH1 0x20 SWAP1 DUP2 SWAP1 KECCAK256 PUSH1 0x40 DUP1 MLOAD PUSH1 0xA0 DUP2 ADD DUP3 MSTORE PUSH1 0x4 DUP7 MUL SWAP1 SWAP3 ADD DUP1 SLOAD DUP4 MSTORE PUSH1 0x1 DUP2 ADD SLOAD SWAP4 DUP4 ADD SWAP4 SWAP1 SWAP4 MSTORE PUSH1 0x2 DUP4 ADD SLOAD PUSH1 0xFF DUP1 DUP3 AND ISZERO ISZERO SWAP3 DUP5 ADD SWAP3 SWAP1 SWAP3 MSTORE PUSH2 0x100 SWAP1 DIV AND ISZERO ISZERO PUSH1 0x60 DUP3 ADD MSTORE PUSH1 0x3 DUP3 ADD DUP1 SLOAD SWAP2 SWAP3 SWAP2 PUSH1 0x80 DUP5 ADD SWAP2 SWAP1 PUSH2 0x109E SWAP1 PUSH2 0x2B07 JUMP JUMPDEST DUP1 PUSH1 0x1F ADD PUSH1 0x20 DUP1 SWAP2 DIV MUL PUSH1 0x20 ADD PUSH1 0x40 MLOAD SWAP1 DUP2 ADD PUSH1 0x40 MSTORE DUP1 SWAP3 SWAP2 SWAP1 DUP2 DUP2 MSTORE PUSH1 0x20 ADD DUP3 DUP1 SLOAD PUSH2 0x10CA SWAP1 PUSH2 0x2B07 JUMP JUMPDEST DUP1 ISZERO PUSH2 0x1117 JUMPI DUP1 PUSH1 0x1F LT PUSH2 0x10EC JUMPI PUSH2 0x100 DUP1 DUP4 SLOAD DIV MUL DUP4 MSTORE SWAP2 PUSH1 0x20 ADD SWAP2 PUSH2 0x1117 JUMP JUMPDEST DUP3 ADD SWAP2 SWAP1 PUSH1 0x0 MSTORE PUSH1 0x20 PUSH1 0x0 KECCAK256 SWAP1 JUMPDEST DUP2 SLOAD DUP2 MSTORE SWAP1 PUSH1 0x1 ADD SWAP1 PUSH1 0x20 ADD DUP1 DUP4 GT PUSH2 0x10FA JUMPI DUP3 SWAP1 SUB PUSH1 0x1F AND DUP3 ADD SWAP2 JUMPDEST POP POP POP POP POP DUP2 MSTORE POP POP DUP2 MSTORE PUSH1 0x20 ADD SWAP1 PUSH1 0x1 ADD SWAP1 PUSH2 0x1032 JUMP JUMPDEST POP POP POP POP SWAP2 POP POP SWAP2 SWAP1 POP JUMP JUMPDEST PUSH1 0x40 DUP1 MLOAD PUSH1 0xC0 DUP2 ADD DUP3 MSTORE PUSH1 0x0 DUP1 DUP3 MSTORE PUSH1 0x20 DUP3 ADD DUP2 SWAP1 MSTORE SWAP2 DUP2 ADD DUP3 SWAP1 MSTORE PUSH1 0x60 DUP2 ADD DUP3 SWAP1 MSTORE PUSH1 0x80 DUP2 ADD DUP3 SWAP1 MSTORE PUSH1 0xA0 DUP2 ADD SWAP2 SWAP1 SWAP2 MSTORE PUSH1 0x0 DUP4 DUP2 MSTORE PUSH1 0x2 PUSH1 0x20 MSTORE PUSH1 0x40 DUP2 KECCAK256 PUSH1 0x7 ADD SLOAD DUP5 SWAP2 SUB PUSH2 0x119F JUMPI PUSH1 0x40 MLOAD PUSH4 0xF1D80AB1 PUSH1 0xE0 SHL DUP2 MSTORE PUSH1 0x4 ADD PUSH1 0x40 MLOAD DUP1 SWAP2 SUB SWAP1 REVERT JUMPDEST PUSH1 0x0 DUP5 DUP2 MSTORE PUSH1 0x5 PUSH1 0x20 SWAP1 DUP2 MSTORE PUSH1 0x40 DUP1 DUP4 KECCAK256 PUSH1 0x1 PUSH1 0x1 PUSH1 0xA0 SHL SUB DUP8 DUP2 AND DUP6 MSTORE SWAP1 DUP4 MSTORE SWAP3 DUP2 SWAP1 KECCAK256 DUP2 MLOAD PUSH1 0xC0 DUP2 ADD SWAP1 SWAP3 MSTORE DUP1 SLOAD SWAP4 DUP5 AND DUP3 MSTORE SWAP1 SWAP3 SWAP1 SWAP2 DUP4 ADD SWAP1 PUSH1 0x1 PUSH1 0xA0 SHL SWAP1 DIV PUSH1 0xFF AND PUSH1 0x2 DUP2 GT ISZERO PUSH2 0x11F6 JUMPI PUSH2 0x11F6 PUSH2 0x261E JUMP JUMPDEST PUSH1 0x2 DUP2 GT ISZERO PUSH2 0x1207 JUMPI PUSH2 0x1207 PUSH2 0x261E JUMP JUMPDEST DUP2 MSTORE PUSH1 0x1 DUP3 ADD SLOAD PUSH1 0x20 DUP3 ADD MSTORE PUSH1 0x2 DUP3 ADD SLOAD PUSH1 0x40 DUP3 ADD MSTORE PUSH1 0x3 DUP3 ADD SLOAD PUSH1 0xFF AND ISZERO ISZERO PUSH1 0x60 DUP3 ADD MSTORE PUSH1 0x4 SWAP1 SWAP2 ADD SLOAD PUSH1 0x80 SWAP1 SWAP2 ADD MSTORE SWAP5 SWAP4 POP POP POP POP JUMP JUMPDEST PUSH1 0x0 DUP4 DUP2 MSTORE PUSH1 0x2 PUSH1 0x20 MSTORE PUSH1 0x40 DUP2 KECCAK256 PUSH1 0x7 ADD SLOAD DUP5 SWAP2 SUB PUSH2 0x1272 JUMPI PUSH1 0x40 MLOAD PUSH4 0xF1D80AB1 PUSH1 0xE0 SHL DUP2 MSTORE PUSH1 0x4 ADD PUSH1 0x40 MLOAD DUP1 SWAP2 SUB SWAP1 REVERT JUMPDEST PUSH1 0x0 DUP5 DUP2 MSTORE PUSH1 0x2 PUSH1 0x20 DUP2 SWAP1 MSTORE PUSH1 0x40 SWAP1 SWAP2 KECCAK256 ADD SLOAD DUP5 SWAP1 PUSH1 0x1 PUSH1 0x1 PUSH1 0xA0 SHL SUB AND CALLER EQ PUSH2 0x12AE JUMPI PUSH1 0x40 MLOAD PUSH3 0x82B429 PUSH1 0xE8 SHL DUP2 MSTORE PUSH1 0x4 ADD PUSH1 0x40 MLOAD DUP1 SWAP2 SUB SWAP1 REVERT JUMPDEST PUSH1 0x0 DUP6 DUP2 MSTORE PUSH1 0x5 PUSH1 0x20 SWAP1 DUP2 MSTORE PUSH1 0x40 DUP1 DUP4 KECCAK256 PUSH1 0x1 PUSH1 0x1 PUSH1 0xA0 SHL SUB DUP9 AND DUP5 MSTORE SWAP1 SWAP2 MSTORE DUP2 KECCAK256 PUSH1 0x4 DUP2 ADD SLOAD SWAP1 SWAP2 SUB PUSH2 0x12F5 JUMPI PUSH1 0x40 MLOAD PUSH4 0x78DAEB1 PUSH1 0xE4 SHL DUP2 MSTORE PUSH1 0x4 ADD PUSH1 0x40 MLOAD DUP1 SWAP2 SUB SWAP1 REVERT JUMPDEST DUP1 PUSH1 0x1 ADD SLOAD DUP5 GT ISZERO PUSH2 0x131A JUMPI PUSH1 0x40 MLOAD PUSH4 0x78DE4A69 PUSH1 0xE1 SHL DUP2 MSTORE PUSH1 0x4 ADD PUSH1 0x40 MLOAD DUP1 SWAP2 SUB SWAP1 REVERT JUMPDEST DUP4 DUP2 PUSH1 0x1 ADD PUSH1 0x0 DUP3 DUP3 SLOAD PUSH2 0x132E SWAP2 SWAP1 PUSH2 0x2B4E JUMP JUMPDEST SWAP1 SWAP2 SSTORE POP POP PUSH1 0x0 DUP7 DUP2 MSTORE PUSH1 0x2 PUSH1 0x20 MSTORE PUSH1 0x40 DUP2 KECCAK256 PUSH1 0x4 ADD DUP1 SLOAD DUP7 SWAP3 SWAP1 PUSH2 0x1354 SWAP1 DUP5 SWAP1 PUSH2 0x2B3B JUMP JUMPDEST SWAP1 SWAP2 SSTORE POP POP PUSH1 0x40 MLOAD DUP5 DUP2 MSTORE PUSH1 0x1 PUSH1 0x1 PUSH1 0xA0 SHL SUB DUP7 AND SWAP1 DUP8 SWAP1 PUSH32 0xC589F50DDDC35114CF3F48B6B230D8A1896BC2B40C09FC409D18F9D2104A5AB9 SWAP1 PUSH1 0x20 ADD PUSH1 0x40 MLOAD DUP1 SWAP2 SUB SWAP1 LOG3 POP POP POP POP POP POP JUMP JUMPDEST PUSH1 0x0 DUP6 DUP2 SUB PUSH2 0x13C3 JUMPI PUSH1 0x40 MLOAD PUSH4 0x3E4932F9 PUSH1 0xE2 SHL DUP2 MSTORE PUSH1 0x4 ADD PUSH1 0x40 MLOAD DUP1 SWAP2 SUB SWAP1 REVERT JUMPDEST DUP6 DUP5 EQ PUSH2 0x13E3 JUMPI PUSH1 0x40 MLOAD PUSH4 0x3E4932F9 PUSH1 0xE2 SHL DUP2 MSTORE PUSH1 0x4 ADD PUSH1 0x40 MLOAD DUP1 SWAP2 SUB SWAP1 REVERT JUMPDEST DUP2 ISZERO DUP1 ISZERO SWAP1 PUSH2 0x13F2 JUMPI POP DUP2 DUP7 EQ ISZERO JUMPDEST ISZERO PUSH2 0x1410 JUMPI PUSH1 0x40 MLOAD PUSH4 0x3E4932F9 PUSH1 0xE2 SHL DUP2 MSTORE PUSH1 0x4 ADD PUSH1 0x40 MLOAD DUP1 SWAP2 SUB SWAP1 REVERT JUMPDEST PUSH1 0x0 DUP1 JUMPDEST DUP8 DUP2 LT ISZERO PUSH2 0x14E2 JUMPI DUP9 DUP9 DUP3 DUP2 DUP2 LT PUSH2 0x142E JUMPI PUSH2 0x142E PUSH2 0x2A6E JUMP JUMPDEST SWAP1 POP PUSH1 0x20 MUL ADD CALLDATALOAD PUSH1 0x0 SUB PUSH2 0x1455 JUMPI PUSH1 0x40 MLOAD PUSH4 0x162908E3 PUSH1 0xE1 SHL DUP2 MSTORE PUSH1 0x4 ADD PUSH1 0x40 MLOAD DUP1 SWAP2 SUB SWAP1 REVERT JUMPDEST DUP9 DUP9 DUP3 DUP2 DUP2 LT PUSH2 0x1467 JUMPI PUSH2 0x1467 PUSH2 0x2A6E JUMP JUMPDEST SWAP1 POP PUSH1 0x20 MUL ADD CALLDATALOAD DUP3 PUSH2 0x1479 SWAP2 SWAP1 PUSH2 0x2B3B JUMP JUMPDEST SWAP2 POP DUP7 DUP7 DUP3 DUP2 DUP2 LT PUSH2 0x148D JUMPI PUSH2 0x148D PUSH2 0x2A6E JUMP JUMPDEST SWAP1 POP PUSH1 0x20 MUL ADD CALLDATALOAD PUSH1 0x0 EQ ISZERO DUP1 ISZERO PUSH2 0x14BC JUMPI POP TIMESTAMP DUP8 DUP8 DUP4 DUP2 DUP2 LT PUSH2 0x14B2 JUMPI PUSH2 0x14B2 PUSH2 0x2A6E JUMP JUMPDEST SWAP1 POP PUSH1 0x20 MUL ADD CALLDATALOAD GT ISZERO JUMPDEST ISZERO PUSH2 0x14DA JUMPI PUSH1 0x40 MLOAD PUSH4 0x1DA74479 PUSH1 0xE2 SHL DUP2 MSTORE PUSH1 0x4 ADD PUSH1 0x40 MLOAD DUP1 SWAP2 SUB SWAP1 REVERT JUMPDEST PUSH1 0x1 ADD PUSH2 0x1414 JUMP JUMPDEST POP PUSH2 0x14F2 CALLER DUP12 DUP12 DUP5 CALLVALUE PUSH1 0x0 PUSH2 0x2173 JUMP JUMPDEST SWAP2 POP PUSH1 0x0 JUMPDEST DUP8 DUP2 LT ISZERO PUSH2 0x16D2 JUMPI PUSH1 0x0 DUP5 PUSH2 0x151B JUMPI PUSH1 0x40 MLOAD DUP1 PUSH1 0x20 ADD PUSH1 0x40 MSTORE DUP1 PUSH1 0x0 DUP2 MSTORE POP PUSH2 0x1574 JUMP JUMPDEST DUP6 DUP6 DUP4 DUP2 DUP2 LT PUSH2 0x152D JUMPI PUSH2 0x152D PUSH2 0x2A6E JUMP JUMPDEST SWAP1 POP PUSH1 0x20 MUL DUP2 ADD SWAP1 PUSH2 0x153F SWAP2 SWAP1 PUSH2 0x2B61 JUMP JUMPDEST DUP1 DUP1 PUSH1 0x1F ADD PUSH1 0x20 DUP1 SWAP2 DIV MUL PUSH1 0x20 ADD PUSH1 0x40 MLOAD SWAP1 DUP2 ADD PUSH1 0x40 MSTORE DUP1 SWAP4 SWAP3 SWAP2 SWAP1 DUP2 DUP2 MSTORE PUSH1 0x20 ADD DUP4 DUP4 DUP1 DUP3 DUP5 CALLDATACOPY PUSH1 0x0 SWAP3 ADD SWAP2 SWAP1 SWAP2 MSTORE POP POP POP POP JUMPDEST SWAP1 POP PUSH1 0x4 PUSH1 0x0 DUP6 DUP2 MSTORE PUSH1 0x20 ADD SWAP1 DUP2 MSTORE PUSH1 0x20 ADD PUSH1 0x0 KECCAK256 PUSH1 0x40 MLOAD DUP1 PUSH1 0xA0 ADD PUSH1 0x40 MSTORE DUP1 DUP13 DUP13 DUP7 DUP2 DUP2 LT PUSH2 0x15A6 JUMPI PUSH2 0x15A6 PUSH2 0x2A6E JUMP JUMPDEST SWAP1 POP PUSH1 0x20 MUL ADD CALLDATALOAD DUP2 MSTORE PUSH1 0x20 ADD DUP11 DUP11 DUP7 DUP2 DUP2 LT PUSH2 0x15C4 JUMPI PUSH2 0x15C4 PUSH2 0x2A6E JUMP JUMPDEST PUSH1 0x20 SWAP1 DUP2 MUL SWAP3 SWAP1 SWAP3 ADD CALLDATALOAD DUP4 MSTORE POP PUSH1 0x0 DUP3 DUP3 ADD DUP2 SWAP1 MSTORE PUSH1 0x40 DUP1 DUP5 ADD DUP3 SWAP1 MSTORE PUSH1 0x60 SWAP4 DUP5 ADD DUP8 SWAP1 MSTORE DUP6 SLOAD PUSH1 0x1 DUP2 DUP2 ADD DUP9 SSTORE SWAP7 DUP4 MSTORE SWAP2 DUP4 SWAP1 KECCAK256 DUP6 MLOAD PUSH1 0x4 SWAP1 SWAP4 MUL ADD SWAP2 DUP3 SSTORE SWAP2 DUP5 ADD MLOAD SWAP5 DUP2 ADD SWAP5 SWAP1 SWAP5 SSTORE DUP3 ADD MLOAD PUSH1 0x2 DUP5 ADD DUP1 SLOAD SWAP3 DUP5 ADD MLOAD ISZERO ISZERO PUSH2 0x100 MUL PUSH2 0xFF00 NOT SWAP3 ISZERO ISZERO SWAP3 SWAP1 SWAP3 AND PUSH2 0xFFFF NOT SWAP1 SWAP4 AND SWAP3 SWAP1 SWAP3 OR OR SWAP1 SSTORE PUSH1 0x80 DUP2 ADD MLOAD SWAP1 SWAP2 SWAP1 PUSH1 0x3 DUP3 ADD SWAP1 PUSH2 0x1652 SWAP1 DUP3 PUSH2 0x2C05 JUMP JUMPDEST POP POP POP DUP2 DUP5 PUSH32 0xDD9C8B628C5EE6E97F53A818750C89E0FF818C9250075B01CB58B42D99858943 DUP13 DUP13 DUP7 DUP2 DUP2 LT PUSH2 0x168A JUMPI PUSH2 0x168A PUSH2 0x2A6E JUMP JUMPDEST SWAP1 POP PUSH1 0x20 MUL ADD CALLDATALOAD DUP12 DUP12 DUP8 DUP2 DUP2 LT PUSH2 0x16A3 JUMPI PUSH2 0x16A3 PUSH2 0x2A6E JUMP JUMPDEST SWAP1 POP PUSH1 0x20 MUL ADD CALLDATALOAD PUSH1 0x40 MLOAD PUSH2 0x16C1 SWAP3 SWAP2 SWAP1 SWAP2 DUP3 MSTORE PUSH1 0x20 DUP3 ADD MSTORE PUSH1 0x40 ADD SWAP1 JUMP JUMPDEST PUSH1 0x40 MLOAD DUP1 SWAP2 SUB SWAP1 LOG3 POP PUSH1 0x1 ADD PUSH2 0x14F7 JUMP JUMPDEST POP POP SWAP9 SWAP8 POP POP POP POP POP POP POP POP JUMP JUMPDEST PUSH1 0x0 PUSH2 0x16F0 CALLER DUP8 DUP8 DUP8 CALLVALUE DUP9 PUSH2 0x2173 JUMP JUMPDEST SWAP1 POP PUSH2 0x16FF PUSH3 0x2A300 TIMESTAMP PUSH2 0x2B3B JUMP JUMPDEST PUSH1 0x0 DUP3 DUP2 MSTORE PUSH1 0x7 PUSH1 0x20 SWAP1 DUP2 MSTORE PUSH1 0x40 DUP1 DUP4 KECCAK256 SWAP4 SWAP1 SWAP4 SSTORE PUSH1 0x8 SWAP1 MSTORE KECCAK256 DUP3 SWAP1 SSTORE SWAP6 SWAP5 POP POP POP POP POP JUMP JUMPDEST PUSH1 0x0 DUP2 DUP2 MSTORE PUSH1 0x2 PUSH1 0x20 MSTORE PUSH1 0x40 DUP2 KECCAK256 PUSH1 0x7 ADD SLOAD DUP3 SWAP1 DUP3 SUB PUSH2 0x1758 JUMPI PUSH1 0x40 MLOAD PUSH4 0xF1D80AB1 PUSH1 0xE0 SHL DUP2 MSTORE PUSH1 0x4 ADD PUSH1 0x40 MLOAD DUP1 SWAP2 SUB SWAP1 REVERT JUMPDEST POP POP PUSH1 0x0 SWAP1 DUP2 MSTORE PUSH1 0x4 PUSH1 0x20 MSTORE PUSH1 0x40 SWAP1 KECCAK256 SLOAD SWAP1 JUMP JUMPDEST PUSH1 0x0 DUP2 DUP2 MSTORE PUSH1 0x2 PUSH1 0x20 MSTORE PUSH1 0x40 DUP2 KECCAK256 PUSH1 0x7 ADD SLOAD DUP3 SWAP2 SUB PUSH2 0x179E JUMPI PUSH1 0x40 MLOAD PUSH4 0xF1D80AB1 PUSH1 0xE0 SHL DUP2 MSTORE PUSH1 0x4 ADD PUSH1 0x40 MLOAD DUP1 SWAP2 SUB SWAP1 REVERT JUMPDEST DUP2 PUSH1 0x0 DUP1 PUSH1 0x0 DUP4 DUP2 MSTORE PUSH1 0x2 PUSH1 0x20 MSTORE PUSH1 0x40 SWAP1 KECCAK256 PUSH1 0x6 ADD SLOAD PUSH1 0xFF AND PUSH1 0x4 DUP2 GT ISZERO PUSH2 0x17C8 JUMPI PUSH2 0x17C8 PUSH2 0x261E JUMP JUMPDEST EQ PUSH2 0x17E6 JUMPI PUSH1 0x40 MLOAD PUSH4 0xBAF3F0F7 PUSH1 0xE0 SHL DUP2 MSTORE PUSH1 0x4 ADD PUSH1 0x40 MLOAD DUP1 SWAP2 SUB SWAP1 REVERT JUMPDEST CALLVALUE PUSH1 0x0 SUB PUSH2 0x1807 JUMPI PUSH1 0x40 MLOAD PUSH4 0x162908E3 PUSH1 0xE1 SHL DUP2 MSTORE PUSH1 0x4 ADD PUSH1 0x40 MLOAD DUP1 SWAP2 SUB SWAP1 REVERT JUMPDEST PUSH1 0x0 DUP5 DUP2 MSTORE PUSH1 0x2 PUSH1 0x20 MSTORE PUSH1 0x40 DUP2 KECCAK256 PUSH1 0x4 DUP2 ADD DUP1 SLOAD SWAP2 SWAP3 CALLVALUE SWAP3 PUSH2 0x182A SWAP1 DUP5 SWAP1 PUSH2 0x2B3B JUMP JUMPDEST SWAP1 SWAP2 SSTORE POP POP PUSH1 0x0 DUP6 DUP2 MSTORE PUSH1 0x3 PUSH1 0x20 SWAP1 DUP2 MSTORE PUSH1 0x40 DUP1 DUP4 KECCAK256 CALLER DUP1 DUP6 MSTORE SWAP1 DUP4 MSTORE SWAP3 DUP2 SWAP1 KECCAK256 DUP1 SLOAD PUSH1 0xFF NOT AND PUSH1 0x1 OR SWAP1 SSTORE MLOAD CALLVALUE DUP2 MSTORE DUP8 SWAP2 PUSH32 0x4A2CD88EC7A748D5B20B3512D7249C67745777B219009075C745923684E9653D SWAP2 ADD PUSH1 0x40 MLOAD DUP1 SWAP2 SUB SWAP1 LOG3 DUP1 PUSH1 0x3 ADD SLOAD DUP2 PUSH1 0x4 ADD SLOAD LT PUSH2 0x18A6 JUMPI PUSH1 0x6 DUP2 ADD DUP1 SLOAD PUSH1 0xFF NOT AND PUSH1 0x1 OR SWAP1 SSTORE JUMPDEST POP POP POP POP POP JUMP JUMPDEST PUSH1 0x0 DUP4 DUP2 MSTORE PUSH1 0x2 PUSH1 0x20 MSTORE PUSH1 0x40 DUP2 KECCAK256 PUSH1 0x7 ADD SLOAD DUP5 SWAP2 SUB PUSH2 0x18DF JUMPI PUSH1 0x40 MLOAD PUSH4 0xF1D80AB1 PUSH1 0xE0 SHL DUP2 MSTORE PUSH1 0x4 ADD PUSH1 0x40 MLOAD DUP1 SWAP2 SUB SWAP1 REVERT JUMPDEST PUSH1 0x0 DUP5 DUP2 MSTORE PUSH1 0x5 PUSH1 0x20 SWAP1 DUP2 MSTORE PUSH1 0x40 DUP1 DUP4 KECCAK256 PUSH1 0x1 PUSH1 0x1 PUSH1 0xA0 SHL SUB DUP8 AND DUP5 MSTORE SWAP1 SWAP2 MSTORE DUP2 KECCAK256 PUSH1 0x4 DUP2 ADD SLOAD SWAP1 SWAP2 SUB PUSH2 0x1926 JUMPI PUSH1 0x40 MLOAD PUSH4 0x78DAEB1 PUSH1 0xE4 SHL DUP2 MSTORE PUSH1 0x4 ADD PUSH1 0x40 MLOAD DUP1 SWAP2 SUB SWAP1 REVERT JUMPDEST PUSH1 0x0 DUP4 DUP3 PUSH1 0x1 ADD SLOAD PUSH2 0x1938 SWAP2 SWAP1 PUSH2 0x2B3B JUMP JUMPDEST PUSH1 0x0 PUSH1 0x1 DUP5 ADD DUP2 SWAP1 SSTORE PUSH1 0x40 MLOAD SWAP2 SWAP3 POP SWAP1 PUSH1 0x1 PUSH1 0x1 PUSH1 0xA0 SHL SUB DUP8 AND SWAP1 DUP4 SWAP1 DUP4 DUP2 DUP2 DUP2 DUP6 DUP8 GAS CALL SWAP3 POP POP POP RETURNDATASIZE DUP1 PUSH1 0x0 DUP2 EQ PUSH2 0x198D JUMPI PUSH1 0x40 MLOAD SWAP2 POP PUSH1 0x1F NOT PUSH1 0x3F RETURNDATASIZE ADD AND DUP3 ADD PUSH1 0x40 MSTORE RETURNDATASIZE DUP3 MSTORE RETURNDATASIZE PUSH1 0x0 PUSH1 0x20 DUP5 ADD RETURNDATACOPY PUSH2 0x1992 JUMP JUMPDEST PUSH1 0x60 SWAP2 POP JUMPDEST POP POP SWAP1 POP DUP1 PUSH2 0x19B4 JUMPI PUSH1 0x40 MLOAD PUSH4 0x12171D83 PUSH1 0xE3 SHL DUP2 MSTORE PUSH1 0x4 ADD PUSH1 0x40 MLOAD DUP1 SWAP2 SUB SWAP1 REVERT JUMPDEST DUP6 PUSH1 0x1 PUSH1 0x1 PUSH1 0xA0 SHL SUB AND DUP8 PUSH32 0x37520D8FD090B71AC4380FAA4334AE2E9F58BAE768E4C8A88F112BBDE669F832 DUP8 PUSH1 0x40 MLOAD PUSH2 0xAD4 SWAP2 DUP2 MSTORE PUSH1 0x20 ADD SWAP1 JUMP JUMPDEST PUSH1 0x0 PUSH1 0x1 PUSH1 0x1 PUSH1 0xA0 SHL SUB DUP6 AND PUSH2 0x1A19 JUMPI PUSH1 0x40 MLOAD PUSH4 0xD92E233D PUSH1 0xE0 SHL DUP2 MSTORE PUSH1 0x4 ADD PUSH1 0x40 MLOAD DUP1 SWAP2 SUB SWAP1 REVERT JUMPDEST DUP3 PUSH1 0x0 SUB PUSH2 0x1A3A JUMPI PUSH1 0x40 MLOAD PUSH4 0x162908E3 PUSH1 0xE1 SHL DUP2 MSTORE PUSH1 0x4 ADD PUSH1 0x40 MLOAD DUP1 SWAP2 SUB SWAP1 REVERT JUMPDEST DUP2 ISZERO DUP1 ISZERO SWAP1 PUSH2 0x1A49 JUMPI POP TIMESTAMP DUP3 GT ISZERO JUMPDEST ISZERO PUSH2 0x1A67 JUMPI PUSH1 0x40 MLOAD PUSH4 0x1DA74479 PUSH1 0xE2 SHL DUP2 MSTORE PUSH1 0x4 ADD PUSH1 0x40 MLOAD DUP1 SWAP2 SUB SWAP1 REVERT JUMPDEST PUSH2 0x587 CALLER DUP7 DUP7 DUP7 CALLVALUE DUP8 PUSH2 0x2173 JUMP JUMPDEST PUSH2 0x1A7D PUSH2 0x23B7 JUMP JUMPDEST PUSH1 0x0 DUP3 DUP2 MSTORE PUSH1 0x2 PUSH1 0x20 MSTORE PUSH1 0x40 DUP2 KECCAK256 PUSH1 0x7 ADD SLOAD DUP4 SWAP2 SUB PUSH2 0x1AAF JUMPI PUSH1 0x40 MLOAD PUSH4 0xF1D80AB1 PUSH1 0xE0 SHL DUP2 MSTORE PUSH1 0x4 ADD PUSH1 0x40 MLOAD DUP1 SWAP2 SUB SWAP1 REVERT JUMPDEST DUP3 PUSH1 0x1 DUP1 PUSH1 0x0 DUP4 DUP2 MSTORE PUSH1 0x2 PUSH1 0x20 MSTORE PUSH1 0x40 SWAP1 KECCAK256 PUSH1 0x6 ADD SLOAD PUSH1 0xFF AND PUSH1 0x4 DUP2 GT ISZERO PUSH2 0x1AD9 JUMPI PUSH2 0x1AD9 PUSH2 0x261E JUMP JUMPDEST EQ PUSH2 0x1AF7 JUMPI PUSH1 0x40 MLOAD PUSH4 0xBAF3F0F7 PUSH1 0xE0 SHL DUP2 MSTORE PUSH1 0x4 ADD PUSH1 0x40 MLOAD DUP1 SWAP2 SUB SWAP1 REVERT JUMPDEST PUSH1 0x0 DUP6 DUP2 MSTORE PUSH1 0x4 PUSH1 0x20 MSTORE PUSH1 0x40 SWAP1 KECCAK256 SLOAD DUP5 LT PUSH2 0x1B25 JUMPI PUSH1 0x40 MLOAD PUSH4 0xF101723 PUSH1 0xE1 SHL DUP2 MSTORE PUSH1 0x4 ADD PUSH1 0x40 MLOAD DUP1 SWAP2 SUB SWAP1 REVERT JUMPDEST PUSH1 0x0 DUP6 DUP2 MSTORE PUSH1 0x4 PUSH1 0x20 MSTORE PUSH1 0x40 DUP2 KECCAK256 DUP1 SLOAD DUP7 SWAP1 DUP2 LT PUSH2 0x1B45 JUMPI PUSH2 0x1B45 PUSH2 0x2A6E JUMP JUMPDEST PUSH1 0x0 SWAP2 DUP3 MSTORE PUSH1 0x20 DUP1 DUP4 KECCAK256 DUP10 DUP5 MSTORE PUSH1 0x2 SWAP2 DUP3 SWAP1 MSTORE PUSH1 0x40 DUP5 KECCAK256 PUSH1 0x4 SWAP1 SWAP4 MUL ADD SWAP1 DUP2 ADD SLOAD SWAP1 SWAP4 POP SWAP1 SWAP2 SWAP1 PUSH1 0xFF AND DUP1 PUSH2 0x1BA3 JUMPI POP PUSH1 0x1 DUP4 ADD SLOAD ISZERO DUP1 ISZERO SWAP1 PUSH2 0x1B8B JUMPI POP DUP3 PUSH1 0x1 ADD SLOAD TIMESTAMP GT JUMPDEST DUP1 ISZERO PUSH2 0x1BA3 JUMPI POP PUSH1 0x1 DUP3 ADD SLOAD PUSH1 0x1 PUSH1 0x1 PUSH1 0xA0 SHL SUB AND CALLER EQ JUMPDEST SWAP1 POP DUP1 PUSH2 0x1BC3 JUMPI PUSH1 0x40 MLOAD PUSH4 0xB755348D PUSH1 0xE0 SHL DUP2 MSTORE PUSH1 0x4 ADD PUSH1 0x40 MLOAD DUP1 SWAP2 SUB SWAP1 REVERT JUMPDEST PUSH1 0x2 DUP4 ADD SLOAD PUSH2 0x100 SWAP1 DIV PUSH1 0xFF AND ISZERO PUSH2 0x1BEE JUMPI PUSH1 0x40 MLOAD PUSH4 0x40DABEEF PUSH1 0xE1 SHL DUP2 MSTORE PUSH1 0x4 ADD PUSH1 0x40 MLOAD DUP1 SWAP2 SUB SWAP1 REVERT JUMPDEST DUP3 SLOAD PUSH1 0x4 DUP4 ADD SLOAD LT ISZERO PUSH2 0x1C14 JUMPI PUSH1 0x40 MLOAD PUSH4 0x356680B7 PUSH1 0xE0 SHL DUP2 MSTORE PUSH1 0x4 ADD PUSH1 0x40 MLOAD DUP1 SWAP2 SUB SWAP1 REVERT JUMPDEST PUSH1 0x2 DUP4 ADD DUP1 SLOAD PUSH2 0xFF00 NOT AND PUSH2 0x100 OR SWAP1 SSTORE DUP3 SLOAD PUSH1 0x4 DUP4 ADD DUP1 SLOAD PUSH1 0x0 SWAP1 PUSH2 0x1C3B SWAP1 DUP5 SWAP1 PUSH2 0x2B4E JUMP JUMPDEST SWAP1 SWAP2 SSTORE POP POP PUSH1 0x1 DUP3 ADD SLOAD DUP4 SLOAD PUSH1 0x40 MLOAD PUSH1 0x0 SWAP3 PUSH1 0x1 PUSH1 0x1 PUSH1 0xA0 SHL SUB AND SWAP2 SWAP1 DUP4 DUP2 DUP2 DUP2 DUP6 DUP8 GAS CALL SWAP3 POP POP POP RETURNDATASIZE DUP1 PUSH1 0x0 DUP2 EQ PUSH2 0x1C90 JUMPI PUSH1 0x40 MLOAD SWAP2 POP PUSH1 0x1F NOT PUSH1 0x3F RETURNDATASIZE ADD AND DUP3 ADD PUSH1 0x40 MSTORE RETURNDATASIZE DUP3 MSTORE RETURNDATASIZE PUSH1 0x0 PUSH1 0x20 DUP5 ADD RETURNDATACOPY PUSH2 0x1C95 JUMP JUMPDEST PUSH1 0x60 SWAP2 POP JUMPDEST POP POP SWAP1 POP DUP1 PUSH2 0x1CB7 JUMPI PUSH1 0x40 MLOAD PUSH4 0x12171D83 PUSH1 0xE3 SHL DUP2 MSTORE PUSH1 0x4 ADD PUSH1 0x40 MLOAD DUP1 SWAP2 SUB SWAP1 REVERT JUMPDEST DUP8 DUP10 PUSH32 0xD33FCD27CBFB73A2D9058C968B560CCB306500BF536133802048489ECC7355E9 DUP7 PUSH1 0x0 ADD SLOAD PUSH1 0x40 MLOAD PUSH2 0x1CEE SWAP2 DUP2 MSTORE PUSH1 0x20 ADD SWAP1 JUMP JUMPDEST PUSH1 0x40 MLOAD DUP1 SWAP2 SUB SWAP1 LOG3 PUSH2 0x1CFF DUP10 PUSH2 0x23E1 JUMP JUMPDEST ISZERO PUSH2 0x1D47 JUMPI PUSH1 0x6 DUP4 ADD DUP1 SLOAD PUSH1 0xFF NOT AND PUSH1 0x3 OR SWAP1 SSTORE PUSH1 0x40 MLOAD DUP10 SWAP1 PUSH32 0x9285BD636DDA01BEF18996AA38303BB742F6C67A6941646DDDB17630CB492C2E SWAP1 PUSH1 0x0 SWAP1 LOG2 PUSH2 0x1D47 DUP10 PUSH2 0x244B JUMP JUMPDEST POP POP POP POP POP POP POP PUSH2 0x1D58 PUSH1 0x1 PUSH1 0x0 SSTORE JUMP JUMPDEST POP POP JUMP JUMPDEST PUSH2 0x1D64 PUSH2 0x23B7 JUMP JUMPDEST PUSH1 0x0 DUP2 DUP2 MSTORE PUSH1 0x2 PUSH1 0x20 MSTORE PUSH1 0x40 DUP2 KECCAK256 PUSH1 0x7 ADD SLOAD DUP3 SWAP2 SUB PUSH2 0x1D96 JUMPI PUSH1 0x40 MLOAD PUSH4 0xF1D80AB1 PUSH1 0xE0 SHL DUP2 MSTORE PUSH1 0x4 ADD PUSH1 0x40 MLOAD DUP1 SWAP2 SUB SWAP1 REVERT JUMPDEST PUSH1 0x0 DUP3 DUP2 MSTORE PUSH1 0x2 PUSH1 0x20 MSTORE PUSH1 0x40 DUP2 KECCAK256 SWAP1 PUSH1 0x6 DUP3 ADD SLOAD PUSH1 0xFF AND PUSH1 0x4 DUP2 GT ISZERO PUSH2 0x1DBE JUMPI PUSH2 0x1DBE PUSH2 0x261E JUMP JUMPDEST EQ ISZERO DUP1 ISZERO PUSH2 0x1DE5 JUMPI POP PUSH1 0x1 PUSH1 0x6 DUP3 ADD SLOAD PUSH1 0xFF AND PUSH1 0x4 DUP2 GT ISZERO PUSH2 0x1DE2 JUMPI PUSH2 0x1DE2 PUSH2 0x261E JUMP JUMPDEST EQ ISZERO JUMPDEST ISZERO PUSH2 0x1E03 JUMPI PUSH1 0x40 MLOAD PUSH4 0xBAF3F0F7 PUSH1 0xE0 SHL DUP2 MSTORE PUSH1 0x4 ADD PUSH1 0x40 MLOAD DUP1 SWAP2 SUB SWAP1 REVERT JUMPDEST DUP1 SLOAD PUSH1 0x0 SWAP1 PUSH1 0x1 PUSH1 0x1 PUSH1 0xA0 SHL SUB AND CALLER EQ DUP1 PUSH2 0x1E2A JUMPI POP PUSH1 0x2 DUP3 ADD SLOAD PUSH1 0x1 PUSH1 0x1 PUSH1 0xA0 SHL SUB AND CALLER EQ JUMPDEST DUP1 PUSH2 0x1E5B JUMPI POP PUSH1 0x5 DUP3 ADD SLOAD ISZERO DUP1 ISZERO SWAP1 PUSH2 0x1E46 JUMPI POP DUP2 PUSH1 0x5 ADD SLOAD TIMESTAMP GT JUMPDEST DUP1 ISZERO PUSH2 0x1E5B JUMPI POP DUP2 SLOAD PUSH1 0x1 PUSH1 0x1 PUSH1 0xA0 SHL SUB AND CALLER EQ JUMPDEST SWAP1 POP DUP1 PUSH2 0x1E7A JUMPI PUSH1 0x40 MLOAD PUSH3 0x82B429 PUSH1 0xE8 SHL DUP2 MSTORE PUSH1 0x4 ADD PUSH1 0x40 MLOAD DUP1 SWAP2 SUB SWAP1 REVERT JUMPDEST PUSH1 0x4 DUP3 ADD SLOAD PUSH1 0x6 DUP4 ADD DUP1 SLOAD PUSH1 0xFF NOT AND PUSH1 0x2 OR SWAP1 SSTORE DUP1 ISZERO PUSH2 0x1F09 JUMPI DUP3 SLOAD PUSH1 0x40 MLOAD PUSH1 0x0 SWAP2 PUSH1 0x1 PUSH1 0x1 PUSH1 0xA0 SHL SUB AND SWAP1 DUP4 SWAP1 DUP4 DUP2 DUP2 DUP2 DUP6 DUP8 GAS CALL SWAP3 POP POP POP RETURNDATASIZE DUP1 PUSH1 0x0 DUP2 EQ PUSH2 0x1EE0 JUMPI PUSH1 0x40 MLOAD SWAP2 POP PUSH1 0x1F NOT PUSH1 0x3F RETURNDATASIZE ADD AND DUP3 ADD PUSH1 0x40 MSTORE RETURNDATASIZE DUP3 MSTORE RETURNDATASIZE PUSH1 0x0 PUSH1 0x20 DUP5 ADD RETURNDATACOPY PUSH2 0x1EE5 JUMP JUMPDEST PUSH1 0x60 SWAP2 POP JUMPDEST POP POP SWAP1 POP DUP1 PUSH2 0x1F07 JUMPI PUSH1 0x40 MLOAD PUSH4 0x12171D83 PUSH1 0xE3 SHL DUP2 MSTORE PUSH1 0x4 ADD PUSH1 0x40 MLOAD DUP1 SWAP2 SUB SWAP1 REVERT JUMPDEST POP JUMPDEST DUP5 PUSH32 0xDC48A08BB890BD1B8E4261212A97A5E711E80830D96BA56B362F3AC5F427D51E DUP3 PUSH1 0x40 MLOAD PUSH2 0x1F3B SWAP2 DUP2 MSTORE PUSH1 0x20 ADD SWAP1 JUMP JUMPDEST PUSH1 0x40 MLOAD DUP1 SWAP2 SUB SWAP1 LOG2 POP POP POP POP PUSH2 0x1F51 PUSH1 0x1 PUSH1 0x0 SSTORE JUMP JUMPDEST POP JUMP JUMPDEST PUSH2 0x1F5C PUSH2 0x23B7 JUMP JUMPDEST PUSH1 0x0 DUP2 DUP2 MSTORE PUSH1 0x2 PUSH1 0x20 MSTORE PUSH1 0x40 DUP2 KECCAK256 PUSH1 0x7 ADD SLOAD DUP3 SWAP2 SUB PUSH2 0x1F8E JUMPI PUSH1 0x40 MLOAD PUSH4 0xF1D80AB1 PUSH1 0xE0 SHL DUP2 MSTORE PUSH1 0x4 ADD PUSH1 0x40 MLOAD DUP1 SWAP2 SUB SWAP1 REVERT JUMPDEST DUP2 PUSH1 0x1 DUP1 PUSH1 0x0 DUP4 DUP2 MSTORE PUSH1 0x2 PUSH1 0x20 MSTORE PUSH1 0x40 SWAP1 KECCAK256 PUSH1 0x6 ADD SLOAD PUSH1 0xFF AND PUSH1 0x4 DUP2 GT ISZERO PUSH2 0x1FB8 JUMPI PUSH2 0x1FB8 PUSH2 0x261E JUMP JUMPDEST EQ PUSH2 0x1FD6 JUMPI PUSH1 0x40 MLOAD PUSH4 0xBAF3F0F7 PUSH1 0xE0 SHL DUP2 MSTORE PUSH1 0x4 ADD PUSH1 0x40 MLOAD DUP1 SWAP2 SUB SWAP1 REVERT JUMPDEST PUSH1 0x0 DUP5 DUP2 MSTORE PUSH1 0x2 PUSH1 0x20 MSTORE PUSH1 0x40 DUP2 KECCAK256 DUP1 SLOAD SWAP1 SWAP2 SWAP1 PUSH1 0x1 PUSH1 0x1 PUSH1 0xA0 SHL SUB AND CALLER EQ DUP1 PUSH2 0x200B JUMPI POP PUSH1 0x2 DUP3 ADD SLOAD PUSH1 0x1 PUSH1 0x1 PUSH1 0xA0 SHL SUB AND CALLER EQ JUMPDEST DUP1 PUSH2 0x203F JUMPI POP PUSH1 0x5 DUP3 ADD SLOAD ISZERO DUP1 ISZERO SWAP1 PUSH2 0x2027 JUMPI POP DUP2 PUSH1 0x5 ADD SLOAD TIMESTAMP GT JUMPDEST DUP1 ISZERO PUSH2 0x203F JUMPI POP PUSH1 0x1 DUP3 ADD SLOAD PUSH1 0x1 PUSH1 0x1 PUSH1 0xA0 SHL SUB AND CALLER EQ JUMPDEST SWAP1 POP DUP1 PUSH2 0x205E JUMPI PUSH1 0x40 MLOAD PUSH3 0x82B429 PUSH1 0xE8 SHL DUP2 MSTORE PUSH1 0x4 ADD PUSH1 0x40 MLOAD DUP1 SWAP2 SUB SWAP1 REVERT JUMPDEST PUSH1 0x4 DUP3 ADD SLOAD PUSH1 0x6 DUP4 ADD DUP1 SLOAD PUSH1 0xFF NOT AND PUSH1 0x3 OR SWAP1 SSTORE PUSH1 0x1 DUP4 ADD SLOAD PUSH1 0x40 MLOAD PUSH1 0x0 SWAP2 PUSH1 0x1 PUSH1 0x1 PUSH1 0xA0 SHL SUB AND SWAP1 DUP4 SWAP1 DUP4 DUP2 DUP2 DUP2 DUP6 DUP8 GAS CALL SWAP3 POP POP POP RETURNDATASIZE DUP1 PUSH1 0x0 DUP2 EQ PUSH2 0x20C1 JUMPI PUSH1 0x40 MLOAD SWAP2 POP PUSH1 0x1F NOT PUSH1 0x3F RETURNDATASIZE ADD AND DUP3 ADD PUSH1 0x40 MSTORE RETURNDATASIZE DUP3 MSTORE RETURNDATASIZE PUSH1 0x0 PUSH1 0x20 DUP5 ADD RETURNDATACOPY PUSH2 0x20C6 JUMP JUMPDEST PUSH1 0x60 SWAP2 POP JUMPDEST POP POP SWAP1 POP DUP1 PUSH2 0x20E8 JUMPI PUSH1 0x40 MLOAD PUSH4 0x12171D83 PUSH1 0xE3 SHL DUP2 MSTORE PUSH1 0x4 ADD PUSH1 0x40 MLOAD DUP1 SWAP2 SUB SWAP1 REVERT JUMPDEST PUSH1 0x1 DUP5 ADD SLOAD PUSH1 0x40 MLOAD DUP4 DUP2 MSTORE PUSH1 0x1 PUSH1 0x1 PUSH1 0xA0 SHL SUB SWAP1 SWAP2 AND SWAP1 DUP10 SWAP1 PUSH32 0x6244ED823CA6BE0F11BC890C3FAFCF3C29CB23420C14243642E930B5E07E6D0A SWAP1 PUSH1 0x20 ADD PUSH1 0x40 MLOAD DUP1 SWAP2 SUB SWAP1 LOG3 PUSH1 0x40 MLOAD DUP9 SWAP1 PUSH32 0x9285BD636DDA01BEF18996AA38303BB742F6C67A6941646DDDB17630CB492C2E SWAP1 PUSH1 0x0 SWAP1 LOG2 PUSH2 0x2162 DUP9 PUSH2 0x244B JUMP JUMPDEST POP POP POP POP POP POP POP PUSH2 0x1F51 PUSH1 0x1 PUSH1 0x0 SSTORE JUMP JUMPDEST PUSH1 0x1 DUP1 SLOAD PUSH1 0x0 SWAP2 DUP3 PUSH2 0x2184 DUP4 PUSH2 0x2A9A JUMP JUMPDEST SWAP2 SWAP1 POP SSTORE SWAP1 POP PUSH1 0x40 MLOAD DUP1 PUSH2 0x100 ADD PUSH1 0x40 MSTORE DUP1 DUP9 PUSH1 0x1 PUSH1 0x1 PUSH1 0xA0 SHL SUB AND DUP2 MSTORE PUSH1 0x20 ADD DUP8 PUSH1 0x1 PUSH1 0x1 PUSH1 0xA0 SHL SUB AND DUP2 MSTORE PUSH1 0x20 ADD DUP7 PUSH1 0x1 PUSH1 0x1 PUSH1 0xA0 SHL SUB AND DUP2 MSTORE PUSH1 0x20 ADD DUP6 DUP2 MSTORE PUSH1 0x20 ADD DUP5 DUP2 MSTORE PUSH1 0x20 ADD DUP4 DUP2 MSTORE PUSH1 0x20 ADD DUP6 DUP6 LT ISZERO PUSH2 0x21E4 JUMPI PUSH1 0x0 PUSH2 0x21E7 JUMP JUMPDEST PUSH1 0x1 JUMPDEST PUSH1 0x4 DUP2 GT ISZERO PUSH2 0x21F8 JUMPI PUSH2 0x21F8 PUSH2 0x261E JUMP JUMPDEST DUP2 MSTORE TIMESTAMP PUSH1 0x20 SWAP2 DUP3 ADD MSTORE PUSH1 0x0 DUP4 DUP2 MSTORE PUSH1 0x2 DUP1 DUP4 MSTORE PUSH1 0x40 SWAP2 DUP3 SWAP1 KECCAK256 DUP5 MLOAD DUP2 SLOAD PUSH1 0x1 PUSH1 0x1 PUSH1 0xA0 SHL SUB NOT SWAP1 DUP2 AND PUSH1 0x1 PUSH1 0x1 PUSH1 0xA0 SHL SUB SWAP3 DUP4 AND OR DUP4 SSTORE SWAP5 DUP7 ADD MLOAD PUSH1 0x1 DUP1 DUP5 ADD DUP1 SLOAD DUP9 AND SWAP3 DUP5 AND SWAP3 SWAP1 SWAP3 OR SWAP1 SWAP2 SSTORE SWAP4 DUP7 ADD MLOAD SWAP3 DUP3 ADD DUP1 SLOAD SWAP1 SWAP6 AND SWAP3 AND SWAP2 SWAP1 SWAP2 OR SWAP1 SWAP3 SSTORE PUSH1 0x60 DUP4 ADD MLOAD PUSH1 0x3 DUP4 ADD SSTORE PUSH1 0x80 DUP4 ADD MLOAD PUSH1 0x4 DUP1 DUP5 ADD SWAP2 SWAP1 SWAP2 SSTORE PUSH1 0xA0 DUP5 ADD MLOAD PUSH1 0x5 DUP5 ADD SSTORE PUSH1 0xC0 DUP5 ADD MLOAD PUSH1 0x6 DUP5 ADD DUP1 SLOAD SWAP2 SWAP4 SWAP1 SWAP3 PUSH1 0xFF NOT SWAP1 SWAP3 AND SWAP2 DUP5 SWAP1 DUP2 GT ISZERO PUSH2 0x22A4 JUMPI PUSH2 0x22A4 PUSH2 0x261E JUMP JUMPDEST MUL OR SWAP1 SSTORE POP PUSH1 0xE0 SWAP2 SWAP1 SWAP2 ADD MLOAD PUSH1 0x7 SWAP1 SWAP2 ADD SSTORE DUP3 ISZERO PUSH2 0x22EA JUMPI PUSH1 0x0 DUP2 DUP2 MSTORE PUSH1 0x3 PUSH1 0x20 SWAP1 DUP2 MSTORE PUSH1 0x40 DUP1 DUP4 KECCAK256 PUSH1 0x1 PUSH1 0x1 PUSH1 0xA0 SHL SUB DUP12 AND DUP5 MSTORE SWAP1 SWAP2 MSTORE SWAP1 KECCAK256 DUP1 SLOAD PUSH1 0xFF NOT AND PUSH1 0x1 OR SWAP1 SSTORE JUMPDEST DUP6 PUSH1 0x1 PUSH1 0x1 PUSH1 0xA0 SHL SUB AND DUP8 PUSH1 0x1 PUSH1 0x1 PUSH1 0xA0 SHL SUB AND DUP3 PUSH32 0x9405AD0A6208539879349284D71265479B1623846F70303DA1F9890D6E8C10A7 DUP8 PUSH1 0x40 MLOAD PUSH2 0x2330 SWAP2 DUP2 MSTORE PUSH1 0x20 ADD SWAP1 JUMP JUMPDEST PUSH1 0x40 MLOAD DUP1 SWAP2 SUB SWAP1 LOG4 DUP3 ISZERO PUSH2 0x2383 JUMPI DUP7 PUSH1 0x1 PUSH1 0x1 PUSH1 0xA0 SHL SUB AND DUP2 PUSH32 0x4A2CD88EC7A748D5B20B3512D7249C67745777B219009075C745923684E9653D DUP6 PUSH1 0x40 MLOAD PUSH2 0x237A SWAP2 DUP2 MSTORE PUSH1 0x20 ADD SWAP1 JUMP JUMPDEST PUSH1 0x40 MLOAD DUP1 SWAP2 SUB SWAP1 LOG3 JUMPDEST PUSH1 0x1 PUSH1 0x0 DUP3 DUP2 MSTORE PUSH1 0x2 PUSH1 0x20 MSTORE PUSH1 0x40 SWAP1 KECCAK256 PUSH1 0x6 ADD SLOAD PUSH1 0xFF AND PUSH1 0x4 DUP2 GT ISZERO PUSH2 0x23AB JUMPI PUSH2 0x23AB PUSH2 0x261E JUMP JUMPDEST POP POP SWAP7 SWAP6 POP POP POP POP POP POP JUMP JUMPDEST PUSH1 0x2 PUSH1 0x0 SLOAD SUB PUSH2 0x23DA JUMPI PUSH1 0x40 MLOAD PUSH4 0x3EE5AEB5 PUSH1 0xE0 SHL DUP2 MSTORE PUSH1 0x4 ADD PUSH1 0x40 MLOAD DUP1 SWAP2 SUB SWAP1 REVERT JUMPDEST PUSH1 0x2 PUSH1 0x0 SSTORE JUMP JUMPDEST PUSH1 0x0 DUP2 DUP2 MSTORE PUSH1 0x4 PUSH1 0x20 MSTORE PUSH1 0x40 DUP2 KECCAK256 DUP2 JUMPDEST DUP2 SLOAD DUP2 LT ISZERO PUSH2 0x2441 JUMPI DUP2 DUP2 DUP2 SLOAD DUP2 LT PUSH2 0x240C JUMPI PUSH2 0x240C PUSH2 0x2A6E JUMP JUMPDEST SWAP1 PUSH1 0x0 MSTORE PUSH1 0x20 PUSH1 0x0 KECCAK256 SWAP1 PUSH1 0x4 MUL ADD PUSH1 0x2 ADD PUSH1 0x1 SWAP1 SLOAD SWAP1 PUSH2 0x100 EXP SWAP1 DIV PUSH1 0xFF AND PUSH2 0x2439 JUMPI POP PUSH1 0x0 SWAP4 SWAP3 POP POP POP JUMP JUMPDEST PUSH1 0x1 ADD PUSH2 0x23F1 JUMP JUMPDEST POP PUSH1 0x1 SWAP4 SWAP3 POP POP POP JUMP JUMPDEST PUSH2 0x1F51 DUP2 PUSH1 0x0 DUP2 DUP2 MSTORE PUSH1 0x6 PUSH1 0x20 MSTORE PUSH1 0x40 DUP2 KECCAK256 SWAP1 JUMPDEST DUP2 SLOAD DUP2 LT ISZERO PUSH2 0x2596 JUMPI PUSH1 0x0 DUP4 DUP2 MSTORE PUSH1 0x5 PUSH1 0x20 MSTORE PUSH1 0x40 DUP2 KECCAK256 DUP4 SLOAD DUP3 SWAP1 DUP6 SWAP1 DUP6 SWAP1 DUP2 LT PUSH2 0x248C JUMPI PUSH2 0x248C PUSH2 0x2A6E JUMP JUMPDEST PUSH1 0x0 SWAP2 DUP3 MSTORE PUSH1 0x20 DUP1 DUP4 KECCAK256 SWAP1 SWAP2 ADD SLOAD PUSH1 0x1 PUSH1 0x1 PUSH1 0xA0 SHL SUB AND DUP4 MSTORE DUP3 ADD SWAP3 SWAP1 SWAP3 MSTORE PUSH1 0x40 ADD SWAP1 KECCAK256 PUSH1 0x1 DUP2 ADD SLOAD SWAP1 SWAP2 POP ISZERO PUSH2 0x258D JUMPI PUSH1 0x0 DUP4 DUP4 DUP2 SLOAD DUP2 LT PUSH2 0x24D1 JUMPI PUSH2 0x24D1 PUSH2 0x2A6E JUMP JUMPDEST PUSH1 0x0 SWAP2 DUP3 MSTORE PUSH1 0x20 DUP3 KECCAK256 ADD SLOAD PUSH1 0x1 DUP5 ADD SLOAD PUSH1 0x40 MLOAD PUSH1 0x1 PUSH1 0x1 PUSH1 0xA0 SHL SUB SWAP1 SWAP3 AND SWAP3 SWAP1 SWAP2 SWAP1 DUP2 DUP2 DUP2 DUP6 DUP8 GAS CALL SWAP3 POP POP POP RETURNDATASIZE DUP1 PUSH1 0x0 DUP2 EQ PUSH2 0x252A JUMPI PUSH1 0x40 MLOAD SWAP2 POP PUSH1 0x1F NOT PUSH1 0x3F RETURNDATASIZE ADD AND DUP3 ADD PUSH1 0x40 MSTORE RETURNDATASIZE DUP3 MSTORE RETURNDATASIZE PUSH1 0x0 PUSH1 0x20 DUP5 ADD RETURNDATACOPY PUSH2 0x252F JUMP JUMPDEST PUSH1 0x60 SWAP2 POP JUMPDEST POP POP SWAP1 POP DUP1 PUSH2 0x2584 JUMPI PUSH1 0x40 MLOAD PUSH3 0x461BCD PUSH1 0xE5 SHL DUP2 MSTORE PUSH1 0x20 PUSH1 0x4 DUP3 ADD MSTORE PUSH1 0x17 PUSH1 0x24 DUP3 ADD MSTORE PUSH32 0x47756172616E746F7220726566756E64206661696C6564000000000000000000 PUSH1 0x44 DUP3 ADD MSTORE PUSH1 0x64 ADD PUSH1 0x40 MLOAD DUP1 SWAP2 SUB SWAP1 REVERT JUMPDEST POP PUSH1 0x0 PUSH1 0x1 DUP3 ADD SSTORE JUMPDEST POP PUSH1 0x1 ADD PUSH2 0x245F JUMP JUMPDEST POP POP POP JUMP JUMPDEST DUP1 CALLDATALOAD PUSH1 0x1 PUSH1 0x1 PUSH1 0xA0 SHL SUB DUP2 AND DUP2 EQ PUSH2 0x25B2 JUMPI PUSH1 0x0 DUP1 REVERT JUMPDEST SWAP2 SWAP1 POP JUMP JUMPDEST PUSH1 0x0 DUP1 PUSH1 0x40 DUP4 DUP6 SUB SLT ISZERO PUSH2 0x25CA JUMPI PUSH1 0x0 DUP1 REVERT JUMPDEST DUP3 CALLDATALOAD SWAP2 POP PUSH2 0x25DA PUSH1 0x20 DUP5 ADD PUSH2 0x259B JUMP JUMPDEST SWAP1 POP SWAP3 POP SWAP3 SWAP1 POP JUMP JUMPDEST PUSH1 0x0 PUSH1 0x20 DUP3 DUP5 SUB SLT ISZERO PUSH2 0x25F5 JUMPI PUSH1 0x0 DUP1 REVERT JUMPDEST POP CALLDATALOAD SWAP2 SWAP1 POP JUMP JUMPDEST PUSH1 0x0 DUP1 PUSH1 0x40 DUP4 DUP6 SUB SLT ISZERO PUSH2 0x260F JUMPI PUSH1 0x0 DUP1 REVERT JUMPDEST POP POP DUP1 CALLDATALOAD SWAP3 PUSH1 0x20 SWAP1 SWAP2 ADD CALLDATALOAD SWAP2 POP JUMP JUMPDEST PUSH4 0x4E487B71 PUSH1 0xE0 SHL PUSH1 0x0 MSTORE PUSH1 0x21 PUSH1 0x4 MSTORE PUSH1 0x24 PUSH1 0x0 REVERT JUMPDEST PUSH1 0x5 DUP2 LT PUSH2 0x2644 JUMPI PUSH2 0x2644 PUSH2 0x261E JUMP JUMPDEST SWAP1 MSTORE JUMP JUMPDEST PUSH1 0x20 DUP2 ADD PUSH2 0x2656 DUP3 DUP5 PUSH2 0x2634 JUMP JUMPDEST SWAP3 SWAP2 POP POP JUMP JUMPDEST PUSH1 0x0 DUP1 PUSH1 0x0 PUSH1 0x60 DUP5 DUP7 SUB SLT ISZERO PUSH2 0x2671 JUMPI PUSH1 0x0 DUP1 REVERT JUMPDEST DUP4 CALLDATALOAD SWAP3 POP PUSH1 0x20 DUP5 ADD CALLDATALOAD PUSH1 0x3 DUP2 LT PUSH2 0x2687 JUMPI PUSH1 0x0 DUP1 REVERT JUMPDEST SWAP3 SWAP6 SWAP3 SWAP5 POP POP POP PUSH1 0x40 SWAP2 SWAP1 SWAP2 ADD CALLDATALOAD SWAP1 JUMP JUMPDEST DUP2 MLOAD PUSH1 0x1 PUSH1 0x1 PUSH1 0xA0 SHL SUB SWAP1 DUP2 AND DUP3 MSTORE PUSH1 0x20 DUP1 DUP5 ADD MLOAD DUP3 AND SWAP1 DUP4 ADD MSTORE PUSH1 0x40 DUP1 DUP5 ADD MLOAD SWAP1 SWAP2 AND SWAP1 DUP3 ADD MSTORE PUSH1 0x60 DUP1 DUP4 ADD MLOAD SWAP1 DUP3 ADD MSTORE PUSH1 0x80 DUP1 DUP4 ADD MLOAD SWAP1 DUP3 ADD MSTORE PUSH1 0xA0 DUP3 DUP2 ADD MLOAD PUSH1 0xE0 DUP4 ADD SWAP2 PUSH2 0x26EB SWAP1 DUP5 ADD DUP3 PUSH2 0x2634 JUMP JUMPDEST POP PUSH1 0xC0 SWAP3 DUP4 ADD MLOAD SWAP2 SWAP1 SWAP3 ADD MSTORE SWAP1 JUMP JUMPDEST DUP1 MLOAD DUP3 MSTORE PUSH1 0x20 DUP2 ADD MLOAD PUSH1 0x20 DUP4 ADD MSTORE PUSH1 0x40 DUP2 ADD MLOAD ISZERO ISZERO PUSH1 0x40 DUP4 ADD MSTORE PUSH1 0x60 DUP2 ADD MLOAD ISZERO ISZERO PUSH1 0x60 DUP4 ADD MSTORE PUSH1 0x0 PUSH1 0x80 DUP3 ADD MLOAD PUSH1 0xA0 PUSH1 0x80 DUP6 ADD MSTORE DUP1 MLOAD DUP1 PUSH1 0xA0 DUP7 ADD MSTORE PUSH1 0x0 JUMPDEST DUP2 DUP2 LT ISZERO PUSH2 0x2756 JUMPI PUSH1 0x20 DUP2 DUP5 ADD DUP2 ADD MLOAD PUSH1 0xC0 DUP9 DUP5 ADD ADD MSTORE ADD PUSH2 0x2739 JUMP JUMPDEST POP PUSH1 0x0 PUSH1 0xC0 DUP3 DUP8 ADD ADD MSTORE PUSH1 0xC0 PUSH1 0x1F NOT PUSH1 0x1F DUP4 ADD AND DUP7 ADD ADD SWAP3 POP POP POP SWAP3 SWAP2 POP POP JUMP JUMPDEST PUSH1 0x20 DUP2 MSTORE PUSH1 0x0 PUSH2 0x278A PUSH1 0x20 DUP4 ADD DUP5 PUSH2 0x26FA JUMP JUMPDEST SWAP4 SWAP3 POP POP POP JUMP JUMPDEST PUSH1 0x20 DUP1 DUP3 MSTORE DUP3 MLOAD DUP3 DUP3 ADD DUP2 SWAP1 MSTORE PUSH1 0x0 SWAP2 DUP5 ADD SWAP1 PUSH1 0x40 DUP5 ADD SWAP1 DUP4 JUMPDEST DUP2 DUP2 LT ISZERO PUSH2 0x27D2 JUMPI DUP4 MLOAD PUSH1 0x1 PUSH1 0x1 PUSH1 0xA0 SHL SUB AND DUP4 MSTORE PUSH1 0x20 SWAP4 DUP5 ADD SWAP4 SWAP1 SWAP3 ADD SWAP2 PUSH1 0x1 ADD PUSH2 0x27AB JUMP JUMPDEST POP SWAP1 SWAP6 SWAP5 POP POP POP POP POP JUMP JUMPDEST PUSH1 0x0 PUSH1 0x20 DUP3 ADD PUSH1 0x20 DUP4 MSTORE DUP1 DUP5 MLOAD DUP1 DUP4 MSTORE PUSH1 0x40 DUP6 ADD SWAP2 POP PUSH1 0x40 DUP2 PUSH1 0x5 SHL DUP7 ADD ADD SWAP3 POP PUSH1 0x20 DUP7 ADD PUSH1 0x0 JUMPDEST DUP3 DUP2 LT ISZERO PUSH2 0x2836 JUMPI PUSH1 0x3F NOT DUP8 DUP7 SUB ADD DUP5 MSTORE PUSH2 0x2821 DUP6 DUP4 MLOAD PUSH2 0x26FA JUMP JUMPDEST SWAP5 POP PUSH1 0x20 SWAP4 DUP5 ADD SWAP4 SWAP2 SWAP1 SWAP2 ADD SWAP1 PUSH1 0x1 ADD PUSH2 0x2805 JUMP JUMPDEST POP SWAP3 SWAP7 SWAP6 POP POP POP POP POP POP JUMP JUMPDEST PUSH1 0x3 DUP2 LT PUSH2 0x2644 JUMPI PUSH2 0x2644 PUSH2 0x261E JUMP JUMPDEST DUP2 MLOAD PUSH1 0x1 PUSH1 0x1 PUSH1 0xA0 SHL SUB AND DUP2 MSTORE PUSH1 0x20 DUP1 DUP4 ADD MLOAD PUSH1 0xC0 DUP4 ADD SWAP2 PUSH2 0x2876 SWAP1 DUP5 ADD DUP3 PUSH2 0x2842 JUMP JUMPDEST POP PUSH1 0x40 DUP4 ADD MLOAD PUSH1 0x40 DUP4 ADD MSTORE PUSH1 0x60 DUP4 ADD MLOAD PUSH1 0x60 DUP4 ADD MSTORE PUSH1 0x80 DUP4 ADD MLOAD ISZERO ISZERO PUSH1 0x80 DUP4 ADD MSTORE PUSH1 0xA0 DUP4 ADD MLOAD PUSH1 0xA0 DUP4 ADD MSTORE SWAP3 SWAP2 POP POP JUMP JUMPDEST PUSH1 0x0 DUP1 PUSH1 0x0 PUSH1 0x60 DUP5 DUP7 SUB SLT ISZERO PUSH2 0x28BC JUMPI PUSH1 0x0 DUP1 REVERT JUMPDEST DUP4 CALLDATALOAD SWAP3 POP PUSH2 0x2687 PUSH1 0x20 DUP6 ADD PUSH2 0x259B JUMP JUMPDEST PUSH1 0x0 DUP1 DUP4 PUSH1 0x1F DUP5 ADD SLT PUSH2 0x28DE JUMPI PUSH1 0x0 DUP1 REVERT JUMPDEST POP DUP2 CALLDATALOAD PUSH8 0xFFFFFFFFFFFFFFFF DUP2 GT ISZERO PUSH2 0x28F6 JUMPI PUSH1 0x0 DUP1 REVERT JUMPDEST PUSH1 0x20 DUP4 ADD SWAP2 POP DUP4 PUSH1 0x20 DUP3 PUSH1 0x5 SHL DUP6 ADD ADD GT ISZERO PUSH2 0x2911 JUMPI PUSH1 0x0 DUP1 REVERT JUMPDEST SWAP3 POP SWAP3 SWAP1 POP JUMP JUMPDEST PUSH1 0x0 DUP1 PUSH1 0x0 DUP1 PUSH1 0x0 DUP1 PUSH1 0x0 DUP1 PUSH1 0xA0 DUP10 DUP12 SUB SLT ISZERO PUSH2 0x2934 JUMPI PUSH1 0x0 DUP1 REVERT JUMPDEST PUSH2 0x293D DUP10 PUSH2 0x259B JUMP JUMPDEST SWAP8 POP PUSH2 0x294B PUSH1 0x20 DUP11 ADD PUSH2 0x259B JUMP JUMPDEST SWAP7 POP PUSH1 0x40 DUP10 ADD CALLDATALOAD PUSH8 0xFFFFFFFFFFFFFFFF DUP2 GT ISZERO PUSH2 0x2967 JUMPI PUSH1 0x0 DUP1 REVERT JUMPDEST PUSH2 0x2973 DUP12 DUP3 DUP13 ADD PUSH2 0x28CC JUMP JUMPDEST SWAP1 SWAP8 POP SWAP6 POP POP PUSH1 0x60 DUP10 ADD CALLDATALOAD PUSH8 0xFFFFFFFFFFFFFFFF DUP2 GT ISZERO PUSH2 0x2993 JUMPI PUSH1 0x0 DUP1 REVERT JUMPDEST PUSH2 0x299F DUP12 DUP3 DUP13 ADD PUSH2 0x28CC JUMP JUMPDEST SWAP1 SWAP6 POP SWAP4 POP POP PUSH1 0x80 DUP10 ADD CALLDATALOAD PUSH8 0xFFFFFFFFFFFFFFFF DUP2 GT ISZERO PUSH2 0x29BF JUMPI PUSH1 0x0 DUP1 REVERT JUMPDEST PUSH2 0x29CB DUP12 DUP3 DUP13 ADD PUSH2 0x28CC JUMP JUMPDEST SWAP10 SWAP13 SWAP9 SWAP12 POP SWAP7 SWAP10 POP SWAP5 SWAP8 SWAP4 SWAP7 SWAP3 SWAP6 SWAP5 POP POP POP JUMP JUMPDEST PUSH1 0x0 DUP1 PUSH1 0x0 DUP1 PUSH1 0x0 PUSH1 0xA0 DUP7 DUP9 SUB SLT ISZERO PUSH2 0x29F7 JUMPI PUSH1 0x0 DUP1 REVERT JUMPDEST PUSH2 0x2A00 DUP7 PUSH2 0x259B JUMP JUMPDEST SWAP5 POP PUSH2 0x2A0E PUSH1 0x20 DUP8 ADD PUSH2 0x259B JUMP JUMPDEST SWAP5 SWAP8 SWAP5 SWAP7 POP POP POP POP PUSH1 0x40 DUP4 ADD CALLDATALOAD SWAP3 PUSH1 0x60 DUP2 ADD CALLDATALOAD SWAP3 PUSH1 0x80 SWAP1 SWAP2 ADD CALLDATALOAD SWAP2 POP JUMP JUMPDEST PUSH1 0x0 DUP1 PUSH1 0x0 DUP1 PUSH1 0x80 DUP6 DUP8 SUB SLT ISZERO PUSH2 0x2A42 JUMPI PUSH1 0x0 DUP1 REVERT JUMPDEST PUSH2 0x2A4B DUP6 PUSH2 0x259B JUMP JUMPDEST SWAP4 POP PUSH2 0x2A59 PUSH1 0x20 DUP7 ADD PUSH2 0x259B JUMP JUMPDEST SWAP4 SWAP7 SWAP4 SWAP6 POP POP POP POP PUSH1 0x40 DUP3 ADD CALLDATALOAD SWAP2 PUSH1 0x60 ADD CALLDATALOAD SWAP1 JUMP JUMPDEST PUSH4 0x4E487B71 PUSH1 0xE0 SHL PUSH1 0x0 MSTORE PUSH1 0x32 PUSH1 0x4 MSTORE PUSH1 0x24 PUSH1 0x0 REVERT JUMPDEST PUSH4 0x4E487B71 PUSH1 0xE0 SHL PUSH1 0x0 MSTORE PUSH1 0x11 PUSH1 0x4 MSTORE PUSH1 0x24 PUSH1 0x0 REVERT JUMPDEST PUSH1 0x0 PUSH1 0x1 DUP3 ADD PUSH2 0x2AAC JUMPI PUSH2 0x2AAC PUSH2 0x2A84 JUMP JUMPDEST POP PUSH1 0x1 ADD SWAP1 JUMP JUMPDEST DUP1 DUP3 MUL DUP2 ISZERO DUP3 DUP3 DIV DUP5 EQ OR PUSH2 0x2656 JUMPI PUSH2 0x2656 PUSH2 0x2A84 JUMP JUMPDEST PUSH1 0x0 DUP3 PUSH2 0x2AE7 JUMPI PUSH4 0x4E487B71 PUSH1 0xE0 SHL PUSH1 0x0 MSTORE PUSH1 0x12 PUSH1 0x4 MSTORE PUSH1 0x24 PUSH1 0x0 REVERT JUMPDEST POP DIV SWAP1 JUMP JUMPDEST PUSH1 0x40 DUP2 ADD PUSH2 0x2AFA DUP3 DUP6 PUSH2 0x2842 JUMP JUMPDEST DUP3 PUSH1 0x20 DUP4 ADD MSTORE SWAP4 SWAP3 POP POP POP JUMP JUMPDEST PUSH1 0x1 DUP2 DUP2 SHR SWAP1 DUP3 AND DUP1 PUSH2 0x2B1B JUMPI PUSH1 0x7F DUP3 AND SWAP2 POP JUMPDEST PUSH1 0x20 DUP3 LT DUP2 SUB PUSH2 0x835 JUMPI PUSH4 0x4E487B71 PUSH1 0xE0 SHL PUSH1 0x0 MSTORE PUSH1 0x22 PUSH1 0x4 MSTORE PUSH1 0x24 PUSH1 0x0 REVERT JUMPDEST DUP1 DUP3 ADD DUP1 DUP3 GT ISZERO PUSH2 0x2656 JUMPI PUSH2 0x2656 PUSH2 0x2A84 JUMP JUMPDEST DUP2 DUP2 SUB DUP2 DUP2 GT ISZERO PUSH2 0x2656 JUMPI PUSH2 0x2656 PUSH2 0x2A84 JUMP JUMPDEST PUSH1 0x0 DUP1 DUP4 CALLDATALOAD PUSH1 0x1E NOT DUP5 CALLDATASIZE SUB ADD DUP2 SLT PUSH2 0x2B78 JUMPI PUSH1 0x0 DUP1 REVERT JUMPDEST DUP4 ADD DUP1 CALLDATALOAD SWAP2 POP PUSH8 0xFFFFFFFFFFFFFFFF DUP3 GT ISZERO PUSH2 0x2B93 JUMPI PUSH1 0x0 DUP1 REVERT JUMPDEST PUSH1 0x20 ADD SWAP2 POP CALLDATASIZE DUP2 SWAP1 SUB DUP3 SGT ISZERO PUSH2 0x2911 JUMPI PUSH1 0x0 DUP1 REVERT JUMPDEST PUSH4 0x4E487B71 PUSH1 0xE0 SHL PUSH1 0x0 MSTORE PUSH1 0x41 PUSH1 0x4 MSTORE PUSH1 0x24 PUSH1 0x0 REVERT JUMPDEST PUSH1 0x1F DUP3 GT ISZERO PUSH2 0x2596 JUMPI DUP1 PUSH1 0x0 MSTORE PUSH1 0x20 PUSH1 0x0 KECCAK256 PUSH1 0x1F DUP5 ADD PUSH1 0x5 SHR DUP2 ADD PUSH1 0x20 DUP6 LT ISZERO PUSH2 0x2BE5 JUMPI POP DUP1 JUMPDEST PUSH1 0x1F DUP5 ADD PUSH1 0x5 SHR DUP3 ADD SWAP2 POP JUMPDEST DUP2 DUP2 LT ISZERO PUSH2 0x18A6 JUMPI PUSH1 0x0 DUP2 SSTORE PUSH1 0x1 ADD PUSH2 0x2BF1 JUMP JUMPDEST DUP2 MLOAD PUSH8 0xFFFFFFFFFFFFFFFF DUP2 GT ISZERO PUSH2 0x2C1F JUMPI PUSH2 0x2C1F PUSH2 0x2BA8 JUMP JUMPDEST PUSH2 0x2C33 DUP2 PUSH2 0x2C2D DUP5 SLOAD PUSH2 0x2B07 JUMP JUMPDEST DUP5 PUSH2 0x2BBE JUMP JUMPDEST PUSH1 0x20 PUSH1 0x1F DUP3 GT PUSH1 0x1 DUP2 EQ PUSH2 0x2C67 JUMPI PUSH1 0x0 DUP4 ISZERO PUSH2 0x2C4F JUMPI POP DUP5 DUP3 ADD MLOAD JUMPDEST PUSH1 0x0 NOT PUSH1 0x3 DUP6 SWAP1 SHL SHR NOT AND PUSH1 0x1 DUP5 SWAP1 SHL OR DUP5 SSTORE PUSH2 0x18A6 JUMP JUMPDEST PUSH1 0x0 DUP5 DUP2 MSTORE PUSH1 0x20 DUP2 KECCAK256 PUSH1 0x1F NOT DUP6 AND SWAP2 JUMPDEST DUP3 DUP2 LT ISZERO PUSH2 0x2C97 JUMPI DUP8 DUP6 ADD MLOAD DUP3 SSTORE PUSH1 0x20 SWAP5 DUP6 ADD SWAP5 PUSH1 0x1 SWAP1 SWAP3 ADD SWAP2 ADD PUSH2 0x2C77 JUMP JUMPDEST POP DUP5 DUP3 LT ISZERO PUSH2 0x2CB5 JUMPI DUP7 DUP5 ADD MLOAD PUSH1 0x0 NOT PUSH1 0x3 DUP8 SWAP1 SHL PUSH1 0xF8 AND SHR NOT AND DUP2 SSTORE JUMPDEST POP POP POP POP PUSH1 0x1 SWAP1 DUP2 SHL ADD SWAP1 SSTORE POP JUMP INVALID LOG2 PUSH5 0x6970667358 0x22 SLT KECCAK256 0xAC LT XOR 0xAA 0xB8 BLOBHASH 0xC6 0xB7 EQ SDIV 0xAE 0x4C 0xBA LOG4 SWAP9 COINBASE 0xE2 BLOBHASH 0xE9 0xC5 0xA7 POP LOG1 PUSH31 0xE3C1E2201118275B64736F6C634300081E0033000000000000000000000000 "},"methodIdentifiers":{"COMMITMENT_WINDOW()":"0cb9ce7b","MIN_PRIMARY_STAKE_PERCENTAGE()":"89ab7519","MIN_SECONDARY_STAKE_PERCENTAGE()":"a7d61209","REVEAL_WINDOW()":"17e931cf","approveMilestone(uint256,uint256)":"20913da5","canActivateEscrow(uint256)":"14db2e7d","cancelEscrow(uint256)":"e0182436","commitAsGuarantor(uint256,uint8,bytes32)":"5a8f6a89","createEscrow(address,address,uint256,uint256)":"ccbae5f6","createEscrowWithGuarantors(address,address,uint256,uint256,uint256)":"b44b44a3","createEscrowWithMilestones(address,address,uint256[],uint256[],string[])":"b3090231","fundEscrow(uint256)":"c9c31af5","getAllMilestones(uint256)":"a0b2389b","getEscrowInfo(uint256)":"8646405e","getEscrowState(uint256)":"3a49995b","getGuarantorCommitment(uint256,address)":"a177531f","getGuarantors(uint256)":"9bffca54","getMilestone(uint256,uint256)":"8ed9895c","getMilestoneCount(uint256)":"c2010e50","hasContributed(uint256,address)":"b5b96ae0","isGuarantorVerified(uint256,address)":"10737d24","nextEscrowId()":"89cb29dd","releaseEscrow(uint256)":"ed653164","releaseMilestone(uint256,uint256)":"dbaf0910","revealCommitment(uint256,bytes32)":"957a79ff","rewardGuarantor(uint256,address,uint256)":"cc24e30b","slashGuarantor(uint256,address,uint256)":"ae0c0252"}}}}}