{"contracts/athenyx.sol":{"Athenyx":{"abi":[{"inputs":[],"stateMutability":"nonpayable","type":"constructor"},{"inputs":[],"name":"AlreadyApproved","type":"error"},{"inputs":[],"name":"AlreadyReleased","type":"error"},{"inputs":[],"name":"DeadlineNotPassed","type":"error"},{"inputs":[],"name":"ECDSAInvalidSignature","type":"error"},{"inputs":[{"internalType":"uint256","name":"length","type":"uint256"}],"name":"ECDSAInvalidSignatureLength","type":"error"},{"inputs":[{"internalType":"bytes32","name":"s","type":"bytes32"}],"name":"ECDSAInvalidSignatureS","type":"error"},{"inputs":[{"internalType":"address","name":"sender","type":"address"},{"internalType":"uint256","name":"tokenId","type":"uint256"},{"internalType":"address","name":"owner","type":"address"}],"name":"ERC721IncorrectOwner","type":"error"},{"inputs":[{"internalType":"address","name":"operator","type":"address"},{"internalType":"uint256","name":"tokenId","type":"uint256"}],"name":"ERC721InsufficientApproval","type":"error"},{"inputs":[{"internalType":"address","name":"approver","type":"address"}],"name":"ERC721InvalidApprover","type":"error"},{"inputs":[{"internalType":"address","name":"operator","type":"address"}],"name":"ERC721InvalidOperator","type":"error"},{"inputs":[{"internalType":"address","name":"owner","type":"address"}],"name":"ERC721InvalidOwner","type":"error"},{"inputs":[{"internalType":"address","name":"receiver","type":"address"}],"name":"ERC721InvalidReceiver","type":"error"},{"inputs":[{"internalType":"address","name":"sender","type":"address"}],"name":"ERC721InvalidSender","type":"error"},{"inputs":[{"internalType":"uint256","name":"tokenId","type":"uint256"}],"name":"ERC721NonexistentToken","type":"error"},{"inputs":[],"name":"EmptyMilestones","type":"error"},{"inputs":[],"name":"InsufficientFunds","type":"error"},{"inputs":[],"name":"InvalidAmount","type":"error"},{"inputs":[],"name":"InvalidDeadline","type":"error"},{"inputs":[],"name":"InvalidShortString","type":"error"},{"inputs":[],"name":"InvalidSignature","type":"error"},{"inputs":[],"name":"InvalidState","type":"error"},{"inputs":[],"name":"NotApproved","type":"error"},{"inputs":[],"name":"ReentrancyGuardReentrantCall","type":"error"},{"inputs":[],"name":"SignatureExpired","type":"error"},{"inputs":[{"internalType":"string","name":"str","type":"string"}],"name":"StringTooLong","type":"error"},{"inputs":[],"name":"TransferFailed","type":"error"},{"inputs":[],"name":"Unauthorized","type":"error"},{"inputs":[],"name":"ZeroAddress","type":"error"},{"anonymous":false,"inputs":[{"indexed":true,"internalType":"address","name":"owner","type":"address"},{"indexed":true,"internalType":"address","name":"approved","type":"address"},{"indexed":true,"internalType":"uint256","name":"tokenId","type":"uint256"}],"name":"Approval","type":"event"},{"anonymous":false,"inputs":[{"indexed":true,"internalType":"address","name":"owner","type":"address"},{"indexed":true,"internalType":"address","name":"operator","type":"address"},{"indexed":false,"internalType":"bool","name":"approved","type":"bool"}],"name":"ApprovalForAll","type":"event"},{"anonymous":false,"inputs":[{"indexed":true,"internalType":"uint256","name":"escrowId","type":"uint256"},{"indexed":true,"internalType":"address","name":"payer","type":"address"},{"indexed":false,"internalType":"uint256","name":"amount","type":"uint256"}],"name":"ContributionAdded","type":"event"},{"anonymous":false,"inputs":[{"indexed":true,"internalType":"uint256","name":"escrowId","type":"uint256"},{"indexed":true,"internalType":"address","name":"initiator","type":"address"}],"name":"DisputeRaised","type":"event"},{"anonymous":false,"inputs":[{"indexed":true,"internalType":"uint256","name":"escrowId","type":"uint256"},{"indexed":false,"internalType":"uint256[]","name":"releasedMilestones","type":"uint256[]"}],"name":"DisputeResolved","type":"event"},{"anonymous":false,"inputs":[],"name":"EIP712DomainChanged","type":"event"},{"anonymous":false,"inputs":[{"indexed":true,"internalType":"uint256","name":"escrowId","type":"uint256"},{"indexed":false,"internalType":"uint256","name":"refundAmount","type":"uint256"}],"name":"EscrowCancelled","type":"event"},{"anonymous":false,"inputs":[{"indexed":true,"internalType":"uint256","name":"escrowId","type":"uint256"}],"name":"EscrowCompleted","type":"event"},{"anonymous":false,"inputs":[{"indexed":true,"internalType":"uint256","name":"escrowId","type":"uint256"},{"indexed":true,"internalType":"address","name":"seller","type":"address"},{"indexed":true,"internalType":"address","name":"arbiter","type":"address"},{"indexed":false,"internalType":"uint256","name":"totalAmount","type":"uint256"},{"indexed":false,"internalType":"uint256","name":"arbiterFee","type":"uint256"}],"name":"EscrowCreated","type":"event"},{"anonymous":false,"inputs":[{"indexed":true,"internalType":"uint256","name":"escrowId","type":"uint256"},{"indexed":true,"internalType":"uint256","name":"milestoneIndex","type":"uint256"},{"indexed":false,"internalType":"address","name":"approver","type":"address"}],"name":"MilestoneApproved","type":"event"},{"anonymous":false,"inputs":[{"indexed":true,"internalType":"uint256","name":"escrowId","type":"uint256"},{"indexed":true,"internalType":"uint256","name":"milestoneIndex","type":"uint256"},{"indexed":false,"internalType":"uint256","name":"amount","type":"uint256"}],"name":"MilestoneReleased","type":"event"},{"anonymous":false,"inputs":[{"indexed":true,"internalType":"address","name":"from","type":"address"},{"indexed":true,"internalType":"address","name":"to","type":"address"},{"indexed":true,"internalType":"uint256","name":"tokenId","type":"uint256"}],"name":"Transfer","type":"event"},{"inputs":[],"name":"DOMAIN","outputs":[{"internalType":"string","name":"","type":"string"}],"stateMutability":"view","type":"function"},{"inputs":[{"internalType":"address","name":"to","type":"address"},{"internalType":"uint256","name":"tokenId","type":"uint256"}],"name":"approve","outputs":[],"stateMutability":"nonpayable","type":"function"},{"inputs":[{"internalType":"uint256","name":"escrowId","type":"uint256"},{"internalType":"uint256","name":"milestoneIndex","type":"uint256"}],"name":"approveMilestone","outputs":[],"stateMutability":"nonpayable","type":"function"},{"inputs":[{"internalType":"uint256","name":"escrowId","type":"uint256"},{"internalType":"uint256","name":"milestoneIndex","type":"uint256"},{"internalType":"uint256","name":"signatureDeadline","type":"uint256"},{"internalType":"bytes","name":"signature","type":"bytes"}],"name":"approveMilestoneWithSignature","outputs":[],"stateMutability":"nonpayable","type":"function"},{"inputs":[{"internalType":"address","name":"owner","type":"address"}],"name":"balanceOf","outputs":[{"internalType":"uint256","name":"","type":"uint256"}],"stateMutability":"view","type":"function"},{"inputs":[{"internalType":"uint256","name":"escrowId","type":"uint256"}],"name":"cancelEscrow","outputs":[],"stateMutability":"nonpayable","type":"function"},{"inputs":[{"internalType":"uint256","name":"escrowId","type":"uint256"},{"internalType":"uint256","name":"milestoneIndex","type":"uint256"}],"name":"claimExpiredMilestone","outputs":[],"stateMutability":"nonpayable","type":"function"},{"inputs":[{"internalType":"uint256","name":"escrowId","type":"uint256"}],"name":"contributeToEscrow","outputs":[],"stateMutability":"payable","type":"function"},{"inputs":[{"internalType":"address","name":"seller","type":"address"},{"internalType":"address","name":"arbiter","type":"address"},{"internalType":"uint256","name":"arbiterFee","type":"uint256"},{"internalType":"uint256[]","name":"milestoneAmounts","type":"uint256[]"},{"internalType":"uint256[]","name":"milestoneDeadlines","type":"uint256[]"}],"name":"createEscrow","outputs":[{"internalType":"uint256","name":"","type":"uint256"}],"stateMutability":"payable","type":"function"},{"inputs":[],"name":"eip712Domain","outputs":[{"internalType":"bytes1","name":"fields","type":"bytes1"},{"internalType":"string","name":"name","type":"string"},{"internalType":"string","name":"version","type":"string"},{"internalType":"uint256","name":"chainId","type":"uint256"},{"internalType":"address","name":"verifyingContract","type":"address"},{"internalType":"bytes32","name":"salt","type":"bytes32"},{"internalType":"uint256[]","name":"extensions","type":"uint256[]"}],"stateMutability":"view","type":"function"},{"inputs":[{"internalType":"uint256","name":"tokenId","type":"uint256"}],"name":"getApproved","outputs":[{"internalType":"address","name":"","type":"address"}],"stateMutability":"view","type":"function"},{"inputs":[{"internalType":"uint256","name":"escrowId","type":"uint256"},{"internalType":"address","name":"payer","type":"address"}],"name":"getContribution","outputs":[{"internalType":"uint256","name":"","type":"uint256"}],"stateMutability":"view","type":"function"},{"inputs":[{"internalType":"uint256","name":"escrowId","type":"uint256"}],"name":"getEscrowDetails","outputs":[{"internalType":"address[]","name":"payers","type":"address[]"},{"internalType":"address","name":"seller","type":"address"},{"internalType":"address","name":"arbiter","type":"address"},{"internalType":"uint256","name":"totalFunded","type":"uint256"},{"internalType":"uint256","name":"totalReleased","type":"uint256"},{"internalType":"uint256","name":"arbiterFee","type":"uint256"},{"internalType":"enum Athenyx.EscrowState","name":"state","type":"uint8"},{"internalType":"uint256","name":"createdAt","type":"uint256"}],"stateMutability":"view","type":"function"},{"inputs":[{"internalType":"uint256","name":"escrowId","type":"uint256"},{"internalType":"uint256","name":"milestoneIndex","type":"uint256"}],"name":"getMilestone","outputs":[{"internalType":"uint256","name":"amount","type":"uint256"},{"internalType":"uint256","name":"deadline","type":"uint256"},{"internalType":"bool","name":"approved","type":"bool"},{"internalType":"bool","name":"released","type":"bool"}],"stateMutability":"view","type":"function"},{"inputs":[{"internalType":"uint256","name":"escrowId","type":"uint256"}],"name":"getMilestoneCount","outputs":[{"internalType":"uint256","name":"","type":"uint256"}],"stateMutability":"view","type":"function"},{"inputs":[{"internalType":"uint256","name":"","type":"uint256"},{"internalType":"address","name":"","type":"address"}],"name":"hasContributed","outputs":[{"internalType":"bool","name":"","type":"bool"}],"stateMutability":"view","type":"function"},{"inputs":[{"internalType":"address","name":"owner","type":"address"},{"internalType":"address","name":"operator","type":"address"}],"name":"isApprovedForAll","outputs":[{"internalType":"bool","name":"","type":"bool"}],"stateMutability":"view","type":"function"},{"inputs":[],"name":"name","outputs":[{"internalType":"string","name":"","type":"string"}],"stateMutability":"view","type":"function"},{"inputs":[],"name":"nextEscrowId","outputs":[{"internalType":"uint256","name":"","type":"uint256"}],"stateMutability":"view","type":"function"},{"inputs":[{"internalType":"address","name":"","type":"address"}],"name":"nonces","outputs":[{"internalType":"uint256","name":"","type":"uint256"}],"stateMutability":"view","type":"function"},{"inputs":[{"internalType":"uint256","name":"tokenId","type":"uint256"}],"name":"ownerOf","outputs":[{"internalType":"address","name":"","type":"address"}],"stateMutability":"view","type":"function"},{"inputs":[{"internalType":"uint256","name":"escrowId","type":"uint256"}],"name":"raiseDispute","outputs":[],"stateMutability":"nonpayable","type":"function"},{"inputs":[{"internalType":"uint256","name":"escrowId","type":"uint256"},{"internalType":"uint256","name":"milestoneIndex","type":"uint256"}],"name":"refundExpiredMilestone","outputs":[],"stateMutability":"nonpayable","type":"function"},{"inputs":[{"internalType":"uint256","name":"escrowId","type":"uint256"},{"internalType":"uint256","name":"milestoneIndex","type":"uint256"}],"name":"releaseMilestone","outputs":[],"stateMutability":"nonpayable","type":"function"},{"inputs":[{"internalType":"uint256","name":"escrowId","type":"uint256"},{"internalType":"uint256[]","name":"milestoneIndicesToRelease","type":"uint256[]"}],"name":"resolveDispute","outputs":[],"stateMutability":"nonpayable","type":"function"},{"inputs":[{"internalType":"address","name":"from","type":"address"},{"internalType":"address","name":"to","type":"address"},{"internalType":"uint256","name":"tokenId","type":"uint256"}],"name":"safeTransferFrom","outputs":[],"stateMutability":"nonpayable","type":"function"},{"inputs":[{"internalType":"address","name":"from","type":"address"},{"internalType":"address","name":"to","type":"address"},{"internalType":"uint256","name":"tokenId","type":"uint256"},{"internalType":"bytes","name":"data","type":"bytes"}],"name":"safeTransferFrom","outputs":[],"stateMutability":"nonpayable","type":"function"},{"inputs":[{"internalType":"address","name":"operator","type":"address"},{"internalType":"bool","name":"approved","type":"bool"}],"name":"setApprovalForAll","outputs":[],"stateMutability":"nonpayable","type":"function"},{"inputs":[{"internalType":"bytes4","name":"interfaceId","type":"bytes4"}],"name":"supportsInterface","outputs":[{"internalType":"bool","name":"","type":"bool"}],"stateMutability":"view","type":"function"},{"inputs":[],"name":"symbol","outputs":[{"internalType":"string","name":"","type":"string"}],"stateMutability":"view","type":"function"},{"inputs":[{"internalType":"uint256","name":"tokenId","type":"uint256"}],"name":"tokenURI","outputs":[{"internalType":"string","name":"","type":"string"}],"stateMutability":"view","type":"function"},{"inputs":[{"internalType":"address","name":"from","type":"address"},{"internalType":"address","name":"to","type":"address"},{"internalType":"uint256","name":"tokenId","type":"uint256"}],"name":"transferFrom","outputs":[],"stateMutability":"nonpayable","type":"function"}],"evm":{"bytecode":{"linkReferences":{},"object":"61016060405234801561001157600080fd5b5060405180604001604052806007815260200166082e8d0cadcf2f60cb1b815250604051806040016040528060018152602001603160f81b8152506040518060400160405280600e81526020016d417468656e797820457363726f7760901b81525060405180604001604052806004815260200163082a890b60e31b815250600160008190555081600190816100a79190610287565b5060026100b48282610287565b506100c49150839050600761016e565b610120526100d381600861016e565b61014052815160208084019190912060e052815190820120610100524660a05261016060e05161010051604080517f8b73c3c69bb8fe3d512ecc4cf759cc79239f7b179b0ffacaa9a75d522b39400f60208201529081019290925260608201524660808201523060a082015260009060c00160405160208183030381529060405280519060200120905090565b60805250503060c0526103b7565b600060208351101561018a57610183836101a1565b905061019b565b816101958482610287565b5060ff90505b92915050565b600080829050601f815111156101d5578260405163305a27a960e01b81526004016101cc9190610345565b60405180910390fd5b80516101e082610393565b179392505050565b634e487b7160e01b600052604160045260246000fd5b600181811c9082168061021257607f821691505b60208210810361023257634e487b7160e01b600052602260045260246000fd5b50919050565b601f82111561028257806000526020600020601f840160051c8101602085101561025f5750805b601f840160051c820191505b8181101561027f576000815560010161026b565b50505b505050565b81516001600160401b038111156102a0576102a06101e8565b6102b4816102ae84546101fe565b84610238565b6020601f8211600181146102e857600083156102d05750848201515b600019600385901b1c1916600184901b17845561027f565b600084815260208120601f198516915b8281101561031857878501518255602094850194600190920191016102f8565b50848210156103365786840151600019600387901b60f8161c191681555b50505050600190811b01905550565b602081526000825180602084015260005b818110156103735760208186018101516040868401015201610356565b506000604082850101526040601f19601f83011684010191505092915050565b805160208083015191908110156102325760001960209190910360031b1b16919050565b60805160a05160c05160e0516101005161012051610140516138fa61041160003960006125d3015260006125a101526000612d9701526000612d6f01526000612cca01526000612cf401526000612d1e01526138fa6000f3fe6080604052600436106101e35760003560e01c806389cb29dd11610102578063b996ec2a11610095578063df4ca4bb11610064578063df4ca4bb1461060d578063e01824361461062d578063e081dbf91461064d578063e985e9c51461069457600080fd5b8063b996ec2a14610569578063c2010e501461059d578063c87b56dd146105cd578063dbaf0910146105ed57600080fd5b8063a22cb465116100d1578063a22cb465146104ce578063a5c1674e146104ee578063b5b96ae01461050e578063b88d4fde1461054957600080fd5b806389cb29dd146104485780638ed9895c1461045e57806395d89b41146104a6578063a0440bdb146104bb57600080fd5b806352a9674b1161017a57806370a082311161014957806370a08231146103b25780637ecebe00146103e057806384a667391461040d57806384b0196e1461042057600080fd5b806352a9674b1461031957806355acc0b5146103525780635e77650d146103725780636352211e1461039257600080fd5b806320913da5116101b657806320913da51461029957806323b872dd146102b95780633b2206d3146102d957806342842e0e146102f957600080fd5b806301ffc9a7146101e857806306fdde031461021d578063081812fc1461023f578063095ea7b314610277575b600080fd5b3480156101f457600080fd5b50610208610203366004613108565b6106b4565b60405190151581526020015b60405180910390f35b34801561022957600080fd5b50610232610706565b6040516102149190613175565b34801561024b57600080fd5b5061025f61025a366004613188565b610798565b6040516001600160a01b039091168152602001610214565b34801561028357600080fd5b506102976102923660046131bd565b6107c1565b005b3480156102a557600080fd5b506102976102b43660046131e7565b6107d0565b3480156102c557600080fd5b506102976102d4366004613209565b61094c565b3480156102e557600080fd5b506102976102f4366004613246565b6109dc565b34801561030557600080fd5b50610297610314366004613209565b610c0a565b34801561032557600080fd5b506102326040518060400160405280600d81526020016c617468656e79782e627261766560981b81525081565b34801561035e57600080fd5b5061029761036d366004613321565b610c2a565b34801561037e57600080fd5b5061029761038d3660046131e7565b610fa6565b34801561039e57600080fd5b5061025f6103ad366004613188565b6111c8565b3480156103be57600080fd5b506103d26103cd36600461336d565b6111d3565b604051908152602001610214565b3480156103ec57600080fd5b506103d26103fb36600461336d565b600c6020526000908152604090205481565b61029761041b366004613188565b61121b565b34801561042c57600080fd5b50610435611373565b6040516102149796959493929190613388565b34801561045457600080fd5b506103d260095481565b34801561046a57600080fd5b5061047e6104793660046131e7565b6113b9565b6040805194855260208501939093529015159183019190915215156060820152608001610214565b3480156104b257600080fd5b50610232611421565b6103d26104c9366004613420565b611430565b3480156104da57600080fd5b506102976104e93660046134c0565b61182a565b3480156104fa57600080fd5b50610297610509366004613188565b611835565b34801561051a57600080fd5b506102086105293660046134fc565b600b60209081526000928352604080842090915290825290205460ff1681565b34801561055557600080fd5b5061029761056436600461353e565b611926565b34801561057557600080fd5b50610589610584366004613188565b61193e565b60405161021498979695949392919061365a565b3480156105a957600080fd5b506103d26105b8366004613188565b6000908152600a602052604090206008015490565b3480156105d957600080fd5b506102326105e8366004613188565b611a14565b3480156105f957600080fd5b506102976106083660046131e7565b611a89565b34801561061957600080fd5b506102976106283660046131e7565b611de0565b34801561063957600080fd5b50610297610648366004613188565b612061565b34801561065957600080fd5b506103d26106683660046134fc565b6000828152600a602090815260408083206001600160a01b038516845260010190915290205492915050565b3480156106a057600080fd5b506102086106af3660046136fa565b612334565b60006001600160e01b031982166380ac58cd60e01b14806106e557506001600160e01b03198216635b5e139f60e01b145b8061070057506301ffc9a760e01b6001600160e01b03198316145b92915050565b60606001805461071590613724565b80601f016020809104026020016040519081016040528092919081815260200182805461074190613724565b801561078e5780601f106107635761010080835404028352916020019161078e565b820191906000526020600020905b81548152906001019060200180831161077157829003601f168201915b5050505050905090565b60006107a382612362565b506000828152600560205260409020546001600160a01b0316610700565b6107cc82823361239b565b5050565b6000828152600b60209081526040808320338452909152902054829060ff1661080b576040516282b42960e81b815260040160405180910390fd5b82600080828152600a602052604090206007015460ff16600381111561083357610833613622565b146108515760405163baf3f0f760e01b815260040160405180910390fd5b6000848152600a60205260409020600881015484106108835760405163162908e360e11b815260040160405180910390fd5b600081600801858154811061089a5761089a61375e565b60009182526020909120600490910201600281015490915060ff16156108d35760405163080fc0bd60e11b815260040160405180910390fd5b6002810154610100900460ff16156108fe576040516331da482760e11b815260040160405180910390fd5b60028101805460ff19166001179055604051338152859087907f9ffbb52f2a1362273cd74689a516ca4f52c4282dc13e2e68b7e0646a9a7af7a39060200160405180910390a3505050505050565b6001600160a01b03821661097b57604051633250574960e11b8152600060048201526024015b60405180910390fd5b60006109888383336123a8565b9050836001600160a01b0316816001600160a01b0316146109d6576040516364283d7b60e01b81526001600160a01b0380861660048301526024820184905282166044820152606401610972565b50505050565b84600080828152600a602052604090206007015460ff166003811115610a0457610a04613622565b14610a225760405163baf3f0f760e01b815260040160405180910390fd5b83421115610a4357604051630819bdcd60e01b815260040160405180910390fd5b6000868152600a6020526040902060088101548610610a755760405163162908e360e11b815260040160405180910390fd5b6000816008018781548110610a8c57610a8c61375e565b60009182526020909120600490910201600281015490915060ff1615610ac55760405163080fc0bd60e11b815260040160405180910390fd5b6002810154610100900460ff1615610af0576040516331da482760e11b815260040160405180910390fd5b6000610aff8989898989612427565b60008a8152600b602090815260408083206001600160a01b038516845290915290205490915060ff16610b44576040516282b42960e81b815260040160405180910390fd5b6001600160a01b0381166000908152600c60205260408120805491829190610b6b8361378a565b909155505060028301805460ff19166001179055604051606083901b6bffffffffffffffffffffffff191660208201526034810182905260540160408051601f1981840301815290829052805160209182012060038601556001600160a01b03841682528a918c917f9ffbb52f2a1362273cd74689a516ca4f52c4282dc13e2e68b7e0646a9a7af7a3910160405180910390a350505050505050505050565b610c2583838360405180602001604052806000815250611926565b505050565b6000838152600a602052604090206003015483906001600160a01b03163314610c65576040516282b42960e81b815260040160405180910390fd5b610c6d61251a565b6000848152600a602052604090206003600782015460ff166003811115610c9657610c96613622565b14610cb45760405163baf3f0f760e01b815260040160405180910390fd5b60005b83811015610e36576000858583818110610cd357610cd361375e565b90506020020135905082600801805490508110610d035760405163162908e360e11b815260040160405180910390fd5b6000836008018281548110610d1a57610d1a61375e565b906000526020600020906004020190508060020160019054906101000a900460ff1615610d48575050610e2e565b60028101805461ffff19166101011790558054600585018054600090610d6f9084906137a3565b9091555050600284015481546040516000926001600160a01b031691908381818185875af1925050503d8060008114610dc4576040519150601f19603f3d011682016040523d82523d6000602084013e610dc9565b606091505b5050905080610deb576040516312171d8360e31b815260040160405180910390fd5b82897fd33fcd27cbfb73a2d9058c968b560ccb306500bf536133802048489ecc7355e98460000154604051610e2291815260200190565b60405180910390a35050505b600101610cb7565b5060078101805460ff19169055600681015415610ec957600381015460068201546040516000926001600160a01b031691908381818185875af1925050503d8060008114610ea0576040519150601f19603f3d011682016040523d82523d6000602084013e610ea5565b606091505b5050905080610ec7576040516312171d8360e31b815260040160405180910390fd5b505b847ffc7e89cd665487a127729bce1ffe2d30367c1ec5a4a78639bddfbee1a645696d8585604051610efb9291906137b6565b60405180910390a2600681015460005b6008830154811015610f5357826008018181548110610f2c57610f2c61375e565b90600052602060002090600402016000015482610f4991906137a3565b9150600101610f0b565b5080826005015403610f9a5760078201805460ff1916600217905560405186907f9285bd636dda01bef18996aa38303bb742f6c67a6941646dddb17630cb492c2e90600090a25b50506109d66001600055565b6000828152600b60209081526040808320338452909152902054829060ff16610fe1576040516282b42960e81b815260040160405180910390fd5b82600080828152600a602052604090206007015460ff16600381111561100957611009613622565b146110275760405163baf3f0f760e01b815260040160405180910390fd5b61102f61251a565b6000848152600a60205260409020600881015484106110615760405163162908e360e11b815260040160405180910390fd5b60008160080185815481106110785761107861375e565b906000526020600020906004020190508060020160019054906101000a900460ff16156110b8576040516331da482760e11b815260040160405180910390fd5b600281015460ff16156110de5760405163080fc0bd60e11b815260040160405180910390fd5b806001015460000361110357604051631da7447960e21b815260040160405180910390fd5b80600101544211611127576040516302eb354360e41b815260040160405180910390fd5b60028101805461ff0019166101001790558054600090611148908890612544565b905080156111bb57604051600090339083908381818185875af1925050503d8060008114611192576040519150601f19603f3d011682016040523d82523d6000602084013e611197565b606091505b50509050806111b9576040516312171d8360e31b815260040160405180910390fd5b505b5050506109d66001600055565b600061070082612362565b60006001600160a01b0382166111ff576040516322718ad960e21b815260006004820152602401610972565b506001600160a01b031660009081526004602052604090205490565b80600080828152600a602052604090206007015460ff16600381111561124357611243613622565b146112615760405163baf3f0f760e01b815260040160405180910390fd5b346000036112825760405163162908e360e11b815260040160405180910390fd5b6000828152600a60209081526040808320600b83528184203385529092529091205460ff166112f5578054600181810183556000838152602080822090930180546001600160a01b03191633908117909155868252600b84526040808320918352935291909120805460ff191690911790555b336000908152600182016020526040812080543492906113169084906137a3565b925050819055503481600401600082825461133191906137a3565b9091555050604051348152339084907f75aecd8d57cb4b1b263271bddb4961b993924dd466e6003c254832572d8a57e1906020015b60405180910390a3505050565b60006060806000806000606061138761259a565b61138f6125cc565b60408051600080825260208201909252600f60f81b9b939a50919850469750309650945092509050565b6000806000806000600a600088815260200190815260200160002060080186815481106113e8576113e861375e565b6000918252602090912060049091020180546001820154600290920154909991985060ff80821698506101009091041695509350505050565b60606002805461071590613724565b60006001600160a01b0388166114595760405163d92e233d60e01b815260040160405180910390fd5b600084900361147b57604051632432fdaf60e11b815260040160405180910390fd5b83821461149b5760405163162908e360e11b815260040160405180910390fd5b6000805b8581101561156d578686828181106114b9576114b961375e565b905060200201356000036114e05760405163162908e360e11b815260040160405180910390fd5b8484828181106114f2576114f261375e565b905060200201356000141580156115215750428585838181106115175761151761375e565b9050602002013511155b1561153f57604051631da7447960e21b815260040160405180910390fd5b8686828181106115515761155161375e565b905060200201358261156391906137a3565b915060010161149f565b508634101561158f5760405163162908e360e11b815260040160405180910390fd5b60098054600091826115a08361378a565b9190505590506000600a600083815260200190815260200160002090508a8160020160006101000a8154816001600160a01b0302191690836001600160a01b03160217905550898160030160006101000a8154816001600160a01b0302191690836001600160a01b031602179055508881600601819055503481600401819055506000816005018190555060008160070160006101000a81548160ff0219169083600381111561165257611652613622565b02179055504260098201558054600181810183556000838152602080822090930180546001600160a01b0319163390811790915580825282850184526040808320349055868352600b85528083209183529352918220805460ff191690911790555b8781101561178357816008016040518060a001604052808b8b858181106116dd576116dd61375e565b9050602002013581526020018989858181106116fb576116fb61375e565b602090810292909201358352506000828201819052604080840182905260609384018290528554600181810188559683529183902085516004909302019182559184015181860155908301516002820180549385015115156101000261ff00199215159290921661ffff199094169390931717909155608090910151600390910155016116b4565b5061178e8b836125f9565b896001600160a01b03168b6001600160a01b0316837f59e4b8728799382406714f1c57de5c893d2772f9a8bf9950c5afe4397e648654868d6040516117dd929190918252602082015260400190565b60405180910390a4604051348152339083907f75aecd8d57cb4b1b263271bddb4961b993924dd466e6003c254832572d8a57e19060200160405180910390a3509998505050505050505050565b6107cc338383612613565b80600080828152600a602052604090206007015460ff16600381111561185d5761185d613622565b1461187b5760405163baf3f0f760e01b815260040160405180910390fd5b6000828152600b6020908152604080832033845290915290205460ff161580156118bf57506000828152600a60205260409020600201546001600160a01b03163314155b156118dc576040516282b42960e81b815260040160405180910390fd5b6000828152600a6020526040808220600701805460ff1916600317905551339184917f84a477df8a28a4276ca6dee4458a06c3015f30c477d9c949ede4e13ff8a552b49190a35050565b61193184848461094c565b6109d633858585856126aa565b6000818152600a60209081526040808320600281015460038201546004830154600584015460068501546007860154600987015487548951818c0281018c01909a52808a5260609b9a8b9a8b9a8b9a8b9a8b9a8b9a93998a996001600160a01b0394851699939094169791969495909460ff9094169390918a918301828280156119f157602002820191906000526020600020905b81546001600160a01b031681526001909101906020018083116119d3575b505050505097509850985098509850985098509850985050919395975091939597565b6060611a1f82612362565b506000611a3760408051602081019091526000815290565b90506000815111611a575760405180602001604052806000815250611a82565b80611a61846127d5565b604051602001611a729291906137ef565b6040516020818303038152906040525b9392505050565b611a9161251a565b81600080828152600a602052604090206007015460ff166003811115611ab957611ab9613622565b14611ad75760405163baf3f0f760e01b815260040160405180910390fd5b6000838152600a6020526040902060088101548310611b095760405163162908e360e11b815260040160405180910390fd5b6000816008018481548110611b2057611b2061375e565b60009182526020909120600490910201600281015490915060ff16611b585760405163c19f17a960e01b815260040160405180910390fd5b6002810154610100900460ff1615611b83576040516331da482760e11b815260040160405180910390fd5b80546005830154611b9491906137a3565b82600401541015611bb85760405163356680b760e01b815260040160405180910390fd5b60028101805461ff0019166101001790558054600583018054600090611bdf9084906137a3565b9091555050600282015481546040516000926001600160a01b031691908381818185875af1925050503d8060008114611c34576040519150601f19603f3d011682016040523d82523d6000602084013e611c39565b606091505b5050905080611c5b576040516312171d8360e31b815260040160405180910390fd5b84867fd33fcd27cbfb73a2d9058c968b560ccb306500bf536133802048489ecc7355e98460000154604051611c9291815260200190565b60405180910390a3600683015460005b6008850154811015611cea57846008018181548110611cc357611cc361375e565b90600052602060002090600402016000015482611ce091906137a3565b9150600101611ca2565b5080846005015403611dd15760078401805460ff19166002179055600684015415801590611d24575060038401546001600160a01b031615155b15611da557600384015460068501546040516000926001600160a01b031691908381818185875af1925050503d8060008114611d7c576040519150601f19603f3d011682016040523d82523d6000602084013e611d81565b606091505b5050905080611da3576040516312171d8360e31b815260040160405180910390fd5b505b60405187907f9285bd636dda01bef18996aa38303bb742f6c67a6941646dddb17630cb492c2e90600090a25b50505050506107cc6001600055565b6000828152600a602052604090206002015482906001600160a01b03163314611e1b576040516282b42960e81b815260040160405180910390fd5b82600080828152600a602052604090206007015460ff166003811115611e4357611e43613622565b14611e615760405163baf3f0f760e01b815260040160405180910390fd5b611e6961251a565b6000848152600a6020526040902060088101548410611e9b5760405163162908e360e11b815260040160405180910390fd5b6000816008018581548110611eb257611eb261375e565b906000526020600020906004020190508060020160019054906101000a900460ff1615611ef2576040516331da482760e11b815260040160405180910390fd5b8060010154600003611f1757604051631da7447960e21b815260040160405180910390fd5b80600101544211611f3b576040516302eb354360e41b815260040160405180910390fd5b60028101805461ffff19166101011790558054600583018054600090611f629084906137a3565b9091555050600282015481546040516000926001600160a01b031691908381818185875af1925050503d8060008114611fb7576040519150601f19603f3d011682016040523d82523d6000602084013e611fbc565b606091505b5050905080611fde576040516312171d8360e31b815260040160405180910390fd5b604051308152869088907f9ffbb52f2a1362273cd74689a516ca4f52c4282dc13e2e68b7e0646a9a7af7a39060200160405180910390a385877fd33fcd27cbfb73a2d9058c968b560ccb306500bf536133802048489ecc7355e9846000015460405161204c91815260200190565b60405180910390a35050506109d66001600055565b6000818152600b60209081526040808320338452909152902054819060ff1661209c576040516282b42960e81b815260040160405180910390fd5b81600080828152600a602052604090206007015460ff1660038111156120c4576120c4613622565b146120e25760405163baf3f0f760e01b815260040160405180910390fd5b6120ea61251a565b6000838152600a60205260408120600681015490915b6008830154811015612148578260080181815481106121215761212161375e565b9060005260206000209060040201600001548261213e91906137a3565b9150600101612100565b5060008260050154836004015461215f919061381e565b9050806000036121825760405163356680b760e01b815260040160405180910390fd5b60078301805460ff1916600117905560005b6008840154811015612220578360080181815481106121b5576121b561375e565b906000526020600020906004020160020160019054906101000a900460ff166122185760018460080182815481106121ef576121ef61375e565b906000526020600020906004020160020160016101000a81548160ff0219169083151502179055505b600101612194565b5060005b83548110156122ec5760008460000182815481106122445761224461375e565b60009182526020822001546001600160a01b031691506122648985612544565b905080156122e2576000826001600160a01b03168260405160006040518083038185875af1925050503d80600081146122b9576040519150601f19603f3d011682016040523d82523d6000602084013e6122be565b606091505b50509050806122e0576040516312171d8360e31b815260040160405180910390fd5b505b5050600101612224565b50857fdc48a08bb890bd1b8e4261212a97a5e711e80830d96ba56b362f3ac5f427d51e8260405161231f91815260200190565b60405180910390a2505050610c256001600055565b6001600160a01b03918216600090815260066020908152604080832093909416825291909152205460ff1690565b6000818152600360205260408120546001600160a01b03168061070057604051637e27328960e01b815260048101849052602401610972565b610c258383836001612868565b6000828152600360205260408120546001600160a01b0316816123cc86868661296e565b90506001600160a01b038216158015906123ee57506001600160a01b03861615155b1561241e576000858152600a6020526040902060020180546001600160a01b0319166001600160a01b0388161790555b95945050505050565b336000908152600c602090815260408083205481517f80024b95af979f7623dfe7c1580d0cfd9373eb07043c3b4f1cf49e92ed8bc949818501528083018a905260608101899052608081019190915260a08082018890528251808303909101815260c090910190915280519101208161249f82612a67565b905060006124e586868080601f0160208091040260200160405190810160405280939291908181526020018383808284376000920191909152508693925050612a949050565b90506001600160a01b03811661250e57604051638baa579f60e01b815260040160405180910390fd5b98975050505050505050565b60026000540361253d57604051633ee5aeb560e01b815260040160405180910390fd5b6002600055565b6000828152600a602090815260408083203384526001810190925282205480158061257157506004820154155b1561258157600092505050610700565b60048201546125908286613831565b61241e9190613848565b60606125c77f00000000000000000000000000000000000000000000000000000000000000006007612abe565b905090565b60606125c77f00000000000000000000000000000000000000000000000000000000000000006008612abe565b6107cc828260405180602001604052806000815250612b69565b6001600160a01b03821661264557604051630b61174360e31b81526001600160a01b0383166004820152602401610972565b6001600160a01b03838116600081815260066020908152604080832094871680845294825291829020805460ff191686151590811790915591519182527f17307eab39ab6107e8899845ad3d59bd9653f200f220920489ca2b5937696c319101611366565b6001600160a01b0383163b156127ce57604051630a85bd0160e11b81526001600160a01b0384169063150b7a02906126ec90889088908790879060040161386a565b6020604051808303816000875af1925050508015612727575060408051601f3d908101601f19168201909252612724918101906138a7565b60015b612790573d808015612755576040519150601f19603f3d011682016040523d82523d6000602084013e61275a565b606091505b50805160000361278857604051633250574960e11b81526001600160a01b0385166004820152602401610972565b805160208201fd5b6001600160e01b03198116630a85bd0160e11b146127cc57604051633250574960e11b81526001600160a01b0385166004820152602401610972565b505b5050505050565b606060006127e283612b81565b600101905060008167ffffffffffffffff81111561280257612802613528565b6040519080825280601f01601f19166020018201604052801561282c576020820181803683370190505b5090508181016020015b600019016f181899199a1a9b1b9c1cb0b131b232b360811b600a86061a8153600a850494508461283657509392505050565b808061287c57506001600160a01b03821615155b1561293e57600061288c84612362565b90506001600160a01b038316158015906128b85750826001600160a01b0316816001600160a01b031614155b80156128cb57506128c98184612334565b155b156128f45760405163a9fbf51f60e01b81526001600160a01b0384166004820152602401610972565b811561293c5783856001600160a01b0316826001600160a01b03167f8c5be1e5ebec7d5bd14f71427d1e84f3dd0314c0f7b2291e5b200ac8c7c3b92560405160405180910390a45b505b5050600090815260056020526040902080546001600160a01b0319166001600160a01b0392909216919091179055565b6000828152600360205260408120546001600160a01b039081169083161561299b5761299b818486612c59565b6001600160a01b038116156129d9576129b8600085600080612868565b6001600160a01b038116600090815260046020526040902080546000190190555b6001600160a01b03851615612a08576001600160a01b0385166000908152600460205260409020805460010190555b60008481526003602052604080822080546001600160a01b0319166001600160a01b0389811691821790925591518793918516917fddf252ad1be2c89b69c2b068fc378daa952ba7f163c4a11628f55a4df523b3ef91a4949350505050565b6000610700612a74612cbd565b8360405161190160f01b8152600281019290925260228201526042902090565b600080600080612aa48686612de8565b925092509250612ab48282612e35565b5090949350505050565b606060ff8314612ad857612ad183612eee565b9050610700565b818054612ae490613724565b80601f0160208091040260200160405190810160405280929190818152602001828054612b1090613724565b8015612b5d5780601f10612b3257610100808354040283529160200191612b5d565b820191906000526020600020905b815481529060010190602001808311612b4057829003601f168201915b50505050509050610700565b612b738383612f2d565b610c253360008585856126aa565b60008072184f03e93ff9f4daa797ed6e38ed64bf6a1f0160401b8310612bc05772184f03e93ff9f4daa797ed6e38ed64bf6a1f0160401b830492506040015b6d04ee2d6d415b85acef81000000008310612bec576d04ee2d6d415b85acef8100000000830492506020015b662386f26fc100008310612c0a57662386f26fc10000830492506010015b6305f5e1008310612c22576305f5e100830492506008015b6127108310612c3657612710830492506004015b60648310612c48576064830492506002015b600a83106107005760010192915050565b612c64838383612f92565b610c25576001600160a01b038316612c9257604051637e27328960e01b815260048101829052602401610972565b60405163177e802f60e01b81526001600160a01b038316600482015260248101829052604401610972565b6000306001600160a01b037f000000000000000000000000000000000000000000000000000000000000000016148015612d1657507f000000000000000000000000000000000000000000000000000000000000000046145b15612d4057507f000000000000000000000000000000000000000000000000000000000000000090565b6125c7604080517f8b73c3c69bb8fe3d512ecc4cf759cc79239f7b179b0ffacaa9a75d522b39400f60208201527f0000000000000000000000000000000000000000000000000000000000000000918101919091527f000000000000000000000000000000000000000000000000000000000000000060608201524660808201523060a082015260009060c00160405160208183030381529060405280519060200120905090565b60008060008351604103612e225760208401516040850151606086015160001a612e1488828585612ff8565b955095509550505050612e2e565b50508151600091506002905b9250925092565b6000826003811115612e4957612e49613622565b03612e52575050565b6001826003811115612e6657612e66613622565b03612e845760405163f645eedf60e01b815260040160405180910390fd5b6002826003811115612e9857612e98613622565b03612eb95760405163fce698f760e01b815260048101829052602401610972565b6003826003811115612ecd57612ecd613622565b036107cc576040516335e2f38360e21b815260048101829052602401610972565b60606000612efb836130c7565b604080516020808252818301909252919250600091906020820181803683375050509182525060208101929092525090565b6001600160a01b038216612f5757604051633250574960e11b815260006004820152602401610972565b6000612f65838360006123a8565b90506001600160a01b03811615610c25576040516339e3563760e11b815260006004820152602401610972565b60006001600160a01b03831615801590612ff05750826001600160a01b0316846001600160a01b03161480612fcc5750612fcc8484612334565b80612ff057506000828152600560205260409020546001600160a01b038481169116145b949350505050565b600080807f7fffffffffffffffffffffffffffffff5d576e7357a4501ddfe92f46681b20a084111561303357506000915060039050826130bd565b604080516000808252602082018084528a905260ff891692820192909252606081018790526080810186905260019060a0016020604051602081039080840390855afa158015613087573d6000803e3d6000fd5b5050604051601f1901519150506001600160a01b0381166130b3575060009250600191508290506130bd565b9250600091508190505b9450945094915050565b600060ff8216601f81111561070057604051632cd44ac360e21b815260040160405180910390fd5b6001600160e01b03198116811461310557600080fd5b50565b60006020828403121561311a57600080fd5b8135611a82816130ef565b60005b83811015613140578181015183820152602001613128565b50506000910152565b60008151808452613161816020860160208601613125565b601f01601f19169290920160200192915050565b602081526000611a826020830184613149565b60006020828403121561319a57600080fd5b5035919050565b80356001600160a01b03811681146131b857600080fd5b919050565b600080604083850312156131d057600080fd5b6131d9836131a1565b946020939093013593505050565b600080604083850312156131fa57600080fd5b50508035926020909101359150565b60008060006060848603121561321e57600080fd5b613227846131a1565b9250613235602085016131a1565b929592945050506040919091013590565b60008060008060006080868803121561325e57600080fd5b853594506020860135935060408601359250606086013567ffffffffffffffff81111561328a57600080fd5b8601601f8101881361329b57600080fd5b803567ffffffffffffffff8111156132b257600080fd5b8860208284010111156132c457600080fd5b959894975092955050506020019190565b60008083601f8401126132e757600080fd5b50813567ffffffffffffffff8111156132ff57600080fd5b6020830191508360208260051b850101111561331a57600080fd5b9250929050565b60008060006040848603121561333657600080fd5b83359250602084013567ffffffffffffffff81111561335457600080fd5b613360868287016132d5565b9497909650939450505050565b60006020828403121561337f57600080fd5b611a82826131a1565b60ff60f81b8816815260e0602082015260006133a760e0830189613149565b82810360408401526133b98189613149565b606084018890526001600160a01b038716608085015260a0840186905283810360c08501528451808252602080870193509091019060005b8181101561340f5783518352602093840193909201916001016133f1565b50909b9a5050505050505050505050565b600080600080600080600060a0888a03121561343b57600080fd5b613444886131a1565b9650613452602089016131a1565b955060408801359450606088013567ffffffffffffffff81111561347557600080fd5b6134818a828b016132d5565b909550935050608088013567ffffffffffffffff8111156134a157600080fd5b6134ad8a828b016132d5565b989b979a50959850939692959293505050565b600080604083850312156134d357600080fd5b6134dc836131a1565b9150602083013580151581146134f157600080fd5b809150509250929050565b6000806040838503121561350f57600080fd5b8235915061351f602084016131a1565b90509250929050565b634e487b7160e01b600052604160045260246000fd5b6000806000806080858703121561355457600080fd5b61355d856131a1565b935061356b602086016131a1565b925060408501359150606085013567ffffffffffffffff81111561358e57600080fd5b8501601f8101871361359f57600080fd5b803567ffffffffffffffff8111156135b9576135b9613528565b604051601f8201601f19908116603f0116810167ffffffffffffffff811182821017156135e8576135e8613528565b60405281815282820160200189101561360057600080fd5b8160208401602083013760006020838301015280935050505092959194509250565b634e487b7160e01b600052602160045260246000fd5b6004811061365657634e487b7160e01b600052602160045260246000fd5b9052565b610100808252895190820181905260009060208b0190610120840190835b8181101561369f5783516001600160a01b0316835260209384019390920191600101613678565b50506001600160a01b038b16602085015291506136b99050565b6001600160a01b03881660408301528660608301528560808301528460a08301526136e760c0830185613638565b8260e08301529998505050505050505050565b6000806040838503121561370d57600080fd5b613716836131a1565b915061351f602084016131a1565b600181811c9082168061373857607f821691505b60208210810361375857634e487b7160e01b600052602260045260246000fd5b50919050565b634e487b7160e01b600052603260045260246000fd5b634e487b7160e01b600052601160045260246000fd5b60006001820161379c5761379c613774565b5060010190565b8082018082111561070057610700613774565b6020808252810182905260006001600160fb1b038311156137d657600080fd5b8260051b80856040850137919091016040019392505050565b60008351613801818460208801613125565b835190830190613815818360208801613125565b01949350505050565b8181038181111561070057610700613774565b808202811582820484141761070057610700613774565b60008261386557634e487b7160e01b600052601260045260246000fd5b500490565b6001600160a01b038581168252841660208201526040810183905260806060820181905260009061389d90830184613149565b9695505050505050565b6000602082840312156138b957600080fd5b8151611a82816130ef56fea264697066735822122050b918f07f6fb6bf47d0a5da4dc1020ed80d208071bfe96aca1f31e1f2f639e464736f6c634300081e0033","opcodes":"PUSH2 0x160 PUSH1 0x40 MSTORE CALLVALUE DUP1 ISZERO PUSH2 0x11 JUMPI PUSH1 0x0 DUP1 REVERT JUMPDEST POP PUSH1 0x40 MLOAD DUP1 PUSH1 0x40 ADD PUSH1 0x40 MSTORE DUP1 PUSH1 0x7 DUP2 MSTORE PUSH1 0x20 ADD PUSH7 0x82E8D0CADCF2F PUSH1 0xCB SHL DUP2 MSTORE POP PUSH1 0x40 MLOAD DUP1 PUSH1 0x40 ADD PUSH1 0x40 MSTORE DUP1 PUSH1 0x1 DUP2 MSTORE PUSH1 0x20 ADD PUSH1 0x31 PUSH1 0xF8 SHL DUP2 MSTORE POP PUSH1 0x40 MLOAD DUP1 PUSH1 0x40 ADD PUSH1 0x40 MSTORE DUP1 PUSH1 0xE DUP2 MSTORE PUSH1 0x20 ADD PUSH14 0x417468656E797820457363726F77 PUSH1 0x90 SHL DUP2 MSTORE POP PUSH1 0x40 MLOAD DUP1 PUSH1 0x40 ADD PUSH1 0x40 MSTORE DUP1 PUSH1 0x4 DUP2 MSTORE PUSH1 0x20 ADD PUSH4 0x82A890B PUSH1 0xE3 SHL DUP2 MSTORE POP PUSH1 0x1 PUSH1 0x0 DUP2 SWAP1 SSTORE POP DUP2 PUSH1 0x1 SWAP1 DUP2 PUSH2 0xA7 SWAP2 SWAP1 PUSH2 0x287 JUMP JUMPDEST POP PUSH1 0x2 PUSH2 0xB4 DUP3 DUP3 PUSH2 0x287 JUMP JUMPDEST POP PUSH2 0xC4 SWAP2 POP DUP4 SWAP1 POP PUSH1 0x7 PUSH2 0x16E JUMP JUMPDEST PUSH2 0x120 MSTORE PUSH2 0xD3 DUP2 PUSH1 0x8 PUSH2 0x16E JUMP JUMPDEST PUSH2 0x140 MSTORE DUP2 MLOAD PUSH1 0x20 DUP1 DUP5 ADD SWAP2 SWAP1 SWAP2 KECCAK256 PUSH1 0xE0 MSTORE DUP2 MLOAD SWAP1 DUP3 ADD KECCAK256 PUSH2 0x100 MSTORE CHAINID PUSH1 0xA0 MSTORE PUSH2 0x160 PUSH1 0xE0 MLOAD PUSH2 0x100 MLOAD PUSH1 0x40 DUP1 MLOAD PUSH32 0x8B73C3C69BB8FE3D512ECC4CF759CC79239F7B179B0FFACAA9A75D522B39400F PUSH1 0x20 DUP3 ADD MSTORE SWAP1 DUP2 ADD SWAP3 SWAP1 SWAP3 MSTORE PUSH1 0x60 DUP3 ADD MSTORE CHAINID PUSH1 0x80 DUP3 ADD MSTORE ADDRESS PUSH1 0xA0 DUP3 ADD MSTORE PUSH1 0x0 SWAP1 PUSH1 0xC0 ADD PUSH1 0x40 MLOAD PUSH1 0x20 DUP2 DUP4 SUB SUB DUP2 MSTORE SWAP1 PUSH1 0x40 MSTORE DUP1 MLOAD SWAP1 PUSH1 0x20 ADD KECCAK256 SWAP1 POP SWAP1 JUMP JUMPDEST PUSH1 0x80 MSTORE POP POP ADDRESS PUSH1 0xC0 MSTORE PUSH2 0x3B7 JUMP JUMPDEST PUSH1 0x0 PUSH1 0x20 DUP4 MLOAD LT ISZERO PUSH2 0x18A JUMPI PUSH2 0x183 DUP4 PUSH2 0x1A1 JUMP JUMPDEST SWAP1 POP PUSH2 0x19B JUMP JUMPDEST DUP2 PUSH2 0x195 DUP5 DUP3 PUSH2 0x287 JUMP JUMPDEST POP PUSH1 0xFF SWAP1 POP JUMPDEST SWAP3 SWAP2 POP POP JUMP JUMPDEST PUSH1 0x0 DUP1 DUP3 SWAP1 POP PUSH1 0x1F DUP2 MLOAD GT ISZERO PUSH2 0x1D5 JUMPI DUP3 PUSH1 0x40 MLOAD PUSH4 0x305A27A9 PUSH1 0xE0 SHL DUP2 MSTORE PUSH1 0x4 ADD PUSH2 0x1CC SWAP2 SWAP1 PUSH2 0x345 JUMP JUMPDEST PUSH1 0x40 MLOAD DUP1 SWAP2 SUB SWAP1 REVERT JUMPDEST DUP1 MLOAD PUSH2 0x1E0 DUP3 PUSH2 0x393 JUMP JUMPDEST OR SWAP4 SWAP3 POP POP POP JUMP JUMPDEST PUSH4 0x4E487B71 PUSH1 0xE0 SHL PUSH1 0x0 MSTORE PUSH1 0x41 PUSH1 0x4 MSTORE PUSH1 0x24 PUSH1 0x0 REVERT JUMPDEST PUSH1 0x1 DUP2 DUP2 SHR SWAP1 DUP3 AND DUP1 PUSH2 0x212 JUMPI PUSH1 0x7F DUP3 AND SWAP2 POP JUMPDEST PUSH1 0x20 DUP3 LT DUP2 SUB PUSH2 0x232 JUMPI PUSH4 0x4E487B71 PUSH1 0xE0 SHL PUSH1 0x0 MSTORE PUSH1 0x22 PUSH1 0x4 MSTORE PUSH1 0x24 PUSH1 0x0 REVERT JUMPDEST POP SWAP2 SWAP1 POP JUMP JUMPDEST PUSH1 0x1F DUP3 GT ISZERO PUSH2 0x282 JUMPI DUP1 PUSH1 0x0 MSTORE PUSH1 0x20 PUSH1 0x0 KECCAK256 PUSH1 0x1F DUP5 ADD PUSH1 0x5 SHR DUP2 ADD PUSH1 0x20 DUP6 LT ISZERO PUSH2 0x25F JUMPI POP DUP1 JUMPDEST PUSH1 0x1F DUP5 ADD PUSH1 0x5 SHR DUP3 ADD SWAP2 POP JUMPDEST DUP2 DUP2 LT ISZERO PUSH2 0x27F JUMPI PUSH1 0x0 DUP2 SSTORE PUSH1 0x1 ADD PUSH2 0x26B JUMP JUMPDEST POP POP JUMPDEST POP POP POP JUMP JUMPDEST DUP2 MLOAD PUSH1 0x1 PUSH1 0x1 PUSH1 0x40 SHL SUB DUP2 GT ISZERO PUSH2 0x2A0 JUMPI PUSH2 0x2A0 PUSH2 0x1E8 JUMP JUMPDEST PUSH2 0x2B4 DUP2 PUSH2 0x2AE DUP5 SLOAD PUSH2 0x1FE JUMP JUMPDEST DUP5 PUSH2 0x238 JUMP JUMPDEST PUSH1 0x20 PUSH1 0x1F DUP3 GT PUSH1 0x1 DUP2 EQ PUSH2 0x2E8 JUMPI PUSH1 0x0 DUP4 ISZERO PUSH2 0x2D0 JUMPI POP DUP5 DUP3 ADD MLOAD JUMPDEST PUSH1 0x0 NOT PUSH1 0x3 DUP6 SWAP1 SHL SHR NOT AND PUSH1 0x1 DUP5 SWAP1 SHL OR DUP5 SSTORE PUSH2 0x27F JUMP JUMPDEST PUSH1 0x0 DUP5 DUP2 MSTORE PUSH1 0x20 DUP2 KECCAK256 PUSH1 0x1F NOT DUP6 AND SWAP2 JUMPDEST DUP3 DUP2 LT ISZERO PUSH2 0x318 JUMPI DUP8 DUP6 ADD MLOAD DUP3 SSTORE PUSH1 0x20 SWAP5 DUP6 ADD SWAP5 PUSH1 0x1 SWAP1 SWAP3 ADD SWAP2 ADD PUSH2 0x2F8 JUMP JUMPDEST POP DUP5 DUP3 LT ISZERO PUSH2 0x336 JUMPI DUP7 DUP5 ADD MLOAD PUSH1 0x0 NOT PUSH1 0x3 DUP8 SWAP1 SHL PUSH1 0xF8 AND SHR NOT AND DUP2 SSTORE JUMPDEST POP POP POP POP PUSH1 0x1 SWAP1 DUP2 SHL ADD SWAP1 SSTORE POP JUMP JUMPDEST PUSH1 0x20 DUP2 MSTORE PUSH1 0x0 DUP3 MLOAD DUP1 PUSH1 0x20 DUP5 ADD MSTORE PUSH1 0x0 JUMPDEST DUP2 DUP2 LT ISZERO PUSH2 0x373 JUMPI PUSH1 0x20 DUP2 DUP7 ADD DUP2 ADD MLOAD PUSH1 0x40 DUP7 DUP5 ADD ADD MSTORE ADD PUSH2 0x356 JUMP JUMPDEST POP PUSH1 0x0 PUSH1 0x40 DUP3 DUP6 ADD ADD MSTORE PUSH1 0x40 PUSH1 0x1F NOT PUSH1 0x1F DUP4 ADD AND DUP5 ADD ADD SWAP2 POP POP SWAP3 SWAP2 POP POP JUMP JUMPDEST DUP1 MLOAD PUSH1 0x20 DUP1 DUP4 ADD MLOAD SWAP2 SWAP1 DUP2 LT ISZERO PUSH2 0x232 JUMPI PUSH1 0x0 NOT PUSH1 0x20 SWAP2 SWAP1 SWAP2 SUB PUSH1 0x3 SHL SHL AND SWAP2 SWAP1 POP JUMP JUMPDEST PUSH1 0x80 MLOAD PUSH1 0xA0 MLOAD PUSH1 0xC0 MLOAD PUSH1 0xE0 MLOAD PUSH2 0x100 MLOAD PUSH2 0x120 MLOAD PUSH2 0x140 MLOAD PUSH2 0x38FA PUSH2 0x411 PUSH1 0x0 CODECOPY PUSH1 0x0 PUSH2 0x25D3 ADD MSTORE PUSH1 0x0 PUSH2 0x25A1 ADD MSTORE PUSH1 0x0 PUSH2 0x2D97 ADD MSTORE PUSH1 0x0 PUSH2 0x2D6F ADD MSTORE PUSH1 0x0 PUSH2 0x2CCA ADD MSTORE PUSH1 0x0 PUSH2 0x2CF4 ADD MSTORE PUSH1 0x0 PUSH2 0x2D1E ADD MSTORE PUSH2 0x38FA PUSH1 0x0 RETURN INVALID PUSH1 0x80 PUSH1 0x40 MSTORE PUSH1 0x4 CALLDATASIZE LT PUSH2 0x1E3 JUMPI PUSH1 0x0 CALLDATALOAD PUSH1 0xE0 SHR DUP1 PUSH4 0x89CB29DD GT PUSH2 0x102 JUMPI DUP1 PUSH4 0xB996EC2A GT PUSH2 0x95 JUMPI DUP1 PUSH4 0xDF4CA4BB GT PUSH2 0x64 JUMPI DUP1 PUSH4 0xDF4CA4BB EQ PUSH2 0x60D JUMPI DUP1 PUSH4 0xE0182436 EQ PUSH2 0x62D JUMPI DUP1 PUSH4 0xE081DBF9 EQ PUSH2 0x64D JUMPI DUP1 PUSH4 0xE985E9C5 EQ PUSH2 0x694 JUMPI PUSH1 0x0 DUP1 REVERT JUMPDEST DUP1 PUSH4 0xB996EC2A EQ PUSH2 0x569 JUMPI DUP1 PUSH4 0xC2010E50 EQ PUSH2 0x59D JUMPI DUP1 PUSH4 0xC87B56DD EQ PUSH2 0x5CD JUMPI DUP1 PUSH4 0xDBAF0910 EQ PUSH2 0x5ED JUMPI PUSH1 0x0 DUP1 REVERT JUMPDEST DUP1 PUSH4 0xA22CB465 GT PUSH2 0xD1 JUMPI DUP1 PUSH4 0xA22CB465 EQ PUSH2 0x4CE JUMPI DUP1 PUSH4 0xA5C1674E EQ PUSH2 0x4EE JUMPI DUP1 PUSH4 0xB5B96AE0 EQ PUSH2 0x50E JUMPI DUP1 PUSH4 0xB88D4FDE EQ PUSH2 0x549 JUMPI PUSH1 0x0 DUP1 REVERT JUMPDEST DUP1 PUSH4 0x89CB29DD EQ PUSH2 0x448 JUMPI DUP1 PUSH4 0x8ED9895C EQ PUSH2 0x45E JUMPI DUP1 PUSH4 0x95D89B41 EQ PUSH2 0x4A6 JUMPI DUP1 PUSH4 0xA0440BDB EQ PUSH2 0x4BB JUMPI PUSH1 0x0 DUP1 REVERT JUMPDEST DUP1 PUSH4 0x52A9674B GT PUSH2 0x17A JUMPI DUP1 PUSH4 0x70A08231 GT PUSH2 0x149 JUMPI DUP1 PUSH4 0x70A08231 EQ PUSH2 0x3B2 JUMPI DUP1 PUSH4 0x7ECEBE00 EQ PUSH2 0x3E0 JUMPI DUP1 PUSH4 0x84A66739 EQ PUSH2 0x40D JUMPI DUP1 PUSH4 0x84B0196E EQ PUSH2 0x420 JUMPI PUSH1 0x0 DUP1 REVERT JUMPDEST DUP1 PUSH4 0x52A9674B EQ PUSH2 0x319 JUMPI DUP1 PUSH4 0x55ACC0B5 EQ PUSH2 0x352 JUMPI DUP1 PUSH4 0x5E77650D EQ PUSH2 0x372 JUMPI DUP1 PUSH4 0x6352211E EQ PUSH2 0x392 JUMPI PUSH1 0x0 DUP1 REVERT JUMPDEST DUP1 PUSH4 0x20913DA5 GT PUSH2 0x1B6 JUMPI DUP1 PUSH4 0x20913DA5 EQ PUSH2 0x299 JUMPI DUP1 PUSH4 0x23B872DD EQ PUSH2 0x2B9 JUMPI DUP1 PUSH4 0x3B2206D3 EQ PUSH2 0x2D9 JUMPI DUP1 PUSH4 0x42842E0E EQ PUSH2 0x2F9 JUMPI PUSH1 0x0 DUP1 REVERT JUMPDEST DUP1 PUSH4 0x1FFC9A7 EQ PUSH2 0x1E8 JUMPI DUP1 PUSH4 0x6FDDE03 EQ PUSH2 0x21D JUMPI DUP1 PUSH4 0x81812FC EQ PUSH2 0x23F JUMPI DUP1 PUSH4 0x95EA7B3 EQ PUSH2 0x277 JUMPI JUMPDEST PUSH1 0x0 DUP1 REVERT JUMPDEST CALLVALUE DUP1 ISZERO PUSH2 0x1F4 JUMPI PUSH1 0x0 DUP1 REVERT JUMPDEST POP PUSH2 0x208 PUSH2 0x203 CALLDATASIZE PUSH1 0x4 PUSH2 0x3108 JUMP JUMPDEST PUSH2 0x6B4 JUMP JUMPDEST PUSH1 0x40 MLOAD SWAP1 ISZERO ISZERO DUP2 MSTORE PUSH1 0x20 ADD JUMPDEST PUSH1 0x40 MLOAD DUP1 SWAP2 SUB SWAP1 RETURN JUMPDEST CALLVALUE DUP1 ISZERO PUSH2 0x229 JUMPI PUSH1 0x0 DUP1 REVERT JUMPDEST POP PUSH2 0x232 PUSH2 0x706 JUMP JUMPDEST PUSH1 0x40 MLOAD PUSH2 0x214 SWAP2 SWAP1 PUSH2 0x3175 JUMP JUMPDEST CALLVALUE DUP1 ISZERO PUSH2 0x24B JUMPI PUSH1 0x0 DUP1 REVERT JUMPDEST POP PUSH2 0x25F PUSH2 0x25A CALLDATASIZE PUSH1 0x4 PUSH2 0x3188 JUMP JUMPDEST PUSH2 0x798 JUMP JUMPDEST PUSH1 0x40 MLOAD PUSH1 0x1 PUSH1 0x1 PUSH1 0xA0 SHL SUB SWAP1 SWAP2 AND DUP2 MSTORE PUSH1 0x20 ADD PUSH2 0x214 JUMP JUMPDEST CALLVALUE DUP1 ISZERO PUSH2 0x283 JUMPI PUSH1 0x0 DUP1 REVERT JUMPDEST POP PUSH2 0x297 PUSH2 0x292 CALLDATASIZE PUSH1 0x4 PUSH2 0x31BD JUMP JUMPDEST PUSH2 0x7C1 JUMP JUMPDEST STOP JUMPDEST CALLVALUE DUP1 ISZERO PUSH2 0x2A5 JUMPI PUSH1 0x0 DUP1 REVERT JUMPDEST POP PUSH2 0x297 PUSH2 0x2B4 CALLDATASIZE PUSH1 0x4 PUSH2 0x31E7 JUMP JUMPDEST PUSH2 0x7D0 JUMP JUMPDEST CALLVALUE DUP1 ISZERO PUSH2 0x2C5 JUMPI PUSH1 0x0 DUP1 REVERT JUMPDEST POP PUSH2 0x297 PUSH2 0x2D4 CALLDATASIZE PUSH1 0x4 PUSH2 0x3209 JUMP JUMPDEST PUSH2 0x94C JUMP JUMPDEST CALLVALUE DUP1 ISZERO PUSH2 0x2E5 JUMPI PUSH1 0x0 DUP1 REVERT JUMPDEST POP PUSH2 0x297 PUSH2 0x2F4 CALLDATASIZE PUSH1 0x4 PUSH2 0x3246 JUMP JUMPDEST PUSH2 0x9DC JUMP JUMPDEST CALLVALUE DUP1 ISZERO PUSH2 0x305 JUMPI PUSH1 0x0 DUP1 REVERT JUMPDEST POP PUSH2 0x297 PUSH2 0x314 CALLDATASIZE PUSH1 0x4 PUSH2 0x3209 JUMP JUMPDEST PUSH2 0xC0A JUMP JUMPDEST CALLVALUE DUP1 ISZERO PUSH2 0x325 JUMPI PUSH1 0x0 DUP1 REVERT JUMPDEST POP PUSH2 0x232 PUSH1 0x40 MLOAD DUP1 PUSH1 0x40 ADD PUSH1 0x40 MSTORE DUP1 PUSH1 0xD DUP2 MSTORE PUSH1 0x20 ADD PUSH13 0x617468656E79782E6272617665 PUSH1 0x98 SHL DUP2 MSTORE POP DUP2 JUMP JUMPDEST CALLVALUE DUP1 ISZERO PUSH2 0x35E JUMPI PUSH1 0x0 DUP1 REVERT JUMPDEST POP PUSH2 0x297 PUSH2 0x36D CALLDATASIZE PUSH1 0x4 PUSH2 0x3321 JUMP JUMPDEST PUSH2 0xC2A JUMP JUMPDEST CALLVALUE DUP1 ISZERO PUSH2 0x37E JUMPI PUSH1 0x0 DUP1 REVERT JUMPDEST POP PUSH2 0x297 PUSH2 0x38D CALLDATASIZE PUSH1 0x4 PUSH2 0x31E7 JUMP JUMPDEST PUSH2 0xFA6 JUMP JUMPDEST CALLVALUE DUP1 ISZERO PUSH2 0x39E JUMPI PUSH1 0x0 DUP1 REVERT JUMPDEST POP PUSH2 0x25F PUSH2 0x3AD CALLDATASIZE PUSH1 0x4 PUSH2 0x3188 JUMP JUMPDEST PUSH2 0x11C8 JUMP JUMPDEST CALLVALUE DUP1 ISZERO PUSH2 0x3BE JUMPI PUSH1 0x0 DUP1 REVERT JUMPDEST POP PUSH2 0x3D2 PUSH2 0x3CD CALLDATASIZE PUSH1 0x4 PUSH2 0x336D JUMP JUMPDEST PUSH2 0x11D3 JUMP JUMPDEST PUSH1 0x40 MLOAD SWAP1 DUP2 MSTORE PUSH1 0x20 ADD PUSH2 0x214 JUMP JUMPDEST CALLVALUE DUP1 ISZERO PUSH2 0x3EC JUMPI PUSH1 0x0 DUP1 REVERT JUMPDEST POP PUSH2 0x3D2 PUSH2 0x3FB CALLDATASIZE PUSH1 0x4 PUSH2 0x336D JUMP JUMPDEST PUSH1 0xC PUSH1 0x20 MSTORE PUSH1 0x0 SWAP1 DUP2 MSTORE PUSH1 0x40 SWAP1 KECCAK256 SLOAD DUP2 JUMP JUMPDEST PUSH2 0x297 PUSH2 0x41B CALLDATASIZE PUSH1 0x4 PUSH2 0x3188 JUMP JUMPDEST PUSH2 0x121B JUMP JUMPDEST CALLVALUE DUP1 ISZERO PUSH2 0x42C JUMPI PUSH1 0x0 DUP1 REVERT JUMPDEST POP PUSH2 0x435 PUSH2 0x1373 JUMP JUMPDEST PUSH1 0x40 MLOAD PUSH2 0x214 SWAP8 SWAP7 SWAP6 SWAP5 SWAP4 SWAP3 SWAP2 SWAP1 PUSH2 0x3388 JUMP JUMPDEST CALLVALUE DUP1 ISZERO PUSH2 0x454 JUMPI PUSH1 0x0 DUP1 REVERT JUMPDEST POP PUSH2 0x3D2 PUSH1 0x9 SLOAD DUP2 JUMP JUMPDEST CALLVALUE DUP1 ISZERO PUSH2 0x46A JUMPI PUSH1 0x0 DUP1 REVERT JUMPDEST POP PUSH2 0x47E PUSH2 0x479 CALLDATASIZE PUSH1 0x4 PUSH2 0x31E7 JUMP JUMPDEST PUSH2 0x13B9 JUMP JUMPDEST PUSH1 0x40 DUP1 MLOAD SWAP5 DUP6 MSTORE PUSH1 0x20 DUP6 ADD SWAP4 SWAP1 SWAP4 MSTORE SWAP1 ISZERO ISZERO SWAP2 DUP4 ADD SWAP2 SWAP1 SWAP2 MSTORE ISZERO ISZERO PUSH1 0x60 DUP3 ADD MSTORE PUSH1 0x80 ADD PUSH2 0x214 JUMP JUMPDEST CALLVALUE DUP1 ISZERO PUSH2 0x4B2 JUMPI PUSH1 0x0 DUP1 REVERT JUMPDEST POP PUSH2 0x232 PUSH2 0x1421 JUMP JUMPDEST PUSH2 0x3D2 PUSH2 0x4C9 CALLDATASIZE PUSH1 0x4 PUSH2 0x3420 JUMP JUMPDEST PUSH2 0x1430 JUMP JUMPDEST CALLVALUE DUP1 ISZERO PUSH2 0x4DA JUMPI PUSH1 0x0 DUP1 REVERT JUMPDEST POP PUSH2 0x297 PUSH2 0x4E9 CALLDATASIZE PUSH1 0x4 PUSH2 0x34C0 JUMP JUMPDEST PUSH2 0x182A JUMP JUMPDEST CALLVALUE DUP1 ISZERO PUSH2 0x4FA JUMPI PUSH1 0x0 DUP1 REVERT JUMPDEST POP PUSH2 0x297 PUSH2 0x509 CALLDATASIZE PUSH1 0x4 PUSH2 0x3188 JUMP JUMPDEST PUSH2 0x1835 JUMP JUMPDEST CALLVALUE DUP1 ISZERO PUSH2 0x51A JUMPI PUSH1 0x0 DUP1 REVERT JUMPDEST POP PUSH2 0x208 PUSH2 0x529 CALLDATASIZE PUSH1 0x4 PUSH2 0x34FC JUMP JUMPDEST PUSH1 0xB PUSH1 0x20 SWAP1 DUP2 MSTORE PUSH1 0x0 SWAP3 DUP4 MSTORE PUSH1 0x40 DUP1 DUP5 KECCAK256 SWAP1 SWAP2 MSTORE SWAP1 DUP3 MSTORE SWAP1 KECCAK256 SLOAD PUSH1 0xFF AND DUP2 JUMP JUMPDEST CALLVALUE DUP1 ISZERO PUSH2 0x555 JUMPI PUSH1 0x0 DUP1 REVERT JUMPDEST POP PUSH2 0x297 PUSH2 0x564 CALLDATASIZE PUSH1 0x4 PUSH2 0x353E JUMP JUMPDEST PUSH2 0x1926 JUMP JUMPDEST CALLVALUE DUP1 ISZERO PUSH2 0x575 JUMPI PUSH1 0x0 DUP1 REVERT JUMPDEST POP PUSH2 0x589 PUSH2 0x584 CALLDATASIZE PUSH1 0x4 PUSH2 0x3188 JUMP JUMPDEST PUSH2 0x193E JUMP JUMPDEST PUSH1 0x40 MLOAD PUSH2 0x214 SWAP9 SWAP8 SWAP7 SWAP6 SWAP5 SWAP4 SWAP3 SWAP2 SWAP1 PUSH2 0x365A JUMP JUMPDEST CALLVALUE DUP1 ISZERO PUSH2 0x5A9 JUMPI PUSH1 0x0 DUP1 REVERT JUMPDEST POP PUSH2 0x3D2 PUSH2 0x5B8 CALLDATASIZE PUSH1 0x4 PUSH2 0x3188 JUMP JUMPDEST PUSH1 0x0 SWAP1 DUP2 MSTORE PUSH1 0xA PUSH1 0x20 MSTORE PUSH1 0x40 SWAP1 KECCAK256 PUSH1 0x8 ADD SLOAD SWAP1 JUMP JUMPDEST CALLVALUE DUP1 ISZERO PUSH2 0x5D9 JUMPI PUSH1 0x0 DUP1 REVERT JUMPDEST POP PUSH2 0x232 PUSH2 0x5E8 CALLDATASIZE PUSH1 0x4 PUSH2 0x3188 JUMP JUMPDEST PUSH2 0x1A14 JUMP JUMPDEST CALLVALUE DUP1 ISZERO PUSH2 0x5F9 JUMPI PUSH1 0x0 DUP1 REVERT JUMPDEST POP PUSH2 0x297 PUSH2 0x608 CALLDATASIZE PUSH1 0x4 PUSH2 0x31E7 JUMP JUMPDEST PUSH2 0x1A89 JUMP JUMPDEST CALLVALUE DUP1 ISZERO PUSH2 0x619 JUMPI PUSH1 0x0 DUP1 REVERT JUMPDEST POP PUSH2 0x297 PUSH2 0x628 CALLDATASIZE PUSH1 0x4 PUSH2 0x31E7 JUMP JUMPDEST PUSH2 0x1DE0 JUMP JUMPDEST CALLVALUE DUP1 ISZERO PUSH2 0x639 JUMPI PUSH1 0x0 DUP1 REVERT JUMPDEST POP PUSH2 0x297 PUSH2 0x648 CALLDATASIZE PUSH1 0x4 PUSH2 0x3188 JUMP JUMPDEST PUSH2 0x2061 JUMP JUMPDEST CALLVALUE DUP1 ISZERO PUSH2 0x659 JUMPI PUSH1 0x0 DUP1 REVERT JUMPDEST POP PUSH2 0x3D2 PUSH2 0x668 CALLDATASIZE PUSH1 0x4 PUSH2 0x34FC JUMP JUMPDEST PUSH1 0x0 DUP3 DUP2 MSTORE PUSH1 0xA PUSH1 0x20 SWAP1 DUP2 MSTORE PUSH1 0x40 DUP1 DUP4 KECCAK256 PUSH1 0x1 PUSH1 0x1 PUSH1 0xA0 SHL SUB DUP6 AND DUP5 MSTORE PUSH1 0x1 ADD SWAP1 SWAP2 MSTORE SWAP1 KECCAK256 SLOAD SWAP3 SWAP2 POP POP JUMP JUMPDEST CALLVALUE DUP1 ISZERO PUSH2 0x6A0 JUMPI PUSH1 0x0 DUP1 REVERT JUMPDEST POP PUSH2 0x208 PUSH2 0x6AF CALLDATASIZE PUSH1 0x4 PUSH2 0x36FA JUMP JUMPDEST PUSH2 0x2334 JUMP JUMPDEST PUSH1 0x0 PUSH1 0x1 PUSH1 0x1 PUSH1 0xE0 SHL SUB NOT DUP3 AND PUSH4 0x80AC58CD PUSH1 0xE0 SHL EQ DUP1 PUSH2 0x6E5 JUMPI POP PUSH1 0x1 PUSH1 0x1 PUSH1 0xE0 SHL SUB NOT DUP3 AND PUSH4 0x5B5E139F PUSH1 0xE0 SHL EQ JUMPDEST DUP1 PUSH2 0x700 JUMPI POP PUSH4 0x1FFC9A7 PUSH1 0xE0 SHL PUSH1 0x1 PUSH1 0x1 PUSH1 0xE0 SHL SUB NOT DUP4 AND EQ JUMPDEST SWAP3 SWAP2 POP POP JUMP JUMPDEST PUSH1 0x60 PUSH1 0x1 DUP1 SLOAD PUSH2 0x715 SWAP1 PUSH2 0x3724 JUMP JUMPDEST DUP1 PUSH1 0x1F ADD PUSH1 0x20 DUP1 SWAP2 DIV MUL PUSH1 0x20 ADD PUSH1 0x40 MLOAD SWAP1 DUP2 ADD PUSH1 0x40 MSTORE DUP1 SWAP3 SWAP2 SWAP1 DUP2 DUP2 MSTORE PUSH1 0x20 ADD DUP3 DUP1 SLOAD PUSH2 0x741 SWAP1 PUSH2 0x3724 JUMP JUMPDEST DUP1 ISZERO PUSH2 0x78E JUMPI DUP1 PUSH1 0x1F LT PUSH2 0x763 JUMPI PUSH2 0x100 DUP1 DUP4 SLOAD DIV MUL DUP4 MSTORE SWAP2 PUSH1 0x20 ADD SWAP2 PUSH2 0x78E JUMP JUMPDEST DUP3 ADD SWAP2 SWAP1 PUSH1 0x0 MSTORE PUSH1 0x20 PUSH1 0x0 KECCAK256 SWAP1 JUMPDEST DUP2 SLOAD DUP2 MSTORE SWAP1 PUSH1 0x1 ADD SWAP1 PUSH1 0x20 ADD DUP1 DUP4 GT PUSH2 0x771 JUMPI DUP3 SWAP1 SUB PUSH1 0x1F AND DUP3 ADD SWAP2 JUMPDEST POP POP POP POP POP SWAP1 POP SWAP1 JUMP JUMPDEST PUSH1 0x0 PUSH2 0x7A3 DUP3 PUSH2 0x2362 JUMP JUMPDEST POP PUSH1 0x0 DUP3 DUP2 MSTORE PUSH1 0x5 PUSH1 0x20 MSTORE PUSH1 0x40 SWAP1 KECCAK256 SLOAD PUSH1 0x1 PUSH1 0x1 PUSH1 0xA0 SHL SUB AND PUSH2 0x700 JUMP JUMPDEST PUSH2 0x7CC DUP3 DUP3 CALLER PUSH2 0x239B JUMP JUMPDEST POP POP JUMP JUMPDEST PUSH1 0x0 DUP3 DUP2 MSTORE PUSH1 0xB PUSH1 0x20 SWAP1 DUP2 MSTORE PUSH1 0x40 DUP1 DUP4 KECCAK256 CALLER DUP5 MSTORE SWAP1 SWAP2 MSTORE SWAP1 KECCAK256 SLOAD DUP3 SWAP1 PUSH1 0xFF AND PUSH2 0x80B JUMPI PUSH1 0x40 MLOAD PUSH3 0x82B429 PUSH1 0xE8 SHL DUP2 MSTORE PUSH1 0x4 ADD PUSH1 0x40 MLOAD DUP1 SWAP2 SUB SWAP1 REVERT JUMPDEST DUP3 PUSH1 0x0 DUP1 DUP3 DUP2 MSTORE PUSH1 0xA PUSH1 0x20 MSTORE PUSH1 0x40 SWAP1 KECCAK256 PUSH1 0x7 ADD SLOAD PUSH1 0xFF AND PUSH1 0x3 DUP2 GT ISZERO PUSH2 0x833 JUMPI PUSH2 0x833 PUSH2 0x3622 JUMP JUMPDEST EQ PUSH2 0x851 JUMPI PUSH1 0x40 MLOAD PUSH4 0xBAF3F0F7 PUSH1 0xE0 SHL DUP2 MSTORE PUSH1 0x4 ADD PUSH1 0x40 MLOAD DUP1 SWAP2 SUB SWAP1 REVERT JUMPDEST PUSH1 0x0 DUP5 DUP2 MSTORE PUSH1 0xA PUSH1 0x20 MSTORE PUSH1 0x40 SWAP1 KECCAK256 PUSH1 0x8 DUP2 ADD SLOAD DUP5 LT PUSH2 0x883 JUMPI PUSH1 0x40 MLOAD PUSH4 0x162908E3 PUSH1 0xE1 SHL DUP2 MSTORE PUSH1 0x4 ADD PUSH1 0x40 MLOAD DUP1 SWAP2 SUB SWAP1 REVERT JUMPDEST PUSH1 0x0 DUP2 PUSH1 0x8 ADD DUP6 DUP2 SLOAD DUP2 LT PUSH2 0x89A JUMPI PUSH2 0x89A PUSH2 0x375E JUMP JUMPDEST PUSH1 0x0 SWAP2 DUP3 MSTORE PUSH1 0x20 SWAP1 SWAP2 KECCAK256 PUSH1 0x4 SWAP1 SWAP2 MUL ADD PUSH1 0x2 DUP2 ADD SLOAD SWAP1 SWAP2 POP PUSH1 0xFF AND ISZERO PUSH2 0x8D3 JUMPI PUSH1 0x40 MLOAD PUSH4 0x80FC0BD PUSH1 0xE1 SHL DUP2 MSTORE PUSH1 0x4 ADD PUSH1 0x40 MLOAD DUP1 SWAP2 SUB SWAP1 REVERT JUMPDEST PUSH1 0x2 DUP2 ADD SLOAD PUSH2 0x100 SWAP1 DIV PUSH1 0xFF AND ISZERO PUSH2 0x8FE JUMPI PUSH1 0x40 MLOAD PUSH4 0x31DA4827 PUSH1 0xE1 SHL DUP2 MSTORE PUSH1 0x4 ADD PUSH1 0x40 MLOAD DUP1 SWAP2 SUB SWAP1 REVERT JUMPDEST PUSH1 0x2 DUP2 ADD DUP1 SLOAD PUSH1 0xFF NOT AND PUSH1 0x1 OR SWAP1 SSTORE PUSH1 0x40 MLOAD CALLER DUP2 MSTORE DUP6 SWAP1 DUP8 SWAP1 PUSH32 0x9FFBB52F2A1362273CD74689A516CA4F52C4282DC13E2E68B7E0646A9A7AF7A3 SWAP1 PUSH1 0x20 ADD PUSH1 0x40 MLOAD DUP1 SWAP2 SUB SWAP1 LOG3 POP POP POP POP POP POP JUMP JUMPDEST PUSH1 0x1 PUSH1 0x1 PUSH1 0xA0 SHL SUB DUP3 AND PUSH2 0x97B JUMPI PUSH1 0x40 MLOAD PUSH4 0x32505749 PUSH1 0xE1 SHL DUP2 MSTORE PUSH1 0x0 PUSH1 0x4 DUP3 ADD MSTORE PUSH1 0x24 ADD JUMPDEST PUSH1 0x40 MLOAD DUP1 SWAP2 SUB SWAP1 REVERT JUMPDEST PUSH1 0x0 PUSH2 0x988 DUP4 DUP4 CALLER PUSH2 0x23A8 JUMP JUMPDEST SWAP1 POP DUP4 PUSH1 0x1 PUSH1 0x1 PUSH1 0xA0 SHL SUB AND DUP2 PUSH1 0x1 PUSH1 0x1 PUSH1 0xA0 SHL SUB AND EQ PUSH2 0x9D6 JUMPI PUSH1 0x40 MLOAD PUSH4 0x64283D7B PUSH1 0xE0 SHL DUP2 MSTORE PUSH1 0x1 PUSH1 0x1 PUSH1 0xA0 SHL SUB DUP1 DUP7 AND PUSH1 0x4 DUP4 ADD MSTORE PUSH1 0x24 DUP3 ADD DUP5 SWAP1 MSTORE DUP3 AND PUSH1 0x44 DUP3 ADD MSTORE PUSH1 0x64 ADD PUSH2 0x972 JUMP JUMPDEST POP POP POP POP JUMP JUMPDEST DUP5 PUSH1 0x0 DUP1 DUP3 DUP2 MSTORE PUSH1 0xA PUSH1 0x20 MSTORE PUSH1 0x40 SWAP1 KECCAK256 PUSH1 0x7 ADD SLOAD PUSH1 0xFF AND PUSH1 0x3 DUP2 GT ISZERO PUSH2 0xA04 JUMPI PUSH2 0xA04 PUSH2 0x3622 JUMP JUMPDEST EQ PUSH2 0xA22 JUMPI PUSH1 0x40 MLOAD PUSH4 0xBAF3F0F7 PUSH1 0xE0 SHL DUP2 MSTORE PUSH1 0x4 ADD PUSH1 0x40 MLOAD DUP1 SWAP2 SUB SWAP1 REVERT JUMPDEST DUP4 TIMESTAMP GT ISZERO PUSH2 0xA43 JUMPI PUSH1 0x40 MLOAD PUSH4 0x819BDCD PUSH1 0xE0 SHL DUP2 MSTORE PUSH1 0x4 ADD PUSH1 0x40 MLOAD DUP1 SWAP2 SUB SWAP1 REVERT JUMPDEST PUSH1 0x0 DUP7 DUP2 MSTORE PUSH1 0xA PUSH1 0x20 MSTORE PUSH1 0x40 SWAP1 KECCAK256 PUSH1 0x8 DUP2 ADD SLOAD DUP7 LT PUSH2 0xA75 JUMPI PUSH1 0x40 MLOAD PUSH4 0x162908E3 PUSH1 0xE1 SHL DUP2 MSTORE PUSH1 0x4 ADD PUSH1 0x40 MLOAD DUP1 SWAP2 SUB SWAP1 REVERT JUMPDEST PUSH1 0x0 DUP2 PUSH1 0x8 ADD DUP8 DUP2 SLOAD DUP2 LT PUSH2 0xA8C JUMPI PUSH2 0xA8C PUSH2 0x375E JUMP JUMPDEST PUSH1 0x0 SWAP2 DUP3 MSTORE PUSH1 0x20 SWAP1 SWAP2 KECCAK256 PUSH1 0x4 SWAP1 SWAP2 MUL ADD PUSH1 0x2 DUP2 ADD SLOAD SWAP1 SWAP2 POP PUSH1 0xFF AND ISZERO PUSH2 0xAC5 JUMPI PUSH1 0x40 MLOAD PUSH4 0x80FC0BD PUSH1 0xE1 SHL DUP2 MSTORE PUSH1 0x4 ADD PUSH1 0x40 MLOAD DUP1 SWAP2 SUB SWAP1 REVERT JUMPDEST PUSH1 0x2 DUP2 ADD SLOAD PUSH2 0x100 SWAP1 DIV PUSH1 0xFF AND ISZERO PUSH2 0xAF0 JUMPI PUSH1 0x40 MLOAD PUSH4 0x31DA4827 PUSH1 0xE1 SHL DUP2 MSTORE PUSH1 0x4 ADD PUSH1 0x40 MLOAD DUP1 SWAP2 SUB SWAP1 REVERT JUMPDEST PUSH1 0x0 PUSH2 0xAFF DUP10 DUP10 DUP10 DUP10 DUP10 PUSH2 0x2427 JUMP JUMPDEST PUSH1 0x0 DUP11 DUP2 MSTORE PUSH1 0xB PUSH1 0x20 SWAP1 DUP2 MSTORE PUSH1 0x40 DUP1 DUP4 KECCAK256 PUSH1 0x1 PUSH1 0x1 PUSH1 0xA0 SHL SUB DUP6 AND DUP5 MSTORE SWAP1 SWAP2 MSTORE SWAP1 KECCAK256 SLOAD SWAP1 SWAP2 POP PUSH1 0xFF AND PUSH2 0xB44 JUMPI PUSH1 0x40 MLOAD PUSH3 0x82B429 PUSH1 0xE8 SHL DUP2 MSTORE PUSH1 0x4 ADD PUSH1 0x40 MLOAD DUP1 SWAP2 SUB SWAP1 REVERT JUMPDEST PUSH1 0x1 PUSH1 0x1 PUSH1 0xA0 SHL SUB DUP2 AND PUSH1 0x0 SWAP1 DUP2 MSTORE PUSH1 0xC PUSH1 0x20 MSTORE PUSH1 0x40 DUP2 KECCAK256 DUP1 SLOAD SWAP2 DUP3 SWAP2 SWAP1 PUSH2 0xB6B DUP4 PUSH2 0x378A JUMP JUMPDEST SWAP1 SWAP2 SSTORE POP POP PUSH1 0x2 DUP4 ADD DUP1 SLOAD PUSH1 0xFF NOT AND PUSH1 0x1 OR SWAP1 SSTORE PUSH1 0x40 MLOAD PUSH1 0x60 DUP4 SWAP1 SHL PUSH12 0xFFFFFFFFFFFFFFFFFFFFFFFF NOT AND PUSH1 0x20 DUP3 ADD MSTORE PUSH1 0x34 DUP2 ADD DUP3 SWAP1 MSTORE PUSH1 0x54 ADD PUSH1 0x40 DUP1 MLOAD PUSH1 0x1F NOT DUP2 DUP5 SUB ADD DUP2 MSTORE SWAP1 DUP3 SWAP1 MSTORE DUP1 MLOAD PUSH1 0x20 SWAP2 DUP3 ADD KECCAK256 PUSH1 0x3 DUP7 ADD SSTORE PUSH1 0x1 PUSH1 0x1 PUSH1 0xA0 SHL SUB DUP5 AND DUP3 MSTORE DUP11 SWAP2 DUP13 SWAP2 PUSH32 0x9FFBB52F2A1362273CD74689A516CA4F52C4282DC13E2E68B7E0646A9A7AF7A3 SWAP2 ADD PUSH1 0x40 MLOAD DUP1 SWAP2 SUB SWAP1 LOG3 POP POP POP POP POP POP POP POP POP POP JUMP JUMPDEST PUSH2 0xC25 DUP4 DUP4 DUP4 PUSH1 0x40 MLOAD DUP1 PUSH1 0x20 ADD PUSH1 0x40 MSTORE DUP1 PUSH1 0x0 DUP2 MSTORE POP PUSH2 0x1926 JUMP JUMPDEST POP POP POP JUMP JUMPDEST PUSH1 0x0 DUP4 DUP2 MSTORE PUSH1 0xA PUSH1 0x20 MSTORE PUSH1 0x40 SWAP1 KECCAK256 PUSH1 0x3 ADD SLOAD DUP4 SWAP1 PUSH1 0x1 PUSH1 0x1 PUSH1 0xA0 SHL SUB AND CALLER EQ PUSH2 0xC65 JUMPI PUSH1 0x40 MLOAD PUSH3 0x82B429 PUSH1 0xE8 SHL DUP2 MSTORE PUSH1 0x4 ADD PUSH1 0x40 MLOAD DUP1 SWAP2 SUB SWAP1 REVERT JUMPDEST PUSH2 0xC6D PUSH2 0x251A JUMP JUMPDEST PUSH1 0x0 DUP5 DUP2 MSTORE PUSH1 0xA PUSH1 0x20 MSTORE PUSH1 0x40 SWAP1 KECCAK256 PUSH1 0x3 PUSH1 0x7 DUP3 ADD SLOAD PUSH1 0xFF AND PUSH1 0x3 DUP2 GT ISZERO PUSH2 0xC96 JUMPI PUSH2 0xC96 PUSH2 0x3622 JUMP JUMPDEST EQ PUSH2 0xCB4 JUMPI PUSH1 0x40 MLOAD PUSH4 0xBAF3F0F7 PUSH1 0xE0 SHL DUP2 MSTORE PUSH1 0x4 ADD PUSH1 0x40 MLOAD DUP1 SWAP2 SUB SWAP1 REVERT JUMPDEST PUSH1 0x0 JUMPDEST DUP4 DUP2 LT ISZERO PUSH2 0xE36 JUMPI PUSH1 0x0 DUP6 DUP6 DUP4 DUP2 DUP2 LT PUSH2 0xCD3 JUMPI PUSH2 0xCD3 PUSH2 0x375E JUMP JUMPDEST SWAP1 POP PUSH1 0x20 MUL ADD CALLDATALOAD SWAP1 POP DUP3 PUSH1 0x8 ADD DUP1 SLOAD SWAP1 POP DUP2 LT PUSH2 0xD03 JUMPI PUSH1 0x40 MLOAD PUSH4 0x162908E3 PUSH1 0xE1 SHL DUP2 MSTORE PUSH1 0x4 ADD PUSH1 0x40 MLOAD DUP1 SWAP2 SUB SWAP1 REVERT JUMPDEST PUSH1 0x0 DUP4 PUSH1 0x8 ADD DUP3 DUP2 SLOAD DUP2 LT PUSH2 0xD1A JUMPI PUSH2 0xD1A PUSH2 0x375E JUMP JUMPDEST SWAP1 PUSH1 0x0 MSTORE PUSH1 0x20 PUSH1 0x0 KECCAK256 SWAP1 PUSH1 0x4 MUL ADD SWAP1 POP DUP1 PUSH1 0x2 ADD PUSH1 0x1 SWAP1 SLOAD SWAP1 PUSH2 0x100 EXP SWAP1 DIV PUSH1 0xFF AND ISZERO PUSH2 0xD48 JUMPI POP POP PUSH2 0xE2E JUMP JUMPDEST PUSH1 0x2 DUP2 ADD DUP1 SLOAD PUSH2 0xFFFF NOT AND PUSH2 0x101 OR SWAP1 SSTORE DUP1 SLOAD PUSH1 0x5 DUP6 ADD DUP1 SLOAD PUSH1 0x0 SWAP1 PUSH2 0xD6F SWAP1 DUP5 SWAP1 PUSH2 0x37A3 JUMP JUMPDEST SWAP1 SWAP2 SSTORE POP POP PUSH1 0x2 DUP5 ADD SLOAD DUP2 SLOAD PUSH1 0x40 MLOAD PUSH1 0x0 SWAP3 PUSH1 0x1 PUSH1 0x1 PUSH1 0xA0 SHL SUB AND SWAP2 SWAP1 DUP4 DUP2 DUP2 DUP2 DUP6 DUP8 GAS CALL SWAP3 POP POP POP RETURNDATASIZE DUP1 PUSH1 0x0 DUP2 EQ PUSH2 0xDC4 JUMPI PUSH1 0x40 MLOAD SWAP2 POP PUSH1 0x1F NOT PUSH1 0x3F RETURNDATASIZE ADD AND DUP3 ADD PUSH1 0x40 MSTORE RETURNDATASIZE DUP3 MSTORE RETURNDATASIZE PUSH1 0x0 PUSH1 0x20 DUP5 ADD RETURNDATACOPY PUSH2 0xDC9 JUMP JUMPDEST PUSH1 0x60 SWAP2 POP JUMPDEST POP POP SWAP1 POP DUP1 PUSH2 0xDEB JUMPI PUSH1 0x40 MLOAD PUSH4 0x12171D83 PUSH1 0xE3 SHL DUP2 MSTORE PUSH1 0x4 ADD PUSH1 0x40 MLOAD DUP1 SWAP2 SUB SWAP1 REVERT JUMPDEST DUP3 DUP10 PUSH32 0xD33FCD27CBFB73A2D9058C968B560CCB306500BF536133802048489ECC7355E9 DUP5 PUSH1 0x0 ADD SLOAD PUSH1 0x40 MLOAD PUSH2 0xE22 SWAP2 DUP2 MSTORE PUSH1 0x20 ADD SWAP1 JUMP JUMPDEST PUSH1 0x40 MLOAD DUP1 SWAP2 SUB SWAP1 LOG3 POP POP POP JUMPDEST PUSH1 0x1 ADD PUSH2 0xCB7 JUMP JUMPDEST POP PUSH1 0x7 DUP2 ADD DUP1 SLOAD PUSH1 0xFF NOT AND SWAP1 SSTORE PUSH1 0x6 DUP2 ADD SLOAD ISZERO PUSH2 0xEC9 JUMPI PUSH1 0x3 DUP2 ADD SLOAD PUSH1 0x6 DUP3 ADD SLOAD PUSH1 0x40 MLOAD PUSH1 0x0 SWAP3 PUSH1 0x1 PUSH1 0x1 PUSH1 0xA0 SHL SUB AND SWAP2 SWAP1 DUP4 DUP2 DUP2 DUP2 DUP6 DUP8 GAS CALL SWAP3 POP POP POP RETURNDATASIZE DUP1 PUSH1 0x0 DUP2 EQ PUSH2 0xEA0 JUMPI PUSH1 0x40 MLOAD SWAP2 POP PUSH1 0x1F NOT PUSH1 0x3F RETURNDATASIZE ADD AND DUP3 ADD PUSH1 0x40 MSTORE RETURNDATASIZE DUP3 MSTORE RETURNDATASIZE PUSH1 0x0 PUSH1 0x20 DUP5 ADD RETURNDATACOPY PUSH2 0xEA5 JUMP JUMPDEST PUSH1 0x60 SWAP2 POP JUMPDEST POP POP SWAP1 POP DUP1 PUSH2 0xEC7 JUMPI PUSH1 0x40 MLOAD PUSH4 0x12171D83 PUSH1 0xE3 SHL DUP2 MSTORE PUSH1 0x4 ADD PUSH1 0x40 MLOAD DUP1 SWAP2 SUB SWAP1 REVERT JUMPDEST POP JUMPDEST DUP5 PUSH32 0xFC7E89CD665487A127729BCE1FFE2D30367C1EC5A4A78639BDDFBEE1A645696D DUP6 DUP6 PUSH1 0x40 MLOAD PUSH2 0xEFB SWAP3 SWAP2 SWAP1 PUSH2 0x37B6 JUMP JUMPDEST PUSH1 0x40 MLOAD DUP1 SWAP2 SUB SWAP1 LOG2 PUSH1 0x6 DUP2 ADD SLOAD PUSH1 0x0 JUMPDEST PUSH1 0x8 DUP4 ADD SLOAD DUP2 LT ISZERO PUSH2 0xF53 JUMPI DUP3 PUSH1 0x8 ADD DUP2 DUP2 SLOAD DUP2 LT PUSH2 0xF2C JUMPI PUSH2 0xF2C PUSH2 0x375E JUMP JUMPDEST SWAP1 PUSH1 0x0 MSTORE PUSH1 0x20 PUSH1 0x0 KECCAK256 SWAP1 PUSH1 0x4 MUL ADD PUSH1 0x0 ADD SLOAD DUP3 PUSH2 0xF49 SWAP2 SWAP1 PUSH2 0x37A3 JUMP JUMPDEST SWAP2 POP PUSH1 0x1 ADD PUSH2 0xF0B JUMP JUMPDEST POP DUP1 DUP3 PUSH1 0x5 ADD SLOAD SUB PUSH2 0xF9A JUMPI PUSH1 0x7 DUP3 ADD DUP1 SLOAD PUSH1 0xFF NOT AND PUSH1 0x2 OR SWAP1 SSTORE PUSH1 0x40 MLOAD DUP7 SWAP1 PUSH32 0x9285BD636DDA01BEF18996AA38303BB742F6C67A6941646DDDB17630CB492C2E SWAP1 PUSH1 0x0 SWAP1 LOG2 JUMPDEST POP POP PUSH2 0x9D6 PUSH1 0x1 PUSH1 0x0 SSTORE JUMP JUMPDEST PUSH1 0x0 DUP3 DUP2 MSTORE PUSH1 0xB PUSH1 0x20 SWAP1 DUP2 MSTORE PUSH1 0x40 DUP1 DUP4 KECCAK256 CALLER DUP5 MSTORE SWAP1 SWAP2 MSTORE SWAP1 KECCAK256 SLOAD DUP3 SWAP1 PUSH1 0xFF AND PUSH2 0xFE1 JUMPI PUSH1 0x40 MLOAD PUSH3 0x82B429 PUSH1 0xE8 SHL DUP2 MSTORE PUSH1 0x4 ADD PUSH1 0x40 MLOAD DUP1 SWAP2 SUB SWAP1 REVERT JUMPDEST DUP3 PUSH1 0x0 DUP1 DUP3 DUP2 MSTORE PUSH1 0xA PUSH1 0x20 MSTORE PUSH1 0x40 SWAP1 KECCAK256 PUSH1 0x7 ADD SLOAD PUSH1 0xFF AND PUSH1 0x3 DUP2 GT ISZERO PUSH2 0x1009 JUMPI PUSH2 0x1009 PUSH2 0x3622 JUMP JUMPDEST EQ PUSH2 0x1027 JUMPI PUSH1 0x40 MLOAD PUSH4 0xBAF3F0F7 PUSH1 0xE0 SHL DUP2 MSTORE PUSH1 0x4 ADD PUSH1 0x40 MLOAD DUP1 SWAP2 SUB SWAP1 REVERT JUMPDEST PUSH2 0x102F PUSH2 0x251A JUMP JUMPDEST PUSH1 0x0 DUP5 DUP2 MSTORE PUSH1 0xA PUSH1 0x20 MSTORE PUSH1 0x40 SWAP1 KECCAK256 PUSH1 0x8 DUP2 ADD SLOAD DUP5 LT PUSH2 0x1061 JUMPI PUSH1 0x40 MLOAD PUSH4 0x162908E3 PUSH1 0xE1 SHL DUP2 MSTORE PUSH1 0x4 ADD PUSH1 0x40 MLOAD DUP1 SWAP2 SUB SWAP1 REVERT JUMPDEST PUSH1 0x0 DUP2 PUSH1 0x8 ADD DUP6 DUP2 SLOAD DUP2 LT PUSH2 0x1078 JUMPI PUSH2 0x1078 PUSH2 0x375E JUMP JUMPDEST SWAP1 PUSH1 0x0 MSTORE PUSH1 0x20 PUSH1 0x0 KECCAK256 SWAP1 PUSH1 0x4 MUL ADD SWAP1 POP DUP1 PUSH1 0x2 ADD PUSH1 0x1 SWAP1 SLOAD SWAP1 PUSH2 0x100 EXP SWAP1 DIV PUSH1 0xFF AND ISZERO PUSH2 0x10B8 JUMPI PUSH1 0x40 MLOAD PUSH4 0x31DA4827 PUSH1 0xE1 SHL DUP2 MSTORE PUSH1 0x4 ADD PUSH1 0x40 MLOAD DUP1 SWAP2 SUB SWAP1 REVERT JUMPDEST PUSH1 0x2 DUP2 ADD SLOAD PUSH1 0xFF AND ISZERO PUSH2 0x10DE JUMPI PUSH1 0x40 MLOAD PUSH4 0x80FC0BD PUSH1 0xE1 SHL DUP2 MSTORE PUSH1 0x4 ADD PUSH1 0x40 MLOAD DUP1 SWAP2 SUB SWAP1 REVERT JUMPDEST DUP1 PUSH1 0x1 ADD SLOAD PUSH1 0x0 SUB PUSH2 0x1103 JUMPI PUSH1 0x40 MLOAD PUSH4 0x1DA74479 PUSH1 0xE2 SHL DUP2 MSTORE PUSH1 0x4 ADD PUSH1 0x40 MLOAD DUP1 SWAP2 SUB SWAP1 REVERT JUMPDEST DUP1 PUSH1 0x1 ADD SLOAD TIMESTAMP GT PUSH2 0x1127 JUMPI PUSH1 0x40 MLOAD PUSH4 0x2EB3543 PUSH1 0xE4 SHL DUP2 MSTORE PUSH1 0x4 ADD PUSH1 0x40 MLOAD DUP1 SWAP2 SUB SWAP1 REVERT JUMPDEST PUSH1 0x2 DUP2 ADD DUP1 SLOAD PUSH2 0xFF00 NOT AND PUSH2 0x100 OR SWAP1 SSTORE DUP1 SLOAD PUSH1 0x0 SWAP1 PUSH2 0x1148 SWAP1 DUP9 SWAP1 PUSH2 0x2544 JUMP JUMPDEST SWAP1 POP DUP1 ISZERO PUSH2 0x11BB JUMPI PUSH1 0x40 MLOAD PUSH1 0x0 SWAP1 CALLER SWAP1 DUP4 SWAP1 DUP4 DUP2 DUP2 DUP2 DUP6 DUP8 GAS CALL SWAP3 POP POP POP RETURNDATASIZE DUP1 PUSH1 0x0 DUP2 EQ PUSH2 0x1192 JUMPI PUSH1 0x40 MLOAD SWAP2 POP PUSH1 0x1F NOT PUSH1 0x3F RETURNDATASIZE ADD AND DUP3 ADD PUSH1 0x40 MSTORE RETURNDATASIZE DUP3 MSTORE RETURNDATASIZE PUSH1 0x0 PUSH1 0x20 DUP5 ADD RETURNDATACOPY PUSH2 0x1197 JUMP JUMPDEST PUSH1 0x60 SWAP2 POP JUMPDEST POP POP SWAP1 POP DUP1 PUSH2 0x11B9 JUMPI PUSH1 0x40 MLOAD PUSH4 0x12171D83 PUSH1 0xE3 SHL DUP2 MSTORE PUSH1 0x4 ADD PUSH1 0x40 MLOAD DUP1 SWAP2 SUB SWAP1 REVERT JUMPDEST POP JUMPDEST POP POP POP PUSH2 0x9D6 PUSH1 0x1 PUSH1 0x0 SSTORE JUMP JUMPDEST PUSH1 0x0 PUSH2 0x700 DUP3 PUSH2 0x2362 JUMP JUMPDEST PUSH1 0x0 PUSH1 0x1 PUSH1 0x1 PUSH1 0xA0 SHL SUB DUP3 AND PUSH2 0x11FF JUMPI PUSH1 0x40 MLOAD PUSH4 0x22718AD9 PUSH1 0xE2 SHL DUP2 MSTORE PUSH1 0x0 PUSH1 0x4 DUP3 ADD MSTORE PUSH1 0x24 ADD PUSH2 0x972 JUMP JUMPDEST POP PUSH1 0x1 PUSH1 0x1 PUSH1 0xA0 SHL SUB AND PUSH1 0x0 SWAP1 DUP2 MSTORE PUSH1 0x4 PUSH1 0x20 MSTORE PUSH1 0x40 SWAP1 KECCAK256 SLOAD SWAP1 JUMP JUMPDEST DUP1 PUSH1 0x0 DUP1 DUP3 DUP2 MSTORE PUSH1 0xA PUSH1 0x20 MSTORE PUSH1 0x40 SWAP1 KECCAK256 PUSH1 0x7 ADD SLOAD PUSH1 0xFF AND PUSH1 0x3 DUP2 GT ISZERO PUSH2 0x1243 JUMPI PUSH2 0x1243 PUSH2 0x3622 JUMP JUMPDEST EQ PUSH2 0x1261 JUMPI PUSH1 0x40 MLOAD PUSH4 0xBAF3F0F7 PUSH1 0xE0 SHL DUP2 MSTORE PUSH1 0x4 ADD PUSH1 0x40 MLOAD DUP1 SWAP2 SUB SWAP1 REVERT JUMPDEST CALLVALUE PUSH1 0x0 SUB PUSH2 0x1282 JUMPI PUSH1 0x40 MLOAD PUSH4 0x162908E3 PUSH1 0xE1 SHL DUP2 MSTORE PUSH1 0x4 ADD PUSH1 0x40 MLOAD DUP1 SWAP2 SUB SWAP1 REVERT JUMPDEST PUSH1 0x0 DUP3 DUP2 MSTORE PUSH1 0xA PUSH1 0x20 SWAP1 DUP2 MSTORE PUSH1 0x40 DUP1 DUP4 KECCAK256 PUSH1 0xB DUP4 MSTORE DUP2 DUP5 KECCAK256 CALLER DUP6 MSTORE SWAP1 SWAP3 MSTORE SWAP1 SWAP2 KECCAK256 SLOAD PUSH1 0xFF AND PUSH2 0x12F5 JUMPI DUP1 SLOAD PUSH1 0x1 DUP2 DUP2 ADD DUP4 SSTORE PUSH1 0x0 DUP4 DUP2 MSTORE PUSH1 0x20 DUP1 DUP3 KECCAK256 SWAP1 SWAP4 ADD DUP1 SLOAD PUSH1 0x1 PUSH1 0x1 PUSH1 0xA0 SHL SUB NOT AND CALLER SWAP1 DUP2 OR SWAP1 SWAP2 SSTORE DUP7 DUP3 MSTORE PUSH1 0xB DUP5 MSTORE PUSH1 0x40 DUP1 DUP4 KECCAK256 SWAP2 DUP4 MSTORE SWAP4 MSTORE SWAP2 SWAP1 SWAP2 KECCAK256 DUP1 SLOAD PUSH1 0xFF NOT AND SWAP1 SWAP2 OR SWAP1 SSTORE JUMPDEST CALLER PUSH1 0x0 SWAP1 DUP2 MSTORE PUSH1 0x1 DUP3 ADD PUSH1 0x20 MSTORE PUSH1 0x40 DUP2 KECCAK256 DUP1 SLOAD CALLVALUE SWAP3 SWAP1 PUSH2 0x1316 SWAP1 DUP5 SWAP1 PUSH2 0x37A3 JUMP JUMPDEST SWAP3 POP POP DUP2 SWAP1 SSTORE POP CALLVALUE DUP2 PUSH1 0x4 ADD PUSH1 0x0 DUP3 DUP3 SLOAD PUSH2 0x1331 SWAP2 SWAP1 PUSH2 0x37A3 JUMP JUMPDEST SWAP1 SWAP2 SSTORE POP POP PUSH1 0x40 MLOAD CALLVALUE DUP2 MSTORE CALLER SWAP1 DUP5 SWAP1 PUSH32 0x75AECD8D57CB4B1B263271BDDB4961B993924DD466E6003C254832572D8A57E1 SWAP1 PUSH1 0x20 ADD JUMPDEST PUSH1 0x40 MLOAD DUP1 SWAP2 SUB SWAP1 LOG3 POP POP POP JUMP JUMPDEST PUSH1 0x0 PUSH1 0x60 DUP1 PUSH1 0x0 DUP1 PUSH1 0x0 PUSH1 0x60 PUSH2 0x1387 PUSH2 0x259A JUMP JUMPDEST PUSH2 0x138F PUSH2 0x25CC JUMP JUMPDEST PUSH1 0x40 DUP1 MLOAD PUSH1 0x0 DUP1 DUP3 MSTORE PUSH1 0x20 DUP3 ADD SWAP1 SWAP3 MSTORE PUSH1 0xF PUSH1 0xF8 SHL SWAP12 SWAP4 SWAP11 POP SWAP2 SWAP9 POP CHAINID SWAP8 POP ADDRESS SWAP7 POP SWAP5 POP SWAP3 POP SWAP1 POP JUMP JUMPDEST PUSH1 0x0 DUP1 PUSH1 0x0 DUP1 PUSH1 0x0 PUSH1 0xA PUSH1 0x0 DUP9 DUP2 MSTORE PUSH1 0x20 ADD SWAP1 DUP2 MSTORE PUSH1 0x20 ADD PUSH1 0x0 KECCAK256 PUSH1 0x8 ADD DUP7 DUP2 SLOAD DUP2 LT PUSH2 0x13E8 JUMPI PUSH2 0x13E8 PUSH2 0x375E JUMP JUMPDEST PUSH1 0x0 SWAP2 DUP3 MSTORE PUSH1 0x20 SWAP1 SWAP2 KECCAK256 PUSH1 0x4 SWAP1 SWAP2 MUL ADD DUP1 SLOAD PUSH1 0x1 DUP3 ADD SLOAD PUSH1 0x2 SWAP1 SWAP3 ADD SLOAD SWAP1 SWAP10 SWAP2 SWAP9 POP PUSH1 0xFF DUP1 DUP3 AND SWAP9 POP PUSH2 0x100 SWAP1 SWAP2 DIV AND SWAP6 POP SWAP4 POP POP POP POP JUMP JUMPDEST PUSH1 0x60 PUSH1 0x2 DUP1 SLOAD PUSH2 0x715 SWAP1 PUSH2 0x3724 JUMP JUMPDEST PUSH1 0x0 PUSH1 0x1 PUSH1 0x1 PUSH1 0xA0 SHL SUB DUP9 AND PUSH2 0x1459 JUMPI PUSH1 0x40 MLOAD PUSH4 0xD92E233D PUSH1 0xE0 SHL DUP2 MSTORE PUSH1 0x4 ADD PUSH1 0x40 MLOAD DUP1 SWAP2 SUB SWAP1 REVERT JUMPDEST PUSH1 0x0 DUP5 SWAP1 SUB PUSH2 0x147B JUMPI PUSH1 0x40 MLOAD PUSH4 0x2432FDAF PUSH1 0xE1 SHL DUP2 MSTORE PUSH1 0x4 ADD PUSH1 0x40 MLOAD DUP1 SWAP2 SUB SWAP1 REVERT JUMPDEST DUP4 DUP3 EQ PUSH2 0x149B JUMPI PUSH1 0x40 MLOAD PUSH4 0x162908E3 PUSH1 0xE1 SHL DUP2 MSTORE PUSH1 0x4 ADD PUSH1 0x40 MLOAD DUP1 SWAP2 SUB SWAP1 REVERT JUMPDEST PUSH1 0x0 DUP1 JUMPDEST DUP6 DUP2 LT ISZERO PUSH2 0x156D JUMPI DUP7 DUP7 DUP3 DUP2 DUP2 LT PUSH2 0x14B9 JUMPI PUSH2 0x14B9 PUSH2 0x375E JUMP JUMPDEST SWAP1 POP PUSH1 0x20 MUL ADD CALLDATALOAD PUSH1 0x0 SUB PUSH2 0x14E0 JUMPI PUSH1 0x40 MLOAD PUSH4 0x162908E3 PUSH1 0xE1 SHL DUP2 MSTORE PUSH1 0x4 ADD PUSH1 0x40 MLOAD DUP1 SWAP2 SUB SWAP1 REVERT JUMPDEST DUP5 DUP5 DUP3 DUP2 DUP2 LT PUSH2 0x14F2 JUMPI PUSH2 0x14F2 PUSH2 0x375E JUMP JUMPDEST SWAP1 POP PUSH1 0x20 MUL ADD CALLDATALOAD PUSH1 0x0 EQ ISZERO DUP1 ISZERO PUSH2 0x1521 JUMPI POP TIMESTAMP DUP6 DUP6 DUP4 DUP2 DUP2 LT PUSH2 0x1517 JUMPI PUSH2 0x1517 PUSH2 0x375E JUMP JUMPDEST SWAP1 POP PUSH1 0x20 MUL ADD CALLDATALOAD GT ISZERO JUMPDEST ISZERO PUSH2 0x153F JUMPI PUSH1 0x40 MLOAD PUSH4 0x1DA74479 PUSH1 0xE2 SHL DUP2 MSTORE PUSH1 0x4 ADD PUSH1 0x40 MLOAD DUP1 SWAP2 SUB SWAP1 REVERT JUMPDEST DUP7 DUP7 DUP3 DUP2 DUP2 LT PUSH2 0x1551 JUMPI PUSH2 0x1551 PUSH2 0x375E JUMP JUMPDEST SWAP1 POP PUSH1 0x20 MUL ADD CALLDATALOAD DUP3 PUSH2 0x1563 SWAP2 SWAP1 PUSH2 0x37A3 JUMP JUMPDEST SWAP2 POP PUSH1 0x1 ADD PUSH2 0x149F JUMP JUMPDEST POP DUP7 CALLVALUE LT ISZERO PUSH2 0x158F JUMPI PUSH1 0x40 MLOAD PUSH4 0x162908E3 PUSH1 0xE1 SHL DUP2 MSTORE PUSH1 0x4 ADD PUSH1 0x40 MLOAD DUP1 SWAP2 SUB SWAP1 REVERT JUMPDEST PUSH1 0x9 DUP1 SLOAD PUSH1 0x0 SWAP2 DUP3 PUSH2 0x15A0 DUP4 PUSH2 0x378A JUMP JUMPDEST SWAP2 SWAP1 POP SSTORE SWAP1 POP PUSH1 0x0 PUSH1 0xA PUSH1 0x0 DUP4 DUP2 MSTORE PUSH1 0x20 ADD SWAP1 DUP2 MSTORE PUSH1 0x20 ADD PUSH1 0x0 KECCAK256 SWAP1 POP DUP11 DUP2 PUSH1 0x2 ADD PUSH1 0x0 PUSH2 0x100 EXP DUP2 SLOAD DUP2 PUSH1 0x1 PUSH1 0x1 PUSH1 0xA0 SHL SUB MUL NOT AND SWAP1 DUP4 PUSH1 0x1 PUSH1 0x1 PUSH1 0xA0 SHL SUB AND MUL OR SWAP1 SSTORE POP DUP10 DUP2 PUSH1 0x3 ADD PUSH1 0x0 PUSH2 0x100 EXP DUP2 SLOAD DUP2 PUSH1 0x1 PUSH1 0x1 PUSH1 0xA0 SHL SUB MUL NOT AND SWAP1 DUP4 PUSH1 0x1 PUSH1 0x1 PUSH1 0xA0 SHL SUB AND MUL OR SWAP1 SSTORE POP DUP9 DUP2 PUSH1 0x6 ADD DUP2 SWAP1 SSTORE POP CALLVALUE DUP2 PUSH1 0x4 ADD DUP2 SWAP1 SSTORE POP PUSH1 0x0 DUP2 PUSH1 0x5 ADD DUP2 SWAP1 SSTORE POP PUSH1 0x0 DUP2 PUSH1 0x7 ADD PUSH1 0x0 PUSH2 0x100 EXP DUP2 SLOAD DUP2 PUSH1 0xFF MUL NOT AND SWAP1 DUP4 PUSH1 0x3 DUP2 GT ISZERO PUSH2 0x1652 JUMPI PUSH2 0x1652 PUSH2 0x3622 JUMP JUMPDEST MUL OR SWAP1 SSTORE POP TIMESTAMP PUSH1 0x9 DUP3 ADD SSTORE DUP1 SLOAD PUSH1 0x1 DUP2 DUP2 ADD DUP4 SSTORE PUSH1 0x0 DUP4 DUP2 MSTORE PUSH1 0x20 DUP1 DUP3 KECCAK256 SWAP1 SWAP4 ADD DUP1 SLOAD PUSH1 0x1 PUSH1 0x1 PUSH1 0xA0 SHL SUB NOT AND CALLER SWAP1 DUP2 OR SWAP1 SWAP2 SSTORE DUP1 DUP3 MSTORE DUP3 DUP6 ADD DUP5 MSTORE PUSH1 0x40 DUP1 DUP4 KECCAK256 CALLVALUE SWAP1 SSTORE DUP7 DUP4 MSTORE PUSH1 0xB DUP6 MSTORE DUP1 DUP4 KECCAK256 SWAP2 DUP4 MSTORE SWAP4 MSTORE SWAP2 DUP3 KECCAK256 DUP1 SLOAD PUSH1 0xFF NOT AND SWAP1 SWAP2 OR SWAP1 SSTORE JUMPDEST DUP8 DUP2 LT ISZERO PUSH2 0x1783 JUMPI DUP2 PUSH1 0x8 ADD PUSH1 0x40 MLOAD DUP1 PUSH1 0xA0 ADD PUSH1 0x40 MSTORE DUP1 DUP12 DUP12 DUP6 DUP2 DUP2 LT PUSH2 0x16DD JUMPI PUSH2 0x16DD PUSH2 0x375E JUMP JUMPDEST SWAP1 POP PUSH1 0x20 MUL ADD CALLDATALOAD DUP2 MSTORE PUSH1 0x20 ADD DUP10 DUP10 DUP6 DUP2 DUP2 LT PUSH2 0x16FB JUMPI PUSH2 0x16FB PUSH2 0x375E JUMP JUMPDEST PUSH1 0x20 SWAP1 DUP2 MUL SWAP3 SWAP1 SWAP3 ADD CALLDATALOAD DUP4 MSTORE POP PUSH1 0x0 DUP3 DUP3 ADD DUP2 SWAP1 MSTORE PUSH1 0x40 DUP1 DUP5 ADD DUP3 SWAP1 MSTORE PUSH1 0x60 SWAP4 DUP5 ADD DUP3 SWAP1 MSTORE DUP6 SLOAD PUSH1 0x1 DUP2 DUP2 ADD DUP9 SSTORE SWAP7 DUP4 MSTORE SWAP2 DUP4 SWAP1 KECCAK256 DUP6 MLOAD PUSH1 0x4 SWAP1 SWAP4 MUL ADD SWAP2 DUP3 SSTORE SWAP2 DUP5 ADD MLOAD DUP2 DUP7 ADD SSTORE SWAP1 DUP4 ADD MLOAD PUSH1 0x2 DUP3 ADD DUP1 SLOAD SWAP4 DUP6 ADD MLOAD ISZERO ISZERO PUSH2 0x100 MUL PUSH2 0xFF00 NOT SWAP3 ISZERO ISZERO SWAP3 SWAP1 SWAP3 AND PUSH2 0xFFFF NOT SWAP1 SWAP5 AND SWAP4 SWAP1 SWAP4 OR OR SWAP1 SWAP2 SSTORE PUSH1 0x80 SWAP1 SWAP2 ADD MLOAD PUSH1 0x3 SWAP1 SWAP2 ADD SSTORE ADD PUSH2 0x16B4 JUMP JUMPDEST POP PUSH2 0x178E DUP12 DUP4 PUSH2 0x25F9 JUMP JUMPDEST DUP10 PUSH1 0x1 PUSH1 0x1 PUSH1 0xA0 SHL SUB AND DUP12 PUSH1 0x1 PUSH1 0x1 PUSH1 0xA0 SHL SUB AND DUP4 PUSH32 0x59E4B8728799382406714F1C57DE5C893D2772F9A8BF9950C5AFE4397E648654 DUP7 DUP14 PUSH1 0x40 MLOAD PUSH2 0x17DD SWAP3 SWAP2 SWAP1 SWAP2 DUP3 MSTORE PUSH1 0x20 DUP3 ADD MSTORE PUSH1 0x40 ADD SWAP1 JUMP JUMPDEST PUSH1 0x40 MLOAD DUP1 SWAP2 SUB SWAP1 LOG4 PUSH1 0x40 MLOAD CALLVALUE DUP2 MSTORE CALLER SWAP1 DUP4 SWAP1 PUSH32 0x75AECD8D57CB4B1B263271BDDB4961B993924DD466E6003C254832572D8A57E1 SWAP1 PUSH1 0x20 ADD PUSH1 0x40 MLOAD DUP1 SWAP2 SUB SWAP1 LOG3 POP SWAP10 SWAP9 POP POP POP POP POP POP POP POP POP JUMP JUMPDEST PUSH2 0x7CC CALLER DUP4 DUP4 PUSH2 0x2613 JUMP JUMPDEST DUP1 PUSH1 0x0 DUP1 DUP3 DUP2 MSTORE PUSH1 0xA PUSH1 0x20 MSTORE PUSH1 0x40 SWAP1 KECCAK256 PUSH1 0x7 ADD SLOAD PUSH1 0xFF AND PUSH1 0x3 DUP2 GT ISZERO PUSH2 0x185D JUMPI PUSH2 0x185D PUSH2 0x3622 JUMP JUMPDEST EQ PUSH2 0x187B JUMPI PUSH1 0x40 MLOAD PUSH4 0xBAF3F0F7 PUSH1 0xE0 SHL DUP2 MSTORE PUSH1 0x4 ADD PUSH1 0x40 MLOAD DUP1 SWAP2 SUB SWAP1 REVERT JUMPDEST PUSH1 0x0 DUP3 DUP2 MSTORE PUSH1 0xB PUSH1 0x20 SWAP1 DUP2 MSTORE PUSH1 0x40 DUP1 DUP4 KECCAK256 CALLER DUP5 MSTORE SWAP1 SWAP2 MSTORE SWAP1 KECCAK256 SLOAD PUSH1 0xFF AND ISZERO DUP1 ISZERO PUSH2 0x18BF JUMPI POP PUSH1 0x0 DUP3 DUP2 MSTORE PUSH1 0xA PUSH1 0x20 MSTORE PUSH1 0x40 SWAP1 KECCAK256 PUSH1 0x2 ADD SLOAD PUSH1 0x1 PUSH1 0x1 PUSH1 0xA0 SHL SUB AND CALLER EQ ISZERO JUMPDEST ISZERO PUSH2 0x18DC JUMPI PUSH1 0x40 MLOAD PUSH3 0x82B429 PUSH1 0xE8 SHL DUP2 MSTORE PUSH1 0x4 ADD PUSH1 0x40 MLOAD DUP1 SWAP2 SUB SWAP1 REVERT JUMPDEST PUSH1 0x0 DUP3 DUP2 MSTORE PUSH1 0xA PUSH1 0x20 MSTORE PUSH1 0x40 DUP1 DUP3 KECCAK256 PUSH1 0x7 ADD DUP1 SLOAD PUSH1 0xFF NOT AND PUSH1 0x3 OR SWAP1 SSTORE MLOAD CALLER SWAP2 DUP5 SWAP2 PUSH32 0x84A477DF8A28A4276CA6DEE4458A06C3015F30C477D9C949EDE4E13FF8A552B4 SWAP2 SWAP1 LOG3 POP POP JUMP JUMPDEST PUSH2 0x1931 DUP5 DUP5 DUP5 PUSH2 0x94C JUMP JUMPDEST PUSH2 0x9D6 CALLER DUP6 DUP6 DUP6 DUP6 PUSH2 0x26AA JUMP JUMPDEST PUSH1 0x0 DUP2 DUP2 MSTORE PUSH1 0xA PUSH1 0x20 SWAP1 DUP2 MSTORE PUSH1 0x40 DUP1 DUP4 KECCAK256 PUSH1 0x2 DUP2 ADD SLOAD PUSH1 0x3 DUP3 ADD SLOAD PUSH1 0x4 DUP4 ADD SLOAD PUSH1 0x5 DUP5 ADD SLOAD PUSH1 0x6 DUP6 ADD SLOAD PUSH1 0x7 DUP7 ADD SLOAD PUSH1 0x9 DUP8 ADD SLOAD DUP8 SLOAD DUP10 MLOAD DUP2 DUP13 MUL DUP2 ADD DUP13 ADD SWAP1 SWAP11 MSTORE DUP1 DUP11 MSTORE PUSH1 0x60 SWAP12 SWAP11 DUP12 SWAP11 DUP12 SWAP11 DUP12 SWAP11 DUP12 SWAP11 DUP12 SWAP11 DUP12 SWAP11 SWAP4 SWAP10 DUP11 SWAP10 PUSH1 0x1 PUSH1 0x1 PUSH1 0xA0 SHL SUB SWAP5 DUP6 AND SWAP10 SWAP4 SWAP1 SWAP5 AND SWAP8 SWAP2 SWAP7 SWAP5 SWAP6 SWAP1 SWAP5 PUSH1 0xFF SWAP1 SWAP5 AND SWAP4 SWAP1 SWAP2 DUP11 SWAP2 DUP4 ADD DUP3 DUP3 DUP1 ISZERO PUSH2 0x19F1 JUMPI PUSH1 0x20 MUL DUP3 ADD SWAP2 SWAP1 PUSH1 0x0 MSTORE PUSH1 0x20 PUSH1 0x0 KECCAK256 SWAP1 JUMPDEST DUP2 SLOAD PUSH1 0x1 PUSH1 0x1 PUSH1 0xA0 SHL SUB AND DUP2 MSTORE PUSH1 0x1 SWAP1 SWAP2 ADD SWAP1 PUSH1 0x20 ADD DUP1 DUP4 GT PUSH2 0x19D3 JUMPI JUMPDEST POP POP POP POP POP SWAP8 POP SWAP9 POP SWAP9 POP SWAP9 POP SWAP9 POP SWAP9 POP SWAP9 POP SWAP9 POP SWAP9 POP POP SWAP2 SWAP4 SWAP6 SWAP8 POP SWAP2 SWAP4 SWAP6 SWAP8 JUMP JUMPDEST PUSH1 0x60 PUSH2 0x1A1F DUP3 PUSH2 0x2362 JUMP JUMPDEST POP PUSH1 0x0 PUSH2 0x1A37 PUSH1 0x40 DUP1 MLOAD PUSH1 0x20 DUP2 ADD SWAP1 SWAP2 MSTORE PUSH1 0x0 DUP2 MSTORE SWAP1 JUMP JUMPDEST SWAP1 POP PUSH1 0x0 DUP2 MLOAD GT PUSH2 0x1A57 JUMPI PUSH1 0x40 MLOAD DUP1 PUSH1 0x20 ADD PUSH1 0x40 MSTORE DUP1 PUSH1 0x0 DUP2 MSTORE POP PUSH2 0x1A82 JUMP JUMPDEST DUP1 PUSH2 0x1A61 DUP5 PUSH2 0x27D5 JUMP JUMPDEST PUSH1 0x40 MLOAD PUSH1 0x20 ADD PUSH2 0x1A72 SWAP3 SWAP2 SWAP1 PUSH2 0x37EF JUMP JUMPDEST PUSH1 0x40 MLOAD PUSH1 0x20 DUP2 DUP4 SUB SUB DUP2 MSTORE SWAP1 PUSH1 0x40 MSTORE JUMPDEST SWAP4 SWAP3 POP POP POP JUMP JUMPDEST PUSH2 0x1A91 PUSH2 0x251A JUMP JUMPDEST DUP2 PUSH1 0x0 DUP1 DUP3 DUP2 MSTORE PUSH1 0xA PUSH1 0x20 MSTORE PUSH1 0x40 SWAP1 KECCAK256 PUSH1 0x7 ADD SLOAD PUSH1 0xFF AND PUSH1 0x3 DUP2 GT ISZERO PUSH2 0x1AB9 JUMPI PUSH2 0x1AB9 PUSH2 0x3622 JUMP JUMPDEST EQ PUSH2 0x1AD7 JUMPI PUSH1 0x40 MLOAD PUSH4 0xBAF3F0F7 PUSH1 0xE0 SHL DUP2 MSTORE PUSH1 0x4 ADD PUSH1 0x40 MLOAD DUP1 SWAP2 SUB SWAP1 REVERT JUMPDEST PUSH1 0x0 DUP4 DUP2 MSTORE PUSH1 0xA PUSH1 0x20 MSTORE PUSH1 0x40 SWAP1 KECCAK256 PUSH1 0x8 DUP2 ADD SLOAD DUP4 LT PUSH2 0x1B09 JUMPI PUSH1 0x40 MLOAD PUSH4 0x162908E3 PUSH1 0xE1 SHL DUP2 MSTORE PUSH1 0x4 ADD PUSH1 0x40 MLOAD DUP1 SWAP2 SUB SWAP1 REVERT JUMPDEST PUSH1 0x0 DUP2 PUSH1 0x8 ADD DUP5 DUP2 SLOAD DUP2 LT PUSH2 0x1B20 JUMPI PUSH2 0x1B20 PUSH2 0x375E JUMP JUMPDEST PUSH1 0x0 SWAP2 DUP3 MSTORE PUSH1 0x20 SWAP1 SWAP2 KECCAK256 PUSH1 0x4 SWAP1 SWAP2 MUL ADD PUSH1 0x2 DUP2 ADD SLOAD SWAP1 SWAP2 POP PUSH1 0xFF AND PUSH2 0x1B58 JUMPI PUSH1 0x40 MLOAD PUSH4 0xC19F17A9 PUSH1 0xE0 SHL DUP2 MSTORE PUSH1 0x4 ADD PUSH1 0x40 MLOAD DUP1 SWAP2 SUB SWAP1 REVERT JUMPDEST PUSH1 0x2 DUP2 ADD SLOAD PUSH2 0x100 SWAP1 DIV PUSH1 0xFF AND ISZERO PUSH2 0x1B83 JUMPI PUSH1 0x40 MLOAD PUSH4 0x31DA4827 PUSH1 0xE1 SHL DUP2 MSTORE PUSH1 0x4 ADD PUSH1 0x40 MLOAD DUP1 SWAP2 SUB SWAP1 REVERT JUMPDEST DUP1 SLOAD PUSH1 0x5 DUP4 ADD SLOAD PUSH2 0x1B94 SWAP2 SWAP1 PUSH2 0x37A3 JUMP JUMPDEST DUP3 PUSH1 0x4 ADD SLOAD LT ISZERO PUSH2 0x1BB8 JUMPI PUSH1 0x40 MLOAD PUSH4 0x356680B7 PUSH1 0xE0 SHL DUP2 MSTORE PUSH1 0x4 ADD PUSH1 0x40 MLOAD DUP1 SWAP2 SUB SWAP1 REVERT JUMPDEST PUSH1 0x2 DUP2 ADD DUP1 SLOAD PUSH2 0xFF00 NOT AND PUSH2 0x100 OR SWAP1 SSTORE DUP1 SLOAD PUSH1 0x5 DUP4 ADD DUP1 SLOAD PUSH1 0x0 SWAP1 PUSH2 0x1BDF SWAP1 DUP5 SWAP1 PUSH2 0x37A3 JUMP JUMPDEST SWAP1 SWAP2 SSTORE POP POP PUSH1 0x2 DUP3 ADD SLOAD DUP2 SLOAD PUSH1 0x40 MLOAD PUSH1 0x0 SWAP3 PUSH1 0x1 PUSH1 0x1 PUSH1 0xA0 SHL SUB AND SWAP2 SWAP1 DUP4 DUP2 DUP2 DUP2 DUP6 DUP8 GAS CALL SWAP3 POP POP POP RETURNDATASIZE DUP1 PUSH1 0x0 DUP2 EQ PUSH2 0x1C34 JUMPI PUSH1 0x40 MLOAD SWAP2 POP PUSH1 0x1F NOT PUSH1 0x3F RETURNDATASIZE ADD AND DUP3 ADD PUSH1 0x40 MSTORE RETURNDATASIZE DUP3 MSTORE RETURNDATASIZE PUSH1 0x0 PUSH1 0x20 DUP5 ADD RETURNDATACOPY PUSH2 0x1C39 JUMP JUMPDEST PUSH1 0x60 SWAP2 POP JUMPDEST POP POP SWAP1 POP DUP1 PUSH2 0x1C5B JUMPI PUSH1 0x40 MLOAD PUSH4 0x12171D83 PUSH1 0xE3 SHL DUP2 MSTORE PUSH1 0x4 ADD PUSH1 0x40 MLOAD DUP1 SWAP2 SUB SWAP1 REVERT JUMPDEST DUP5 DUP7 PUSH32 0xD33FCD27CBFB73A2D9058C968B560CCB306500BF536133802048489ECC7355E9 DUP5 PUSH1 0x0 ADD SLOAD PUSH1 0x40 MLOAD PUSH2 0x1C92 SWAP2 DUP2 MSTORE PUSH1 0x20 ADD SWAP1 JUMP JUMPDEST PUSH1 0x40 MLOAD DUP1 SWAP2 SUB SWAP1 LOG3 PUSH1 0x6 DUP4 ADD SLOAD PUSH1 0x0 JUMPDEST PUSH1 0x8 DUP6 ADD SLOAD DUP2 LT ISZERO PUSH2 0x1CEA JUMPI DUP5 PUSH1 0x8 ADD DUP2 DUP2 SLOAD DUP2 LT PUSH2 0x1CC3 JUMPI PUSH2 0x1CC3 PUSH2 0x375E JUMP JUMPDEST SWAP1 PUSH1 0x0 MSTORE PUSH1 0x20 PUSH1 0x0 KECCAK256 SWAP1 PUSH1 0x4 MUL ADD PUSH1 0x0 ADD SLOAD DUP3 PUSH2 0x1CE0 SWAP2 SWAP1 PUSH2 0x37A3 JUMP JUMPDEST SWAP2 POP PUSH1 0x1 ADD PUSH2 0x1CA2 JUMP JUMPDEST POP DUP1 DUP5 PUSH1 0x5 ADD SLOAD SUB PUSH2 0x1DD1 JUMPI PUSH1 0x7 DUP5 ADD DUP1 SLOAD PUSH1 0xFF NOT AND PUSH1 0x2 OR SWAP1 SSTORE PUSH1 0x6 DUP5 ADD SLOAD ISZERO DUP1 ISZERO SWAP1 PUSH2 0x1D24 JUMPI POP PUSH1 0x3 DUP5 ADD SLOAD PUSH1 0x1 PUSH1 0x1 PUSH1 0xA0 SHL SUB AND ISZERO ISZERO JUMPDEST ISZERO PUSH2 0x1DA5 JUMPI PUSH1 0x3 DUP5 ADD SLOAD PUSH1 0x6 DUP6 ADD SLOAD PUSH1 0x40 MLOAD PUSH1 0x0 SWAP3 PUSH1 0x1 PUSH1 0x1 PUSH1 0xA0 SHL SUB AND SWAP2 SWAP1 DUP4 DUP2 DUP2 DUP2 DUP6 DUP8 GAS CALL SWAP3 POP POP POP RETURNDATASIZE DUP1 PUSH1 0x0 DUP2 EQ PUSH2 0x1D7C JUMPI PUSH1 0x40 MLOAD SWAP2 POP PUSH1 0x1F NOT PUSH1 0x3F RETURNDATASIZE ADD AND DUP3 ADD PUSH1 0x40 MSTORE RETURNDATASIZE DUP3 MSTORE RETURNDATASIZE PUSH1 0x0 PUSH1 0x20 DUP5 ADD RETURNDATACOPY PUSH2 0x1D81 JUMP JUMPDEST PUSH1 0x60 SWAP2 POP JUMPDEST POP POP SWAP1 POP DUP1 PUSH2 0x1DA3 JUMPI PUSH1 0x40 MLOAD PUSH4 0x12171D83 PUSH1 0xE3 SHL DUP2 MSTORE PUSH1 0x4 ADD PUSH1 0x40 MLOAD DUP1 SWAP2 SUB SWAP1 REVERT JUMPDEST POP JUMPDEST PUSH1 0x40 MLOAD DUP8 SWAP1 PUSH32 0x9285BD636DDA01BEF18996AA38303BB742F6C67A6941646DDDB17630CB492C2E SWAP1 PUSH1 0x0 SWAP1 LOG2 JUMPDEST POP POP POP POP POP PUSH2 0x7CC PUSH1 0x1 PUSH1 0x0 SSTORE JUMP JUMPDEST PUSH1 0x0 DUP3 DUP2 MSTORE PUSH1 0xA PUSH1 0x20 MSTORE PUSH1 0x40 SWAP1 KECCAK256 PUSH1 0x2 ADD SLOAD DUP3 SWAP1 PUSH1 0x1 PUSH1 0x1 PUSH1 0xA0 SHL SUB AND CALLER EQ PUSH2 0x1E1B JUMPI PUSH1 0x40 MLOAD PUSH3 0x82B429 PUSH1 0xE8 SHL DUP2 MSTORE PUSH1 0x4 ADD PUSH1 0x40 MLOAD DUP1 SWAP2 SUB SWAP1 REVERT JUMPDEST DUP3 PUSH1 0x0 DUP1 DUP3 DUP2 MSTORE PUSH1 0xA PUSH1 0x20 MSTORE PUSH1 0x40 SWAP1 KECCAK256 PUSH1 0x7 ADD SLOAD PUSH1 0xFF AND PUSH1 0x3 DUP2 GT ISZERO PUSH2 0x1E43 JUMPI PUSH2 0x1E43 PUSH2 0x3622 JUMP JUMPDEST EQ PUSH2 0x1E61 JUMPI PUSH1 0x40 MLOAD PUSH4 0xBAF3F0F7 PUSH1 0xE0 SHL DUP2 MSTORE PUSH1 0x4 ADD PUSH1 0x40 MLOAD DUP1 SWAP2 SUB SWAP1 REVERT JUMPDEST PUSH2 0x1E69 PUSH2 0x251A JUMP JUMPDEST PUSH1 0x0 DUP5 DUP2 MSTORE PUSH1 0xA PUSH1 0x20 MSTORE PUSH1 0x40 SWAP1 KECCAK256 PUSH1 0x8 DUP2 ADD SLOAD DUP5 LT PUSH2 0x1E9B JUMPI PUSH1 0x40 MLOAD PUSH4 0x162908E3 PUSH1 0xE1 SHL DUP2 MSTORE PUSH1 0x4 ADD PUSH1 0x40 MLOAD DUP1 SWAP2 SUB SWAP1 REVERT JUMPDEST PUSH1 0x0 DUP2 PUSH1 0x8 ADD DUP6 DUP2 SLOAD DUP2 LT PUSH2 0x1EB2 JUMPI PUSH2 0x1EB2 PUSH2 0x375E JUMP JUMPDEST SWAP1 PUSH1 0x0 MSTORE PUSH1 0x20 PUSH1 0x0 KECCAK256 SWAP1 PUSH1 0x4 MUL ADD SWAP1 POP DUP1 PUSH1 0x2 ADD PUSH1 0x1 SWAP1 SLOAD SWAP1 PUSH2 0x100 EXP SWAP1 DIV PUSH1 0xFF AND ISZERO PUSH2 0x1EF2 JUMPI PUSH1 0x40 MLOAD PUSH4 0x31DA4827 PUSH1 0xE1 SHL DUP2 MSTORE PUSH1 0x4 ADD PUSH1 0x40 MLOAD DUP1 SWAP2 SUB SWAP1 REVERT JUMPDEST DUP1 PUSH1 0x1 ADD SLOAD PUSH1 0x0 SUB PUSH2 0x1F17 JUMPI PUSH1 0x40 MLOAD PUSH4 0x1DA74479 PUSH1 0xE2 SHL DUP2 MSTORE PUSH1 0x4 ADD PUSH1 0x40 MLOAD DUP1 SWAP2 SUB SWAP1 REVERT JUMPDEST DUP1 PUSH1 0x1 ADD SLOAD TIMESTAMP GT PUSH2 0x1F3B JUMPI PUSH1 0x40 MLOAD PUSH4 0x2EB3543 PUSH1 0xE4 SHL DUP2 MSTORE PUSH1 0x4 ADD PUSH1 0x40 MLOAD DUP1 SWAP2 SUB SWAP1 REVERT JUMPDEST PUSH1 0x2 DUP2 ADD DUP1 SLOAD PUSH2 0xFFFF NOT AND PUSH2 0x101 OR SWAP1 SSTORE DUP1 SLOAD PUSH1 0x5 DUP4 ADD DUP1 SLOAD PUSH1 0x0 SWAP1 PUSH2 0x1F62 SWAP1 DUP5 SWAP1 PUSH2 0x37A3 JUMP JUMPDEST SWAP1 SWAP2 SSTORE POP POP PUSH1 0x2 DUP3 ADD SLOAD DUP2 SLOAD PUSH1 0x40 MLOAD PUSH1 0x0 SWAP3 PUSH1 0x1 PUSH1 0x1 PUSH1 0xA0 SHL SUB AND SWAP2 SWAP1 DUP4 DUP2 DUP2 DUP2 DUP6 DUP8 GAS CALL SWAP3 POP POP POP RETURNDATASIZE DUP1 PUSH1 0x0 DUP2 EQ PUSH2 0x1FB7 JUMPI PUSH1 0x40 MLOAD SWAP2 POP PUSH1 0x1F NOT PUSH1 0x3F RETURNDATASIZE ADD AND DUP3 ADD PUSH1 0x40 MSTORE RETURNDATASIZE DUP3 MSTORE RETURNDATASIZE PUSH1 0x0 PUSH1 0x20 DUP5 ADD RETURNDATACOPY PUSH2 0x1FBC JUMP JUMPDEST PUSH1 0x60 SWAP2 POP JUMPDEST POP POP SWAP1 POP DUP1 PUSH2 0x1FDE JUMPI PUSH1 0x40 MLOAD PUSH4 0x12171D83 PUSH1 0xE3 SHL DUP2 MSTORE PUSH1 0x4 ADD PUSH1 0x40 MLOAD DUP1 SWAP2 SUB SWAP1 REVERT JUMPDEST PUSH1 0x40 MLOAD ADDRESS DUP2 MSTORE DUP7 SWAP1 DUP9 SWAP1 PUSH32 0x9FFBB52F2A1362273CD74689A516CA4F52C4282DC13E2E68B7E0646A9A7AF7A3 SWAP1 PUSH1 0x20 ADD PUSH1 0x40 MLOAD DUP1 SWAP2 SUB SWAP1 LOG3 DUP6 DUP8 PUSH32 0xD33FCD27CBFB73A2D9058C968B560CCB306500BF536133802048489ECC7355E9 DUP5 PUSH1 0x0 ADD SLOAD PUSH1 0x40 MLOAD PUSH2 0x204C SWAP2 DUP2 MSTORE PUSH1 0x20 ADD SWAP1 JUMP JUMPDEST PUSH1 0x40 MLOAD DUP1 SWAP2 SUB SWAP1 LOG3 POP POP POP PUSH2 0x9D6 PUSH1 0x1 PUSH1 0x0 SSTORE JUMP JUMPDEST PUSH1 0x0 DUP2 DUP2 MSTORE PUSH1 0xB PUSH1 0x20 SWAP1 DUP2 MSTORE PUSH1 0x40 DUP1 DUP4 KECCAK256 CALLER DUP5 MSTORE SWAP1 SWAP2 MSTORE SWAP1 KECCAK256 SLOAD DUP2 SWAP1 PUSH1 0xFF AND PUSH2 0x209C JUMPI PUSH1 0x40 MLOAD PUSH3 0x82B429 PUSH1 0xE8 SHL DUP2 MSTORE PUSH1 0x4 ADD PUSH1 0x40 MLOAD DUP1 SWAP2 SUB SWAP1 REVERT JUMPDEST DUP2 PUSH1 0x0 DUP1 DUP3 DUP2 MSTORE PUSH1 0xA PUSH1 0x20 MSTORE PUSH1 0x40 SWAP1 KECCAK256 PUSH1 0x7 ADD SLOAD PUSH1 0xFF AND PUSH1 0x3 DUP2 GT ISZERO PUSH2 0x20C4 JUMPI PUSH2 0x20C4 PUSH2 0x3622 JUMP JUMPDEST EQ PUSH2 0x20E2 JUMPI PUSH1 0x40 MLOAD PUSH4 0xBAF3F0F7 PUSH1 0xE0 SHL DUP2 MSTORE PUSH1 0x4 ADD PUSH1 0x40 MLOAD DUP1 SWAP2 SUB SWAP1 REVERT JUMPDEST PUSH2 0x20EA PUSH2 0x251A JUMP JUMPDEST PUSH1 0x0 DUP4 DUP2 MSTORE PUSH1 0xA PUSH1 0x20 MSTORE PUSH1 0x40 DUP2 KECCAK256 PUSH1 0x6 DUP2 ADD SLOAD SWAP1 SWAP2 JUMPDEST PUSH1 0x8 DUP4 ADD SLOAD DUP2 LT ISZERO PUSH2 0x2148 JUMPI DUP3 PUSH1 0x8 ADD DUP2 DUP2 SLOAD DUP2 LT PUSH2 0x2121 JUMPI PUSH2 0x2121 PUSH2 0x375E JUMP JUMPDEST SWAP1 PUSH1 0x0 MSTORE PUSH1 0x20 PUSH1 0x0 KECCAK256 SWAP1 PUSH1 0x4 MUL ADD PUSH1 0x0 ADD SLOAD DUP3 PUSH2 0x213E SWAP2 SWAP1 PUSH2 0x37A3 JUMP JUMPDEST SWAP2 POP PUSH1 0x1 ADD PUSH2 0x2100 JUMP JUMPDEST POP PUSH1 0x0 DUP3 PUSH1 0x5 ADD SLOAD DUP4 PUSH1 0x4 ADD SLOAD PUSH2 0x215F SWAP2 SWAP1 PUSH2 0x381E JUMP JUMPDEST SWAP1 POP DUP1 PUSH1 0x0 SUB PUSH2 0x2182 JUMPI PUSH1 0x40 MLOAD PUSH4 0x356680B7 PUSH1 0xE0 SHL DUP2 MSTORE PUSH1 0x4 ADD PUSH1 0x40 MLOAD DUP1 SWAP2 SUB SWAP1 REVERT JUMPDEST PUSH1 0x7 DUP4 ADD DUP1 SLOAD PUSH1 0xFF NOT AND PUSH1 0x1 OR SWAP1 SSTORE PUSH1 0x0 JUMPDEST PUSH1 0x8 DUP5 ADD SLOAD DUP2 LT ISZERO PUSH2 0x2220 JUMPI DUP4 PUSH1 0x8 ADD DUP2 DUP2 SLOAD DUP2 LT PUSH2 0x21B5 JUMPI PUSH2 0x21B5 PUSH2 0x375E JUMP JUMPDEST SWAP1 PUSH1 0x0 MSTORE PUSH1 0x20 PUSH1 0x0 KECCAK256 SWAP1 PUSH1 0x4 MUL ADD PUSH1 0x2 ADD PUSH1 0x1 SWAP1 SLOAD SWAP1 PUSH2 0x100 EXP SWAP1 DIV PUSH1 0xFF AND PUSH2 0x2218 JUMPI PUSH1 0x1 DUP5 PUSH1 0x8 ADD DUP3 DUP2 SLOAD DUP2 LT PUSH2 0x21EF JUMPI PUSH2 0x21EF PUSH2 0x375E JUMP JUMPDEST SWAP1 PUSH1 0x0 MSTORE PUSH1 0x20 PUSH1 0x0 KECCAK256 SWAP1 PUSH1 0x4 MUL ADD PUSH1 0x2 ADD PUSH1 0x1 PUSH2 0x100 EXP DUP2 SLOAD DUP2 PUSH1 0xFF MUL NOT AND SWAP1 DUP4 ISZERO ISZERO MUL OR SWAP1 SSTORE POP JUMPDEST PUSH1 0x1 ADD PUSH2 0x2194 JUMP JUMPDEST POP PUSH1 0x0 JUMPDEST DUP4 SLOAD DUP2 LT ISZERO PUSH2 0x22EC JUMPI PUSH1 0x0 DUP5 PUSH1 0x0 ADD DUP3 DUP2 SLOAD DUP2 LT PUSH2 0x2244 JUMPI PUSH2 0x2244 PUSH2 0x375E JUMP JUMPDEST PUSH1 0x0 SWAP2 DUP3 MSTORE PUSH1 0x20 DUP3 KECCAK256 ADD SLOAD PUSH1 0x1 PUSH1 0x1 PUSH1 0xA0 SHL SUB AND SWAP2 POP PUSH2 0x2264 DUP10 DUP6 PUSH2 0x2544 JUMP JUMPDEST SWAP1 POP DUP1 ISZERO PUSH2 0x22E2 JUMPI PUSH1 0x0 DUP3 PUSH1 0x1 PUSH1 0x1 PUSH1 0xA0 SHL SUB AND DUP3 PUSH1 0x40 MLOAD PUSH1 0x0 PUSH1 0x40 MLOAD DUP1 DUP4 SUB DUP2 DUP6 DUP8 GAS CALL SWAP3 POP POP POP RETURNDATASIZE DUP1 PUSH1 0x0 DUP2 EQ PUSH2 0x22B9 JUMPI PUSH1 0x40 MLOAD SWAP2 POP PUSH1 0x1F NOT PUSH1 0x3F RETURNDATASIZE ADD AND DUP3 ADD PUSH1 0x40 MSTORE RETURNDATASIZE DUP3 MSTORE RETURNDATASIZE PUSH1 0x0 PUSH1 0x20 DUP5 ADD RETURNDATACOPY PUSH2 0x22BE JUMP JUMPDEST PUSH1 0x60 SWAP2 POP JUMPDEST POP POP SWAP1 POP DUP1 PUSH2 0x22E0 JUMPI PUSH1 0x40 MLOAD PUSH4 0x12171D83 PUSH1 0xE3 SHL DUP2 MSTORE PUSH1 0x4 ADD PUSH1 0x40 MLOAD DUP1 SWAP2 SUB SWAP1 REVERT JUMPDEST POP JUMPDEST POP POP PUSH1 0x1 ADD PUSH2 0x2224 JUMP JUMPDEST POP DUP6 PUSH32 0xDC48A08BB890BD1B8E4261212A97A5E711E80830D96BA56B362F3AC5F427D51E DUP3 PUSH1 0x40 MLOAD PUSH2 0x231F SWAP2 DUP2 MSTORE PUSH1 0x20 ADD SWAP1 JUMP JUMPDEST PUSH1 0x40 MLOAD DUP1 SWAP2 SUB SWAP1 LOG2 POP POP POP PUSH2 0xC25 PUSH1 0x1 PUSH1 0x0 SSTORE JUMP JUMPDEST PUSH1 0x1 PUSH1 0x1 PUSH1 0xA0 SHL SUB SWAP2 DUP3 AND PUSH1 0x0 SWAP1 DUP2 MSTORE PUSH1 0x6 PUSH1 0x20 SWAP1 DUP2 MSTORE PUSH1 0x40 DUP1 DUP4 KECCAK256 SWAP4 SWAP1 SWAP5 AND DUP3 MSTORE SWAP2 SWAP1 SWAP2 MSTORE KECCAK256 SLOAD PUSH1 0xFF AND SWAP1 JUMP JUMPDEST PUSH1 0x0 DUP2 DUP2 MSTORE PUSH1 0x3 PUSH1 0x20 MSTORE PUSH1 0x40 DUP2 KECCAK256 SLOAD PUSH1 0x1 PUSH1 0x1 PUSH1 0xA0 SHL SUB AND DUP1 PUSH2 0x700 JUMPI PUSH1 0x40 MLOAD PUSH4 0x7E273289 PUSH1 0xE0 SHL DUP2 MSTORE PUSH1 0x4 DUP2 ADD DUP5 SWAP1 MSTORE PUSH1 0x24 ADD PUSH2 0x972 JUMP JUMPDEST PUSH2 0xC25 DUP4 DUP4 DUP4 PUSH1 0x1 PUSH2 0x2868 JUMP JUMPDEST PUSH1 0x0 DUP3 DUP2 MSTORE PUSH1 0x3 PUSH1 0x20 MSTORE PUSH1 0x40 DUP2 KECCAK256 SLOAD PUSH1 0x1 PUSH1 0x1 PUSH1 0xA0 SHL SUB AND DUP2 PUSH2 0x23CC DUP7 DUP7 DUP7 PUSH2 0x296E JUMP JUMPDEST SWAP1 POP PUSH1 0x1 PUSH1 0x1 PUSH1 0xA0 SHL SUB DUP3 AND ISZERO DUP1 ISZERO SWAP1 PUSH2 0x23EE JUMPI POP PUSH1 0x1 PUSH1 0x1 PUSH1 0xA0 SHL SUB DUP7 AND ISZERO ISZERO JUMPDEST ISZERO PUSH2 0x241E JUMPI PUSH1 0x0 DUP6 DUP2 MSTORE PUSH1 0xA PUSH1 0x20 MSTORE PUSH1 0x40 SWAP1 KECCAK256 PUSH1 0x2 ADD DUP1 SLOAD PUSH1 0x1 PUSH1 0x1 PUSH1 0xA0 SHL SUB NOT AND PUSH1 0x1 PUSH1 0x1 PUSH1 0xA0 SHL SUB DUP9 AND OR SWAP1 SSTORE JUMPDEST SWAP6 SWAP5 POP POP POP POP POP JUMP JUMPDEST CALLER PUSH1 0x0 SWAP1 DUP2 MSTORE PUSH1 0xC PUSH1 0x20 SWAP1 DUP2 MSTORE PUSH1 0x40 DUP1 DUP4 KECCAK256 SLOAD DUP2 MLOAD PUSH32 0x80024B95AF979F7623DFE7C1580D0CFD9373EB07043C3B4F1CF49E92ED8BC949 DUP2 DUP6 ADD MSTORE DUP1 DUP4 ADD DUP11 SWAP1 MSTORE PUSH1 0x60 DUP2 ADD DUP10 SWAP1 MSTORE PUSH1 0x80 DUP2 ADD SWAP2 SWAP1 SWAP2 MSTORE PUSH1 0xA0 DUP1 DUP3 ADD DUP9 SWAP1 MSTORE DUP3 MLOAD DUP1 DUP4 SUB SWAP1 SWAP2 ADD DUP2 MSTORE PUSH1 0xC0 SWAP1 SWAP2 ADD SWAP1 SWAP2 MSTORE DUP1 MLOAD SWAP2 ADD KECCAK256 DUP2 PUSH2 0x249F DUP3 PUSH2 0x2A67 JUMP JUMPDEST SWAP1 POP PUSH1 0x0 PUSH2 0x24E5 DUP7 DUP7 DUP1 DUP1 PUSH1 0x1F ADD PUSH1 0x20 DUP1 SWAP2 DIV MUL PUSH1 0x20 ADD PUSH1 0x40 MLOAD SWAP1 DUP2 ADD PUSH1 0x40 MSTORE DUP1 SWAP4 SWAP3 SWAP2 SWAP1 DUP2 DUP2 MSTORE PUSH1 0x20 ADD DUP4 DUP4 DUP1 DUP3 DUP5 CALLDATACOPY PUSH1 0x0 SWAP3 ADD SWAP2 SWAP1 SWAP2 MSTORE POP DUP7 SWAP4 SWAP3 POP POP PUSH2 0x2A94 SWAP1 POP JUMP JUMPDEST SWAP1 POP PUSH1 0x1 PUSH1 0x1 PUSH1 0xA0 SHL SUB DUP2 AND PUSH2 0x250E JUMPI PUSH1 0x40 MLOAD PUSH4 0x8BAA579F PUSH1 0xE0 SHL DUP2 MSTORE PUSH1 0x4 ADD PUSH1 0x40 MLOAD DUP1 SWAP2 SUB SWAP1 REVERT JUMPDEST SWAP9 SWAP8 POP POP POP POP POP POP POP POP JUMP JUMPDEST PUSH1 0x2 PUSH1 0x0 SLOAD SUB PUSH2 0x253D JUMPI PUSH1 0x40 MLOAD PUSH4 0x3EE5AEB5 PUSH1 0xE0 SHL DUP2 MSTORE PUSH1 0x4 ADD PUSH1 0x40 MLOAD DUP1 SWAP2 SUB SWAP1 REVERT JUMPDEST PUSH1 0x2 PUSH1 0x0 SSTORE JUMP JUMPDEST PUSH1 0x0 DUP3 DUP2 MSTORE PUSH1 0xA PUSH1 0x20 SWAP1 DUP2 MSTORE PUSH1 0x40 DUP1 DUP4 KECCAK256 CALLER DUP5 MSTORE PUSH1 0x1 DUP2 ADD SWAP1 SWAP3 MSTORE DUP3 KECCAK256 SLOAD DUP1 ISZERO DUP1 PUSH2 0x2571 JUMPI POP PUSH1 0x4 DUP3 ADD SLOAD ISZERO JUMPDEST ISZERO PUSH2 0x2581 JUMPI PUSH1 0x0 SWAP3 POP POP POP PUSH2 0x700 JUMP JUMPDEST PUSH1 0x4 DUP3 ADD SLOAD PUSH2 0x2590 DUP3 DUP7 PUSH2 0x3831 JUMP JUMPDEST PUSH2 0x241E SWAP2 SWAP1 PUSH2 0x3848 JUMP JUMPDEST PUSH1 0x60 PUSH2 0x25C7 PUSH32 0x0 PUSH1 0x7 PUSH2 0x2ABE JUMP JUMPDEST SWAP1 POP SWAP1 JUMP JUMPDEST PUSH1 0x60 PUSH2 0x25C7 PUSH32 0x0 PUSH1 0x8 PUSH2 0x2ABE JUMP JUMPDEST PUSH2 0x7CC DUP3 DUP3 PUSH1 0x40 MLOAD DUP1 PUSH1 0x20 ADD PUSH1 0x40 MSTORE DUP1 PUSH1 0x0 DUP2 MSTORE POP PUSH2 0x2B69 JUMP JUMPDEST PUSH1 0x1 PUSH1 0x1 PUSH1 0xA0 SHL SUB DUP3 AND PUSH2 0x2645 JUMPI PUSH1 0x40 MLOAD PUSH4 0xB611743 PUSH1 0xE3 SHL DUP2 MSTORE PUSH1 0x1 PUSH1 0x1 PUSH1 0xA0 SHL SUB DUP4 AND PUSH1 0x4 DUP3 ADD MSTORE PUSH1 0x24 ADD PUSH2 0x972 JUMP JUMPDEST PUSH1 0x1 PUSH1 0x1 PUSH1 0xA0 SHL SUB DUP4 DUP2 AND PUSH1 0x0 DUP2 DUP2 MSTORE PUSH1 0x6 PUSH1 0x20 SWAP1 DUP2 MSTORE PUSH1 0x40 DUP1 DUP4 KECCAK256 SWAP5 DUP8 AND DUP1 DUP5 MSTORE SWAP5 DUP3 MSTORE SWAP2 DUP3 SWAP1 KECCAK256 DUP1 SLOAD PUSH1 0xFF NOT AND DUP7 ISZERO ISZERO SWAP1 DUP2 OR SWAP1 SWAP2 SSTORE SWAP2 MLOAD SWAP2 DUP3 MSTORE PUSH32 0x17307EAB39AB6107E8899845AD3D59BD9653F200F220920489CA2B5937696C31 SWAP2 ADD PUSH2 0x1366 JUMP JUMPDEST PUSH1 0x1 PUSH1 0x1 PUSH1 0xA0 SHL SUB DUP4 AND EXTCODESIZE ISZERO PUSH2 0x27CE JUMPI PUSH1 0x40 MLOAD PUSH4 0xA85BD01 PUSH1 0xE1 SHL DUP2 MSTORE PUSH1 0x1 PUSH1 0x1 PUSH1 0xA0 SHL SUB DUP5 AND SWAP1 PUSH4 0x150B7A02 SWAP1 PUSH2 0x26EC SWAP1 DUP9 SWAP1 DUP9 SWAP1 DUP8 SWAP1 DUP8 SWAP1 PUSH1 0x4 ADD PUSH2 0x386A JUMP JUMPDEST PUSH1 0x20 PUSH1 0x40 MLOAD DUP1 DUP4 SUB DUP2 PUSH1 0x0 DUP8 GAS CALL SWAP3 POP POP POP DUP1 ISZERO PUSH2 0x2727 JUMPI POP PUSH1 0x40 DUP1 MLOAD PUSH1 0x1F RETURNDATASIZE SWAP1 DUP2 ADD PUSH1 0x1F NOT AND DUP3 ADD SWAP1 SWAP3 MSTORE PUSH2 0x2724 SWAP2 DUP2 ADD SWAP1 PUSH2 0x38A7 JUMP JUMPDEST PUSH1 0x1 JUMPDEST PUSH2 0x2790 JUMPI RETURNDATASIZE DUP1 DUP1 ISZERO PUSH2 0x2755 JUMPI PUSH1 0x40 MLOAD SWAP2 POP PUSH1 0x1F NOT PUSH1 0x3F RETURNDATASIZE ADD AND DUP3 ADD PUSH1 0x40 MSTORE RETURNDATASIZE DUP3 MSTORE RETURNDATASIZE PUSH1 0x0 PUSH1 0x20 DUP5 ADD RETURNDATACOPY PUSH2 0x275A JUMP JUMPDEST PUSH1 0x60 SWAP2 POP JUMPDEST POP DUP1 MLOAD PUSH1 0x0 SUB PUSH2 0x2788 JUMPI PUSH1 0x40 MLOAD PUSH4 0x32505749 PUSH1 0xE1 SHL DUP2 MSTORE PUSH1 0x1 PUSH1 0x1 PUSH1 0xA0 SHL SUB DUP6 AND PUSH1 0x4 DUP3 ADD MSTORE PUSH1 0x24 ADD PUSH2 0x972 JUMP JUMPDEST DUP1 MLOAD PUSH1 0x20 DUP3 ADD REVERT JUMPDEST PUSH1 0x1 PUSH1 0x1 PUSH1 0xE0 SHL SUB NOT DUP2 AND PUSH4 0xA85BD01 PUSH1 0xE1 SHL EQ PUSH2 0x27CC JUMPI PUSH1 0x40 MLOAD PUSH4 0x32505749 PUSH1 0xE1 SHL DUP2 MSTORE PUSH1 0x1 PUSH1 0x1 PUSH1 0xA0 SHL SUB DUP6 AND PUSH1 0x4 DUP3 ADD MSTORE PUSH1 0x24 ADD PUSH2 0x972 JUMP JUMPDEST POP JUMPDEST POP POP POP POP POP JUMP JUMPDEST PUSH1 0x60 PUSH1 0x0 PUSH2 0x27E2 DUP4 PUSH2 0x2B81 JUMP JUMPDEST PUSH1 0x1 ADD SWAP1 POP PUSH1 0x0 DUP2 PUSH8 0xFFFFFFFFFFFFFFFF DUP2 GT ISZERO PUSH2 0x2802 JUMPI PUSH2 0x2802 PUSH2 0x3528 JUMP JUMPDEST PUSH1 0x40 MLOAD SWAP1 DUP1 DUP3 MSTORE DUP1 PUSH1 0x1F ADD PUSH1 0x1F NOT AND PUSH1 0x20 ADD DUP3 ADD PUSH1 0x40 MSTORE DUP1 ISZERO PUSH2 0x282C JUMPI PUSH1 0x20 DUP3 ADD DUP2 DUP1 CALLDATASIZE DUP4 CALLDATACOPY ADD SWAP1 POP JUMPDEST POP SWAP1 POP DUP2 DUP2 ADD PUSH1 0x20 ADD JUMPDEST PUSH1 0x0 NOT ADD PUSH16 0x181899199A1A9B1B9C1CB0B131B232B3 PUSH1 0x81 SHL PUSH1 0xA DUP7 MOD BYTE DUP2 MSTORE8 PUSH1 0xA DUP6 DIV SWAP5 POP DUP5 PUSH2 0x2836 JUMPI POP SWAP4 SWAP3 POP POP POP JUMP JUMPDEST DUP1 DUP1 PUSH2 0x287C JUMPI POP PUSH1 0x1 PUSH1 0x1 PUSH1 0xA0 SHL SUB DUP3 AND ISZERO ISZERO JUMPDEST ISZERO PUSH2 0x293E JUMPI PUSH1 0x0 PUSH2 0x288C DUP5 PUSH2 0x2362 JUMP JUMPDEST SWAP1 POP PUSH1 0x1 PUSH1 0x1 PUSH1 0xA0 SHL SUB DUP4 AND ISZERO DUP1 ISZERO SWAP1 PUSH2 0x28B8 JUMPI POP DUP3 PUSH1 0x1 PUSH1 0x1 PUSH1 0xA0 SHL SUB AND DUP2 PUSH1 0x1 PUSH1 0x1 PUSH1 0xA0 SHL SUB AND EQ ISZERO JUMPDEST DUP1 ISZERO PUSH2 0x28CB JUMPI POP PUSH2 0x28C9 DUP2 DUP5 PUSH2 0x2334 JUMP JUMPDEST ISZERO JUMPDEST ISZERO PUSH2 0x28F4 JUMPI PUSH1 0x40 MLOAD PUSH4 0xA9FBF51F PUSH1 0xE0 SHL DUP2 MSTORE PUSH1 0x1 PUSH1 0x1 PUSH1 0xA0 SHL SUB DUP5 AND PUSH1 0x4 DUP3 ADD MSTORE PUSH1 0x24 ADD PUSH2 0x972 JUMP JUMPDEST DUP2 ISZERO PUSH2 0x293C JUMPI DUP4 DUP6 PUSH1 0x1 PUSH1 0x1 PUSH1 0xA0 SHL SUB AND DUP3 PUSH1 0x1 PUSH1 0x1 PUSH1 0xA0 SHL SUB AND PUSH32 0x8C5BE1E5EBEC7D5BD14F71427D1E84F3DD0314C0F7B2291E5B200AC8C7C3B925 PUSH1 0x40 MLOAD PUSH1 0x40 MLOAD DUP1 SWAP2 SUB SWAP1 LOG4 JUMPDEST POP JUMPDEST POP POP PUSH1 0x0 SWAP1 DUP2 MSTORE PUSH1 0x5 PUSH1 0x20 MSTORE PUSH1 0x40 SWAP1 KECCAK256 DUP1 SLOAD PUSH1 0x1 PUSH1 0x1 PUSH1 0xA0 SHL SUB NOT AND PUSH1 0x1 PUSH1 0x1 PUSH1 0xA0 SHL SUB SWAP3 SWAP1 SWAP3 AND SWAP2 SWAP1 SWAP2 OR SWAP1 SSTORE JUMP JUMPDEST PUSH1 0x0 DUP3 DUP2 MSTORE PUSH1 0x3 PUSH1 0x20 MSTORE PUSH1 0x40 DUP2 KECCAK256 SLOAD PUSH1 0x1 PUSH1 0x1 PUSH1 0xA0 SHL SUB SWAP1 DUP2 AND SWAP1 DUP4 AND ISZERO PUSH2 0x299B JUMPI PUSH2 0x299B DUP2 DUP5 DUP7 PUSH2 0x2C59 JUMP JUMPDEST PUSH1 0x1 PUSH1 0x1 PUSH1 0xA0 SHL SUB DUP2 AND ISZERO PUSH2 0x29D9 JUMPI PUSH2 0x29B8 PUSH1 0x0 DUP6 PUSH1 0x0 DUP1 PUSH2 0x2868 JUMP JUMPDEST PUSH1 0x1 PUSH1 0x1 PUSH1 0xA0 SHL SUB DUP2 AND PUSH1 0x0 SWAP1 DUP2 MSTORE PUSH1 0x4 PUSH1 0x20 MSTORE PUSH1 0x40 SWAP1 KECCAK256 DUP1 SLOAD PUSH1 0x0 NOT ADD SWAP1 SSTORE JUMPDEST PUSH1 0x1 PUSH1 0x1 PUSH1 0xA0 SHL SUB DUP6 AND ISZERO PUSH2 0x2A08 JUMPI PUSH1 0x1 PUSH1 0x1 PUSH1 0xA0 SHL SUB DUP6 AND PUSH1 0x0 SWAP1 DUP2 MSTORE PUSH1 0x4 PUSH1 0x20 MSTORE PUSH1 0x40 SWAP1 KECCAK256 DUP1 SLOAD PUSH1 0x1 ADD SWAP1 SSTORE JUMPDEST PUSH1 0x0 DUP5 DUP2 MSTORE PUSH1 0x3 PUSH1 0x20 MSTORE PUSH1 0x40 DUP1 DUP3 KECCAK256 DUP1 SLOAD PUSH1 0x1 PUSH1 0x1 PUSH1 0xA0 SHL SUB NOT AND PUSH1 0x1 PUSH1 0x1 PUSH1 0xA0 SHL SUB DUP10 DUP2 AND SWAP2 DUP3 OR SWAP1 SWAP3 SSTORE SWAP2 MLOAD DUP8 SWAP4 SWAP2 DUP6 AND SWAP2 PUSH32 0xDDF252AD1BE2C89B69C2B068FC378DAA952BA7F163C4A11628F55A4DF523B3EF SWAP2 LOG4 SWAP5 SWAP4 POP POP POP POP JUMP JUMPDEST PUSH1 0x0 PUSH2 0x700 PUSH2 0x2A74 PUSH2 0x2CBD JUMP JUMPDEST DUP4 PUSH1 0x40 MLOAD PUSH2 0x1901 PUSH1 0xF0 SHL DUP2 MSTORE PUSH1 0x2 DUP2 ADD SWAP3 SWAP1 SWAP3 MSTORE PUSH1 0x22 DUP3 ADD MSTORE PUSH1 0x42 SWAP1 KECCAK256 SWAP1 JUMP JUMPDEST PUSH1 0x0 DUP1 PUSH1 0x0 DUP1 PUSH2 0x2AA4 DUP7 DUP7 PUSH2 0x2DE8 JUMP JUMPDEST SWAP3 POP SWAP3 POP SWAP3 POP PUSH2 0x2AB4 DUP3 DUP3 PUSH2 0x2E35 JUMP JUMPDEST POP SWAP1 SWAP5 SWAP4 POP POP POP POP JUMP JUMPDEST PUSH1 0x60 PUSH1 0xFF DUP4 EQ PUSH2 0x2AD8 JUMPI PUSH2 0x2AD1 DUP4 PUSH2 0x2EEE JUMP JUMPDEST SWAP1 POP PUSH2 0x700 JUMP JUMPDEST DUP2 DUP1 SLOAD PUSH2 0x2AE4 SWAP1 PUSH2 0x3724 JUMP JUMPDEST DUP1 PUSH1 0x1F ADD PUSH1 0x20 DUP1 SWAP2 DIV MUL PUSH1 0x20 ADD PUSH1 0x40 MLOAD SWAP1 DUP2 ADD PUSH1 0x40 MSTORE DUP1 SWAP3 SWAP2 SWAP1 DUP2 DUP2 MSTORE PUSH1 0x20 ADD DUP3 DUP1 SLOAD PUSH2 0x2B10 SWAP1 PUSH2 0x3724 JUMP JUMPDEST DUP1 ISZERO PUSH2 0x2B5D JUMPI DUP1 PUSH1 0x1F LT PUSH2 0x2B32 JUMPI PUSH2 0x100 DUP1 DUP4 SLOAD DIV MUL DUP4 MSTORE SWAP2 PUSH1 0x20 ADD SWAP2 PUSH2 0x2B5D JUMP JUMPDEST DUP3 ADD SWAP2 SWAP1 PUSH1 0x0 MSTORE PUSH1 0x20 PUSH1 0x0 KECCAK256 SWAP1 JUMPDEST DUP2 SLOAD DUP2 MSTORE SWAP1 PUSH1 0x1 ADD SWAP1 PUSH1 0x20 ADD DUP1 DUP4 GT PUSH2 0x2B40 JUMPI DUP3 SWAP1 SUB PUSH1 0x1F AND DUP3 ADD SWAP2 JUMPDEST POP POP POP POP POP SWAP1 POP PUSH2 0x700 JUMP JUMPDEST PUSH2 0x2B73 DUP4 DUP4 PUSH2 0x2F2D JUMP JUMPDEST PUSH2 0xC25 CALLER PUSH1 0x0 DUP6 DUP6 DUP6 PUSH2 0x26AA JUMP JUMPDEST PUSH1 0x0 DUP1 PUSH19 0x184F03E93FF9F4DAA797ED6E38ED64BF6A1F01 PUSH1 0x40 SHL DUP4 LT PUSH2 0x2BC0 JUMPI PUSH19 0x184F03E93FF9F4DAA797ED6E38ED64BF6A1F01 PUSH1 0x40 SHL DUP4 DIV SWAP3 POP PUSH1 0x40 ADD JUMPDEST PUSH14 0x4EE2D6D415B85ACEF8100000000 DUP4 LT PUSH2 0x2BEC JUMPI PUSH14 0x4EE2D6D415B85ACEF8100000000 DUP4 DIV SWAP3 POP PUSH1 0x20 ADD JUMPDEST PUSH7 0x2386F26FC10000 DUP4 LT PUSH2 0x2C0A JUMPI PUSH7 0x2386F26FC10000 DUP4 DIV SWAP3 POP PUSH1 0x10 ADD JUMPDEST PUSH4 0x5F5E100 DUP4 LT PUSH2 0x2C22 JUMPI PUSH4 0x5F5E100 DUP4 DIV SWAP3 POP PUSH1 0x8 ADD JUMPDEST PUSH2 0x2710 DUP4 LT PUSH2 0x2C36 JUMPI PUSH2 0x2710 DUP4 DIV SWAP3 POP PUSH1 0x4 ADD JUMPDEST PUSH1 0x64 DUP4 LT PUSH2 0x2C48 JUMPI PUSH1 0x64 DUP4 DIV SWAP3 POP PUSH1 0x2 ADD JUMPDEST PUSH1 0xA DUP4 LT PUSH2 0x700 JUMPI PUSH1 0x1 ADD SWAP3 SWAP2 POP POP JUMP JUMPDEST PUSH2 0x2C64 DUP4 DUP4 DUP4 PUSH2 0x2F92 JUMP JUMPDEST PUSH2 0xC25 JUMPI PUSH1 0x1 PUSH1 0x1 PUSH1 0xA0 SHL SUB DUP4 AND PUSH2 0x2C92 JUMPI PUSH1 0x40 MLOAD PUSH4 0x7E273289 PUSH1 0xE0 SHL DUP2 MSTORE PUSH1 0x4 DUP2 ADD DUP3 SWAP1 MSTORE PUSH1 0x24 ADD PUSH2 0x972 JUMP JUMPDEST PUSH1 0x40 MLOAD PUSH4 0x177E802F PUSH1 0xE0 SHL DUP2 MSTORE PUSH1 0x1 PUSH1 0x1 PUSH1 0xA0 SHL SUB DUP4 AND PUSH1 0x4 DUP3 ADD MSTORE PUSH1 0x24 DUP2 ADD DUP3 SWAP1 MSTORE PUSH1 0x44 ADD PUSH2 0x972 JUMP JUMPDEST PUSH1 0x0 ADDRESS PUSH1 0x1 PUSH1 0x1 PUSH1 0xA0 SHL SUB PUSH32 0x0 AND EQ DUP1 ISZERO PUSH2 0x2D16 JUMPI POP PUSH32 0x0 CHAINID EQ JUMPDEST ISZERO PUSH2 0x2D40 JUMPI POP PUSH32 0x0 SWAP1 JUMP JUMPDEST PUSH2 0x25C7 PUSH1 0x40 DUP1 MLOAD PUSH32 0x8B73C3C69BB8FE3D512ECC4CF759CC79239F7B179B0FFACAA9A75D522B39400F PUSH1 0x20 DUP3 ADD MSTORE PUSH32 0x0 SWAP2 DUP2 ADD SWAP2 SWAP1 SWAP2 MSTORE PUSH32 0x0 PUSH1 0x60 DUP3 ADD MSTORE CHAINID PUSH1 0x80 DUP3 ADD MSTORE ADDRESS PUSH1 0xA0 DUP3 ADD MSTORE PUSH1 0x0 SWAP1 PUSH1 0xC0 ADD PUSH1 0x40 MLOAD PUSH1 0x20 DUP2 DUP4 SUB SUB DUP2 MSTORE SWAP1 PUSH1 0x40 MSTORE DUP1 MLOAD SWAP1 PUSH1 0x20 ADD KECCAK256 SWAP1 POP SWAP1 JUMP JUMPDEST PUSH1 0x0 DUP1 PUSH1 0x0 DUP4 MLOAD PUSH1 0x41 SUB PUSH2 0x2E22 JUMPI PUSH1 0x20 DUP5 ADD MLOAD PUSH1 0x40 DUP6 ADD MLOAD PUSH1 0x60 DUP7 ADD MLOAD PUSH1 0x0 BYTE PUSH2 0x2E14 DUP9 DUP3 DUP6 DUP6 PUSH2 0x2FF8 JUMP JUMPDEST SWAP6 POP SWAP6 POP SWAP6 POP POP POP POP PUSH2 0x2E2E JUMP JUMPDEST POP POP DUP2 MLOAD PUSH1 0x0 SWAP2 POP PUSH1 0x2 SWAP1 JUMPDEST SWAP3 POP SWAP3 POP SWAP3 JUMP JUMPDEST PUSH1 0x0 DUP3 PUSH1 0x3 DUP2 GT ISZERO PUSH2 0x2E49 JUMPI PUSH2 0x2E49 PUSH2 0x3622 JUMP JUMPDEST SUB PUSH2 0x2E52 JUMPI POP POP JUMP JUMPDEST PUSH1 0x1 DUP3 PUSH1 0x3 DUP2 GT ISZERO PUSH2 0x2E66 JUMPI PUSH2 0x2E66 PUSH2 0x3622 JUMP JUMPDEST SUB PUSH2 0x2E84 JUMPI PUSH1 0x40 MLOAD PUSH4 0xF645EEDF PUSH1 0xE0 SHL DUP2 MSTORE PUSH1 0x4 ADD PUSH1 0x40 MLOAD DUP1 SWAP2 SUB SWAP1 REVERT JUMPDEST PUSH1 0x2 DUP3 PUSH1 0x3 DUP2 GT ISZERO PUSH2 0x2E98 JUMPI PUSH2 0x2E98 PUSH2 0x3622 JUMP JUMPDEST SUB PUSH2 0x2EB9 JUMPI PUSH1 0x40 MLOAD PUSH4 0xFCE698F7 PUSH1 0xE0 SHL DUP2 MSTORE PUSH1 0x4 DUP2 ADD DUP3 SWAP1 MSTORE PUSH1 0x24 ADD PUSH2 0x972 JUMP JUMPDEST PUSH1 0x3 DUP3 PUSH1 0x3 DUP2 GT ISZERO PUSH2 0x2ECD JUMPI PUSH2 0x2ECD PUSH2 0x3622 JUMP JUMPDEST SUB PUSH2 0x7CC JUMPI PUSH1 0x40 MLOAD PUSH4 0x35E2F383 PUSH1 0xE2 SHL DUP2 MSTORE PUSH1 0x4 DUP2 ADD DUP3 SWAP1 MSTORE PUSH1 0x24 ADD PUSH2 0x972 JUMP JUMPDEST PUSH1 0x60 PUSH1 0x0 PUSH2 0x2EFB DUP4 PUSH2 0x30C7 JUMP JUMPDEST PUSH1 0x40 DUP1 MLOAD PUSH1 0x20 DUP1 DUP3 MSTORE DUP2 DUP4 ADD SWAP1 SWAP3 MSTORE SWAP2 SWAP3 POP PUSH1 0x0 SWAP2 SWAP1 PUSH1 0x20 DUP3 ADD DUP2 DUP1 CALLDATASIZE DUP4 CALLDATACOPY POP POP POP SWAP2 DUP3 MSTORE POP PUSH1 0x20 DUP2 ADD SWAP3 SWAP1 SWAP3 MSTORE POP SWAP1 JUMP JUMPDEST PUSH1 0x1 PUSH1 0x1 PUSH1 0xA0 SHL SUB DUP3 AND PUSH2 0x2F57 JUMPI PUSH1 0x40 MLOAD PUSH4 0x32505749 PUSH1 0xE1 SHL DUP2 MSTORE PUSH1 0x0 PUSH1 0x4 DUP3 ADD MSTORE PUSH1 0x24 ADD PUSH2 0x972 JUMP JUMPDEST PUSH1 0x0 PUSH2 0x2F65 DUP4 DUP4 PUSH1 0x0 PUSH2 0x23A8 JUMP JUMPDEST SWAP1 POP PUSH1 0x1 PUSH1 0x1 PUSH1 0xA0 SHL SUB DUP2 AND ISZERO PUSH2 0xC25 JUMPI PUSH1 0x40 MLOAD PUSH4 0x39E35637 PUSH1 0xE1 SHL DUP2 MSTORE PUSH1 0x0 PUSH1 0x4 DUP3 ADD MSTORE PUSH1 0x24 ADD PUSH2 0x972 JUMP JUMPDEST PUSH1 0x0 PUSH1 0x1 PUSH1 0x1 PUSH1 0xA0 SHL SUB DUP4 AND ISZERO DUP1 ISZERO SWAP1 PUSH2 0x2FF0 JUMPI POP DUP3 PUSH1 0x1 PUSH1 0x1 PUSH1 0xA0 SHL SUB AND DUP5 PUSH1 0x1 PUSH1 0x1 PUSH1 0xA0 SHL SUB AND EQ DUP1 PUSH2 0x2FCC JUMPI POP PUSH2 0x2FCC DUP5 DUP5 PUSH2 0x2334 JUMP JUMPDEST DUP1 PUSH2 0x2FF0 JUMPI POP PUSH1 0x0 DUP3 DUP2 MSTORE PUSH1 0x5 PUSH1 0x20 MSTORE PUSH1 0x40 SWAP1 KECCAK256 SLOAD PUSH1 0x1 PUSH1 0x1 PUSH1 0xA0 SHL SUB DUP5 DUP2 AND SWAP2 AND EQ JUMPDEST SWAP5 SWAP4 POP POP POP POP JUMP JUMPDEST PUSH1 0x0 DUP1 DUP1 PUSH32 0x7FFFFFFFFFFFFFFFFFFFFFFFFFFFFFFF5D576E7357A4501DDFE92F46681B20A0 DUP5 GT ISZERO PUSH2 0x3033 JUMPI POP PUSH1 0x0 SWAP2 POP PUSH1 0x3 SWAP1 POP DUP3 PUSH2 0x30BD JUMP JUMPDEST PUSH1 0x40 DUP1 MLOAD PUSH1 0x0 DUP1 DUP3 MSTORE PUSH1 0x20 DUP3 ADD DUP1 DUP5 MSTORE DUP11 SWAP1 MSTORE PUSH1 0xFF DUP10 AND SWAP3 DUP3 ADD SWAP3 SWAP1 SWAP3 MSTORE PUSH1 0x60 DUP2 ADD DUP8 SWAP1 MSTORE PUSH1 0x80 DUP2 ADD DUP7 SWAP1 MSTORE PUSH1 0x1 SWAP1 PUSH1 0xA0 ADD PUSH1 0x20 PUSH1 0x40 MLOAD PUSH1 0x20 DUP2 SUB SWAP1 DUP1 DUP5 SUB SWAP1 DUP6 GAS STATICCALL ISZERO DUP1 ISZERO PUSH2 0x3087 JUMPI RETURNDATASIZE PUSH1 0x0 DUP1 RETURNDATACOPY RETURNDATASIZE PUSH1 0x0 REVERT JUMPDEST POP POP PUSH1 0x40 MLOAD PUSH1 0x1F NOT ADD MLOAD SWAP2 POP POP PUSH1 0x1 PUSH1 0x1 PUSH1 0xA0 SHL SUB DUP2 AND PUSH2 0x30B3 JUMPI POP PUSH1 0x0 SWAP3 POP PUSH1 0x1 SWAP2 POP DUP3 SWAP1 POP PUSH2 0x30BD JUMP JUMPDEST SWAP3 POP PUSH1 0x0 SWAP2 POP DUP2 SWAP1 POP JUMPDEST SWAP5 POP SWAP5 POP SWAP5 SWAP2 POP POP JUMP JUMPDEST PUSH1 0x0 PUSH1 0xFF DUP3 AND PUSH1 0x1F DUP2 GT ISZERO PUSH2 0x700 JUMPI PUSH1 0x40 MLOAD PUSH4 0x2CD44AC3 PUSH1 0xE2 SHL DUP2 MSTORE PUSH1 0x4 ADD PUSH1 0x40 MLOAD DUP1 SWAP2 SUB SWAP1 REVERT JUMPDEST PUSH1 0x1 PUSH1 0x1 PUSH1 0xE0 SHL SUB NOT DUP2 AND DUP2 EQ PUSH2 0x3105 JUMPI PUSH1 0x0 DUP1 REVERT JUMPDEST POP JUMP JUMPDEST PUSH1 0x0 PUSH1 0x20 DUP3 DUP5 SUB SLT ISZERO PUSH2 0x311A JUMPI PUSH1 0x0 DUP1 REVERT JUMPDEST DUP2 CALLDATALOAD PUSH2 0x1A82 DUP2 PUSH2 0x30EF JUMP JUMPDEST PUSH1 0x0 JUMPDEST DUP4 DUP2 LT ISZERO PUSH2 0x3140 JUMPI DUP2 DUP2 ADD MLOAD DUP4 DUP3 ADD MSTORE PUSH1 0x20 ADD PUSH2 0x3128 JUMP JUMPDEST POP POP PUSH1 0x0 SWAP2 ADD MSTORE JUMP JUMPDEST PUSH1 0x0 DUP2 MLOAD DUP1 DUP5 MSTORE PUSH2 0x3161 DUP2 PUSH1 0x20 DUP7 ADD PUSH1 0x20 DUP7 ADD PUSH2 0x3125 JUMP JUMPDEST PUSH1 0x1F ADD PUSH1 0x1F NOT AND SWAP3 SWAP1 SWAP3 ADD PUSH1 0x20 ADD SWAP3 SWAP2 POP POP JUMP JUMPDEST PUSH1 0x20 DUP2 MSTORE PUSH1 0x0 PUSH2 0x1A82 PUSH1 0x20 DUP4 ADD DUP5 PUSH2 0x3149 JUMP JUMPDEST PUSH1 0x0 PUSH1 0x20 DUP3 DUP5 SUB SLT ISZERO PUSH2 0x319A JUMPI PUSH1 0x0 DUP1 REVERT JUMPDEST POP CALLDATALOAD SWAP2 SWAP1 POP JUMP JUMPDEST DUP1 CALLDATALOAD PUSH1 0x1 PUSH1 0x1 PUSH1 0xA0 SHL SUB DUP2 AND DUP2 EQ PUSH2 0x31B8 JUMPI PUSH1 0x0 DUP1 REVERT JUMPDEST SWAP2 SWAP1 POP JUMP JUMPDEST PUSH1 0x0 DUP1 PUSH1 0x40 DUP4 DUP6 SUB SLT ISZERO PUSH2 0x31D0 JUMPI PUSH1 0x0 DUP1 REVERT JUMPDEST PUSH2 0x31D9 DUP4 PUSH2 0x31A1 JUMP JUMPDEST SWAP5 PUSH1 0x20 SWAP4 SWAP1 SWAP4 ADD CALLDATALOAD SWAP4 POP POP POP JUMP JUMPDEST PUSH1 0x0 DUP1 PUSH1 0x40 DUP4 DUP6 SUB SLT ISZERO PUSH2 0x31FA JUMPI PUSH1 0x0 DUP1 REVERT JUMPDEST POP POP DUP1 CALLDATALOAD SWAP3 PUSH1 0x20 SWAP1 SWAP2 ADD CALLDATALOAD SWAP2 POP JUMP JUMPDEST PUSH1 0x0 DUP1 PUSH1 0x0 PUSH1 0x60 DUP5 DUP7 SUB SLT ISZERO PUSH2 0x321E JUMPI PUSH1 0x0 DUP1 REVERT JUMPDEST PUSH2 0x3227 DUP5 PUSH2 0x31A1 JUMP JUMPDEST SWAP3 POP PUSH2 0x3235 PUSH1 0x20 DUP6 ADD PUSH2 0x31A1 JUMP JUMPDEST SWAP3 SWAP6 SWAP3 SWAP5 POP POP POP PUSH1 0x40 SWAP2 SWAP1 SWAP2 ADD CALLDATALOAD SWAP1 JUMP JUMPDEST PUSH1 0x0 DUP1 PUSH1 0x0 DUP1 PUSH1 0x0 PUSH1 0x80 DUP7 DUP9 SUB SLT ISZERO PUSH2 0x325E JUMPI PUSH1 0x0 DUP1 REVERT JUMPDEST DUP6 CALLDATALOAD SWAP5 POP PUSH1 0x20 DUP7 ADD CALLDATALOAD SWAP4 POP PUSH1 0x40 DUP7 ADD CALLDATALOAD SWAP3 POP PUSH1 0x60 DUP7 ADD CALLDATALOAD PUSH8 0xFFFFFFFFFFFFFFFF DUP2 GT ISZERO PUSH2 0x328A JUMPI PUSH1 0x0 DUP1 REVERT JUMPDEST DUP7 ADD PUSH1 0x1F DUP2 ADD DUP9 SGT PUSH2 0x329B JUMPI PUSH1 0x0 DUP1 REVERT JUMPDEST DUP1 CALLDATALOAD PUSH8 0xFFFFFFFFFFFFFFFF DUP2 GT ISZERO PUSH2 0x32B2 JUMPI PUSH1 0x0 DUP1 REVERT JUMPDEST DUP9 PUSH1 0x20 DUP3 DUP5 ADD ADD GT ISZERO PUSH2 0x32C4 JUMPI PUSH1 0x0 DUP1 REVERT JUMPDEST SWAP6 SWAP9 SWAP5 SWAP8 POP SWAP3 SWAP6 POP POP POP PUSH1 0x20 ADD SWAP2 SWAP1 JUMP JUMPDEST PUSH1 0x0 DUP1 DUP4 PUSH1 0x1F DUP5 ADD SLT PUSH2 0x32E7 JUMPI PUSH1 0x0 DUP1 REVERT JUMPDEST POP DUP2 CALLDATALOAD PUSH8 0xFFFFFFFFFFFFFFFF DUP2 GT ISZERO PUSH2 0x32FF JUMPI PUSH1 0x0 DUP1 REVERT JUMPDEST PUSH1 0x20 DUP4 ADD SWAP2 POP DUP4 PUSH1 0x20 DUP3 PUSH1 0x5 SHL DUP6 ADD ADD GT ISZERO PUSH2 0x331A JUMPI PUSH1 0x0 DUP1 REVERT JUMPDEST SWAP3 POP SWAP3 SWAP1 POP JUMP JUMPDEST PUSH1 0x0 DUP1 PUSH1 0x0 PUSH1 0x40 DUP5 DUP7 SUB SLT ISZERO PUSH2 0x3336 JUMPI PUSH1 0x0 DUP1 REVERT JUMPDEST DUP4 CALLDATALOAD SWAP3 POP PUSH1 0x20 DUP5 ADD CALLDATALOAD PUSH8 0xFFFFFFFFFFFFFFFF DUP2 GT ISZERO PUSH2 0x3354 JUMPI PUSH1 0x0 DUP1 REVERT JUMPDEST PUSH2 0x3360 DUP7 DUP3 DUP8 ADD PUSH2 0x32D5 JUMP JUMPDEST SWAP5 SWAP8 SWAP1 SWAP7 POP SWAP4 SWAP5 POP POP POP POP JUMP JUMPDEST PUSH1 0x0 PUSH1 0x20 DUP3 DUP5 SUB SLT ISZERO PUSH2 0x337F JUMPI PUSH1 0x0 DUP1 REVERT JUMPDEST PUSH2 0x1A82 DUP3 PUSH2 0x31A1 JUMP JUMPDEST PUSH1 0xFF PUSH1 0xF8 SHL DUP9 AND DUP2 MSTORE PUSH1 0xE0 PUSH1 0x20 DUP3 ADD MSTORE PUSH1 0x0 PUSH2 0x33A7 PUSH1 0xE0 DUP4 ADD DUP10 PUSH2 0x3149 JUMP JUMPDEST DUP3 DUP2 SUB PUSH1 0x40 DUP5 ADD MSTORE PUSH2 0x33B9 DUP2 DUP10 PUSH2 0x3149 JUMP JUMPDEST PUSH1 0x60 DUP5 ADD DUP9 SWAP1 MSTORE PUSH1 0x1 PUSH1 0x1 PUSH1 0xA0 SHL SUB DUP8 AND PUSH1 0x80 DUP6 ADD MSTORE PUSH1 0xA0 DUP5 ADD DUP7 SWAP1 MSTORE DUP4 DUP2 SUB PUSH1 0xC0 DUP6 ADD MSTORE DUP5 MLOAD DUP1 DUP3 MSTORE PUSH1 0x20 DUP1 DUP8 ADD SWAP4 POP SWAP1 SWAP2 ADD SWAP1 PUSH1 0x0 JUMPDEST DUP2 DUP2 LT ISZERO PUSH2 0x340F JUMPI DUP4 MLOAD DUP4 MSTORE PUSH1 0x20 SWAP4 DUP5 ADD SWAP4 SWAP1 SWAP3 ADD SWAP2 PUSH1 0x1 ADD PUSH2 0x33F1 JUMP JUMPDEST POP SWAP1 SWAP12 SWAP11 POP POP POP POP POP POP POP POP POP POP POP JUMP JUMPDEST PUSH1 0x0 DUP1 PUSH1 0x0 DUP1 PUSH1 0x0 DUP1 PUSH1 0x0 PUSH1 0xA0 DUP9 DUP11 SUB SLT ISZERO PUSH2 0x343B JUMPI PUSH1 0x0 DUP1 REVERT JUMPDEST PUSH2 0x3444 DUP9 PUSH2 0x31A1 JUMP JUMPDEST SWAP7 POP PUSH2 0x3452 PUSH1 0x20 DUP10 ADD PUSH2 0x31A1 JUMP JUMPDEST SWAP6 POP PUSH1 0x40 DUP9 ADD CALLDATALOAD SWAP5 POP PUSH1 0x60 DUP9 ADD CALLDATALOAD PUSH8 0xFFFFFFFFFFFFFFFF DUP2 GT ISZERO PUSH2 0x3475 JUMPI PUSH1 0x0 DUP1 REVERT JUMPDEST PUSH2 0x3481 DUP11 DUP3 DUP12 ADD PUSH2 0x32D5 JUMP JUMPDEST SWAP1 SWAP6 POP SWAP4 POP POP PUSH1 0x80 DUP9 ADD CALLDATALOAD PUSH8 0xFFFFFFFFFFFFFFFF DUP2 GT ISZERO PUSH2 0x34A1 JUMPI PUSH1 0x0 DUP1 REVERT JUMPDEST PUSH2 0x34AD DUP11 DUP3 DUP12 ADD PUSH2 0x32D5 JUMP JUMPDEST SWAP9 SWAP12 SWAP8 SWAP11 POP SWAP6 SWAP9 POP SWAP4 SWAP7 SWAP3 SWAP6 SWAP3 SWAP4 POP POP POP JUMP JUMPDEST PUSH1 0x0 DUP1 PUSH1 0x40 DUP4 DUP6 SUB SLT ISZERO PUSH2 0x34D3 JUMPI PUSH1 0x0 DUP1 REVERT JUMPDEST PUSH2 0x34DC DUP4 PUSH2 0x31A1 JUMP JUMPDEST SWAP2 POP PUSH1 0x20 DUP4 ADD CALLDATALOAD DUP1 ISZERO ISZERO DUP2 EQ PUSH2 0x34F1 JUMPI PUSH1 0x0 DUP1 REVERT JUMPDEST DUP1 SWAP2 POP POP SWAP3 POP SWAP3 SWAP1 POP JUMP JUMPDEST PUSH1 0x0 DUP1 PUSH1 0x40 DUP4 DUP6 SUB SLT ISZERO PUSH2 0x350F JUMPI PUSH1 0x0 DUP1 REVERT JUMPDEST DUP3 CALLDATALOAD SWAP2 POP PUSH2 0x351F PUSH1 0x20 DUP5 ADD PUSH2 0x31A1 JUMP JUMPDEST SWAP1 POP SWAP3 POP SWAP3 SWAP1 POP JUMP JUMPDEST PUSH4 0x4E487B71 PUSH1 0xE0 SHL PUSH1 0x0 MSTORE PUSH1 0x41 PUSH1 0x4 MSTORE PUSH1 0x24 PUSH1 0x0 REVERT JUMPDEST PUSH1 0x0 DUP1 PUSH1 0x0 DUP1 PUSH1 0x80 DUP6 DUP8 SUB SLT ISZERO PUSH2 0x3554 JUMPI PUSH1 0x0 DUP1 REVERT JUMPDEST PUSH2 0x355D DUP6 PUSH2 0x31A1 JUMP JUMPDEST SWAP4 POP PUSH2 0x356B PUSH1 0x20 DUP7 ADD PUSH2 0x31A1 JUMP JUMPDEST SWAP3 POP PUSH1 0x40 DUP6 ADD CALLDATALOAD SWAP2 POP PUSH1 0x60 DUP6 ADD CALLDATALOAD PUSH8 0xFFFFFFFFFFFFFFFF DUP2 GT ISZERO PUSH2 0x358E JUMPI PUSH1 0x0 DUP1 REVERT JUMPDEST DUP6 ADD PUSH1 0x1F DUP2 ADD DUP8 SGT PUSH2 0x359F JUMPI PUSH1 0x0 DUP1 REVERT JUMPDEST DUP1 CALLDATALOAD PUSH8 0xFFFFFFFFFFFFFFFF DUP2 GT ISZERO PUSH2 0x35B9 JUMPI PUSH2 0x35B9 PUSH2 0x3528 JUMP JUMPDEST PUSH1 0x40 MLOAD PUSH1 0x1F DUP3 ADD PUSH1 0x1F NOT SWAP1 DUP2 AND PUSH1 0x3F ADD AND DUP2 ADD PUSH8 0xFFFFFFFFFFFFFFFF DUP2 GT DUP3 DUP3 LT OR ISZERO PUSH2 0x35E8 JUMPI PUSH2 0x35E8 PUSH2 0x3528 JUMP JUMPDEST PUSH1 0x40 MSTORE DUP2 DUP2 MSTORE DUP3 DUP3 ADD PUSH1 0x20 ADD DUP10 LT ISZERO PUSH2 0x3600 JUMPI PUSH1 0x0 DUP1 REVERT JUMPDEST DUP2 PUSH1 0x20 DUP5 ADD PUSH1 0x20 DUP4 ADD CALLDATACOPY PUSH1 0x0 PUSH1 0x20 DUP4 DUP4 ADD ADD MSTORE DUP1 SWAP4 POP POP POP POP SWAP3 SWAP6 SWAP2 SWAP5 POP SWAP3 POP JUMP JUMPDEST PUSH4 0x4E487B71 PUSH1 0xE0 SHL PUSH1 0x0 MSTORE PUSH1 0x21 PUSH1 0x4 MSTORE PUSH1 0x24 PUSH1 0x0 REVERT JUMPDEST PUSH1 0x4 DUP2 LT PUSH2 0x3656 JUMPI PUSH4 0x4E487B71 PUSH1 0xE0 SHL PUSH1 0x0 MSTORE PUSH1 0x21 PUSH1 0x4 MSTORE PUSH1 0x24 PUSH1 0x0 REVERT JUMPDEST SWAP1 MSTORE JUMP JUMPDEST PUSH2 0x100 DUP1 DUP3 MSTORE DUP10 MLOAD SWAP1 DUP3 ADD DUP2 SWAP1 MSTORE PUSH1 0x0 SWAP1 PUSH1 0x20 DUP12 ADD SWAP1 PUSH2 0x120 DUP5 ADD SWAP1 DUP4 JUMPDEST DUP2 DUP2 LT ISZERO PUSH2 0x369F JUMPI DUP4 MLOAD PUSH1 0x1 PUSH1 0x1 PUSH1 0xA0 SHL SUB AND DUP4 MSTORE PUSH1 0x20 SWAP4 DUP5 ADD SWAP4 SWAP1 SWAP3 ADD SWAP2 PUSH1 0x1 ADD PUSH2 0x3678 JUMP JUMPDEST POP POP PUSH1 0x1 PUSH1 0x1 PUSH1 0xA0 SHL SUB DUP12 AND PUSH1 0x20 DUP6 ADD MSTORE SWAP2 POP PUSH2 0x36B9 SWAP1 POP JUMP JUMPDEST PUSH1 0x1 PUSH1 0x1 PUSH1 0xA0 SHL SUB DUP9 AND PUSH1 0x40 DUP4 ADD MSTORE DUP7 PUSH1 0x60 DUP4 ADD MSTORE DUP6 PUSH1 0x80 DUP4 ADD MSTORE DUP5 PUSH1 0xA0 DUP4 ADD MSTORE PUSH2 0x36E7 PUSH1 0xC0 DUP4 ADD DUP6 PUSH2 0x3638 JUMP JUMPDEST DUP3 PUSH1 0xE0 DUP4 ADD MSTORE SWAP10 SWAP9 POP POP POP POP POP POP POP POP POP JUMP JUMPDEST PUSH1 0x0 DUP1 PUSH1 0x40 DUP4 DUP6 SUB SLT ISZERO PUSH2 0x370D JUMPI PUSH1 0x0 DUP1 REVERT JUMPDEST PUSH2 0x3716 DUP4 PUSH2 0x31A1 JUMP JUMPDEST SWAP2 POP PUSH2 0x351F PUSH1 0x20 DUP5 ADD PUSH2 0x31A1 JUMP JUMPDEST PUSH1 0x1 DUP2 DUP2 SHR SWAP1 DUP3 AND DUP1 PUSH2 0x3738 JUMPI PUSH1 0x7F DUP3 AND SWAP2 POP JUMPDEST PUSH1 0x20 DUP3 LT DUP2 SUB PUSH2 0x3758 JUMPI PUSH4 0x4E487B71 PUSH1 0xE0 SHL PUSH1 0x0 MSTORE PUSH1 0x22 PUSH1 0x4 MSTORE PUSH1 0x24 PUSH1 0x0 REVERT JUMPDEST POP SWAP2 SWAP1 POP JUMP JUMPDEST PUSH4 0x4E487B71 PUSH1 0xE0 SHL PUSH1 0x0 MSTORE PUSH1 0x32 PUSH1 0x4 MSTORE PUSH1 0x24 PUSH1 0x0 REVERT JUMPDEST PUSH4 0x4E487B71 PUSH1 0xE0 SHL PUSH1 0x0 MSTORE PUSH1 0x11 PUSH1 0x4 MSTORE PUSH1 0x24 PUSH1 0x0 REVERT JUMPDEST PUSH1 0x0 PUSH1 0x1 DUP3 ADD PUSH2 0x379C JUMPI PUSH2 0x379C PUSH2 0x3774 JUMP JUMPDEST POP PUSH1 0x1 ADD SWAP1 JUMP JUMPDEST DUP1 DUP3 ADD DUP1 DUP3 GT ISZERO PUSH2 0x700 JUMPI PUSH2 0x700 PUSH2 0x3774 JUMP JUMPDEST PUSH1 0x20 DUP1 DUP3 MSTORE DUP2 ADD DUP3 SWAP1 MSTORE PUSH1 0x0 PUSH1 0x1 PUSH1 0x1 PUSH1 0xFB SHL SUB DUP4 GT ISZERO PUSH2 0x37D6 JUMPI PUSH1 0x0 DUP1 REVERT JUMPDEST DUP3 PUSH1 0x5 SHL DUP1 DUP6 PUSH1 0x40 DUP6 ADD CALLDATACOPY SWAP2 SWAP1 SWAP2 ADD PUSH1 0x40 ADD SWAP4 SWAP3 POP POP POP JUMP JUMPDEST PUSH1 0x0 DUP4 MLOAD PUSH2 0x3801 DUP2 DUP5 PUSH1 0x20 DUP9 ADD PUSH2 0x3125 JUMP JUMPDEST DUP4 MLOAD SWAP1 DUP4 ADD SWAP1 PUSH2 0x3815 DUP2 DUP4 PUSH1 0x20 DUP9 ADD PUSH2 0x3125 JUMP JUMPDEST ADD SWAP5 SWAP4 POP POP POP POP JUMP JUMPDEST DUP2 DUP2 SUB DUP2 DUP2 GT ISZERO PUSH2 0x700 JUMPI PUSH2 0x700 PUSH2 0x3774 JUMP JUMPDEST DUP1 DUP3 MUL DUP2 ISZERO DUP3 DUP3 DIV DUP5 EQ OR PUSH2 0x700 JUMPI PUSH2 0x700 PUSH2 0x3774 JUMP JUMPDEST PUSH1 0x0 DUP3 PUSH2 0x3865 JUMPI PUSH4 0x4E487B71 PUSH1 0xE0 SHL PUSH1 0x0 MSTORE PUSH1 0x12 PUSH1 0x4 MSTORE PUSH1 0x24 PUSH1 0x0 REVERT JUMPDEST POP DIV SWAP1 JUMP JUMPDEST PUSH1 0x1 PUSH1 0x1 PUSH1 0xA0 SHL SUB DUP6 DUP2 AND DUP3 MSTORE DUP5 AND PUSH1 0x20 DUP3 ADD MSTORE PUSH1 0x40 DUP2 ADD DUP4 SWAP1 MSTORE PUSH1 0x80 PUSH1 0x60 DUP3 ADD DUP2 SWAP1 MSTORE PUSH1 0x0 SWAP1 PUSH2 0x389D SWAP1 DUP4 ADD DUP5 PUSH2 0x3149 JUMP JUMPDEST SWAP7 SWAP6 POP POP POP POP POP POP JUMP JUMPDEST PUSH1 0x0 PUSH1 0x20 DUP3 DUP5 SUB SLT ISZERO PUSH2 0x38B9 JUMPI PUSH1 0x0 DUP1 REVERT JUMPDEST DUP2 MLOAD PUSH2 0x1A82 DUP2 PUSH2 0x30EF JUMP INVALID LOG2 PUSH5 0x6970667358 0x22 SLT KECCAK256 POP 0xB9 XOR CREATE PUSH32 0x6FB6BF47D0A5DA4DC1020ED80D208071BFE96ACA1F31E1F2F639E464736F6C63 NUMBER STOP ADDMOD 0x1E STOP CALLER "},"methodIdentifiers":{"DOMAIN()":"52a9674b","approve(address,uint256)":"095ea7b3","approveMilestone(uint256,uint256)":"20913da5","approveMilestoneWithSignature(uint256,uint256,uint256,bytes)":"3b2206d3","balanceOf(address)":"70a08231","cancelEscrow(uint256)":"e0182436","claimExpiredMilestone(uint256,uint256)":"df4ca4bb","contributeToEscrow(uint256)":"84a66739","createEscrow(address,address,uint256,uint256[],uint256[])":"a0440bdb","eip712Domain()":"84b0196e","getApproved(uint256)":"081812fc","getContribution(uint256,address)":"e081dbf9","getEscrowDetails(uint256)":"b996ec2a","getMilestone(uint256,uint256)":"8ed9895c","getMilestoneCount(uint256)":"c2010e50","hasContributed(uint256,address)":"b5b96ae0","isApprovedForAll(address,address)":"e985e9c5","name()":"06fdde03","nextEscrowId()":"89cb29dd","nonces(address)":"7ecebe00","ownerOf(uint256)":"6352211e","raiseDispute(uint256)":"a5c1674e","refundExpiredMilestone(uint256,uint256)":"5e77650d","releaseMilestone(uint256,uint256)":"dbaf0910","resolveDispute(uint256,uint256[])":"55acc0b5","safeTransferFrom(address,address,uint256)":"42842e0e","safeTransferFrom(address,address,uint256,bytes)":"b88d4fde","setApprovalForAll(address,bool)":"a22cb465","supportsInterface(bytes4)":"01ffc9a7","symbol()":"95d89b41","tokenURI(uint256)":"c87b56dd","transferFrom(address,address,uint256)":"23b872dd"}}}}}