{
  "_format": "hh-sol-artifact-1",
  "contractName": "Athenyx",
  "sourceName": "contracts/Athenyx.sol",
  "abi": [
    {
      "inputs": [
        {
          "internalType": "address",
          "name": "_guarantorRegistry",
          "type": "address"
        },
        {
          "internalType": "address",
          "name": "_insurancePool",
          "type": "address"
        },
        {
          "internalType": "address",
          "name": "_lenderIncentives",
          "type": "address"
        }
      ],
      "stateMutability": "nonpayable",
      "type": "constructor"
    },
    {
      "inputs": [],
      "name": "AlreadyApproved",
      "type": "error"
    },
    {
      "inputs": [],
      "name": "AlreadyReleased",
      "type": "error"
    },
    {
      "inputs": [],
      "name": "DeadlineNotPassed",
      "type": "error"
    },
    {
      "inputs": [],
      "name": "ECDSAInvalidSignature",
      "type": "error"
    },
    {
      "inputs": [
        {
          "internalType": "uint256",
          "name": "length",
          "type": "uint256"
        }
      ],
      "name": "ECDSAInvalidSignatureLength",
      "type": "error"
    },
    {
      "inputs": [
        {
          "internalType": "bytes32",
          "name": "s",
          "type": "bytes32"
        }
      ],
      "name": "ECDSAInvalidSignatureS",
      "type": "error"
    },
    {
      "inputs": [
        {
          "internalType": "address",
          "name": "sender",
          "type": "address"
        },
        {
          "internalType": "uint256",
          "name": "tokenId",
          "type": "uint256"
        },
        {
          "internalType": "address",
          "name": "owner",
          "type": "address"
        }
      ],
      "name": "ERC721IncorrectOwner",
      "type": "error"
    },
    {
      "inputs": [
        {
          "internalType": "address",
          "name": "operator",
          "type": "address"
        },
        {
          "internalType": "uint256",
          "name": "tokenId",
          "type": "uint256"
        }
      ],
      "name": "ERC721InsufficientApproval",
      "type": "error"
    },
    {
      "inputs": [
        {
          "internalType": "address",
          "name": "approver",
          "type": "address"
        }
      ],
      "name": "ERC721InvalidApprover",
      "type": "error"
    },
    {
      "inputs": [
        {
          "internalType": "address",
          "name": "operator",
          "type": "address"
        }
      ],
      "name": "ERC721InvalidOperator",
      "type": "error"
    },
    {
      "inputs": [
        {
          "internalType": "address",
          "name": "owner",
          "type": "address"
        }
      ],
      "name": "ERC721InvalidOwner",
      "type": "error"
    },
    {
      "inputs": [
        {
          "internalType": "address",
          "name": "receiver",
          "type": "address"
        }
      ],
      "name": "ERC721InvalidReceiver",
      "type": "error"
    },
    {
      "inputs": [
        {
          "internalType": "address",
          "name": "sender",
          "type": "address"
        }
      ],
      "name": "ERC721InvalidSender",
      "type": "error"
    },
    {
      "inputs": [
        {
          "internalType": "uint256",
          "name": "tokenId",
          "type": "uint256"
        }
      ],
      "name": "ERC721NonexistentToken",
      "type": "error"
    },
    {
      "inputs": [],
      "name": "EmptyMilestones",
      "type": "error"
    },
    {
      "inputs": [],
      "name": "GuarantorsNotVerified",
      "type": "error"
    },
    {
      "inputs": [],
      "name": "InsufficientFunds",
      "type": "error"
    },
    {
      "inputs": [],
      "name": "InsufficientGuarantors",
      "type": "error"
    },
    {
      "inputs": [],
      "name": "InvalidAmount",
      "type": "error"
    },
    {
      "inputs": [],
      "name": "InvalidDeadline",
      "type": "error"
    },
    {
      "inputs": [],
      "name": "InvalidShortString",
      "type": "error"
    },
    {
      "inputs": [],
      "name": "InvalidSignature",
      "type": "error"
    },
    {
      "inputs": [],
      "name": "InvalidState",
      "type": "error"
    },
    {
      "inputs": [],
      "name": "NotApproved",
      "type": "error"
    },
    {
      "inputs": [
        {
          "internalType": "address",
          "name": "owner",
          "type": "address"
        }
      ],
      "name": "OwnableInvalidOwner",
      "type": "error"
    },
    {
      "inputs": [
        {
          "internalType": "address",
          "name": "account",
          "type": "address"
        }
      ],
      "name": "OwnableUnauthorizedAccount",
      "type": "error"
    },
    {
      "inputs": [],
      "name": "ReentrancyGuardReentrantCall",
      "type": "error"
    },
    {
      "inputs": [],
      "name": "SignatureExpired",
      "type": "error"
    },
    {
      "inputs": [
        {
          "internalType": "string",
          "name": "str",
          "type": "string"
        }
      ],
      "name": "StringTooLong",
      "type": "error"
    },
    {
      "inputs": [],
      "name": "TransferFailed",
      "type": "error"
    },
    {
      "inputs": [],
      "name": "Unauthorized",
      "type": "error"
    },
    {
      "inputs": [],
      "name": "ZeroAddress",
      "type": "error"
    },
    {
      "anonymous": false,
      "inputs": [
        {
          "indexed": true,
          "internalType": "address",
          "name": "owner",
          "type": "address"
        },
        {
          "indexed": true,
          "internalType": "address",
          "name": "approved",
          "type": "address"
        },
        {
          "indexed": true,
          "internalType": "uint256",
          "name": "tokenId",
          "type": "uint256"
        }
      ],
      "name": "Approval",
      "type": "event"
    },
    {
      "anonymous": false,
      "inputs": [
        {
          "indexed": true,
          "internalType": "address",
          "name": "owner",
          "type": "address"
        },
        {
          "indexed": true,
          "internalType": "address",
          "name": "operator",
          "type": "address"
        },
        {
          "indexed": false,
          "internalType": "bool",
          "name": "approved",
          "type": "bool"
        }
      ],
      "name": "ApprovalForAll",
      "type": "event"
    },
    {
      "anonymous": false,
      "inputs": [
        {
          "indexed": true,
          "internalType": "uint256",
          "name": "escrowId",
          "type": "uint256"
        },
        {
          "indexed": true,
          "internalType": "address",
          "name": "payer",
          "type": "address"
        },
        {
          "indexed": false,
          "internalType": "uint256",
          "name": "amount",
          "type": "uint256"
        }
      ],
      "name": "ContributionAdded",
      "type": "event"
    },
    {
      "anonymous": false,
      "inputs": [
        {
          "indexed": true,
          "internalType": "uint256",
          "name": "escrowId",
          "type": "uint256"
        },
        {
          "indexed": true,
          "internalType": "address",
          "name": "initiator",
          "type": "address"
        }
      ],
      "name": "DisputeRaised",
      "type": "event"
    },
    {
      "anonymous": false,
      "inputs": [
        {
          "indexed": true,
          "internalType": "uint256",
          "name": "escrowId",
          "type": "uint256"
        },
        {
          "indexed": false,
          "internalType": "uint256[]",
          "name": "releasedMilestones",
          "type": "uint256[]"
        }
      ],
      "name": "DisputeResolved",
      "type": "event"
    },
    {
      "anonymous": false,
      "inputs": [],
      "name": "EIP712DomainChanged",
      "type": "event"
    },
    {
      "anonymous": false,
      "inputs": [
        {
          "indexed": true,
          "internalType": "uint256",
          "name": "escrowId",
          "type": "uint256"
        },
        {
          "indexed": true,
          "internalType": "address",
          "name": "lender",
          "type": "address"
        },
        {
          "indexed": false,
          "internalType": "uint256",
          "name": "interestRate",
          "type": "uint256"
        }
      ],
      "name": "EscrowActivated",
      "type": "event"
    },
    {
      "anonymous": false,
      "inputs": [
        {
          "indexed": true,
          "internalType": "uint256",
          "name": "escrowId",
          "type": "uint256"
        },
        {
          "indexed": false,
          "internalType": "uint256",
          "name": "refundAmount",
          "type": "uint256"
        }
      ],
      "name": "EscrowCancelled",
      "type": "event"
    },
    {
      "anonymous": false,
      "inputs": [
        {
          "indexed": true,
          "internalType": "uint256",
          "name": "escrowId",
          "type": "uint256"
        }
      ],
      "name": "EscrowCompleted",
      "type": "event"
    },
    {
      "anonymous": false,
      "inputs": [
        {
          "indexed": true,
          "internalType": "uint256",
          "name": "escrowId",
          "type": "uint256"
        },
        {
          "indexed": true,
          "internalType": "address",
          "name": "seller",
          "type": "address"
        },
        {
          "indexed": true,
          "internalType": "address",
          "name": "arbiter",
          "type": "address"
        },
        {
          "indexed": false,
          "internalType": "uint256",
          "name": "totalAmount",
          "type": "uint256"
        },
        {
          "indexed": false,
          "internalType": "uint256",
          "name": "arbiterFee",
          "type": "uint256"
        },
        {
          "indexed": false,
          "internalType": "bool",
          "name": "requiresGuarantors",
          "type": "bool"
        }
      ],
      "name": "EscrowCreated",
      "type": "event"
    },
    {
      "anonymous": false,
      "inputs": [
        {
          "indexed": true,
          "internalType": "uint256",
          "name": "escrowId",
          "type": "uint256"
        },
        {
          "indexed": false,
          "internalType": "uint256",
          "name": "guarantorCount",
          "type": "uint256"
        }
      ],
      "name": "GuarantorsVerified",
      "type": "event"
    },
    {
      "anonymous": false,
      "inputs": [
        {
          "indexed": true,
          "internalType": "uint256",
          "name": "escrowId",
          "type": "uint256"
        },
        {
          "indexed": false,
          "internalType": "uint256",
          "name": "premium",
          "type": "uint256"
        }
      ],
      "name": "InsurancePremiumPaid",
      "type": "event"
    },
    {
      "anonymous": false,
      "inputs": [
        {
          "indexed": true,
          "internalType": "uint256",
          "name": "escrowId",
          "type": "uint256"
        },
        {
          "indexed": true,
          "internalType": "uint256",
          "name": "milestoneIndex",
          "type": "uint256"
        },
        {
          "indexed": false,
          "internalType": "address",
          "name": "approver",
          "type": "address"
        }
      ],
      "name": "MilestoneApproved",
      "type": "event"
    },
    {
      "anonymous": false,
      "inputs": [
        {
          "indexed": true,
          "internalType": "uint256",
          "name": "escrowId",
          "type": "uint256"
        },
        {
          "indexed": true,
          "internalType": "uint256",
          "name": "milestoneIndex",
          "type": "uint256"
        },
        {
          "indexed": false,
          "internalType": "uint256",
          "name": "amount",
          "type": "uint256"
        }
      ],
      "name": "MilestoneReleased",
      "type": "event"
    },
    {
      "anonymous": false,
      "inputs": [
        {
          "indexed": true,
          "internalType": "address",
          "name": "previousOwner",
          "type": "address"
        },
        {
          "indexed": true,
          "internalType": "address",
          "name": "newOwner",
          "type": "address"
        }
      ],
      "name": "OwnershipTransferred",
      "type": "event"
    },
    {
      "anonymous": false,
      "inputs": [
        {
          "indexed": true,
          "internalType": "address",
          "name": "from",
          "type": "address"
        },
        {
          "indexed": true,
          "internalType": "address",
          "name": "to",
          "type": "address"
        },
        {
          "indexed": true,
          "internalType": "uint256",
          "name": "tokenId",
          "type": "uint256"
        }
      ],
      "name": "Transfer",
      "type": "event"
    },
    {
      "inputs": [],
      "name": "DOMAIN",
      "outputs": [
        {
          "internalType": "string",
          "name": "",
          "type": "string"
        }
      ],
      "stateMutability": "view",
      "type": "function"
    },
    {
      "inputs": [
        {
          "internalType": "uint256",
          "name": "escrowId",
          "type": "uint256"
        },
        {
          "internalType": "address",
          "name": "lender",
          "type": "address"
        }
      ],
      "name": "activateEscrowWithLender",
      "outputs": [],
      "stateMutability": "nonpayable",
      "type": "function"
    },
    {
      "inputs": [
        {
          "internalType": "address",
          "name": "to",
          "type": "address"
        },
        {
          "internalType": "uint256",
          "name": "tokenId",
          "type": "uint256"
        }
      ],
      "name": "approve",
      "outputs": [],
      "stateMutability": "nonpayable",
      "type": "function"
    },
    {
      "inputs": [
        {
          "internalType": "uint256",
          "name": "escrowId",
          "type": "uint256"
        },
        {
          "internalType": "uint256",
          "name": "milestoneIndex",
          "type": "uint256"
        }
      ],
      "name": "approveMilestone",
      "outputs": [],
      "stateMutability": "nonpayable",
      "type": "function"
    },
    {
      "inputs": [
        {
          "internalType": "uint256",
          "name": "escrowId",
          "type": "uint256"
        },
        {
          "internalType": "uint256",
          "name": "milestoneIndex",
          "type": "uint256"
        },
        {
          "internalType": "uint256",
          "name": "signatureDeadline",
          "type": "uint256"
        },
        {
          "internalType": "bytes",
          "name": "signature",
          "type": "bytes"
        }
      ],
      "name": "approveMilestoneWithSignature",
      "outputs": [],
      "stateMutability": "nonpayable",
      "type": "function"
    },
    {
      "inputs": [
        {
          "internalType": "address",
          "name": "owner",
          "type": "address"
        }
      ],
      "name": "balanceOf",
      "outputs": [
        {
          "internalType": "uint256",
          "name": "",
          "type": "uint256"
        }
      ],
      "stateMutability": "view",
      "type": "function"
    },
    {
      "inputs": [
        {
          "internalType": "uint256",
          "name": "escrowId",
          "type": "uint256"
        }
      ],
      "name": "cancelEscrow",
      "outputs": [],
      "stateMutability": "nonpayable",
      "type": "function"
    },
    {
      "inputs": [
        {
          "internalType": "uint256",
          "name": "escrowId",
          "type": "uint256"
        },
        {
          "internalType": "uint256",
          "name": "milestoneIndex",
          "type": "uint256"
        }
      ],
      "name": "claimExpiredMilestone",
      "outputs": [],
      "stateMutability": "nonpayable",
      "type": "function"
    },
    {
      "inputs": [
        {
          "internalType": "uint256",
          "name": "escrowId",
          "type": "uint256"
        }
      ],
      "name": "contributeToEscrow",
      "outputs": [],
      "stateMutability": "payable",
      "type": "function"
    },
    {
      "inputs": [
        {
          "internalType": "address",
          "name": "seller",
          "type": "address"
        },
        {
          "internalType": "address",
          "name": "arbiter",
          "type": "address"
        },
        {
          "internalType": "uint256",
          "name": "arbiterFee",
          "type": "uint256"
        },
        {
          "internalType": "uint256[]",
          "name": "milestoneAmounts",
          "type": "uint256[]"
        },
        {
          "internalType": "uint256[]",
          "name": "milestoneDeadlines",
          "type": "uint256[]"
        },
        {
          "internalType": "bool",
          "name": "requiresGuarantors",
          "type": "bool"
        },
        {
          "internalType": "uint256",
          "name": "minGuarantorCount",
          "type": "uint256"
        }
      ],
      "name": "createEscrow",
      "outputs": [
        {
          "internalType": "uint256",
          "name": "",
          "type": "uint256"
        }
      ],
      "stateMutability": "payable",
      "type": "function"
    },
    {
      "inputs": [],
      "name": "eip712Domain",
      "outputs": [
        {
          "internalType": "bytes1",
          "name": "fields",
          "type": "bytes1"
        },
        {
          "internalType": "string",
          "name": "name",
          "type": "string"
        },
        {
          "internalType": "string",
          "name": "version",
          "type": "string"
        },
        {
          "internalType": "uint256",
          "name": "chainId",
          "type": "uint256"
        },
        {
          "internalType": "address",
          "name": "verifyingContract",
          "type": "address"
        },
        {
          "internalType": "bytes32",
          "name": "salt",
          "type": "bytes32"
        },
        {
          "internalType": "uint256[]",
          "name": "extensions",
          "type": "uint256[]"
        }
      ],
      "stateMutability": "view",
      "type": "function"
    },
    {
      "inputs": [
        {
          "internalType": "uint256",
          "name": "tokenId",
          "type": "uint256"
        }
      ],
      "name": "getApproved",
      "outputs": [
        {
          "internalType": "address",
          "name": "",
          "type": "address"
        }
      ],
      "stateMutability": "view",
      "type": "function"
    },
    {
      "inputs": [
        {
          "internalType": "uint256",
          "name": "escrowId",
          "type": "uint256"
        },
        {
          "internalType": "address",
          "name": "payer",
          "type": "address"
        }
      ],
      "name": "getContribution",
      "outputs": [
        {
          "internalType": "uint256",
          "name": "",
          "type": "uint256"
        }
      ],
      "stateMutability": "view",
      "type": "function"
    },
    {
      "inputs": [
        {
          "internalType": "uint256",
          "name": "escrowId",
          "type": "uint256"
        }
      ],
      "name": "getEscrowDetails",
      "outputs": [
        {
          "internalType": "address[]",
          "name": "payers",
          "type": "address[]"
        },
        {
          "internalType": "address",
          "name": "seller",
          "type": "address"
        },
        {
          "internalType": "address",
          "name": "arbiter",
          "type": "address"
        },
        {
          "internalType": "address",
          "name": "lender",
          "type": "address"
        },
        {
          "internalType": "uint256",
          "name": "totalFunded",
          "type": "uint256"
        },
        {
          "internalType": "uint256",
          "name": "totalReleased",
          "type": "uint256"
        },
        {
          "internalType": "uint256",
          "name": "arbiterFee",
          "type": "uint256"
        },
        {
          "internalType": "uint256",
          "name": "interestRate",
          "type": "uint256"
        },
        {
          "internalType": "enum Athenyx.EscrowState",
          "name": "state",
          "type": "uint8"
        },
        {
          "internalType": "uint256",
          "name": "createdAt",
          "type": "uint256"
        },
        {
          "internalType": "bool",
          "name": "requiresGuarantors",
          "type": "bool"
        }
      ],
      "stateMutability": "view",
      "type": "function"
    },
    {
      "inputs": [
        {
          "internalType": "uint256",
          "name": "escrowId",
          "type": "uint256"
        },
        {
          "internalType": "uint256",
          "name": "milestoneIndex",
          "type": "uint256"
        }
      ],
      "name": "getMilestone",
      "outputs": [
        {
          "internalType": "uint256",
          "name": "amount",
          "type": "uint256"
        },
        {
          "internalType": "uint256",
          "name": "deadline",
          "type": "uint256"
        },
        {
          "internalType": "bool",
          "name": "approved",
          "type": "bool"
        },
        {
          "internalType": "bool",
          "name": "released",
          "type": "bool"
        }
      ],
      "stateMutability": "view",
      "type": "function"
    },
    {
      "inputs": [
        {
          "internalType": "uint256",
          "name": "escrowId",
          "type": "uint256"
        }
      ],
      "name": "getMilestoneCount",
      "outputs": [
        {
          "internalType": "uint256",
          "name": "",
          "type": "uint256"
        }
      ],
      "stateMutability": "view",
      "type": "function"
    },
    {
      "inputs": [],
      "name": "guarantorRegistry",
      "outputs": [
        {
          "internalType": "contract IGuarantorRegistry",
          "name": "",
          "type": "address"
        }
      ],
      "stateMutability": "view",
      "type": "function"
    },
    {
      "inputs": [
        {
          "internalType": "uint256",
          "name": "",
          "type": "uint256"
        },
        {
          "internalType": "address",
          "name": "",
          "type": "address"
        }
      ],
      "name": "hasContributed",
      "outputs": [
        {
          "internalType": "bool",
          "name": "",
          "type": "bool"
        }
      ],
      "stateMutability": "view",
      "type": "function"
    },
    {
      "inputs": [],
      "name": "insurancePool",
      "outputs": [
        {
          "internalType": "contract IInsurancePool",
          "name": "",
          "type": "address"
        }
      ],
      "stateMutability": "view",
      "type": "function"
    },
    {
      "inputs": [
        {
          "internalType": "address",
          "name": "owner",
          "type": "address"
        },
        {
          "internalType": "address",
          "name": "operator",
          "type": "address"
        }
      ],
      "name": "isApprovedForAll",
      "outputs": [
        {
          "internalType": "bool",
          "name": "",
          "type": "bool"
        }
      ],
      "stateMutability": "view",
      "type": "function"
    },
    {
      "inputs": [],
      "name": "lenderIncentives",
      "outputs": [
        {
          "internalType": "contract ILenderIncentives",
          "name": "",
          "type": "address"
        }
      ],
      "stateMutability": "view",
      "type": "function"
    },
    {
      "inputs": [],
      "name": "name",
      "outputs": [
        {
          "internalType": "string",
          "name": "",
          "type": "string"
        }
      ],
      "stateMutability": "view",
      "type": "function"
    },
    {
      "inputs": [],
      "name": "nextEscrowId",
      "outputs": [
        {
          "internalType": "uint256",
          "name": "",
          "type": "uint256"
        }
      ],
      "stateMutability": "view",
      "type": "function"
    },
    {
      "inputs": [
        {
          "internalType": "address",
          "name": "",
          "type": "address"
        }
      ],
      "name": "nonces",
      "outputs": [
        {
          "internalType": "uint256",
          "name": "",
          "type": "uint256"
        }
      ],
      "stateMutability": "view",
      "type": "function"
    },
    {
      "inputs": [],
      "name": "owner",
      "outputs": [
        {
          "internalType": "address",
          "name": "",
          "type": "address"
        }
      ],
      "stateMutability": "view",
      "type": "function"
    },
    {
      "inputs": [
        {
          "internalType": "uint256",
          "name": "tokenId",
          "type": "uint256"
        }
      ],
      "name": "ownerOf",
      "outputs": [
        {
          "internalType": "address",
          "name": "",
          "type": "address"
        }
      ],
      "stateMutability": "view",
      "type": "function"
    },
    {
      "inputs": [
        {
          "internalType": "uint256",
          "name": "escrowId",
          "type": "uint256"
        }
      ],
      "name": "raiseDispute",
      "outputs": [],
      "stateMutability": "nonpayable",
      "type": "function"
    },
    {
      "inputs": [
        {
          "internalType": "uint256",
          "name": "escrowId",
          "type": "uint256"
        },
        {
          "internalType": "uint256",
          "name": "milestoneIndex",
          "type": "uint256"
        }
      ],
      "name": "refundExpiredMilestone",
      "outputs": [],
      "stateMutability": "nonpayable",
      "type": "function"
    },
    {
      "inputs": [
        {
          "internalType": "uint256",
          "name": "escrowId",
          "type": "uint256"
        },
        {
          "internalType": "uint256",
          "name": "milestoneIndex",
          "type": "uint256"
        }
      ],
      "name": "releaseMilestone",
      "outputs": [],
      "stateMutability": "nonpayable",
      "type": "function"
    },
    {
      "inputs": [],
      "name": "renounceOwnership",
      "outputs": [],
      "stateMutability": "nonpayable",
      "type": "function"
    },
    {
      "inputs": [
        {
          "internalType": "uint256",
          "name": "escrowId",
          "type": "uint256"
        },
        {
          "internalType": "uint256[]",
          "name": "milestoneIndicesToRelease",
          "type": "uint256[]"
        }
      ],
      "name": "resolveDispute",
      "outputs": [],
      "stateMutability": "nonpayable",
      "type": "function"
    },
    {
      "inputs": [
        {
          "internalType": "address",
          "name": "from",
          "type": "address"
        },
        {
          "internalType": "address",
          "name": "to",
          "type": "address"
        },
        {
          "internalType": "uint256",
          "name": "tokenId",
          "type": "uint256"
        }
      ],
      "name": "safeTransferFrom",
      "outputs": [],
      "stateMutability": "nonpayable",
      "type": "function"
    },
    {
      "inputs": [
        {
          "internalType": "address",
          "name": "from",
          "type": "address"
        },
        {
          "internalType": "address",
          "name": "to",
          "type": "address"
        },
        {
          "internalType": "uint256",
          "name": "tokenId",
          "type": "uint256"
        },
        {
          "internalType": "bytes",
          "name": "data",
          "type": "bytes"
        }
      ],
      "name": "safeTransferFrom",
      "outputs": [],
      "stateMutability": "nonpayable",
      "type": "function"
    },
    {
      "inputs": [
        {
          "internalType": "address",
          "name": "operator",
          "type": "address"
        },
        {
          "internalType": "bool",
          "name": "approved",
          "type": "bool"
        }
      ],
      "name": "setApprovalForAll",
      "outputs": [],
      "stateMutability": "nonpayable",
      "type": "function"
    },
    {
      "inputs": [
        {
          "internalType": "address",
          "name": "_guarantorRegistry",
          "type": "address"
        }
      ],
      "name": "setGuarantorRegistry",
      "outputs": [],
      "stateMutability": "nonpayable",
      "type": "function"
    },
    {
      "inputs": [
        {
          "internalType": "address",
          "name": "_insurancePool",
          "type": "address"
        }
      ],
      "name": "setInsurancePool",
      "outputs": [],
      "stateMutability": "nonpayable",
      "type": "function"
    },
    {
      "inputs": [
        {
          "internalType": "address",
          "name": "_lenderIncentives",
          "type": "address"
        }
      ],
      "name": "setLenderIncentives",
      "outputs": [],
      "stateMutability": "nonpayable",
      "type": "function"
    },
    {
      "inputs": [
        {
          "internalType": "bytes4",
          "name": "interfaceId",
          "type": "bytes4"
        }
      ],
      "name": "supportsInterface",
      "outputs": [
        {
          "internalType": "bool",
          "name": "",
          "type": "bool"
        }
      ],
      "stateMutability": "view",
      "type": "function"
    },
    {
      "inputs": [],
      "name": "symbol",
      "outputs": [
        {
          "internalType": "string",
          "name": "",
          "type": "string"
        }
      ],
      "stateMutability": "view",
      "type": "function"
    },
    {
      "inputs": [
        {
          "internalType": "uint256",
          "name": "tokenId",
          "type": "uint256"
        }
      ],
      "name": "tokenURI",
      "outputs": [
        {
          "internalType": "string",
          "name": "",
          "type": "string"
        }
      ],
      "stateMutability": "view",
      "type": "function"
    },
    {
      "inputs": [
        {
          "internalType": "address",
          "name": "from",
          "type": "address"
        },
        {
          "internalType": "address",
          "name": "to",
          "type": "address"
        },
        {
          "internalType": "uint256",
          "name": "tokenId",
          "type": "uint256"
        }
      ],
      "name": "transferFrom",
      "outputs": [],
      "stateMutability": "nonpayable",
      "type": "function"
    },
    {
      "inputs": [
        {
          "internalType": "address",
          "name": "newOwner",
          "type": "address"
        }
      ],
      "name": "transferOwnership",
      "outputs": [],
      "stateMutability": "nonpayable",
      "type": "function"
    },
    {
      "stateMutability": "payable",
      "type": "receive"
    }
  ],
  "bytecode": "0x61016060405234801561001157600080fd5b50604051614c77380380614c778339810160408190526100309161032f565b3360405180604001604052806007815260200166082e8d0cadcf2f60cb1b815250604051806040016040528060018152602001603160f81b8152506040518060400160405280600e81526020016d417468656e797820457363726f7760901b81525060405180604001604052806004815260200163082a890b60e31b815250600160008190555081600190816100c69190610411565b5060026100d38282610411565b506100e391508390506007610250565b610120526100f2816008610250565b61014052815160208084019190912060e052815190820120610100524660a05261017f60e05161010051604080517f8b73c3c69bb8fe3d512ecc4cf759cc79239f7b179b0ffacaa9a75d522b39400f60208201529081019290925260608201524660808201523060a082015260009060c00160405160208183030381529060405280519060200120905090565b60805250503060c0526001600160a01b0381166101b757604051631e4fbdf760e01b8152600060048201526024015b60405180910390fd5b6101c081610283565b506001600160a01b03831615806101de57506001600160a01b038216155b806101f057506001600160a01b038116155b1561020e5760405163d92e233d60e01b815260040160405180910390fd5b600b80546001600160a01b039485166001600160a01b031991821617909155600c805493851693821693909317909255600d8054919093169116179055610541565b600060208351101561026c57610265836102d5565b905061027d565b816102778482610411565b5060ff90505b92915050565b600980546001600160a01b038381166001600160a01b0319831681179093556040519116919082907f8be0079c531659141344cd1fd0a4f28419497f9722a3daafe3b4186f6b6457e090600090a35050565b600080829050601f81511115610300578260405163305a27a960e01b81526004016101ae91906104cf565b805161030b8261051d565b179392505050565b80516001600160a01b038116811461032a57600080fd5b919050565b60008060006060848603121561034457600080fd5b61034d84610313565b925061035b60208501610313565b915061036960408501610313565b90509250925092565b634e487b7160e01b600052604160045260246000fd5b600181811c9082168061039c57607f821691505b6020821081036103bc57634e487b7160e01b600052602260045260246000fd5b50919050565b601f82111561040c57806000526020600020601f840160051c810160208510156103e95750805b601f840160051c820191505b8181101561040957600081556001016103f5565b50505b505050565b81516001600160401b0381111561042a5761042a610372565b61043e816104388454610388565b846103c2565b6020601f821160018114610472576000831561045a5750848201515b600019600385901b1c1916600184901b178455610409565b600084815260208120601f198516915b828110156104a25787850151825560209485019460019092019101610482565b50848210156104c05786840151600019600387901b60f8161c191681555b50505050600190811b01905550565b602081526000825180602084015260005b818110156104fd57602081860181015160408684010152016104e0565b506000604082850101526040601f19601f83011684010191505092915050565b805160208083015191908110156103bc5760001960209190910360031b1b16919050565b60805160a05160c05160e0516101005161012051610140516146dc61059b60003960006131dc015260006131aa015260006139850152600061395d015260006138b8015260006138e20152600061390c01526146dc6000f3fe6080604052600436106102555760003560e01c806384b0196e11610139578063b88d4fde116100b6578063df4ca4bb1161007a578063df4ca4bb1461077c578063e01824361461079c578063e081dbf9146107bc578063e8ec385a14610803578063e985e9c514610823578063f2fde38b1461084357600080fd5b8063b88d4fde146106b5578063b996ec2a146106d5578063c2010e501461070c578063c87b56dd1461073c578063dbaf09101461075c57600080fd5b8063a22cb465116100fd578063a22cb465146105fa578063a5c1674e1461061a578063a94c487e1461063a578063ab2adc001461065a578063b5b96ae01461067a57600080fd5b806384b0196e1461054157806389cb29dd146105695780638da5cb5b1461057f5780638ed9895c1461059d57806395d89b41146105e557600080fd5b806342842e0e116101d25780636352211e116101965780636352211e1461048c57806370a08231146104ac578063715018a6146104cc57806376e0bd7d146104e15780637ecebe001461050157806384a667391461052e57600080fd5b806342842e0e146103d257806352a9674b146103f257806355acc0b51461042b5780635e77650d1461044b578063600681121461046b57600080fd5b806320913da51161021957806320913da51461033257806321ce33651461035257806323b872dd146103725780633b2206d3146103925780633d86d388146103b257600080fd5b806301ffc9a71461026157806306fdde0314610296578063081812fc146102b8578063095ea7b3146102f057806311c3a0c61461031257600080fd5b3661025c57005b600080fd5b34801561026d57600080fd5b5061028161027c366004613cf3565b610863565b60405190151581526020015b60405180910390f35b3480156102a257600080fd5b506102ab6108b5565b60405161028d9190613d60565b3480156102c457600080fd5b506102d86102d3366004613d73565b610947565b6040516001600160a01b03909116815260200161028d565b3480156102fc57600080fd5b5061031061030b366004613da1565b610970565b005b34801561031e57600080fd5b5061031061032d366004613dcd565b61097f565b34801561033e57600080fd5b5061031061034d366004613dfd565b610dd6565b34801561035e57600080fd5b5061031061036d366004613e1f565b610f53565b34801561037e57600080fd5b5061031061038d366004613e3c565b610fa4565b34801561039e57600080fd5b506103106103ad366004613e7d565b611034565b3480156103be57600080fd5b50600b546102d8906001600160a01b031681565b3480156103de57600080fd5b506103106103ed366004613e3c565b611263565b3480156103fe57600080fd5b506102ab6040518060400160405280600d81526020016c617468656e79782e627261766560981b81525081565b34801561043757600080fd5b50610310610446366004613f55565b611283565b34801561045757600080fd5b50610310610466366004613dfd565b6115d0565b61047e610479366004613fae565b6117f3565b60405190815260200161028d565b34801561049857600080fd5b506102d86104a7366004613d73565b611c1c565b3480156104b857600080fd5b5061047e6104c7366004613e1f565b611c27565b3480156104d857600080fd5b50610310611c6f565b3480156104ed57600080fd5b506103106104fc366004613e1f565b611c83565b34801561050d57600080fd5b5061047e61051c366004613e1f565b60106020526000908152604090205481565b61031061053c366004613d73565b611cd4565b34801561054d57600080fd5b50610556611e2d565b60405161028d979695949392919061406d565b34801561057557600080fd5b5061047e600a5481565b34801561058b57600080fd5b506009546001600160a01b03166102d8565b3480156105a957600080fd5b506105bd6105b8366004613dfd565b611e73565b604080519485526020850193909352901515918301919091521515606082015260800161028d565b3480156105f157600080fd5b506102ab611edb565b34801561060657600080fd5b50610310610615366004614105565b611eea565b34801561062657600080fd5b50610310610635366004613d73565b611ef5565b34801561064657600080fd5b50610310610655366004613e1f565b611fe7565b34801561066657600080fd5b50600c546102d8906001600160a01b031681565b34801561068657600080fd5b50610281610695366004613dcd565b600f60209081526000928352604080842090915290825290205460ff1681565b3480156106c157600080fd5b506103106106d03660046141a1565b612038565b3480156106e157600080fd5b506106f56106f0366004613d73565b612050565b60405161028d9b9a999897969594939291906142a0565b34801561071857600080fd5b5061047e610727366004613d73565b6000908152600e60205260409020600b015490565b34801561074857600080fd5b506102ab610757366004613d73565b61214e565b34801561076857600080fd5b50610310610777366004613dfd565b6121c3565b34801561078857600080fd5b50610310610797366004613dfd565b612449565b3480156107a857600080fd5b506103106107b7366004613d73565b6126cb565b3480156107c857600080fd5b5061047e6107d7366004613dcd565b6000828152600e602090815260408083206001600160a01b038516845260010190915290205492915050565b34801561080f57600080fd5b50600d546102d8906001600160a01b031681565b34801561082f57600080fd5b5061028161083e366004614364565b612b95565b34801561084f57600080fd5b5061031061085e366004613e1f565b612bc3565b60006001600160e01b031982166380ac58cd60e01b148061089457506001600160e01b03198216635b5e139f60e01b145b806108af57506301ffc9a760e01b6001600160e01b03198316145b92915050565b6060600180546108c490614392565b80601f01602080910402602001604051908101604052809291908181526020018280546108f090614392565b801561093d5780601f106109125761010080835404028352916020019161093d565b820191906000526020600020905b81548152906001019060200180831161092057829003601f168201915b5050505050905090565b600061095282612c01565b506000828152600560205260409020546001600160a01b03166108af565b61097b828233612c3a565b5050565b610987612c47565b6000828152600e6020526040812090600a82015460ff1660048111156109af576109af614268565b146109cd5760405163baf3f0f760e01b815260040160405180910390fd5b60028101546001600160a01b031633148015906109f557506009546001600160a01b03163314155b15610a12576040516282b42960e81b815260040160405180910390fd5b600e81015460ff1615610af657600b54604051631f8325df60e11b8152600481018590526000916001600160a01b031690633f064bbe90602401600060405180830381865afa158015610a69573d6000803e3d6000fd5b505050506040513d6000823e601f3d908101601f19168201604052610a9191908101906143cc565b905081600f015481511015610ab95760405163ec82086f60e01b815260040160405180910390fd5b837fa4e019fe928816996687baedc7e7145e5c8ad88f9c0d039365a0f8099769281c8251604051610aec91815260200190565b60405180910390a2505b600d546040516305fc1d8f60e31b8152600481018590526001600160a01b0384811660248301526000921690632fe0ec789060440160e060405180830381865afa158015610b48573d6000803e3d6000fd5b505050506040513d601f19601f82011682018060405250810190610b6c9190614483565b9050806080015160001480610b8357508060c00151155b15610ba15760405163162908e360e11b815260040160405180910390fd5b600482810180546001600160a01b038681166001600160a01b0319909216821790925560608401516008860155600a8501805460ff1916600117905542600d80870191909155546040516358e7684560e11b81529384018890526024840191909152169063b1ced08a90604401600060405180830381600087803b158015610c2857600080fd5b505af1158015610c3c573d6000803e3d6000fd5b5050600c546005850154600886015460405163055bc75d60e21b815260048101929092526276a70060248301526044820152600093506001600160a01b03909116915063156f1d7490606401602060405180830381865afa158015610ca5573d6000803e3d6000fd5b505050506040513d601f19601f82011682018060405250810190610cc9919061450b565b6009840181905590508015801590610ce15750804710155b15610d8157600c5460405163341511eb60e21b8152600481018790526001600160a01b039091169063d05447ac9083906024016000604051808303818588803b158015610d2d57600080fd5b505af1158015610d41573d6000803e3d6000fd5b5050505050847f171e75556a140c160961f11b7aedc335e9fa193ed42b51e89fa42a5744c0a73282604051610d7891815260200190565b60405180910390a25b836001600160a01b0316857fc2528dbc97953e1ab7ad75bd83e91040bb9f591f43af5f835a14f6979945509f8560080154604051610dc191815260200190565b60405180910390a350505061097b6001600055565b6000828152600f60209081526040808320338452909152902054829060ff16610e11576040516282b42960e81b815260040160405180910390fd5b8260016000828152600e60205260409020600a015460ff166004811115610e3a57610e3a614268565b14610e585760405163baf3f0f760e01b815260040160405180910390fd5b6000848152600e60205260409020600b8101548410610e8a5760405163162908e360e11b815260040160405180910390fd5b600081600b018581548110610ea157610ea1614524565b60009182526020909120600490910201600281015490915060ff1615610eda5760405163080fc0bd60e11b815260040160405180910390fd5b6002810154610100900460ff1615610f05576040516331da482760e11b815260040160405180910390fd5b60028101805460ff19166001179055604051338152859087907f9ffbb52f2a1362273cd74689a516ca4f52c4282dc13e2e68b7e0646a9a7af7a39060200160405180910390a3505050505050565b610f5b612c71565b6001600160a01b038116610f825760405163d92e233d60e01b815260040160405180910390fd5b600d80546001600160a01b0319166001600160a01b0392909216919091179055565b6001600160a01b038216610fd357604051633250574960e11b8152600060048201526024015b60405180910390fd5b6000610fe0838333612c9e565b9050836001600160a01b0316816001600160a01b03161461102e576040516364283d7b60e01b81526001600160a01b0380861660048301526024820184905282166044820152606401610fca565b50505050565b8460016000828152600e60205260409020600a015460ff16600481111561105d5761105d614268565b1461107b5760405163baf3f0f760e01b815260040160405180910390fd5b8342111561109c57604051630819bdcd60e01b815260040160405180910390fd5b6000868152600e60205260409020600b81015486106110ce5760405163162908e360e11b815260040160405180910390fd5b600081600b0187815481106110e5576110e5614524565b60009182526020909120600490910201600281015490915060ff161561111e5760405163080fc0bd60e11b815260040160405180910390fd5b6002810154610100900460ff1615611149576040516331da482760e11b815260040160405180910390fd5b60006111588989898989612d1d565b60008a8152600f602090815260408083206001600160a01b038516845290915290205490915060ff1661119d576040516282b42960e81b815260040160405180910390fd5b6001600160a01b03811660009081526010602052604081208054918291906111c483614550565b909155505060028301805460ff19166001179055604051606083901b6bffffffffffffffffffffffff191660208201526034810182905260540160408051601f1981840301815290829052805160209182012060038601556001600160a01b03841682528a918c917f9ffbb52f2a1362273cd74689a516ca4f52c4282dc13e2e68b7e0646a9a7af7a3910160405180910390a350505050505050505050565b61127e83838360405180602001604052806000815250612038565b505050565b6000838152600e602052604090206003015483906001600160a01b031633146112be576040516282b42960e81b815260040160405180910390fd5b6112c6612c47565b6000848152600e602052604090206004600a82015460ff1660048111156112ef576112ef614268565b1461130d5760405163baf3f0f760e01b815260040160405180910390fd5b60005b8381101561148f57600085858381811061132c5761132c614524565b90506020020135905082600b0180549050811061135c5760405163162908e360e11b815260040160405180910390fd5b600083600b01828154811061137357611373614524565b906000526020600020906004020190508060020160019054906101000a900460ff16156113a1575050611487565b60028101805461ffff191661010117905580546006850180546000906113c8908490614569565b9091555050600284015481546040516000926001600160a01b031691908381818185875af1925050503d806000811461141d576040519150601f19603f3d011682016040523d82523d6000602084013e611422565b606091505b5050905080611444576040516312171d8360e31b815260040160405180910390fd5b82897fd33fcd27cbfb73a2d9058c968b560ccb306500bf536133802048489ecc7355e9846000015460405161147b91815260200190565b60405180910390a35050505b600101611310565b50600a8101805460ff1916600117905560078101541561152557600381015460078201546040516000926001600160a01b031691908381818185875af1925050503d80600081146114fc576040519150601f19603f3d011682016040523d82523d6000602084013e611501565b606091505b5050905080611523576040516312171d8360e31b815260040160405180910390fd5b505b847ffc7e89cd665487a127729bce1ffe2d30367c1ec5a4a78639bddfbee1a645696d858560405161155792919061457c565b60405180910390a2600781015460005b600b8301548110156115af5782600b01818154811061158857611588614524565b906000526020600020906004020160000154826115a59190614569565b9150600101611567565b50808260060154036115c4576115c486612e10565b505061102e6001600055565b6000828152600f60209081526040808320338452909152902054829060ff1661160b576040516282b42960e81b815260040160405180910390fd5b8260016000828152600e60205260409020600a015460ff16600481111561163457611634614268565b146116525760405163baf3f0f760e01b815260040160405180910390fd5b61165a612c47565b6000848152600e60205260409020600b810154841061168c5760405163162908e360e11b815260040160405180910390fd5b600081600b0185815481106116a3576116a3614524565b906000526020600020906004020190508060020160019054906101000a900460ff16156116e3576040516331da482760e11b815260040160405180910390fd5b600281015460ff16156117095760405163080fc0bd60e11b815260040160405180910390fd5b806001015460000361172e57604051631da7447960e21b815260040160405180910390fd5b80600101544211611752576040516302eb354360e41b815260040160405180910390fd5b60028101805461ff00191661010017905580546000906117739088906130e1565b905080156117e657604051600090339083908381818185875af1925050503d80600081146117bd576040519150601f19603f3d011682016040523d82523d6000602084013e6117c2565b606091505b50509050806117e4576040516312171d8360e31b815260040160405180910390fd5b505b50505061102e6001600055565b60006001600160a01b038a1661181c5760405163d92e233d60e01b815260040160405180910390fd5b600086900361183e57604051632432fdaf60e11b815260040160405180910390fd5b85841461185e5760405163162908e360e11b815260040160405180910390fd5b6000805b878110156119305788888281811061187c5761187c614524565b905060200201356000036118a35760405163162908e360e11b815260040160405180910390fd5b8686828181106118b5576118b5614524565b905060200201356000141580156118e45750428787838181106118da576118da614524565b9050602002013511155b1561190257604051631da7447960e21b815260040160405180910390fd5b88888281811061191457611914614524565b90506020020135826119269190614569565b9150600101611862565b50883410156119525760405163162908e360e11b815260040160405180910390fd5b600a80546000918261196383614550565b9190505590506000600e600083815260200190815260200160002090508c8160020160006101000a8154816001600160a01b0302191690836001600160a01b031602179055508b8160030160006101000a8154816001600160a01b0302191690836001600160a01b031602179055508a816007018190555034816005018190555060008160060181905550856119fa5760016119fd565b60005b600a8201805460ff19166001836004811115611a1b57611a1b614268565b021790555042600c820155600e8101805487151560ff1991821617909155600f8083018790558254600181810185556000858152602080822090930180546001600160a01b031916339081179091558082528287018452604080832034905588835294845284822090825290925291812080549093169091179091555b89811015611b675781600b016040518060a001604052808d8d85818110611ac157611ac1614524565b9050602002013581526020018b8b85818110611adf57611adf614524565b602090810292909201358352506000828201819052604080840182905260609384018290528554600181810188559683529183902085516004909302019182559184015181860155908301516002820180549385015115156101000261ff00199215159290921661ffff19909416939093171790915560809091015160039091015501611a98565b50611b728d83613137565b8b6001600160a01b03168d6001600160a01b0316837f6120dc6f0136905285f3cc45c93afbb21fbe645d5887a3f554b7c8645ca46637868f8b604051611bcd9392919092835260208301919091521515604082015260600190565b60405180910390a4604051348152339083907f75aecd8d57cb4b1b263271bddb4961b993924dd466e6003c254832572d8a57e19060200160405180910390a3509b9a5050505050505050505050565b60006108af82612c01565b60006001600160a01b038216611c53576040516322718ad960e21b815260006004820152602401610fca565b506001600160a01b031660009081526004602052604090205490565b611c77612c71565b611c816000613151565b565b611c8b612c71565b6001600160a01b038116611cb25760405163d92e233d60e01b815260040160405180910390fd5b600b80546001600160a01b0319166001600160a01b0392909216919091179055565b8060016000828152600e60205260409020600a015460ff166004811115611cfd57611cfd614268565b14611d1b5760405163baf3f0f760e01b815260040160405180910390fd5b34600003611d3c5760405163162908e360e11b815260040160405180910390fd5b6000828152600e60209081526040808320600f83528184203385529092529091205460ff16611daf578054600181810183556000838152602080822090930180546001600160a01b03191633908117909155868252600f84526040808320918352935291909120805460ff191690911790555b33600090815260018201602052604081208054349290611dd0908490614569565b9250508190555034816005016000828254611deb9190614569565b9091555050604051348152339084907f75aecd8d57cb4b1b263271bddb4961b993924dd466e6003c254832572d8a57e1906020015b60405180910390a3505050565b600060608060008060006060611e416131a3565b611e496131d5565b60408051600080825260208201909252600f60f81b9b939a50919850469750309650945092509050565b6000806000806000600e6000888152602001908152602001600020600b018681548110611ea257611ea2614524565b6000918252602090912060049091020180546001820154600290920154909991985060ff80821698506101009091041695509350505050565b6060600280546108c490614392565b61097b338383613202565b8060016000828152600e60205260409020600a015460ff166004811115611f1e57611f1e614268565b14611f3c5760405163baf3f0f760e01b815260040160405180910390fd5b6000828152600f6020908152604080832033845290915290205460ff16158015611f8057506000828152600e60205260409020600201546001600160a01b03163314155b15611f9d576040516282b42960e81b815260040160405180910390fd5b6000828152600e6020526040808220600a01805460ff1916600417905551339184917f84a477df8a28a4276ca6dee4458a06c3015f30c477d9c949ede4e13ff8a552b49190a35050565b611fef612c71565b6001600160a01b0381166120165760405163d92e233d60e01b815260040160405180910390fd5b600c80546001600160a01b0319166001600160a01b0392909216919091179055565b612043848484610fa4565b61102e3385858585613299565b6000818152600e602081815260408084206002810154600382015460048301546005840154600685015460078601546008870154600a880154600c8901549b89015489548b51818e0281018e01909c52808c5260609e9d8e9d8e9d8e9d8e9d8e9d8e9d8e9d8e9d8e9d959c8d9c6001600160a01b039687169c9587169b949096169992989197909560ff90811695939493169290918d919083018282801561212157602002820191906000526020600020905b81546001600160a01b03168152600190910190602001808311612103575b50505050509a509b509b509b509b509b509b509b509b509b509b509b505091939597999b90929496989a50565b606061215982612c01565b50600061217160408051602081019091526000815290565b9050600081511161219157604051806020016040528060008152506121bc565b8061219b846133c4565b6040516020016121ac9291906145b5565b6040516020818303038152906040525b9392505050565b6121cb612c47565b8160016000828152600e60205260409020600a015460ff1660048111156121f4576121f4614268565b146122125760405163baf3f0f760e01b815260040160405180910390fd5b6000838152600e60205260409020600b81015483106122445760405163162908e360e11b815260040160405180910390fd5b600081600b01848154811061225b5761225b614524565b60009182526020909120600490910201600281015490915060ff166122935760405163c19f17a960e01b815260040160405180910390fd5b6002810154610100900460ff16156122be576040516331da482760e11b815260040160405180910390fd5b805460068301546122cf9190614569565b826005015410156122f35760405163356680b760e01b815260040160405180910390fd5b60028101805461ff001916610100179055805460068301805460009061231a908490614569565b9091555050600282015481546040516000926001600160a01b031691908381818185875af1925050503d806000811461236f576040519150601f19603f3d011682016040523d82523d6000602084013e612374565b606091505b5050905080612396576040516312171d8360e31b815260040160405180910390fd5b84867fd33fcd27cbfb73a2d9058c968b560ccb306500bf536133802048489ecc7355e984600001546040516123cd91815260200190565b60405180910390a3600783015460005b600b8501548110156124255784600b0181815481106123fe576123fe614524565b9060005260206000209060040201600001548261241b9190614569565b91506001016123dd565b508084600601540361243a5761243a87612e10565b505050505061097b6001600055565b6000828152600e602052604090206002015482906001600160a01b03163314612484576040516282b42960e81b815260040160405180910390fd5b8260016000828152600e60205260409020600a015460ff1660048111156124ad576124ad614268565b146124cb5760405163baf3f0f760e01b815260040160405180910390fd5b6124d3612c47565b6000848152600e60205260409020600b81015484106125055760405163162908e360e11b815260040160405180910390fd5b600081600b01858154811061251c5761251c614524565b906000526020600020906004020190508060020160019054906101000a900460ff161561255c576040516331da482760e11b815260040160405180910390fd5b806001015460000361258157604051631da7447960e21b815260040160405180910390fd5b806001015442116125a5576040516302eb354360e41b815260040160405180910390fd5b60028101805461ffff191661010117905580546006830180546000906125cc908490614569565b9091555050600282015481546040516000926001600160a01b031691908381818185875af1925050503d8060008114612621576040519150601f19603f3d011682016040523d82523d6000602084013e612626565b606091505b5050905080612648576040516312171d8360e31b815260040160405180910390fd5b604051308152869088907f9ffbb52f2a1362273cd74689a516ca4f52c4282dc13e2e68b7e0646a9a7af7a39060200160405180910390a385877fd33fcd27cbfb73a2d9058c968b560ccb306500bf536133802048489ecc7355e984600001546040516126b691815260200190565b60405180910390a350505061102e6001600055565b6000818152600f60209081526040808320338452909152902054819060ff16612706576040516282b42960e81b815260040160405180910390fd5b8160016000828152600e60205260409020600a015460ff16600481111561272f5761272f614268565b1461274d5760405163baf3f0f760e01b815260040160405180910390fd5b612755612c47565b6000838152600e60205260408120600781015490915b600b8301548110156127b35782600b01818154811061278c5761278c614524565b906000526020600020906004020160000154826127a99190614569565b915060010161276b565b506000826006015483600501546127ca91906145e4565b9050806000036127ed5760405163356680b760e01b815260040160405180910390fd5b600a8301805460ff1916600217905560005b600b84015481101561288b5783600b01818154811061282057612820614524565b906000526020600020906004020160020160019054906101000a900460ff1661288357600184600b01828154811061285a5761285a614524565b906000526020600020906004020160020160016101000a81548160ff0219169083151502179055505b6001016127ff565b50600e83015460ff1615612a5d57600b54604051631f8325df60e11b8152600481018890526000916001600160a01b031690633f064bbe90602401600060405180830381865afa1580156128e3573d6000803e3d6000fd5b505050506040513d6000823e601f3d908101601f1916820160405261290b91908101906143cc565b905060005b8151811015612a5a57600b5482516001600160a01b03909116906359e19a739084908490811061294257612942614524565b60209081029190910101516040516001600160e01b031960e084901b1681526001600160a01b039091166004820152602481018b905260006044820152606401600060405180830381600087803b15801561299c57600080fd5b505af11580156129b0573d6000803e3d6000fd5b5050600b5484516001600160a01b039091169250636a08b51191508490849081106129dd576129dd614524565b602002602001015160326129f0906145f7565b6040516001600160e01b031960e085901b1681526001600160a01b0390921660048301526024820152604401600060405180830381600087803b158015612a3657600080fd5b505af1158015612a4a573d6000803e3d6000fd5b5050600190920191506129109050565b50505b60005b8354811015612b4d576000846000018281548110612a8057612a80614524565b600091825260208083209091015460058801546001600160a01b0390911680845260018901909252604083205491935090612abb9086614613565b612ac5919061462a565b90508015612b43576000826001600160a01b03168260405160006040518083038185875af1925050503d8060008114612b1a576040519150601f19603f3d011682016040523d82523d6000602084013e612b1f565b606091505b5050905080612b41576040516312171d8360e31b815260040160405180910390fd5b505b5050600101612a60565b50857fdc48a08bb890bd1b8e4261212a97a5e711e80830d96ba56b362f3ac5f427d51e82604051612b8091815260200190565b60405180910390a250505061127e6001600055565b6001600160a01b03918216600090815260066020908152604080832093909416825291909152205460ff1690565b612bcb612c71565b6001600160a01b038116612bf557604051631e4fbdf760e01b815260006004820152602401610fca565b612bfe81613151565b50565b6000818152600360205260408120546001600160a01b0316806108af57604051637e27328960e01b815260048101849052602401610fca565b61127e8383836001613456565b600260005403612c6a57604051633ee5aeb560e01b815260040160405180910390fd5b6002600055565b6009546001600160a01b03163314611c815760405163118cdaa760e01b8152336004820152602401610fca565b6000828152600360205260408120546001600160a01b031681612cc286868661355c565b90506001600160a01b03821615801590612ce457506001600160a01b03861615155b15612d14576000858152600e6020526040902060020180546001600160a01b0319166001600160a01b0388161790555b95945050505050565b3360009081526010602090815260408083205481517f80024b95af979f7623dfe7c1580d0cfd9373eb07043c3b4f1cf49e92ed8bc949818501528083018a905260608101899052608081019190915260a08082018890528251808303909101815260c0909101909152805191012081612d9582613655565b90506000612ddb86868080601f01602080910402602001604051908101604052809392919081815260200183838082843760009201919091525086939250506136829050565b90506001600160a01b038116612e0457604051638baa579f60e01b815260040160405180910390fd5b98975050505050505050565b6000818152600e60205260409020600a8101805460ff19166003179055600781015415801590612e4c575060038101546001600160a01b031615155b15612ecd57600381015460078201546040516000926001600160a01b031691908381818185875af1925050503d8060008114612ea4576040519150601f19603f3d011682016040523d82523d6000602084013e612ea9565b606091505b5050905080612ecb576040516312171d8360e31b815260040160405180910390fd5b505b60048101546001600160a01b031615801590612eed5750600e81015460ff165b156130b257600b54604051631f8325df60e11b8152600481018490526000916001600160a01b031690633f064bbe90602401600060405180830381865afa158015612f3c573d6000803e3d6000fd5b505050506040513d6000823e601f3d908101601f19168201604052612f6491908101906143cc565b905060005b81518110156130af57600b5482516001600160a01b039091169063ce71810790849084908110612f9b57612f9b614524565b60209081029190910101516040516001600160e01b031960e084901b1681526001600160a01b0390911660048201526024810187905260006044820152606401600060405180830381600087803b158015612ff557600080fd5b505af1158015613009573d6000803e3d6000fd5b5050600b5484516001600160a01b039091169250636a08b511915084908490811061303657613036614524565b6020026020010151600a6040518363ffffffff1660e01b81526004016130719291906001600160a01b03929092168252602082015260400190565b600060405180830381600087803b15801561308b57600080fd5b505af115801561309f573d6000803e3d6000fd5b505060019092019150612f699050565b50505b60405182907f9285bd636dda01bef18996aa38303bb742f6c67a6941646dddb17630cb492c2e90600090a25050565b6000828152600e602090815260408083203384526001810190925282205480158061310e57506005820154155b1561311e576000925050506108af565b600582015461312d8286614613565b612d14919061462a565b61097b8282604051806020016040528060008152506136ac565b600980546001600160a01b038381166001600160a01b0319831681179093556040519116919082907f8be0079c531659141344cd1fd0a4f28419497f9722a3daafe3b4186f6b6457e090600090a35050565b60606131d07f000000000000000000000000000000000000000000000000000000000000000060076136c4565b905090565b60606131d07f000000000000000000000000000000000000000000000000000000000000000060086136c4565b6001600160a01b03821661323457604051630b61174360e31b81526001600160a01b0383166004820152602401610fca565b6001600160a01b03838116600081815260066020908152604080832094871680845294825291829020805460ff191686151590811790915591519182527f17307eab39ab6107e8899845ad3d59bd9653f200f220920489ca2b5937696c319101611e20565b6001600160a01b0383163b156133bd57604051630a85bd0160e11b81526001600160a01b0384169063150b7a02906132db90889088908790879060040161464c565b6020604051808303816000875af1925050508015613316575060408051601f3d908101601f1916820190925261331391810190614689565b60015b61337f573d808015613344576040519150601f19603f3d011682016040523d82523d6000602084013e613349565b606091505b50805160000361337757604051633250574960e11b81526001600160a01b0385166004820152602401610fca565b805160208201fd5b6001600160e01b03198116630a85bd0160e11b146133bb57604051633250574960e11b81526001600160a01b0385166004820152602401610fca565b505b5050505050565b606060006133d18361376f565b60010190506000816001600160401b038111156133f0576133f0614133565b6040519080825280601f01601f19166020018201604052801561341a576020820181803683370190505b5090508181016020015b600019016f181899199a1a9b1b9c1cb0b131b232b360811b600a86061a8153600a850494508461342457509392505050565b808061346a57506001600160a01b03821615155b1561352c57600061347a84612c01565b90506001600160a01b038316158015906134a65750826001600160a01b0316816001600160a01b031614155b80156134b957506134b78184612b95565b155b156134e25760405163a9fbf51f60e01b81526001600160a01b0384166004820152602401610fca565b811561352a5783856001600160a01b0316826001600160a01b03167f8c5be1e5ebec7d5bd14f71427d1e84f3dd0314c0f7b2291e5b200ac8c7c3b92560405160405180910390a45b505b5050600090815260056020526040902080546001600160a01b0319166001600160a01b0392909216919091179055565b6000828152600360205260408120546001600160a01b039081169083161561358957613589818486613847565b6001600160a01b038116156135c7576135a6600085600080613456565b6001600160a01b038116600090815260046020526040902080546000190190555b6001600160a01b038516156135f6576001600160a01b0385166000908152600460205260409020805460010190555b60008481526003602052604080822080546001600160a01b0319166001600160a01b0389811691821790925591518793918516917fddf252ad1be2c89b69c2b068fc378daa952ba7f163c4a11628f55a4df523b3ef91a4949350505050565b60006108af6136626138ab565b8360405161190160f01b8152600281019290925260228201526042902090565b60008060008061369286866139d6565b9250925092506136a28282613a23565b5090949350505050565b6136b68383613adc565b61127e336000858585613299565b606060ff83146136de576136d783613b41565b90506108af565b8180546136ea90614392565b80601f016020809104026020016040519081016040528092919081815260200182805461371690614392565b80156137635780601f1061373857610100808354040283529160200191613763565b820191906000526020600020905b81548152906001019060200180831161374657829003601f168201915b505050505090506108af565b60008072184f03e93ff9f4daa797ed6e38ed64bf6a1f0160401b83106137ae5772184f03e93ff9f4daa797ed6e38ed64bf6a1f0160401b830492506040015b6d04ee2d6d415b85acef810000000083106137da576d04ee2d6d415b85acef8100000000830492506020015b662386f26fc1000083106137f857662386f26fc10000830492506010015b6305f5e1008310613810576305f5e100830492506008015b612710831061382457612710830492506004015b60648310613836576064830492506002015b600a83106108af5760010192915050565b613852838383613b80565b61127e576001600160a01b03831661388057604051637e27328960e01b815260048101829052602401610fca565b60405163177e802f60e01b81526001600160a01b038316600482015260248101829052604401610fca565b6000306001600160a01b037f00000000000000000000000000000000000000000000000000000000000000001614801561390457507f000000000000000000000000000000000000000000000000000000000000000046145b1561392e57507f000000000000000000000000000000000000000000000000000000000000000090565b6131d0604080517f8b73c3c69bb8fe3d512ecc4cf759cc79239f7b179b0ffacaa9a75d522b39400f60208201527f0000000000000000000000000000000000000000000000000000000000000000918101919091527f000000000000000000000000000000000000000000000000000000000000000060608201524660808201523060a082015260009060c00160405160208183030381529060405280519060200120905090565b60008060008351604103613a105760208401516040850151606086015160001a613a0288828585613be6565b955095509550505050613a1c565b50508151600091506002905b9250925092565b6000826003811115613a3757613a37614268565b03613a40575050565b6001826003811115613a5457613a54614268565b03613a725760405163f645eedf60e01b815260040160405180910390fd5b6002826003811115613a8657613a86614268565b03613aa75760405163fce698f760e01b815260048101829052602401610fca565b6003826003811115613abb57613abb614268565b0361097b576040516335e2f38360e21b815260048101829052602401610fca565b6001600160a01b038216613b0657604051633250574960e11b815260006004820152602401610fca565b6000613b1483836000612c9e565b90506001600160a01b0381161561127e576040516339e3563760e11b815260006004820152602401610fca565b60606000613b4e83613cb5565b604080516020808252818301909252919250600091906020820181803683375050509182525060208101929092525090565b60006001600160a01b03831615801590613bde5750826001600160a01b0316846001600160a01b03161480613bba5750613bba8484612b95565b80613bde57506000828152600560205260409020546001600160a01b038481169116145b949350505050565b600080807f7fffffffffffffffffffffffffffffff5d576e7357a4501ddfe92f46681b20a0841115613c215750600091506003905082613cab565b604080516000808252602082018084528a905260ff891692820192909252606081018790526080810186905260019060a0016020604051602081039080840390855afa158015613c75573d6000803e3d6000fd5b5050604051601f1901519150506001600160a01b038116613ca157506000925060019150829050613cab565b9250600091508190505b9450945094915050565b600060ff8216601f8111156108af57604051632cd44ac360e21b815260040160405180910390fd5b6001600160e01b031981168114612bfe57600080fd5b600060208284031215613d0557600080fd5b81356121bc81613cdd565b60005b83811015613d2b578181015183820152602001613d13565b50506000910152565b60008151808452613d4c816020860160208601613d10565b601f01601f19169290920160200192915050565b6020815260006121bc6020830184613d34565b600060208284031215613d8557600080fd5b5035919050565b6001600160a01b0381168114612bfe57600080fd5b60008060408385031215613db457600080fd5b8235613dbf81613d8c565b946020939093013593505050565b60008060408385031215613de057600080fd5b823591506020830135613df281613d8c565b809150509250929050565b60008060408385031215613e1057600080fd5b50508035926020909101359150565b600060208284031215613e3157600080fd5b81356121bc81613d8c565b600080600060608486031215613e5157600080fd5b8335613e5c81613d8c565b92506020840135613e6c81613d8c565b929592945050506040919091013590565b600080600080600060808688031215613e9557600080fd5b85359450602086013593506040860135925060608601356001600160401b03811115613ec057600080fd5b8601601f81018813613ed157600080fd5b80356001600160401b03811115613ee757600080fd5b886020828401011115613ef957600080fd5b959894975092955050506020019190565b60008083601f840112613f1c57600080fd5b5081356001600160401b03811115613f3357600080fd5b6020830191508360208260051b8501011115613f4e57600080fd5b9250929050565b600080600060408486031215613f6a57600080fd5b8335925060208401356001600160401b03811115613f8757600080fd5b613f9386828701613f0a565b9497909650939450505050565b8015158114612bfe57600080fd5b600080600080600080600080600060e08a8c031215613fcc57600080fd5b8935613fd781613d8c565b985060208a0135613fe781613d8c565b975060408a0135965060608a01356001600160401b0381111561400957600080fd5b6140158c828d01613f0a565b90975095505060808a01356001600160401b0381111561403457600080fd5b6140408c828d01613f0a565b90955093505060a08a013561405481613fa0565b989b979a50959894979396929550909360c00135919050565b60ff60f81b8816815260e06020820152600061408c60e0830189613d34565b828103604084015261409e8189613d34565b606084018890526001600160a01b038716608085015260a0840186905283810360c08501528451808252602080870193509091019060005b818110156140f45783518352602093840193909201916001016140d6565b50909b9a5050505050505050505050565b6000806040838503121561411857600080fd5b823561412381613d8c565b91506020830135613df281613fa0565b634e487b7160e01b600052604160045260246000fd5b60405160e081016001600160401b038111828210171561416b5761416b614133565b60405290565b604051601f8201601f191681016001600160401b038111828210171561419957614199614133565b604052919050565b600080600080608085870312156141b757600080fd5b84356141c281613d8c565b935060208501356141d281613d8c565b92506040850135915060608501356001600160401b038111156141f457600080fd5b8501601f8101871361420557600080fd5b80356001600160401b0381111561421e5761421e614133565b614231601f8201601f1916602001614171565b81815288602083850101111561424657600080fd5b8160208401602083013760006020838301015280935050505092959194509250565b634e487b7160e01b600052602160045260246000fd5b6005811061429c57634e487b7160e01b600052602160045260246000fd5b9052565b6101608152600061016082018d518082526101808401915060208f0160005b828110156142e65781516001600160a01b03168452602093840193909101906001016142bf565b5050506001600160a01b038d16602084015290506001600160a01b038b1660408301526001600160a01b038a1660608301528860808301528760a08301528660c08301528560e083015261433e61010083018661427e565b8361012083015261435461014083018415159052565b9c9b505050505050505050505050565b6000806040838503121561437757600080fd5b823561438281613d8c565b91506020830135613df281613d8c565b600181811c908216806143a657607f821691505b6020821081036143c657634e487b7160e01b600052602260045260246000fd5b50919050565b6000602082840312156143de57600080fd5b81516001600160401b038111156143f457600080fd5b8201601f8101841361440557600080fd5b80516001600160401b0381111561441e5761441e614133565b8060051b61442e60208201614171565b9182526020818401810192908101908784111561444a57600080fd5b6020850194505b83851015614478578451925061446683613d8c565b82825260209485019490910190614451565b979650505050505050565b600060e082840312801561449657600080fd5b5060006144a1614149565b8351815260208401516144b381613d8c565b602082015260408481015190820152606080850151908201526080808501519082015260a084015191506144e682613fa0565b8160a082015260c084015191506144fc82613fa0565b60c08101919091529392505050565b60006020828403121561451d57600080fd5b5051919050565b634e487b7160e01b600052603260045260246000fd5b634e487b7160e01b600052601160045260246000fd5b6000600182016145625761456261453a565b5060010190565b808201808211156108af576108af61453a565b6020808252810182905260006001600160fb1b0383111561459c57600080fd5b8260051b80856040850137919091016040019392505050565b600083516145c7818460208801613d10565b8351908301906145db818360208801613d10565b01949350505050565b818103818111156108af576108af61453a565b6000600160ff1b820161460c5761460c61453a565b5060000390565b80820281158282048414176108af576108af61453a565b60008261464757634e487b7160e01b600052601260045260246000fd5b500490565b6001600160a01b038581168252841660208201526040810183905260806060820181905260009061467f90830184613d34565b9695505050505050565b60006020828403121561469b57600080fd5b81516121bc81613cdd56fea2646970667358221220c3f4efce8226f7fcf407bc0e6d93c83f103984dacadc8245adbd9b061dc2d12164736f6c634300081e0033",
  "linkReferences": {},
  "deployedLinkReferences": {}
}