{
  "_format": "hh-sol-artifact-1",
  "contractName": "Athenyx",
  "sourceName": "contracts/athenyx.sol",
  "abi": [
    {
      "inputs": [],
      "stateMutability": "nonpayable",
      "type": "constructor"
    },
    {
      "inputs": [],
      "name": "AlreadyApproved",
      "type": "error"
    },
    {
      "inputs": [],
      "name": "AlreadyReleased",
      "type": "error"
    },
    {
      "inputs": [],
      "name": "DeadlineNotPassed",
      "type": "error"
    },
    {
      "inputs": [],
      "name": "ECDSAInvalidSignature",
      "type": "error"
    },
    {
      "inputs": [
        {
          "internalType": "uint256",
          "name": "length",
          "type": "uint256"
        }
      ],
      "name": "ECDSAInvalidSignatureLength",
      "type": "error"
    },
    {
      "inputs": [
        {
          "internalType": "bytes32",
          "name": "s",
          "type": "bytes32"
        }
      ],
      "name": "ECDSAInvalidSignatureS",
      "type": "error"
    },
    {
      "inputs": [
        {
          "internalType": "address",
          "name": "sender",
          "type": "address"
        },
        {
          "internalType": "uint256",
          "name": "tokenId",
          "type": "uint256"
        },
        {
          "internalType": "address",
          "name": "owner",
          "type": "address"
        }
      ],
      "name": "ERC721IncorrectOwner",
      "type": "error"
    },
    {
      "inputs": [
        {
          "internalType": "address",
          "name": "operator",
          "type": "address"
        },
        {
          "internalType": "uint256",
          "name": "tokenId",
          "type": "uint256"
        }
      ],
      "name": "ERC721InsufficientApproval",
      "type": "error"
    },
    {
      "inputs": [
        {
          "internalType": "address",
          "name": "approver",
          "type": "address"
        }
      ],
      "name": "ERC721InvalidApprover",
      "type": "error"
    },
    {
      "inputs": [
        {
          "internalType": "address",
          "name": "operator",
          "type": "address"
        }
      ],
      "name": "ERC721InvalidOperator",
      "type": "error"
    },
    {
      "inputs": [
        {
          "internalType": "address",
          "name": "owner",
          "type": "address"
        }
      ],
      "name": "ERC721InvalidOwner",
      "type": "error"
    },
    {
      "inputs": [
        {
          "internalType": "address",
          "name": "receiver",
          "type": "address"
        }
      ],
      "name": "ERC721InvalidReceiver",
      "type": "error"
    },
    {
      "inputs": [
        {
          "internalType": "address",
          "name": "sender",
          "type": "address"
        }
      ],
      "name": "ERC721InvalidSender",
      "type": "error"
    },
    {
      "inputs": [
        {
          "internalType": "uint256",
          "name": "tokenId",
          "type": "uint256"
        }
      ],
      "name": "ERC721NonexistentToken",
      "type": "error"
    },
    {
      "inputs": [],
      "name": "EmptyMilestones",
      "type": "error"
    },
    {
      "inputs": [],
      "name": "InsufficientFunds",
      "type": "error"
    },
    {
      "inputs": [],
      "name": "InvalidAmount",
      "type": "error"
    },
    {
      "inputs": [],
      "name": "InvalidDeadline",
      "type": "error"
    },
    {
      "inputs": [],
      "name": "InvalidShortString",
      "type": "error"
    },
    {
      "inputs": [],
      "name": "InvalidSignature",
      "type": "error"
    },
    {
      "inputs": [],
      "name": "InvalidState",
      "type": "error"
    },
    {
      "inputs": [],
      "name": "NotApproved",
      "type": "error"
    },
    {
      "inputs": [],
      "name": "ReentrancyGuardReentrantCall",
      "type": "error"
    },
    {
      "inputs": [],
      "name": "SignatureExpired",
      "type": "error"
    },
    {
      "inputs": [
        {
          "internalType": "string",
          "name": "str",
          "type": "string"
        }
      ],
      "name": "StringTooLong",
      "type": "error"
    },
    {
      "inputs": [],
      "name": "TransferFailed",
      "type": "error"
    },
    {
      "inputs": [],
      "name": "Unauthorized",
      "type": "error"
    },
    {
      "inputs": [],
      "name": "ZeroAddress",
      "type": "error"
    },
    {
      "anonymous": false,
      "inputs": [
        {
          "indexed": true,
          "internalType": "address",
          "name": "owner",
          "type": "address"
        },
        {
          "indexed": true,
          "internalType": "address",
          "name": "approved",
          "type": "address"
        },
        {
          "indexed": true,
          "internalType": "uint256",
          "name": "tokenId",
          "type": "uint256"
        }
      ],
      "name": "Approval",
      "type": "event"
    },
    {
      "anonymous": false,
      "inputs": [
        {
          "indexed": true,
          "internalType": "address",
          "name": "owner",
          "type": "address"
        },
        {
          "indexed": true,
          "internalType": "address",
          "name": "operator",
          "type": "address"
        },
        {
          "indexed": false,
          "internalType": "bool",
          "name": "approved",
          "type": "bool"
        }
      ],
      "name": "ApprovalForAll",
      "type": "event"
    },
    {
      "anonymous": false,
      "inputs": [
        {
          "indexed": true,
          "internalType": "uint256",
          "name": "escrowId",
          "type": "uint256"
        },
        {
          "indexed": true,
          "internalType": "address",
          "name": "payer",
          "type": "address"
        },
        {
          "indexed": false,
          "internalType": "uint256",
          "name": "amount",
          "type": "uint256"
        }
      ],
      "name": "ContributionAdded",
      "type": "event"
    },
    {
      "anonymous": false,
      "inputs": [
        {
          "indexed": true,
          "internalType": "uint256",
          "name": "escrowId",
          "type": "uint256"
        },
        {
          "indexed": true,
          "internalType": "address",
          "name": "initiator",
          "type": "address"
        }
      ],
      "name": "DisputeRaised",
      "type": "event"
    },
    {
      "anonymous": false,
      "inputs": [
        {
          "indexed": true,
          "internalType": "uint256",
          "name": "escrowId",
          "type": "uint256"
        },
        {
          "indexed": false,
          "internalType": "uint256[]",
          "name": "releasedMilestones",
          "type": "uint256[]"
        }
      ],
      "name": "DisputeResolved",
      "type": "event"
    },
    {
      "anonymous": false,
      "inputs": [],
      "name": "EIP712DomainChanged",
      "type": "event"
    },
    {
      "anonymous": false,
      "inputs": [
        {
          "indexed": true,
          "internalType": "uint256",
          "name": "escrowId",
          "type": "uint256"
        },
        {
          "indexed": false,
          "internalType": "uint256",
          "name": "refundAmount",
          "type": "uint256"
        }
      ],
      "name": "EscrowCancelled",
      "type": "event"
    },
    {
      "anonymous": false,
      "inputs": [
        {
          "indexed": true,
          "internalType": "uint256",
          "name": "escrowId",
          "type": "uint256"
        }
      ],
      "name": "EscrowCompleted",
      "type": "event"
    },
    {
      "anonymous": false,
      "inputs": [
        {
          "indexed": true,
          "internalType": "uint256",
          "name": "escrowId",
          "type": "uint256"
        },
        {
          "indexed": true,
          "internalType": "address",
          "name": "seller",
          "type": "address"
        },
        {
          "indexed": true,
          "internalType": "address",
          "name": "arbiter",
          "type": "address"
        },
        {
          "indexed": false,
          "internalType": "uint256",
          "name": "totalAmount",
          "type": "uint256"
        },
        {
          "indexed": false,
          "internalType": "uint256",
          "name": "arbiterFee",
          "type": "uint256"
        }
      ],
      "name": "EscrowCreated",
      "type": "event"
    },
    {
      "anonymous": false,
      "inputs": [
        {
          "indexed": true,
          "internalType": "uint256",
          "name": "escrowId",
          "type": "uint256"
        },
        {
          "indexed": true,
          "internalType": "uint256",
          "name": "milestoneIndex",
          "type": "uint256"
        },
        {
          "indexed": false,
          "internalType": "address",
          "name": "approver",
          "type": "address"
        }
      ],
      "name": "MilestoneApproved",
      "type": "event"
    },
    {
      "anonymous": false,
      "inputs": [
        {
          "indexed": true,
          "internalType": "uint256",
          "name": "escrowId",
          "type": "uint256"
        },
        {
          "indexed": true,
          "internalType": "uint256",
          "name": "milestoneIndex",
          "type": "uint256"
        },
        {
          "indexed": false,
          "internalType": "uint256",
          "name": "amount",
          "type": "uint256"
        }
      ],
      "name": "MilestoneReleased",
      "type": "event"
    },
    {
      "anonymous": false,
      "inputs": [
        {
          "indexed": true,
          "internalType": "address",
          "name": "from",
          "type": "address"
        },
        {
          "indexed": true,
          "internalType": "address",
          "name": "to",
          "type": "address"
        },
        {
          "indexed": true,
          "internalType": "uint256",
          "name": "tokenId",
          "type": "uint256"
        }
      ],
      "name": "Transfer",
      "type": "event"
    },
    {
      "inputs": [],
      "name": "DOMAIN",
      "outputs": [
        {
          "internalType": "string",
          "name": "",
          "type": "string"
        }
      ],
      "stateMutability": "view",
      "type": "function"
    },
    {
      "inputs": [
        {
          "internalType": "address",
          "name": "to",
          "type": "address"
        },
        {
          "internalType": "uint256",
          "name": "tokenId",
          "type": "uint256"
        }
      ],
      "name": "approve",
      "outputs": [],
      "stateMutability": "nonpayable",
      "type": "function"
    },
    {
      "inputs": [
        {
          "internalType": "uint256",
          "name": "escrowId",
          "type": "uint256"
        },
        {
          "internalType": "uint256",
          "name": "milestoneIndex",
          "type": "uint256"
        }
      ],
      "name": "approveMilestone",
      "outputs": [],
      "stateMutability": "nonpayable",
      "type": "function"
    },
    {
      "inputs": [
        {
          "internalType": "uint256",
          "name": "escrowId",
          "type": "uint256"
        },
        {
          "internalType": "uint256",
          "name": "milestoneIndex",
          "type": "uint256"
        },
        {
          "internalType": "uint256",
          "name": "signatureDeadline",
          "type": "uint256"
        },
        {
          "internalType": "bytes",
          "name": "signature",
          "type": "bytes"
        }
      ],
      "name": "approveMilestoneWithSignature",
      "outputs": [],
      "stateMutability": "nonpayable",
      "type": "function"
    },
    {
      "inputs": [
        {
          "internalType": "address",
          "name": "owner",
          "type": "address"
        }
      ],
      "name": "balanceOf",
      "outputs": [
        {
          "internalType": "uint256",
          "name": "",
          "type": "uint256"
        }
      ],
      "stateMutability": "view",
      "type": "function"
    },
    {
      "inputs": [
        {
          "internalType": "uint256",
          "name": "escrowId",
          "type": "uint256"
        },
        {
          "internalType": "uint256",
          "name": "milestoneIndex",
          "type": "uint256"
        }
      ],
      "name": "claimExpiredMilestone",
      "outputs": [],
      "stateMutability": "nonpayable",
      "type": "function"
    },
    {
      "inputs": [
        {
          "internalType": "uint256",
          "name": "escrowId",
          "type": "uint256"
        }
      ],
      "name": "contributeToEscrow",
      "outputs": [],
      "stateMutability": "payable",
      "type": "function"
    },
    {
      "inputs": [
        {
          "internalType": "address",
          "name": "seller",
          "type": "address"
        },
        {
          "internalType": "address",
          "name": "arbiter",
          "type": "address"
        },
        {
          "internalType": "uint256",
          "name": "arbiterFee",
          "type": "uint256"
        },
        {
          "internalType": "uint256[]",
          "name": "milestoneAmounts",
          "type": "uint256[]"
        },
        {
          "internalType": "uint256[]",
          "name": "milestoneDeadlines",
          "type": "uint256[]"
        }
      ],
      "name": "createEscrow",
      "outputs": [
        {
          "internalType": "uint256",
          "name": "",
          "type": "uint256"
        }
      ],
      "stateMutability": "payable",
      "type": "function"
    },
    {
      "inputs": [],
      "name": "eip712Domain",
      "outputs": [
        {
          "internalType": "bytes1",
          "name": "fields",
          "type": "bytes1"
        },
        {
          "internalType": "string",
          "name": "name",
          "type": "string"
        },
        {
          "internalType": "string",
          "name": "version",
          "type": "string"
        },
        {
          "internalType": "uint256",
          "name": "chainId",
          "type": "uint256"
        },
        {
          "internalType": "address",
          "name": "verifyingContract",
          "type": "address"
        },
        {
          "internalType": "bytes32",
          "name": "salt",
          "type": "bytes32"
        },
        {
          "internalType": "uint256[]",
          "name": "extensions",
          "type": "uint256[]"
        }
      ],
      "stateMutability": "view",
      "type": "function"
    },
    {
      "inputs": [
        {
          "internalType": "uint256",
          "name": "tokenId",
          "type": "uint256"
        }
      ],
      "name": "getApproved",
      "outputs": [
        {
          "internalType": "address",
          "name": "",
          "type": "address"
        }
      ],
      "stateMutability": "view",
      "type": "function"
    },
    {
      "inputs": [
        {
          "internalType": "uint256",
          "name": "",
          "type": "uint256"
        },
        {
          "internalType": "address",
          "name": "",
          "type": "address"
        }
      ],
      "name": "hasContributed",
      "outputs": [
        {
          "internalType": "bool",
          "name": "",
          "type": "bool"
        }
      ],
      "stateMutability": "view",
      "type": "function"
    },
    {
      "inputs": [
        {
          "internalType": "address",
          "name": "owner",
          "type": "address"
        },
        {
          "internalType": "address",
          "name": "operator",
          "type": "address"
        }
      ],
      "name": "isApprovedForAll",
      "outputs": [
        {
          "internalType": "bool",
          "name": "",
          "type": "bool"
        }
      ],
      "stateMutability": "view",
      "type": "function"
    },
    {
      "inputs": [],
      "name": "name",
      "outputs": [
        {
          "internalType": "string",
          "name": "",
          "type": "string"
        }
      ],
      "stateMutability": "view",
      "type": "function"
    },
    {
      "inputs": [],
      "name": "nextEscrowId",
      "outputs": [
        {
          "internalType": "uint256",
          "name": "",
          "type": "uint256"
        }
      ],
      "stateMutability": "view",
      "type": "function"
    },
    {
      "inputs": [
        {
          "internalType": "address",
          "name": "",
          "type": "address"
        }
      ],
      "name": "nonces",
      "outputs": [
        {
          "internalType": "uint256",
          "name": "",
          "type": "uint256"
        }
      ],
      "stateMutability": "view",
      "type": "function"
    },
    {
      "inputs": [
        {
          "internalType": "uint256",
          "name": "tokenId",
          "type": "uint256"
        }
      ],
      "name": "ownerOf",
      "outputs": [
        {
          "internalType": "address",
          "name": "",
          "type": "address"
        }
      ],
      "stateMutability": "view",
      "type": "function"
    },
    {
      "inputs": [
        {
          "internalType": "uint256",
          "name": "escrowId",
          "type": "uint256"
        },
        {
          "internalType": "uint256",
          "name": "milestoneIndex",
          "type": "uint256"
        }
      ],
      "name": "refundExpiredMilestone",
      "outputs": [],
      "stateMutability": "nonpayable",
      "type": "function"
    },
    {
      "inputs": [
        {
          "internalType": "uint256",
          "name": "escrowId",
          "type": "uint256"
        },
        {
          "internalType": "uint256",
          "name": "milestoneIndex",
          "type": "uint256"
        }
      ],
      "name": "releaseMilestone",
      "outputs": [],
      "stateMutability": "nonpayable",
      "type": "function"
    },
    {
      "inputs": [
        {
          "internalType": "address",
          "name": "from",
          "type": "address"
        },
        {
          "internalType": "address",
          "name": "to",
          "type": "address"
        },
        {
          "internalType": "uint256",
          "name": "tokenId",
          "type": "uint256"
        }
      ],
      "name": "safeTransferFrom",
      "outputs": [],
      "stateMutability": "nonpayable",
      "type": "function"
    },
    {
      "inputs": [
        {
          "internalType": "address",
          "name": "from",
          "type": "address"
        },
        {
          "internalType": "address",
          "name": "to",
          "type": "address"
        },
        {
          "internalType": "uint256",
          "name": "tokenId",
          "type": "uint256"
        },
        {
          "internalType": "bytes",
          "name": "data",
          "type": "bytes"
        }
      ],
      "name": "safeTransferFrom",
      "outputs": [],
      "stateMutability": "nonpayable",
      "type": "function"
    },
    {
      "inputs": [
        {
          "internalType": "address",
          "name": "operator",
          "type": "address"
        },
        {
          "internalType": "bool",
          "name": "approved",
          "type": "bool"
        }
      ],
      "name": "setApprovalForAll",
      "outputs": [],
      "stateMutability": "nonpayable",
      "type": "function"
    },
    {
      "inputs": [
        {
          "internalType": "bytes4",
          "name": "interfaceId",
          "type": "bytes4"
        }
      ],
      "name": "supportsInterface",
      "outputs": [
        {
          "internalType": "bool",
          "name": "",
          "type": "bool"
        }
      ],
      "stateMutability": "view",
      "type": "function"
    },
    {
      "inputs": [],
      "name": "symbol",
      "outputs": [
        {
          "internalType": "string",
          "name": "",
          "type": "string"
        }
      ],
      "stateMutability": "view",
      "type": "function"
    },
    {
      "inputs": [
        {
          "internalType": "uint256",
          "name": "tokenId",
          "type": "uint256"
        }
      ],
      "name": "tokenURI",
      "outputs": [
        {
          "internalType": "string",
          "name": "",
          "type": "string"
        }
      ],
      "stateMutability": "view",
      "type": "function"
    },
    {
      "inputs": [
        {
          "internalType": "address",
          "name": "from",
          "type": "address"
        },
        {
          "internalType": "address",
          "name": "to",
          "type": "address"
        },
        {
          "internalType": "uint256",
          "name": "tokenId",
          "type": "uint256"
        }
      ],
      "name": "transferFrom",
      "outputs": [],
      "stateMutability": "nonpayable",
      "type": "function"
    }
  ],
  "bytecode": "0x61016060405234801561001157600080fd5b5060405180604001604052806007815260200166082e8d0cadcf2f60cb1b815250604051806040016040528060018152602001603160f81b8152506040518060400160405280600e81526020016d417468656e797820457363726f7760901b81525060405180604001604052806004815260200163082a890b60e31b815250600160008190555081600190816100a79190610287565b5060026100b48282610287565b506100c49150839050600761016e565b610120526100d381600861016e565b61014052815160208084019190912060e052815190820120610100524660a05261016060e05161010051604080517f8b73c3c69bb8fe3d512ecc4cf759cc79239f7b179b0ffacaa9a75d522b39400f60208201529081019290925260608201524660808201523060a082015260009060c00160405160208183030381529060405280519060200120905090565b60805250503060c0526103b7565b600060208351101561018a57610183836101a1565b905061019b565b816101958482610287565b5060ff90505b92915050565b600080829050601f815111156101d5578260405163305a27a960e01b81526004016101cc9190610345565b60405180910390fd5b80516101e082610393565b179392505050565b634e487b7160e01b600052604160045260246000fd5b600181811c9082168061021257607f821691505b60208210810361023257634e487b7160e01b600052602260045260246000fd5b50919050565b601f82111561028257806000526020600020601f840160051c8101602085101561025f5750805b601f840160051c820191505b8181101561027f576000815560010161026b565b50505b505050565b81516001600160401b038111156102a0576102a06101e8565b6102b4816102ae84546101fe565b84610238565b6020601f8211600181146102e857600083156102d05750848201515b600019600385901b1c1916600184901b17845561027f565b600084815260208120601f198516915b8281101561031857878501518255602094850194600190920191016102f8565b50848210156103365786840151600019600387901b60f8161c191681555b50505050600190811b01905550565b602081526000825180602084015260005b818110156103735760208186018101516040868401015201610356565b506000604082850101526040601f19601f83011684010191505092915050565b805160208083015191908110156102325760001960209190910360031b1b16919050565b60805160a05160c05160e051610100516101205161014051612cdc6104116000396000611c0801526000611bd601526000612339015260006123110152600061226c01526000612296015260006122c00152612cdc6000f3fe6080604052600436106101665760003560e01c80637ecebe00116100d1578063a22cb4651161008a578063c87b56dd11610064578063c87b56dd14610464578063dbaf091014610484578063df4ca4bb146104a4578063e985e9c5146104c457600080fd5b8063a22cb465146103e9578063b5b96ae014610409578063b88d4fde1461044457600080fd5b80637ecebe001461034357806384a667391461037057806384b0196e1461038357806389cb29dd146103ab57806395d89b41146103c1578063a0440bdb146103d657600080fd5b80633b2206d3116101235780633b2206d31461025c57806342842e0e1461027c57806352a9674b1461029c5780635e77650d146102d55780636352211e146102f557806370a082311461031557600080fd5b806301ffc9a71461016b57806306fdde03146101a0578063081812fc146101c2578063095ea7b3146101fa57806320913da51461021c57806323b872dd1461023c575b600080fd5b34801561017757600080fd5b5061018b610186366004612644565b6104e4565b60405190151581526020015b60405180910390f35b3480156101ac57600080fd5b506101b5610536565b60405161019791906126b1565b3480156101ce57600080fd5b506101e26101dd3660046126c4565b6105c8565b6040516001600160a01b039091168152602001610197565b34801561020657600080fd5b5061021a6102153660046126f9565b6105f1565b005b34801561022857600080fd5b5061021a610237366004612723565b610600565b34801561024857600080fd5b5061021a610257366004612745565b61077c565b34801561026857600080fd5b5061021a610277366004612782565b61080c565b34801561028857600080fd5b5061021a610297366004612745565b610a3a565b3480156102a857600080fd5b506101b56040518060400160405280600d81526020016c617468656e79782e627261766560981b81525081565b3480156102e157600080fd5b5061021a6102f0366004612723565b610a5a565b34801561030157600080fd5b506101e26103103660046126c4565b610c7c565b34801561032157600080fd5b50610335610330366004612811565b610c87565b604051908152602001610197565b34801561034f57600080fd5b5061033561035e366004612811565b600c6020526000908152604090205481565b61021a61037e3660046126c4565b610ccf565b34801561038f57600080fd5b50610398610e27565b604051610197979695949392919061282c565b3480156103b757600080fd5b5061033560095481565b3480156103cd57600080fd5b506101b5610e6d565b6103356103e4366004612910565b610e7c565b3480156103f557600080fd5b5061021a6104043660046129b0565b611276565b34801561041557600080fd5b5061018b6104243660046129ec565b600b60209081526000928352604080842090915290825290205460ff1681565b34801561045057600080fd5b5061021a61045f366004612a2e565b611281565b34801561047057600080fd5b506101b561047f3660046126c4565b611299565b34801561049057600080fd5b5061021a61049f366004612723565b61130e565b3480156104b057600080fd5b5061021a6104bf366004612723565b611665565b3480156104d057600080fd5b5061018b6104df366004612b12565b6118e6565b60006001600160e01b031982166380ac58cd60e01b148061051557506001600160e01b03198216635b5e139f60e01b145b8061053057506301ffc9a760e01b6001600160e01b03198316145b92915050565b60606001805461054590612b3c565b80601f016020809104026020016040519081016040528092919081815260200182805461057190612b3c565b80156105be5780601f10610593576101008083540402835291602001916105be565b820191906000526020600020905b8154815290600101906020018083116105a157829003601f168201915b5050505050905090565b60006105d382611914565b506000828152600560205260409020546001600160a01b0316610530565b6105fc82823361194d565b5050565b6000828152600b60209081526040808320338452909152902054829060ff1661063b576040516282b42960e81b815260040160405180910390fd5b82600080828152600a602052604090206007015460ff16600381111561066357610663612b76565b146106815760405163baf3f0f760e01b815260040160405180910390fd5b6000848152600a60205260409020600881015484106106b35760405163162908e360e11b815260040160405180910390fd5b60008160080185815481106106ca576106ca612b8c565b60009182526020909120600490910201600281015490915060ff16156107035760405163080fc0bd60e11b815260040160405180910390fd5b6002810154610100900460ff161561072e576040516331da482760e11b815260040160405180910390fd5b60028101805460ff19166001179055604051338152859087907f9ffbb52f2a1362273cd74689a516ca4f52c4282dc13e2e68b7e0646a9a7af7a39060200160405180910390a3505050505050565b6001600160a01b0382166107ab57604051633250574960e11b8152600060048201526024015b60405180910390fd5b60006107b883833361195a565b9050836001600160a01b0316816001600160a01b031614610806576040516364283d7b60e01b81526001600160a01b03808616600483015260248201849052821660448201526064016107a2565b50505050565b84600080828152600a602052604090206007015460ff16600381111561083457610834612b76565b146108525760405163baf3f0f760e01b815260040160405180910390fd5b8342111561087357604051630819bdcd60e01b815260040160405180910390fd5b6000868152600a60205260409020600881015486106108a55760405163162908e360e11b815260040160405180910390fd5b60008160080187815481106108bc576108bc612b8c565b60009182526020909120600490910201600281015490915060ff16156108f55760405163080fc0bd60e11b815260040160405180910390fd5b6002810154610100900460ff1615610920576040516331da482760e11b815260040160405180910390fd5b600061092f8989898989611a53565b60008a8152600b602090815260408083206001600160a01b038516845290915290205490915060ff16610974576040516282b42960e81b815260040160405180910390fd5b6001600160a01b0381166000908152600c6020526040812080549182919061099b83612bb8565b909155505060028301805460ff19166001179055604051606083901b6bffffffffffffffffffffffff191660208201526034810182905260540160408051601f1981840301815290829052805160209182012060038601556001600160a01b03841682528a918c917f9ffbb52f2a1362273cd74689a516ca4f52c4282dc13e2e68b7e0646a9a7af7a3910160405180910390a350505050505050505050565b610a5583838360405180602001604052806000815250611281565b505050565b6000828152600b60209081526040808320338452909152902054829060ff16610a95576040516282b42960e81b815260040160405180910390fd5b82600080828152600a602052604090206007015460ff166003811115610abd57610abd612b76565b14610adb5760405163baf3f0f760e01b815260040160405180910390fd5b610ae3611b46565b6000848152600a6020526040902060088101548410610b155760405163162908e360e11b815260040160405180910390fd5b6000816008018581548110610b2c57610b2c612b8c565b906000526020600020906004020190508060020160019054906101000a900460ff1615610b6c576040516331da482760e11b815260040160405180910390fd5b600281015460ff1615610b925760405163080fc0bd60e11b815260040160405180910390fd5b8060010154600003610bb757604051631da7447960e21b815260040160405180910390fd5b80600101544211610bdb576040516302eb354360e41b815260040160405180910390fd5b60028101805461ff0019166101001790558054600090610bfc908890611b70565b90508015610c6f57604051600090339083908381818185875af1925050503d8060008114610c46576040519150601f19603f3d011682016040523d82523d6000602084013e610c4b565b606091505b5050905080610c6d576040516312171d8360e31b815260040160405180910390fd5b505b5050506108066001600055565b600061053082611914565b60006001600160a01b038216610cb3576040516322718ad960e21b8152600060048201526024016107a2565b506001600160a01b031660009081526004602052604090205490565b80600080828152600a602052604090206007015460ff166003811115610cf757610cf7612b76565b14610d155760405163baf3f0f760e01b815260040160405180910390fd5b34600003610d365760405163162908e360e11b815260040160405180910390fd5b6000828152600a60209081526040808320600b83528184203385529092529091205460ff16610da9578054600181810183556000838152602080822090930180546001600160a01b03191633908117909155868252600b84526040808320918352935291909120805460ff191690911790555b33600090815260018201602052604081208054349290610dca908490612bd1565b9250508190555034816004016000828254610de59190612bd1565b9091555050604051348152339084907f75aecd8d57cb4b1b263271bddb4961b993924dd466e6003c254832572d8a57e1906020015b60405180910390a3505050565b600060608060008060006060610e3b611bcf565b610e43611c01565b60408051600080825260208201909252600f60f81b9b939a50919850469750309650945092509050565b60606002805461054590612b3c565b60006001600160a01b038816610ea55760405163d92e233d60e01b815260040160405180910390fd5b6000849003610ec757604051632432fdaf60e11b815260040160405180910390fd5b838214610ee75760405163162908e360e11b815260040160405180910390fd5b6000805b85811015610fb957868682818110610f0557610f05612b8c565b90506020020135600003610f2c5760405163162908e360e11b815260040160405180910390fd5b848482818110610f3e57610f3e612b8c565b90506020020135600014158015610f6d575042858583818110610f6357610f63612b8c565b9050602002013511155b15610f8b57604051631da7447960e21b815260040160405180910390fd5b868682818110610f9d57610f9d612b8c565b9050602002013582610faf9190612bd1565b9150600101610eeb565b5086341015610fdb5760405163162908e360e11b815260040160405180910390fd5b6009805460009182610fec83612bb8565b9190505590506000600a600083815260200190815260200160002090508a8160020160006101000a8154816001600160a01b0302191690836001600160a01b03160217905550898160030160006101000a8154816001600160a01b0302191690836001600160a01b031602179055508881600601819055503481600401819055506000816005018190555060008160070160006101000a81548160ff0219169083600381111561109e5761109e612b76565b02179055504260098201558054600181810183556000838152602080822090930180546001600160a01b0319163390811790915580825282850184526040808320349055868352600b85528083209183529352918220805460ff191690911790555b878110156111cf57816008016040518060a001604052808b8b8581811061112957611129612b8c565b90506020020135815260200189898581811061114757611147612b8c565b602090810292909201358352506000828201819052604080840182905260609384018290528554600181810188559683529183902085516004909302019182559184015181860155908301516002820180549385015115156101000261ff00199215159290921661ffff19909416939093171790915560809091015160039091015501611100565b506111da8b83611c2e565b896001600160a01b03168b6001600160a01b0316837f59e4b8728799382406714f1c57de5c893d2772f9a8bf9950c5afe4397e648654868d604051611229929190918252602082015260400190565b60405180910390a4604051348152339083907f75aecd8d57cb4b1b263271bddb4961b993924dd466e6003c254832572d8a57e19060200160405180910390a3509998505050505050505050565b6105fc338383611c48565b61128c84848461077c565b6108063385858585611cdf565b60606112a482611914565b5060006112bc60408051602081019091526000815290565b905060008151116112dc5760405180602001604052806000815250611307565b806112e684611e0a565b6040516020016112f7929190612be4565b6040516020818303038152906040525b9392505050565b611316611b46565b81600080828152600a602052604090206007015460ff16600381111561133e5761133e612b76565b1461135c5760405163baf3f0f760e01b815260040160405180910390fd5b6000838152600a602052604090206008810154831061138e5760405163162908e360e11b815260040160405180910390fd5b60008160080184815481106113a5576113a5612b8c565b60009182526020909120600490910201600281015490915060ff166113dd5760405163c19f17a960e01b815260040160405180910390fd5b6002810154610100900460ff1615611408576040516331da482760e11b815260040160405180910390fd5b805460058301546114199190612bd1565b8260040154101561143d5760405163356680b760e01b815260040160405180910390fd5b60028101805461ff0019166101001790558054600583018054600090611464908490612bd1565b9091555050600282015481546040516000926001600160a01b031691908381818185875af1925050503d80600081146114b9576040519150601f19603f3d011682016040523d82523d6000602084013e6114be565b606091505b50509050806114e0576040516312171d8360e31b815260040160405180910390fd5b84867fd33fcd27cbfb73a2d9058c968b560ccb306500bf536133802048489ecc7355e9846000015460405161151791815260200190565b60405180910390a3600683015460005b600885015481101561156f5784600801818154811061154857611548612b8c565b906000526020600020906004020160000154826115659190612bd1565b9150600101611527565b50808460050154036116565760078401805460ff191660021790556006840154158015906115a9575060038401546001600160a01b031615155b1561162a57600384015460068501546040516000926001600160a01b031691908381818185875af1925050503d8060008114611601576040519150601f19603f3d011682016040523d82523d6000602084013e611606565b606091505b5050905080611628576040516312171d8360e31b815260040160405180910390fd5b505b60405187907f9285bd636dda01bef18996aa38303bb742f6c67a6941646dddb17630cb492c2e90600090a25b50505050506105fc6001600055565b6000828152600a602052604090206002015482906001600160a01b031633146116a0576040516282b42960e81b815260040160405180910390fd5b82600080828152600a602052604090206007015460ff1660038111156116c8576116c8612b76565b146116e65760405163baf3f0f760e01b815260040160405180910390fd5b6116ee611b46565b6000848152600a60205260409020600881015484106117205760405163162908e360e11b815260040160405180910390fd5b600081600801858154811061173757611737612b8c565b906000526020600020906004020190508060020160019054906101000a900460ff1615611777576040516331da482760e11b815260040160405180910390fd5b806001015460000361179c57604051631da7447960e21b815260040160405180910390fd5b806001015442116117c0576040516302eb354360e41b815260040160405180910390fd5b60028101805461ffff191661010117905580546005830180546000906117e7908490612bd1565b9091555050600282015481546040516000926001600160a01b031691908381818185875af1925050503d806000811461183c576040519150601f19603f3d011682016040523d82523d6000602084013e611841565b606091505b5050905080611863576040516312171d8360e31b815260040160405180910390fd5b604051308152869088907f9ffbb52f2a1362273cd74689a516ca4f52c4282dc13e2e68b7e0646a9a7af7a39060200160405180910390a385877fd33fcd27cbfb73a2d9058c968b560ccb306500bf536133802048489ecc7355e984600001546040516118d191815260200190565b60405180910390a35050506108066001600055565b6001600160a01b03918216600090815260066020908152604080832093909416825291909152205460ff1690565b6000818152600360205260408120546001600160a01b03168061053057604051637e27328960e01b8152600481018490526024016107a2565b610a558383836001611e9d565b6000828152600360205260408120546001600160a01b039081169083161561198757611987818486611fa3565b6001600160a01b038116156119c5576119a4600085600080611e9d565b6001600160a01b038116600090815260046020526040902080546000190190555b6001600160a01b038516156119f4576001600160a01b0385166000908152600460205260409020805460010190555b60008481526003602052604080822080546001600160a01b0319166001600160a01b0389811691821790925591518793918516917fddf252ad1be2c89b69c2b068fc378daa952ba7f163c4a11628f55a4df523b3ef91a4949350505050565b336000908152600c602090815260408083205481517f80024b95af979f7623dfe7c1580d0cfd9373eb07043c3b4f1cf49e92ed8bc949818501528083018a905260608101899052608081019190915260a08082018890528251808303909101815260c0909101909152805191012081611acb82612007565b90506000611b1186868080601f01602080910402602001604051908101604052809392919081815260200183838082843760009201919091525086939250506120349050565b90506001600160a01b038116611b3a57604051638baa579f60e01b815260040160405180910390fd5b98975050505050505050565b600260005403611b6957604051633ee5aeb560e01b815260040160405180910390fd5b6002600055565b6000828152600a6020908152604080832033845260018101909252822054801580611b9d57506004820154155b15611bad57600092505050610530565b6004820154611bbc8286612c13565b611bc69190612c2a565b95945050505050565b6060611bfc7f0000000000000000000000000000000000000000000000000000000000000000600761205e565b905090565b6060611bfc7f0000000000000000000000000000000000000000000000000000000000000000600861205e565b6105fc828260405180602001604052806000815250612109565b6001600160a01b038216611c7a57604051630b61174360e31b81526001600160a01b03831660048201526024016107a2565b6001600160a01b03838116600081815260066020908152604080832094871680845294825291829020805460ff191686151590811790915591519182527f17307eab39ab6107e8899845ad3d59bd9653f200f220920489ca2b5937696c319101610e1a565b6001600160a01b0383163b15611e0357604051630a85bd0160e11b81526001600160a01b0384169063150b7a0290611d21908890889087908790600401612c4c565b6020604051808303816000875af1925050508015611d5c575060408051601f3d908101601f19168201909252611d5991810190612c89565b60015b611dc5573d808015611d8a576040519150601f19603f3d011682016040523d82523d6000602084013e611d8f565b606091505b508051600003611dbd57604051633250574960e11b81526001600160a01b03851660048201526024016107a2565b805160208201fd5b6001600160e01b03198116630a85bd0160e11b14611e0157604051633250574960e11b81526001600160a01b03851660048201526024016107a2565b505b5050505050565b60606000611e1783612121565b600101905060008167ffffffffffffffff811115611e3757611e37612a18565b6040519080825280601f01601f191660200182016040528015611e61576020820181803683370190505b5090508181016020015b600019016f181899199a1a9b1b9c1cb0b131b232b360811b600a86061a8153600a8504945084611e6b57509392505050565b8080611eb157506001600160a01b03821615155b15611f73576000611ec184611914565b90506001600160a01b03831615801590611eed5750826001600160a01b0316816001600160a01b031614155b8015611f005750611efe81846118e6565b155b15611f295760405163a9fbf51f60e01b81526001600160a01b03841660048201526024016107a2565b8115611f715783856001600160a01b0316826001600160a01b03167f8c5be1e5ebec7d5bd14f71427d1e84f3dd0314c0f7b2291e5b200ac8c7c3b92560405160405180910390a45b505b5050600090815260056020526040902080546001600160a01b0319166001600160a01b0392909216919091179055565b611fae8383836121f9565b610a55576001600160a01b038316611fdc57604051637e27328960e01b8152600481018290526024016107a2565b60405163177e802f60e01b81526001600160a01b0383166004820152602481018290526044016107a2565b600061053061201461225f565b8360405161190160f01b8152600281019290925260228201526042902090565b600080600080612044868661238a565b92509250925061205482826123d7565b5090949350505050565b606060ff83146120785761207183612490565b9050610530565b81805461208490612b3c565b80601f01602080910402602001604051908101604052809291908181526020018280546120b090612b3c565b80156120fd5780601f106120d2576101008083540402835291602001916120fd565b820191906000526020600020905b8154815290600101906020018083116120e057829003601f168201915b50505050509050610530565b61211383836124cf565b610a55336000858585611cdf565b60008072184f03e93ff9f4daa797ed6e38ed64bf6a1f0160401b83106121605772184f03e93ff9f4daa797ed6e38ed64bf6a1f0160401b830492506040015b6d04ee2d6d415b85acef8100000000831061218c576d04ee2d6d415b85acef8100000000830492506020015b662386f26fc1000083106121aa57662386f26fc10000830492506010015b6305f5e10083106121c2576305f5e100830492506008015b61271083106121d657612710830492506004015b606483106121e8576064830492506002015b600a83106105305760010192915050565b60006001600160a01b038316158015906122575750826001600160a01b0316846001600160a01b03161480612233575061223384846118e6565b8061225757506000828152600560205260409020546001600160a01b038481169116145b949350505050565b6000306001600160a01b037f0000000000000000000000000000000000000000000000000000000000000000161480156122b857507f000000000000000000000000000000000000000000000000000000000000000046145b156122e257507f000000000000000000000000000000000000000000000000000000000000000090565b611bfc604080517f8b73c3c69bb8fe3d512ecc4cf759cc79239f7b179b0ffacaa9a75d522b39400f60208201527f0000000000000000000000000000000000000000000000000000000000000000918101919091527f000000000000000000000000000000000000000000000000000000000000000060608201524660808201523060a082015260009060c00160405160208183030381529060405280519060200120905090565b600080600083516041036123c45760208401516040850151606086015160001a6123b688828585612534565b9550955095505050506123d0565b50508151600091506002905b9250925092565b60008260038111156123eb576123eb612b76565b036123f4575050565b600182600381111561240857612408612b76565b036124265760405163f645eedf60e01b815260040160405180910390fd5b600282600381111561243a5761243a612b76565b0361245b5760405163fce698f760e01b8152600481018290526024016107a2565b600382600381111561246f5761246f612b76565b036105fc576040516335e2f38360e21b8152600481018290526024016107a2565b6060600061249d83612603565b604080516020808252818301909252919250600091906020820181803683375050509182525060208101929092525090565b6001600160a01b0382166124f957604051633250574960e11b8152600060048201526024016107a2565b60006125078383600061195a565b90506001600160a01b03811615610a55576040516339e3563760e11b8152600060048201526024016107a2565b600080807f7fffffffffffffffffffffffffffffff5d576e7357a4501ddfe92f46681b20a084111561256f57506000915060039050826125f9565b604080516000808252602082018084528a905260ff891692820192909252606081018790526080810186905260019060a0016020604051602081039080840390855afa1580156125c3573d6000803e3d6000fd5b5050604051601f1901519150506001600160a01b0381166125ef575060009250600191508290506125f9565b9250600091508190505b9450945094915050565b600060ff8216601f81111561053057604051632cd44ac360e21b815260040160405180910390fd5b6001600160e01b03198116811461264157600080fd5b50565b60006020828403121561265657600080fd5b81356113078161262b565b60005b8381101561267c578181015183820152602001612664565b50506000910152565b6000815180845261269d816020860160208601612661565b601f01601f19169290920160200192915050565b6020815260006113076020830184612685565b6000602082840312156126d657600080fd5b5035919050565b80356001600160a01b03811681146126f457600080fd5b919050565b6000806040838503121561270c57600080fd5b612715836126dd565b946020939093013593505050565b6000806040838503121561273657600080fd5b50508035926020909101359150565b60008060006060848603121561275a57600080fd5b612763846126dd565b9250612771602085016126dd565b929592945050506040919091013590565b60008060008060006080868803121561279a57600080fd5b853594506020860135935060408601359250606086013567ffffffffffffffff8111156127c657600080fd5b8601601f810188136127d757600080fd5b803567ffffffffffffffff8111156127ee57600080fd5b88602082840101111561280057600080fd5b959894975092955050506020019190565b60006020828403121561282357600080fd5b611307826126dd565b60ff60f81b8816815260e06020820152600061284b60e0830189612685565b828103604084015261285d8189612685565b606084018890526001600160a01b038716608085015260a0840186905283810360c08501528451808252602080870193509091019060005b818110156128b3578351835260209384019390920191600101612895565b50909b9a5050505050505050505050565b60008083601f8401126128d657600080fd5b50813567ffffffffffffffff8111156128ee57600080fd5b6020830191508360208260051b850101111561290957600080fd5b9250929050565b600080600080600080600060a0888a03121561292b57600080fd5b612934886126dd565b9650612942602089016126dd565b955060408801359450606088013567ffffffffffffffff81111561296557600080fd5b6129718a828b016128c4565b909550935050608088013567ffffffffffffffff81111561299157600080fd5b61299d8a828b016128c4565b989b979a50959850939692959293505050565b600080604083850312156129c357600080fd5b6129cc836126dd565b9150602083013580151581146129e157600080fd5b809150509250929050565b600080604083850312156129ff57600080fd5b82359150612a0f602084016126dd565b90509250929050565b634e487b7160e01b600052604160045260246000fd5b60008060008060808587031215612a4457600080fd5b612a4d856126dd565b9350612a5b602086016126dd565b925060408501359150606085013567ffffffffffffffff811115612a7e57600080fd5b8501601f81018713612a8f57600080fd5b803567ffffffffffffffff811115612aa957612aa9612a18565b604051601f8201601f19908116603f0116810167ffffffffffffffff81118282101715612ad857612ad8612a18565b604052818152828201602001891015612af057600080fd5b8160208401602083013760006020838301015280935050505092959194509250565b60008060408385031215612b2557600080fd5b612b2e836126dd565b9150612a0f602084016126dd565b600181811c90821680612b5057607f821691505b602082108103612b7057634e487b7160e01b600052602260045260246000fd5b50919050565b634e487b7160e01b600052602160045260246000fd5b634e487b7160e01b600052603260045260246000fd5b634e487b7160e01b600052601160045260246000fd5b600060018201612bca57612bca612ba2565b5060010190565b8082018082111561053057610530612ba2565b60008351612bf6818460208801612661565b835190830190612c0a818360208801612661565b01949350505050565b808202811582820484141761053057610530612ba2565b600082612c4757634e487b7160e01b600052601260045260246000fd5b500490565b6001600160a01b0385811682528416602082015260408101839052608060608201819052600090612c7f90830184612685565b9695505050505050565b600060208284031215612c9b57600080fd5b81516113078161262b56fea2646970667358221220cd8803d87a750b032b9637c6b8723a166348728aa2adc08b686b1662b0780e0464736f6c634300081e0033",
  "linkReferences": {},
  "deployedLinkReferences": {}
}