{
  "_format": "hh-sol-artifact-1",
  "contractName": "Athenyx",
  "sourceName": "contracts/athenyx.sol",
  "abi": [
    {
      "inputs": [],
      "stateMutability": "nonpayable",
      "type": "constructor"
    },
    {
      "inputs": [],
      "name": "AlreadyApproved",
      "type": "error"
    },
    {
      "inputs": [],
      "name": "AlreadyReleased",
      "type": "error"
    },
    {
      "inputs": [],
      "name": "DeadlineNotPassed",
      "type": "error"
    },
    {
      "inputs": [
        {
          "internalType": "address",
          "name": "sender",
          "type": "address"
        },
        {
          "internalType": "uint256",
          "name": "tokenId",
          "type": "uint256"
        },
        {
          "internalType": "address",
          "name": "owner",
          "type": "address"
        }
      ],
      "name": "ERC721IncorrectOwner",
      "type": "error"
    },
    {
      "inputs": [
        {
          "internalType": "address",
          "name": "operator",
          "type": "address"
        },
        {
          "internalType": "uint256",
          "name": "tokenId",
          "type": "uint256"
        }
      ],
      "name": "ERC721InsufficientApproval",
      "type": "error"
    },
    {
      "inputs": [
        {
          "internalType": "address",
          "name": "approver",
          "type": "address"
        }
      ],
      "name": "ERC721InvalidApprover",
      "type": "error"
    },
    {
      "inputs": [
        {
          "internalType": "address",
          "name": "operator",
          "type": "address"
        }
      ],
      "name": "ERC721InvalidOperator",
      "type": "error"
    },
    {
      "inputs": [
        {
          "internalType": "address",
          "name": "owner",
          "type": "address"
        }
      ],
      "name": "ERC721InvalidOwner",
      "type": "error"
    },
    {
      "inputs": [
        {
          "internalType": "address",
          "name": "receiver",
          "type": "address"
        }
      ],
      "name": "ERC721InvalidReceiver",
      "type": "error"
    },
    {
      "inputs": [
        {
          "internalType": "address",
          "name": "sender",
          "type": "address"
        }
      ],
      "name": "ERC721InvalidSender",
      "type": "error"
    },
    {
      "inputs": [
        {
          "internalType": "uint256",
          "name": "tokenId",
          "type": "uint256"
        }
      ],
      "name": "ERC721NonexistentToken",
      "type": "error"
    },
    {
      "inputs": [],
      "name": "EmptyMilestones",
      "type": "error"
    },
    {
      "inputs": [],
      "name": "InsufficientFunds",
      "type": "error"
    },
    {
      "inputs": [],
      "name": "InvalidAmount",
      "type": "error"
    },
    {
      "inputs": [],
      "name": "InvalidDeadline",
      "type": "error"
    },
    {
      "inputs": [],
      "name": "InvalidShortString",
      "type": "error"
    },
    {
      "inputs": [],
      "name": "InvalidSignature",
      "type": "error"
    },
    {
      "inputs": [],
      "name": "InvalidState",
      "type": "error"
    },
    {
      "inputs": [],
      "name": "NotApproved",
      "type": "error"
    },
    {
      "inputs": [],
      "name": "ReentrancyGuardReentrantCall",
      "type": "error"
    },
    {
      "inputs": [],
      "name": "SignatureExpired",
      "type": "error"
    },
    {
      "inputs": [
        {
          "internalType": "string",
          "name": "str",
          "type": "string"
        }
      ],
      "name": "StringTooLong",
      "type": "error"
    },
    {
      "inputs": [],
      "name": "TransferFailed",
      "type": "error"
    },
    {
      "inputs": [],
      "name": "Unauthorized",
      "type": "error"
    },
    {
      "inputs": [],
      "name": "ZeroAddress",
      "type": "error"
    },
    {
      "anonymous": false,
      "inputs": [
        {
          "indexed": true,
          "internalType": "address",
          "name": "owner",
          "type": "address"
        },
        {
          "indexed": true,
          "internalType": "address",
          "name": "approved",
          "type": "address"
        },
        {
          "indexed": true,
          "internalType": "uint256",
          "name": "tokenId",
          "type": "uint256"
        }
      ],
      "name": "Approval",
      "type": "event"
    },
    {
      "anonymous": false,
      "inputs": [
        {
          "indexed": true,
          "internalType": "address",
          "name": "owner",
          "type": "address"
        },
        {
          "indexed": true,
          "internalType": "address",
          "name": "operator",
          "type": "address"
        },
        {
          "indexed": false,
          "internalType": "bool",
          "name": "approved",
          "type": "bool"
        }
      ],
      "name": "ApprovalForAll",
      "type": "event"
    },
    {
      "anonymous": false,
      "inputs": [
        {
          "indexed": true,
          "internalType": "uint256",
          "name": "escrowId",
          "type": "uint256"
        },
        {
          "indexed": true,
          "internalType": "address",
          "name": "payer",
          "type": "address"
        },
        {
          "indexed": false,
          "internalType": "uint256",
          "name": "amount",
          "type": "uint256"
        }
      ],
      "name": "ContributionAdded",
      "type": "event"
    },
    {
      "anonymous": false,
      "inputs": [
        {
          "indexed": true,
          "internalType": "uint256",
          "name": "escrowId",
          "type": "uint256"
        },
        {
          "indexed": true,
          "internalType": "address",
          "name": "initiator",
          "type": "address"
        }
      ],
      "name": "DisputeRaised",
      "type": "event"
    },
    {
      "anonymous": false,
      "inputs": [
        {
          "indexed": true,
          "internalType": "uint256",
          "name": "escrowId",
          "type": "uint256"
        },
        {
          "indexed": false,
          "internalType": "uint256[]",
          "name": "releasedMilestones",
          "type": "uint256[]"
        }
      ],
      "name": "DisputeResolved",
      "type": "event"
    },
    {
      "anonymous": false,
      "inputs": [],
      "name": "EIP712DomainChanged",
      "type": "event"
    },
    {
      "anonymous": false,
      "inputs": [
        {
          "indexed": true,
          "internalType": "uint256",
          "name": "escrowId",
          "type": "uint256"
        },
        {
          "indexed": false,
          "internalType": "uint256",
          "name": "refundAmount",
          "type": "uint256"
        }
      ],
      "name": "EscrowCancelled",
      "type": "event"
    },
    {
      "anonymous": false,
      "inputs": [
        {
          "indexed": true,
          "internalType": "uint256",
          "name": "escrowId",
          "type": "uint256"
        }
      ],
      "name": "EscrowCompleted",
      "type": "event"
    },
    {
      "anonymous": false,
      "inputs": [
        {
          "indexed": true,
          "internalType": "uint256",
          "name": "escrowId",
          "type": "uint256"
        },
        {
          "indexed": true,
          "internalType": "address",
          "name": "seller",
          "type": "address"
        },
        {
          "indexed": true,
          "internalType": "address",
          "name": "arbiter",
          "type": "address"
        },
        {
          "indexed": false,
          "internalType": "uint256",
          "name": "totalAmount",
          "type": "uint256"
        },
        {
          "indexed": false,
          "internalType": "uint256",
          "name": "arbiterFee",
          "type": "uint256"
        }
      ],
      "name": "EscrowCreated",
      "type": "event"
    },
    {
      "anonymous": false,
      "inputs": [
        {
          "indexed": true,
          "internalType": "uint256",
          "name": "escrowId",
          "type": "uint256"
        },
        {
          "indexed": true,
          "internalType": "uint256",
          "name": "milestoneIndex",
          "type": "uint256"
        },
        {
          "indexed": false,
          "internalType": "address",
          "name": "approver",
          "type": "address"
        }
      ],
      "name": "MilestoneApproved",
      "type": "event"
    },
    {
      "anonymous": false,
      "inputs": [
        {
          "indexed": true,
          "internalType": "uint256",
          "name": "escrowId",
          "type": "uint256"
        },
        {
          "indexed": true,
          "internalType": "uint256",
          "name": "milestoneIndex",
          "type": "uint256"
        },
        {
          "indexed": false,
          "internalType": "uint256",
          "name": "amount",
          "type": "uint256"
        }
      ],
      "name": "MilestoneReleased",
      "type": "event"
    },
    {
      "anonymous": false,
      "inputs": [
        {
          "indexed": true,
          "internalType": "address",
          "name": "from",
          "type": "address"
        },
        {
          "indexed": true,
          "internalType": "address",
          "name": "to",
          "type": "address"
        },
        {
          "indexed": true,
          "internalType": "uint256",
          "name": "tokenId",
          "type": "uint256"
        }
      ],
      "name": "Transfer",
      "type": "event"
    },
    {
      "inputs": [],
      "name": "DOMAIN",
      "outputs": [
        {
          "internalType": "string",
          "name": "",
          "type": "string"
        }
      ],
      "stateMutability": "view",
      "type": "function"
    },
    {
      "inputs": [
        {
          "internalType": "address",
          "name": "to",
          "type": "address"
        },
        {
          "internalType": "uint256",
          "name": "tokenId",
          "type": "uint256"
        }
      ],
      "name": "approve",
      "outputs": [],
      "stateMutability": "nonpayable",
      "type": "function"
    },
    {
      "inputs": [
        {
          "internalType": "address",
          "name": "owner",
          "type": "address"
        }
      ],
      "name": "balanceOf",
      "outputs": [
        {
          "internalType": "uint256",
          "name": "",
          "type": "uint256"
        }
      ],
      "stateMutability": "view",
      "type": "function"
    },
    {
      "inputs": [
        {
          "internalType": "address",
          "name": "seller",
          "type": "address"
        },
        {
          "internalType": "address",
          "name": "arbiter",
          "type": "address"
        },
        {
          "internalType": "uint256",
          "name": "arbiterFee",
          "type": "uint256"
        },
        {
          "internalType": "uint256[]",
          "name": "milestoneAmounts",
          "type": "uint256[]"
        },
        {
          "internalType": "uint256[]",
          "name": "milestoneDeadlines",
          "type": "uint256[]"
        }
      ],
      "name": "createEscrow",
      "outputs": [
        {
          "internalType": "uint256",
          "name": "",
          "type": "uint256"
        }
      ],
      "stateMutability": "payable",
      "type": "function"
    },
    {
      "inputs": [],
      "name": "eip712Domain",
      "outputs": [
        {
          "internalType": "bytes1",
          "name": "fields",
          "type": "bytes1"
        },
        {
          "internalType": "string",
          "name": "name",
          "type": "string"
        },
        {
          "internalType": "string",
          "name": "version",
          "type": "string"
        },
        {
          "internalType": "uint256",
          "name": "chainId",
          "type": "uint256"
        },
        {
          "internalType": "address",
          "name": "verifyingContract",
          "type": "address"
        },
        {
          "internalType": "bytes32",
          "name": "salt",
          "type": "bytes32"
        },
        {
          "internalType": "uint256[]",
          "name": "extensions",
          "type": "uint256[]"
        }
      ],
      "stateMutability": "view",
      "type": "function"
    },
    {
      "inputs": [
        {
          "internalType": "uint256",
          "name": "tokenId",
          "type": "uint256"
        }
      ],
      "name": "getApproved",
      "outputs": [
        {
          "internalType": "address",
          "name": "",
          "type": "address"
        }
      ],
      "stateMutability": "view",
      "type": "function"
    },
    {
      "inputs": [
        {
          "internalType": "uint256",
          "name": "",
          "type": "uint256"
        },
        {
          "internalType": "address",
          "name": "",
          "type": "address"
        }
      ],
      "name": "hasContributed",
      "outputs": [
        {
          "internalType": "bool",
          "name": "",
          "type": "bool"
        }
      ],
      "stateMutability": "view",
      "type": "function"
    },
    {
      "inputs": [
        {
          "internalType": "address",
          "name": "owner",
          "type": "address"
        },
        {
          "internalType": "address",
          "name": "operator",
          "type": "address"
        }
      ],
      "name": "isApprovedForAll",
      "outputs": [
        {
          "internalType": "bool",
          "name": "",
          "type": "bool"
        }
      ],
      "stateMutability": "view",
      "type": "function"
    },
    {
      "inputs": [],
      "name": "name",
      "outputs": [
        {
          "internalType": "string",
          "name": "",
          "type": "string"
        }
      ],
      "stateMutability": "view",
      "type": "function"
    },
    {
      "inputs": [],
      "name": "nextEscrowId",
      "outputs": [
        {
          "internalType": "uint256",
          "name": "",
          "type": "uint256"
        }
      ],
      "stateMutability": "view",
      "type": "function"
    },
    {
      "inputs": [
        {
          "internalType": "address",
          "name": "",
          "type": "address"
        }
      ],
      "name": "nonces",
      "outputs": [
        {
          "internalType": "uint256",
          "name": "",
          "type": "uint256"
        }
      ],
      "stateMutability": "view",
      "type": "function"
    },
    {
      "inputs": [
        {
          "internalType": "uint256",
          "name": "tokenId",
          "type": "uint256"
        }
      ],
      "name": "ownerOf",
      "outputs": [
        {
          "internalType": "address",
          "name": "",
          "type": "address"
        }
      ],
      "stateMutability": "view",
      "type": "function"
    },
    {
      "inputs": [
        {
          "internalType": "address",
          "name": "from",
          "type": "address"
        },
        {
          "internalType": "address",
          "name": "to",
          "type": "address"
        },
        {
          "internalType": "uint256",
          "name": "tokenId",
          "type": "uint256"
        }
      ],
      "name": "safeTransferFrom",
      "outputs": [],
      "stateMutability": "nonpayable",
      "type": "function"
    },
    {
      "inputs": [
        {
          "internalType": "address",
          "name": "from",
          "type": "address"
        },
        {
          "internalType": "address",
          "name": "to",
          "type": "address"
        },
        {
          "internalType": "uint256",
          "name": "tokenId",
          "type": "uint256"
        },
        {
          "internalType": "bytes",
          "name": "data",
          "type": "bytes"
        }
      ],
      "name": "safeTransferFrom",
      "outputs": [],
      "stateMutability": "nonpayable",
      "type": "function"
    },
    {
      "inputs": [
        {
          "internalType": "address",
          "name": "operator",
          "type": "address"
        },
        {
          "internalType": "bool",
          "name": "approved",
          "type": "bool"
        }
      ],
      "name": "setApprovalForAll",
      "outputs": [],
      "stateMutability": "nonpayable",
      "type": "function"
    },
    {
      "inputs": [
        {
          "internalType": "bytes4",
          "name": "interfaceId",
          "type": "bytes4"
        }
      ],
      "name": "supportsInterface",
      "outputs": [
        {
          "internalType": "bool",
          "name": "",
          "type": "bool"
        }
      ],
      "stateMutability": "view",
      "type": "function"
    },
    {
      "inputs": [],
      "name": "symbol",
      "outputs": [
        {
          "internalType": "string",
          "name": "",
          "type": "string"
        }
      ],
      "stateMutability": "view",
      "type": "function"
    },
    {
      "inputs": [
        {
          "internalType": "uint256",
          "name": "tokenId",
          "type": "uint256"
        }
      ],
      "name": "tokenURI",
      "outputs": [
        {
          "internalType": "string",
          "name": "",
          "type": "string"
        }
      ],
      "stateMutability": "view",
      "type": "function"
    },
    {
      "inputs": [
        {
          "internalType": "address",
          "name": "from",
          "type": "address"
        },
        {
          "internalType": "address",
          "name": "to",
          "type": "address"
        },
        {
          "internalType": "uint256",
          "name": "tokenId",
          "type": "uint256"
        }
      ],
      "name": "transferFrom",
      "outputs": [],
      "stateMutability": "nonpayable",
      "type": "function"
    }
  ],
  "bytecode": "0x61016060405234801561001157600080fd5b5060405180604001604052806007815260200166082e8d0cadcf2f60cb1b815250604051806040016040528060018152602001603160f81b8152506040518060400160405280600e81526020016d417468656e797820457363726f7760901b81525060405180604001604052806004815260200163082a890b60e31b815250600160008190555081600190816100a79190610287565b5060026100b48282610287565b506100c49150839050600761016e565b610120526100d381600861016e565b61014052815160208084019190912060e052815190820120610100524660a05261016060e05161010051604080517f8b73c3c69bb8fe3d512ecc4cf759cc79239f7b179b0ffacaa9a75d522b39400f60208201529081019290925260608201524660808201523060a082015260009060c00160405160208183030381529060405280519060200120905090565b60805250503060c0526103b7565b600060208351101561018a57610183836101a1565b905061019b565b816101958482610287565b5060ff90505b92915050565b600080829050601f815111156101d5578260405163305a27a960e01b81526004016101cc9190610345565b60405180910390fd5b80516101e082610393565b179392505050565b634e487b7160e01b600052604160045260246000fd5b600181811c9082168061021257607f821691505b60208210810361023257634e487b7160e01b600052602260045260246000fd5b50919050565b601f82111561028257806000526020600020601f840160051c8101602085101561025f5750805b601f840160051c820191505b8181101561027f576000815560010161026b565b50505b505050565b81516001600160401b038111156102a0576102a06101e8565b6102b4816102ae84546101fe565b84610238565b6020601f8211600181146102e857600083156102d05750848201515b600019600385901b1c1916600184901b17845561027f565b600084815260208120601f198516915b8281101561031857878501518255602094850194600190920191016102f8565b50848210156103365786840151600019600387901b60f8161c191681555b50505050600190811b01905550565b602081526000825180602084015260005b818110156103735760208186018101516040868401015201610356565b506000604082850101526040601f19601f83011684010191505092915050565b805160208083015191908110156102325760001960209190910360031b1b16919050565b60805160a05160c05160e0516101005161012051610140516119266104026000396000610c8b01526000610c59015260005050600050506000505060005050600050506119266000f3fe6080604052600436106101145760003560e01c80637ecebe00116100a0578063a22cb46511610064578063a22cb46514610324578063b5b96ae014610344578063b88d4fde1461037f578063c87b56dd1461039f578063e985e9c5146103bf57600080fd5b80637ecebe001461029157806384b0196e146102be57806389cb29dd146102e657806395d89b41146102fc578063a0440bdb1461031157600080fd5b806323b872dd116100e757806323b872dd146101ca57806342842e0e146101ea57806352a9674b1461020a5780636352211e1461024357806370a082311461026357600080fd5b806301ffc9a71461011957806306fdde031461014e578063081812fc14610170578063095ea7b3146101a8575b600080fd5b34801561012557600080fd5b50610139610134366004611378565b6103df565b60405190151581526020015b60405180910390f35b34801561015a57600080fd5b50610163610431565b60405161014591906113e5565b34801561017c57600080fd5b5061019061018b3660046113f8565b6104c3565b6040516001600160a01b039091168152602001610145565b3480156101b457600080fd5b506101c86101c336600461142d565b6104ec565b005b3480156101d657600080fd5b506101c86101e5366004611457565b6104fb565b3480156101f657600080fd5b506101c8610205366004611457565b61058b565b34801561021657600080fd5b506101636040518060400160405280600d81526020016c617468656e79782e627261766560981b81525081565b34801561024f57600080fd5b5061019061025e3660046113f8565b6105ab565b34801561026f57600080fd5b5061028361027e366004611494565b6105b6565b604051908152602001610145565b34801561029d57600080fd5b506102836102ac366004611494565b600c6020526000908152604090205481565b3480156102ca57600080fd5b506102d36105fe565b60405161014597969594939291906114af565b3480156102f257600080fd5b5061028360095481565b34801561030857600080fd5b50610163610644565b61028361031f366004611593565b610653565b34801561033057600080fd5b506101c861033f366004611633565b610a4d565b34801561035057600080fd5b5061013961035f36600461166f565b600b60209081526000928352604080842090915290825290205460ff1681565b34801561038b57600080fd5b506101c861039a3660046116b1565b610a58565b3480156103ab57600080fd5b506101636103ba3660046113f8565b610a70565b3480156103cb57600080fd5b506101396103da366004611795565b610ae5565b60006001600160e01b031982166380ac58cd60e01b148061041057506001600160e01b03198216635b5e139f60e01b145b8061042b57506301ffc9a760e01b6001600160e01b03198316145b92915050565b606060018054610440906117bf565b80601f016020809104026020016040519081016040528092919081815260200182805461046c906117bf565b80156104b95780601f1061048e576101008083540402835291602001916104b9565b820191906000526020600020905b81548152906001019060200180831161049c57829003601f168201915b5050505050905090565b60006104ce82610b13565b506000828152600560205260409020546001600160a01b031661042b565b6104f7828233610b4c565b5050565b6001600160a01b03821661052a57604051633250574960e11b8152600060048201526024015b60405180910390fd5b6000610537838333610b59565b9050836001600160a01b0316816001600160a01b031614610585576040516364283d7b60e01b81526001600160a01b0380861660048301526024820184905282166044820152606401610521565b50505050565b6105a683838360405180602001604052806000815250610a58565b505050565b600061042b82610b13565b60006001600160a01b0382166105e2576040516322718ad960e21b815260006004820152602401610521565b506001600160a01b031660009081526004602052604090205490565b600060608060008060006060610612610c52565b61061a610c84565b60408051600080825260208201909252600f60f81b9b939a50919850469750309650945092509050565b606060028054610440906117bf565b60006001600160a01b03881661067c5760405163d92e233d60e01b815260040160405180910390fd5b600084900361069e57604051632432fdaf60e11b815260040160405180910390fd5b8382146106be5760405163162908e360e11b815260040160405180910390fd5b6000805b85811015610790578686828181106106dc576106dc6117f9565b905060200201356000036107035760405163162908e360e11b815260040160405180910390fd5b848482818110610715576107156117f9565b9050602002013560001415801561074457504285858381811061073a5761073a6117f9565b9050602002013511155b1561076257604051631da7447960e21b815260040160405180910390fd5b868682818110610774576107746117f9565b90506020020135826107869190611825565b91506001016106c2565b50863410156107b25760405163162908e360e11b815260040160405180910390fd5b60098054600091826107c383611838565b9190505590506000600a600083815260200190815260200160002090508a8160020160006101000a8154816001600160a01b0302191690836001600160a01b03160217905550898160030160006101000a8154816001600160a01b0302191690836001600160a01b031602179055508881600601819055503481600401819055506000816005018190555060008160070160006101000a81548160ff0219169083600381111561087557610875611851565b02179055504260098201558054600181810183556000838152602080822090930180546001600160a01b0319163390811790915580825282850184526040808320349055868352600b85528083209183529352918220805460ff191690911790555b878110156109a657816008016040518060a001604052808b8b85818110610900576109006117f9565b90506020020135815260200189898581811061091e5761091e6117f9565b602090810292909201358352506000828201819052604080840182905260609384018290528554600181810188559683529183902085516004909302019182559184015181860155908301516002820180549385015115156101000261ff00199215159290921661ffff199094169390931717909155608090910151600390910155016108d7565b506109b18b83610cb1565b896001600160a01b03168b6001600160a01b0316837f59e4b8728799382406714f1c57de5c893d2772f9a8bf9950c5afe4397e648654868d604051610a00929190918252602082015260400190565b60405180910390a4604051348152339083907f75aecd8d57cb4b1b263271bddb4961b993924dd466e6003c254832572d8a57e19060200160405180910390a3509998505050505050505050565b6104f7338383610ccb565b610a638484846104fb565b6105853385858585610d6a565b6060610a7b82610b13565b506000610a9360408051602081019091526000815290565b90506000815111610ab35760405180602001604052806000815250610ade565b80610abd84610e95565b604051602001610ace929190611867565b6040516020818303038152906040525b9392505050565b6001600160a01b03918216600090815260066020908152604080832093909416825291909152205460ff1690565b6000818152600360205260408120546001600160a01b03168061042b57604051637e27328960e01b815260048101849052602401610521565b6105a68383836001610f28565b6000828152600360205260408120546001600160a01b0390811690831615610b8657610b8681848661102e565b6001600160a01b03811615610bc457610ba3600085600080610f28565b6001600160a01b038116600090815260046020526040902080546000190190555b6001600160a01b03851615610bf3576001600160a01b0385166000908152600460205260409020805460010190555b60008481526003602052604080822080546001600160a01b0319166001600160a01b0389811691821790925591518793918516917fddf252ad1be2c89b69c2b068fc378daa952ba7f163c4a11628f55a4df523b3ef91a4949350505050565b6060610c7f7f00000000000000000000000000000000000000000000000000000000000000006007611092565b905090565b6060610c7f7f00000000000000000000000000000000000000000000000000000000000000006008611092565b6104f782826040518060200160405280600081525061113d565b6001600160a01b038216610cfd57604051630b61174360e31b81526001600160a01b0383166004820152602401610521565b6001600160a01b03838116600081815260066020908152604080832094871680845294825291829020805460ff191686151590811790915591519182527f17307eab39ab6107e8899845ad3d59bd9653f200f220920489ca2b5937696c31910160405180910390a3505050565b6001600160a01b0383163b15610e8e57604051630a85bd0160e11b81526001600160a01b0384169063150b7a0290610dac908890889087908790600401611896565b6020604051808303816000875af1925050508015610de7575060408051601f3d908101601f19168201909252610de4918101906118d3565b60015b610e50573d808015610e15576040519150601f19603f3d011682016040523d82523d6000602084013e610e1a565b606091505b508051600003610e4857604051633250574960e11b81526001600160a01b0385166004820152602401610521565b805160208201fd5b6001600160e01b03198116630a85bd0160e11b14610e8c57604051633250574960e11b81526001600160a01b0385166004820152602401610521565b505b5050505050565b60606000610ea283611155565b600101905060008167ffffffffffffffff811115610ec257610ec261169b565b6040519080825280601f01601f191660200182016040528015610eec576020820181803683370190505b5090508181016020015b600019016f181899199a1a9b1b9c1cb0b131b232b360811b600a86061a8153600a8504945084610ef657509392505050565b8080610f3c57506001600160a01b03821615155b15610ffe576000610f4c84610b13565b90506001600160a01b03831615801590610f785750826001600160a01b0316816001600160a01b031614155b8015610f8b5750610f898184610ae5565b155b15610fb45760405163a9fbf51f60e01b81526001600160a01b0384166004820152602401610521565b8115610ffc5783856001600160a01b0316826001600160a01b03167f8c5be1e5ebec7d5bd14f71427d1e84f3dd0314c0f7b2291e5b200ac8c7c3b92560405160405180910390a45b505b5050600090815260056020526040902080546001600160a01b0319166001600160a01b0392909216919091179055565b61103983838361122d565b6105a6576001600160a01b03831661106757604051637e27328960e01b815260048101829052602401610521565b60405163177e802f60e01b81526001600160a01b038316600482015260248101829052604401610521565b606060ff83146110ac576110a583611293565b905061042b565b8180546110b8906117bf565b80601f01602080910402602001604051908101604052809291908181526020018280546110e4906117bf565b80156111315780601f1061110657610100808354040283529160200191611131565b820191906000526020600020905b81548152906001019060200180831161111457829003601f168201915b5050505050905061042b565b61114783836112d2565b6105a6336000858585610d6a565b60008072184f03e93ff9f4daa797ed6e38ed64bf6a1f0160401b83106111945772184f03e93ff9f4daa797ed6e38ed64bf6a1f0160401b830492506040015b6d04ee2d6d415b85acef810000000083106111c0576d04ee2d6d415b85acef8100000000830492506020015b662386f26fc1000083106111de57662386f26fc10000830492506010015b6305f5e10083106111f6576305f5e100830492506008015b612710831061120a57612710830492506004015b6064831061121c576064830492506002015b600a831061042b5760010192915050565b60006001600160a01b0383161580159061128b5750826001600160a01b0316846001600160a01b0316148061126757506112678484610ae5565b8061128b57506000828152600560205260409020546001600160a01b038481169116145b949350505050565b606060006112a083611337565b604080516020808252818301909252919250600091906020820181803683375050509182525060208101929092525090565b6001600160a01b0382166112fc57604051633250574960e11b815260006004820152602401610521565b600061130a83836000610b59565b90506001600160a01b038116156105a6576040516339e3563760e11b815260006004820152602401610521565b600060ff8216601f81111561042b57604051632cd44ac360e21b815260040160405180910390fd5b6001600160e01b03198116811461137557600080fd5b50565b60006020828403121561138a57600080fd5b8135610ade8161135f565b60005b838110156113b0578181015183820152602001611398565b50506000910152565b600081518084526113d1816020860160208601611395565b601f01601f19169290920160200192915050565b602081526000610ade60208301846113b9565b60006020828403121561140a57600080fd5b5035919050565b80356001600160a01b038116811461142857600080fd5b919050565b6000806040838503121561144057600080fd5b61144983611411565b946020939093013593505050565b60008060006060848603121561146c57600080fd5b61147584611411565b925061148360208501611411565b929592945050506040919091013590565b6000602082840312156114a657600080fd5b610ade82611411565b60ff60f81b8816815260e0602082015260006114ce60e08301896113b9565b82810360408401526114e081896113b9565b606084018890526001600160a01b038716608085015260a0840186905283810360c08501528451808252602080870193509091019060005b81811015611536578351835260209384019390920191600101611518565b50909b9a5050505050505050505050565b60008083601f84011261155957600080fd5b50813567ffffffffffffffff81111561157157600080fd5b6020830191508360208260051b850101111561158c57600080fd5b9250929050565b600080600080600080600060a0888a0312156115ae57600080fd5b6115b788611411565b96506115c560208901611411565b955060408801359450606088013567ffffffffffffffff8111156115e857600080fd5b6115f48a828b01611547565b909550935050608088013567ffffffffffffffff81111561161457600080fd5b6116208a828b01611547565b989b979a50959850939692959293505050565b6000806040838503121561164657600080fd5b61164f83611411565b91506020830135801515811461166457600080fd5b809150509250929050565b6000806040838503121561168257600080fd5b8235915061169260208401611411565b90509250929050565b634e487b7160e01b600052604160045260246000fd5b600080600080608085870312156116c757600080fd5b6116d085611411565b93506116de60208601611411565b925060408501359150606085013567ffffffffffffffff81111561170157600080fd5b8501601f8101871361171257600080fd5b803567ffffffffffffffff81111561172c5761172c61169b565b604051601f8201601f19908116603f0116810167ffffffffffffffff8111828210171561175b5761175b61169b565b60405281815282820160200189101561177357600080fd5b8160208401602083013760006020838301015280935050505092959194509250565b600080604083850312156117a857600080fd5b6117b183611411565b915061169260208401611411565b600181811c908216806117d357607f821691505b6020821081036117f357634e487b7160e01b600052602260045260246000fd5b50919050565b634e487b7160e01b600052603260045260246000fd5b634e487b7160e01b600052601160045260246000fd5b8082018082111561042b5761042b61180f565b60006001820161184a5761184a61180f565b5060010190565b634e487b7160e01b600052602160045260246000fd5b60008351611879818460208801611395565b83519083019061188d818360208801611395565b01949350505050565b6001600160a01b03858116825284166020820152604081018390526080606082018190526000906118c9908301846113b9565b9695505050505050565b6000602082840312156118e557600080fd5b8151610ade8161135f56fea264697066735822122099dbf861c2bd15e90f4591b22a4539ee5df13d1ae8c0aa3f01c5ec574b58359a64736f6c634300081e0033",
  "linkReferences": {},
  "deployedLinkReferences": {}
}