{
  "_format": "hh-sol-artifact-1",
  "contractName": "Athenyx",
  "sourceName": "contracts/athenyx.sol",
  "abi": [
    {
      "inputs": [],
      "stateMutability": "nonpayable",
      "type": "constructor"
    },
    {
      "inputs": [
        {
          "internalType": "address",
          "name": "sender",
          "type": "address"
        },
        {
          "internalType": "uint256",
          "name": "tokenId",
          "type": "uint256"
        },
        {
          "internalType": "address",
          "name": "owner",
          "type": "address"
        }
      ],
      "name": "ERC721IncorrectOwner",
      "type": "error"
    },
    {
      "inputs": [
        {
          "internalType": "address",
          "name": "operator",
          "type": "address"
        },
        {
          "internalType": "uint256",
          "name": "tokenId",
          "type": "uint256"
        }
      ],
      "name": "ERC721InsufficientApproval",
      "type": "error"
    },
    {
      "inputs": [
        {
          "internalType": "address",
          "name": "approver",
          "type": "address"
        }
      ],
      "name": "ERC721InvalidApprover",
      "type": "error"
    },
    {
      "inputs": [
        {
          "internalType": "address",
          "name": "operator",
          "type": "address"
        }
      ],
      "name": "ERC721InvalidOperator",
      "type": "error"
    },
    {
      "inputs": [
        {
          "internalType": "address",
          "name": "owner",
          "type": "address"
        }
      ],
      "name": "ERC721InvalidOwner",
      "type": "error"
    },
    {
      "inputs": [
        {
          "internalType": "address",
          "name": "receiver",
          "type": "address"
        }
      ],
      "name": "ERC721InvalidReceiver",
      "type": "error"
    },
    {
      "inputs": [
        {
          "internalType": "address",
          "name": "sender",
          "type": "address"
        }
      ],
      "name": "ERC721InvalidSender",
      "type": "error"
    },
    {
      "inputs": [
        {
          "internalType": "uint256",
          "name": "tokenId",
          "type": "uint256"
        }
      ],
      "name": "ERC721NonexistentToken",
      "type": "error"
    },
    {
      "inputs": [],
      "name": "InvalidShortString",
      "type": "error"
    },
    {
      "inputs": [],
      "name": "ReentrancyGuardReentrantCall",
      "type": "error"
    },
    {
      "inputs": [
        {
          "internalType": "string",
          "name": "str",
          "type": "string"
        }
      ],
      "name": "StringTooLong",
      "type": "error"
    },
    {
      "anonymous": false,
      "inputs": [
        {
          "indexed": true,
          "internalType": "address",
          "name": "owner",
          "type": "address"
        },
        {
          "indexed": true,
          "internalType": "address",
          "name": "approved",
          "type": "address"
        },
        {
          "indexed": true,
          "internalType": "uint256",
          "name": "tokenId",
          "type": "uint256"
        }
      ],
      "name": "Approval",
      "type": "event"
    },
    {
      "anonymous": false,
      "inputs": [
        {
          "indexed": true,
          "internalType": "address",
          "name": "owner",
          "type": "address"
        },
        {
          "indexed": true,
          "internalType": "address",
          "name": "operator",
          "type": "address"
        },
        {
          "indexed": false,
          "internalType": "bool",
          "name": "approved",
          "type": "bool"
        }
      ],
      "name": "ApprovalForAll",
      "type": "event"
    },
    {
      "anonymous": false,
      "inputs": [],
      "name": "EIP712DomainChanged",
      "type": "event"
    },
    {
      "anonymous": false,
      "inputs": [
        {
          "indexed": true,
          "internalType": "address",
          "name": "from",
          "type": "address"
        },
        {
          "indexed": true,
          "internalType": "address",
          "name": "to",
          "type": "address"
        },
        {
          "indexed": true,
          "internalType": "uint256",
          "name": "tokenId",
          "type": "uint256"
        }
      ],
      "name": "Transfer",
      "type": "event"
    },
    {
      "inputs": [],
      "name": "DOMAIN",
      "outputs": [
        {
          "internalType": "string",
          "name": "",
          "type": "string"
        }
      ],
      "stateMutability": "view",
      "type": "function"
    },
    {
      "inputs": [
        {
          "internalType": "address",
          "name": "to",
          "type": "address"
        },
        {
          "internalType": "uint256",
          "name": "tokenId",
          "type": "uint256"
        }
      ],
      "name": "approve",
      "outputs": [],
      "stateMutability": "nonpayable",
      "type": "function"
    },
    {
      "inputs": [
        {
          "internalType": "address",
          "name": "owner",
          "type": "address"
        }
      ],
      "name": "balanceOf",
      "outputs": [
        {
          "internalType": "uint256",
          "name": "",
          "type": "uint256"
        }
      ],
      "stateMutability": "view",
      "type": "function"
    },
    {
      "inputs": [],
      "name": "eip712Domain",
      "outputs": [
        {
          "internalType": "bytes1",
          "name": "fields",
          "type": "bytes1"
        },
        {
          "internalType": "string",
          "name": "name",
          "type": "string"
        },
        {
          "internalType": "string",
          "name": "version",
          "type": "string"
        },
        {
          "internalType": "uint256",
          "name": "chainId",
          "type": "uint256"
        },
        {
          "internalType": "address",
          "name": "verifyingContract",
          "type": "address"
        },
        {
          "internalType": "bytes32",
          "name": "salt",
          "type": "bytes32"
        },
        {
          "internalType": "uint256[]",
          "name": "extensions",
          "type": "uint256[]"
        }
      ],
      "stateMutability": "view",
      "type": "function"
    },
    {
      "inputs": [
        {
          "internalType": "uint256",
          "name": "tokenId",
          "type": "uint256"
        }
      ],
      "name": "getApproved",
      "outputs": [
        {
          "internalType": "address",
          "name": "",
          "type": "address"
        }
      ],
      "stateMutability": "view",
      "type": "function"
    },
    {
      "inputs": [
        {
          "internalType": "address",
          "name": "owner",
          "type": "address"
        },
        {
          "internalType": "address",
          "name": "operator",
          "type": "address"
        }
      ],
      "name": "isApprovedForAll",
      "outputs": [
        {
          "internalType": "bool",
          "name": "",
          "type": "bool"
        }
      ],
      "stateMutability": "view",
      "type": "function"
    },
    {
      "inputs": [],
      "name": "name",
      "outputs": [
        {
          "internalType": "string",
          "name": "",
          "type": "string"
        }
      ],
      "stateMutability": "view",
      "type": "function"
    },
    {
      "inputs": [],
      "name": "nextEscrowId",
      "outputs": [
        {
          "internalType": "uint256",
          "name": "",
          "type": "uint256"
        }
      ],
      "stateMutability": "view",
      "type": "function"
    },
    {
      "inputs": [
        {
          "internalType": "uint256",
          "name": "tokenId",
          "type": "uint256"
        }
      ],
      "name": "ownerOf",
      "outputs": [
        {
          "internalType": "address",
          "name": "",
          "type": "address"
        }
      ],
      "stateMutability": "view",
      "type": "function"
    },
    {
      "inputs": [
        {
          "internalType": "address",
          "name": "from",
          "type": "address"
        },
        {
          "internalType": "address",
          "name": "to",
          "type": "address"
        },
        {
          "internalType": "uint256",
          "name": "tokenId",
          "type": "uint256"
        }
      ],
      "name": "safeTransferFrom",
      "outputs": [],
      "stateMutability": "nonpayable",
      "type": "function"
    },
    {
      "inputs": [
        {
          "internalType": "address",
          "name": "from",
          "type": "address"
        },
        {
          "internalType": "address",
          "name": "to",
          "type": "address"
        },
        {
          "internalType": "uint256",
          "name": "tokenId",
          "type": "uint256"
        },
        {
          "internalType": "bytes",
          "name": "data",
          "type": "bytes"
        }
      ],
      "name": "safeTransferFrom",
      "outputs": [],
      "stateMutability": "nonpayable",
      "type": "function"
    },
    {
      "inputs": [
        {
          "internalType": "address",
          "name": "operator",
          "type": "address"
        },
        {
          "internalType": "bool",
          "name": "approved",
          "type": "bool"
        }
      ],
      "name": "setApprovalForAll",
      "outputs": [],
      "stateMutability": "nonpayable",
      "type": "function"
    },
    {
      "inputs": [
        {
          "internalType": "bytes4",
          "name": "interfaceId",
          "type": "bytes4"
        }
      ],
      "name": "supportsInterface",
      "outputs": [
        {
          "internalType": "bool",
          "name": "",
          "type": "bool"
        }
      ],
      "stateMutability": "view",
      "type": "function"
    },
    {
      "inputs": [],
      "name": "symbol",
      "outputs": [
        {
          "internalType": "string",
          "name": "",
          "type": "string"
        }
      ],
      "stateMutability": "view",
      "type": "function"
    },
    {
      "inputs": [
        {
          "internalType": "uint256",
          "name": "tokenId",
          "type": "uint256"
        }
      ],
      "name": "tokenURI",
      "outputs": [
        {
          "internalType": "string",
          "name": "",
          "type": "string"
        }
      ],
      "stateMutability": "view",
      "type": "function"
    },
    {
      "inputs": [
        {
          "internalType": "address",
          "name": "from",
          "type": "address"
        },
        {
          "internalType": "address",
          "name": "to",
          "type": "address"
        },
        {
          "internalType": "uint256",
          "name": "tokenId",
          "type": "uint256"
        }
      ],
      "name": "transferFrom",
      "outputs": [],
      "stateMutability": "nonpayable",
      "type": "function"
    }
  ],
  "bytecode": "0x61016060405234801561001157600080fd5b5060405180604001604052806007815260200166082e8d0cadcf2f60cb1b815250604051806040016040528060018152602001603160f81b8152506040518060400160405280600e81526020016d417468656e797820457363726f7760901b81525060405180604001604052806004815260200163082a890b60e31b815250600160008190555081600190816100a79190610287565b5060026100b48282610287565b506100c49150839050600761016e565b610120526100d381600861016e565b61014052815160208084019190912060e052815190820120610100524660a05261016060e05161010051604080517f8b73c3c69bb8fe3d512ecc4cf759cc79239f7b179b0ffacaa9a75d522b39400f60208201529081019290925260608201524660808201523060a082015260009060c00160405160208183030381529060405280519060200120905090565b60805250503060c0526103b7565b600060208351101561018a57610183836101a1565b905061019b565b816101958482610287565b5060ff90505b92915050565b600080829050601f815111156101d5578260405163305a27a960e01b81526004016101cc9190610345565b60405180910390fd5b80516101e082610393565b179392505050565b634e487b7160e01b600052604160045260246000fd5b600181811c9082168061021257607f821691505b60208210810361023257634e487b7160e01b600052602260045260246000fd5b50919050565b601f82111561028257806000526020600020601f840160051c8101602085101561025f5750805b601f840160051c820191505b8181101561027f576000815560010161026b565b50505b505050565b81516001600160401b038111156102a0576102a06101e8565b6102b4816102ae84546101fe565b84610238565b6020601f8211600181146102e857600083156102d05750848201515b600019600385901b1c1916600184901b17845561027f565b600084815260208120601f198516915b8281101561031857878501518255602094850194600190920191016102f8565b50848210156103365786840151600019600387901b60f8161c191681555b50505050600190811b01905550565b602081526000825180602084015260005b818110156103735760208186018101516040868401015201610356565b506000604082850101526040601f19601f83011684010191505092915050565b805160208083015191908110156102325760001960209190910360031b1b16919050565b60805160a05160c05160e0516101005161012051610140516111b9610402600039600061073201526000610700015260005050600050506000505060005050600050506111b96000f3fe608060405234801561001057600080fd5b50600436106101005760003560e01c806370a0823111610097578063a22cb46511610066578063a22cb46514610234578063b88d4fde14610247578063c87b56dd1461025a578063e985e9c51461026d57600080fd5b806370a08231146101e757806384b0196e1461020857806389cb29dd1461022357806395d89b411461022c57600080fd5b806323b872dd116100d357806323b872dd1461018257806342842e0e1461019557806352a9674b146101a85780636352211e146101d457600080fd5b806301ffc9a71461010557806306fdde031461012d578063081812fc14610142578063095ea7b31461016d575b600080fd5b610118610113366004610d88565b610280565b60405190151581526020015b60405180910390f35b6101356102d2565b6040516101249190610df5565b610155610150366004610e08565b610364565b6040516001600160a01b039091168152602001610124565b61018061017b366004610e3d565b61038d565b005b610180610190366004610e67565b61039c565b6101806101a3366004610e67565b61042c565b6101356040518060400160405280600d81526020016c617468656e79782e627261766560981b81525081565b6101556101e2366004610e08565b61044c565b6101fa6101f5366004610ea4565b610457565b604051908152602001610124565b61021061049f565b6040516101249796959493929190610ebf565b6101fa60095481565b6101356104e5565b610180610242366004610f57565b6104f4565b610180610255366004610fa9565b6104ff565b610135610268366004610e08565b610517565b61011861027b36600461108d565b61058c565b60006001600160e01b031982166380ac58cd60e01b14806102b157506001600160e01b03198216635b5e139f60e01b145b806102cc57506301ffc9a760e01b6001600160e01b03198316145b92915050565b6060600180546102e1906110c0565b80601f016020809104026020016040519081016040528092919081815260200182805461030d906110c0565b801561035a5780601f1061032f5761010080835404028352916020019161035a565b820191906000526020600020905b81548152906001019060200180831161033d57829003601f168201915b5050505050905090565b600061036f826105ba565b506000828152600560205260409020546001600160a01b03166102cc565b6103988282336105f3565b5050565b6001600160a01b0382166103cb57604051633250574960e11b8152600060048201526024015b60405180910390fd5b60006103d8838333610600565b9050836001600160a01b0316816001600160a01b031614610426576040516364283d7b60e01b81526001600160a01b03808616600483015260248201849052821660448201526064016103c2565b50505050565b610447838383604051806020016040528060008152506104ff565b505050565b60006102cc826105ba565b60006001600160a01b038216610483576040516322718ad960e21b8152600060048201526024016103c2565b506001600160a01b031660009081526004602052604090205490565b6000606080600080600060606104b36106f9565b6104bb61072b565b60408051600080825260208201909252600f60f81b9b939a50919850469750309650945092509050565b6060600280546102e1906110c0565b610398338383610758565b61050a84848461039c565b61042633858585856107f7565b6060610522826105ba565b50600061053a60408051602081019091526000815290565b9050600081511161055a5760405180602001604052806000815250610585565b8061056484610922565b6040516020016105759291906110fa565b6040516020818303038152906040525b9392505050565b6001600160a01b03918216600090815260066020908152604080832093909416825291909152205460ff1690565b6000818152600360205260408120546001600160a01b0316806102cc57604051637e27328960e01b8152600481018490526024016103c2565b61044783838360016109b5565b6000828152600360205260408120546001600160a01b039081169083161561062d5761062d818486610abb565b6001600160a01b0381161561066b5761064a6000856000806109b5565b6001600160a01b038116600090815260046020526040902080546000190190555b6001600160a01b0385161561069a576001600160a01b0385166000908152600460205260409020805460010190555b60008481526003602052604080822080546001600160a01b0319166001600160a01b0389811691821790925591518793918516917fddf252ad1be2c89b69c2b068fc378daa952ba7f163c4a11628f55a4df523b3ef91a4949350505050565b60606107267f00000000000000000000000000000000000000000000000000000000000000006007610b1f565b905090565b60606107267f00000000000000000000000000000000000000000000000000000000000000006008610b1f565b6001600160a01b03821661078a57604051630b61174360e31b81526001600160a01b03831660048201526024016103c2565b6001600160a01b03838116600081815260066020908152604080832094871680845294825291829020805460ff191686151590811790915591519182527f17307eab39ab6107e8899845ad3d59bd9653f200f220920489ca2b5937696c31910160405180910390a3505050565b6001600160a01b0383163b1561091b57604051630a85bd0160e11b81526001600160a01b0384169063150b7a0290610839908890889087908790600401611129565b6020604051808303816000875af1925050508015610874575060408051601f3d908101601f1916820190925261087191810190611166565b60015b6108dd573d8080156108a2576040519150601f19603f3d011682016040523d82523d6000602084013e6108a7565b606091505b5080516000036108d557604051633250574960e11b81526001600160a01b03851660048201526024016103c2565b805160208201fd5b6001600160e01b03198116630a85bd0160e11b1461091957604051633250574960e11b81526001600160a01b03851660048201526024016103c2565b505b5050505050565b6060600061092f83610bca565b600101905060008167ffffffffffffffff81111561094f5761094f610f93565b6040519080825280601f01601f191660200182016040528015610979576020820181803683370190505b5090508181016020015b600019016f181899199a1a9b1b9c1cb0b131b232b360811b600a86061a8153600a850494508461098357509392505050565b80806109c957506001600160a01b03821615155b15610a8b5760006109d9846105ba565b90506001600160a01b03831615801590610a055750826001600160a01b0316816001600160a01b031614155b8015610a185750610a16818461058c565b155b15610a415760405163a9fbf51f60e01b81526001600160a01b03841660048201526024016103c2565b8115610a895783856001600160a01b0316826001600160a01b03167f8c5be1e5ebec7d5bd14f71427d1e84f3dd0314c0f7b2291e5b200ac8c7c3b92560405160405180910390a45b505b5050600090815260056020526040902080546001600160a01b0319166001600160a01b0392909216919091179055565b610ac6838383610ca2565b610447576001600160a01b038316610af457604051637e27328960e01b8152600481018290526024016103c2565b60405163177e802f60e01b81526001600160a01b0383166004820152602481018290526044016103c2565b606060ff8314610b3957610b3283610d08565b90506102cc565b818054610b45906110c0565b80601f0160208091040260200160405190810160405280929190818152602001828054610b71906110c0565b8015610bbe5780601f10610b9357610100808354040283529160200191610bbe565b820191906000526020600020905b815481529060010190602001808311610ba157829003601f168201915b505050505090506102cc565b60008072184f03e93ff9f4daa797ed6e38ed64bf6a1f0160401b8310610c095772184f03e93ff9f4daa797ed6e38ed64bf6a1f0160401b830492506040015b6d04ee2d6d415b85acef81000000008310610c35576d04ee2d6d415b85acef8100000000830492506020015b662386f26fc100008310610c5357662386f26fc10000830492506010015b6305f5e1008310610c6b576305f5e100830492506008015b6127108310610c7f57612710830492506004015b60648310610c91576064830492506002015b600a83106102cc5760010192915050565b60006001600160a01b03831615801590610d005750826001600160a01b0316846001600160a01b03161480610cdc5750610cdc848461058c565b80610d0057506000828152600560205260409020546001600160a01b038481169116145b949350505050565b60606000610d1583610d47565b604080516020808252818301909252919250600091906020820181803683375050509182525060208101929092525090565b600060ff8216601f8111156102cc57604051632cd44ac360e21b815260040160405180910390fd5b6001600160e01b031981168114610d8557600080fd5b50565b600060208284031215610d9a57600080fd5b813561058581610d6f565b60005b83811015610dc0578181015183820152602001610da8565b50506000910152565b60008151808452610de1816020860160208601610da5565b601f01601f19169290920160200192915050565b6020815260006105856020830184610dc9565b600060208284031215610e1a57600080fd5b5035919050565b80356001600160a01b0381168114610e3857600080fd5b919050565b60008060408385031215610e5057600080fd5b610e5983610e21565b946020939093013593505050565b600080600060608486031215610e7c57600080fd5b610e8584610e21565b9250610e9360208501610e21565b929592945050506040919091013590565b600060208284031215610eb657600080fd5b61058582610e21565b60ff60f81b8816815260e060208201526000610ede60e0830189610dc9565b8281036040840152610ef08189610dc9565b606084018890526001600160a01b038716608085015260a0840186905283810360c08501528451808252602080870193509091019060005b81811015610f46578351835260209384019390920191600101610f28565b50909b9a5050505050505050505050565b60008060408385031215610f6a57600080fd5b610f7383610e21565b915060208301358015158114610f8857600080fd5b809150509250929050565b634e487b7160e01b600052604160045260246000fd5b60008060008060808587031215610fbf57600080fd5b610fc885610e21565b9350610fd660208601610e21565b925060408501359150606085013567ffffffffffffffff811115610ff957600080fd5b8501601f8101871361100a57600080fd5b803567ffffffffffffffff81111561102457611024610f93565b604051601f8201601f19908116603f0116810167ffffffffffffffff8111828210171561105357611053610f93565b60405281815282820160200189101561106b57600080fd5b8160208401602083013760006020838301015280935050505092959194509250565b600080604083850312156110a057600080fd5b6110a983610e21565b91506110b760208401610e21565b90509250929050565b600181811c908216806110d457607f821691505b6020821081036110f457634e487b7160e01b600052602260045260246000fd5b50919050565b6000835161110c818460208801610da5565b835190830190611120818360208801610da5565b01949350505050565b6001600160a01b038581168252841660208201526040810183905260806060820181905260009061115c90830184610dc9565b9695505050505050565b60006020828403121561117857600080fd5b815161058581610d6f56fea264697066735822122036fb5f069cfe07bd5abf6fe4cc1f775786513e8215b27ad5d24405e10a90a6c664736f6c634300081e0033",
  "linkReferences": {},
  "deployedLinkReferences": {}
}