{
  "_format": "hh-sol-artifact-1",
  "contractName": "Athenyx",
  "sourceName": "contracts/athenyx.sol",
  "abi": [
    {
      "inputs": [],
      "stateMutability": "nonpayable",
      "type": "constructor"
    },
    {
      "inputs": [],
      "name": "AlreadyApproved",
      "type": "error"
    },
    {
      "inputs": [],
      "name": "AlreadyReleased",
      "type": "error"
    },
    {
      "inputs": [],
      "name": "DeadlineNotPassed",
      "type": "error"
    },
    {
      "inputs": [],
      "name": "ECDSAInvalidSignature",
      "type": "error"
    },
    {
      "inputs": [
        {
          "internalType": "uint256",
          "name": "length",
          "type": "uint256"
        }
      ],
      "name": "ECDSAInvalidSignatureLength",
      "type": "error"
    },
    {
      "inputs": [
        {
          "internalType": "bytes32",
          "name": "s",
          "type": "bytes32"
        }
      ],
      "name": "ECDSAInvalidSignatureS",
      "type": "error"
    },
    {
      "inputs": [
        {
          "internalType": "address",
          "name": "sender",
          "type": "address"
        },
        {
          "internalType": "uint256",
          "name": "tokenId",
          "type": "uint256"
        },
        {
          "internalType": "address",
          "name": "owner",
          "type": "address"
        }
      ],
      "name": "ERC721IncorrectOwner",
      "type": "error"
    },
    {
      "inputs": [
        {
          "internalType": "address",
          "name": "operator",
          "type": "address"
        },
        {
          "internalType": "uint256",
          "name": "tokenId",
          "type": "uint256"
        }
      ],
      "name": "ERC721InsufficientApproval",
      "type": "error"
    },
    {
      "inputs": [
        {
          "internalType": "address",
          "name": "approver",
          "type": "address"
        }
      ],
      "name": "ERC721InvalidApprover",
      "type": "error"
    },
    {
      "inputs": [
        {
          "internalType": "address",
          "name": "operator",
          "type": "address"
        }
      ],
      "name": "ERC721InvalidOperator",
      "type": "error"
    },
    {
      "inputs": [
        {
          "internalType": "address",
          "name": "owner",
          "type": "address"
        }
      ],
      "name": "ERC721InvalidOwner",
      "type": "error"
    },
    {
      "inputs": [
        {
          "internalType": "address",
          "name": "receiver",
          "type": "address"
        }
      ],
      "name": "ERC721InvalidReceiver",
      "type": "error"
    },
    {
      "inputs": [
        {
          "internalType": "address",
          "name": "sender",
          "type": "address"
        }
      ],
      "name": "ERC721InvalidSender",
      "type": "error"
    },
    {
      "inputs": [
        {
          "internalType": "uint256",
          "name": "tokenId",
          "type": "uint256"
        }
      ],
      "name": "ERC721NonexistentToken",
      "type": "error"
    },
    {
      "inputs": [],
      "name": "EmptyMilestones",
      "type": "error"
    },
    {
      "inputs": [],
      "name": "InsufficientFunds",
      "type": "error"
    },
    {
      "inputs": [],
      "name": "InvalidAmount",
      "type": "error"
    },
    {
      "inputs": [],
      "name": "InvalidDeadline",
      "type": "error"
    },
    {
      "inputs": [],
      "name": "InvalidShortString",
      "type": "error"
    },
    {
      "inputs": [],
      "name": "InvalidSignature",
      "type": "error"
    },
    {
      "inputs": [],
      "name": "InvalidState",
      "type": "error"
    },
    {
      "inputs": [],
      "name": "NotApproved",
      "type": "error"
    },
    {
      "inputs": [],
      "name": "ReentrancyGuardReentrantCall",
      "type": "error"
    },
    {
      "inputs": [],
      "name": "SignatureExpired",
      "type": "error"
    },
    {
      "inputs": [
        {
          "internalType": "string",
          "name": "str",
          "type": "string"
        }
      ],
      "name": "StringTooLong",
      "type": "error"
    },
    {
      "inputs": [],
      "name": "TransferFailed",
      "type": "error"
    },
    {
      "inputs": [],
      "name": "Unauthorized",
      "type": "error"
    },
    {
      "inputs": [],
      "name": "ZeroAddress",
      "type": "error"
    },
    {
      "anonymous": false,
      "inputs": [
        {
          "indexed": true,
          "internalType": "address",
          "name": "owner",
          "type": "address"
        },
        {
          "indexed": true,
          "internalType": "address",
          "name": "approved",
          "type": "address"
        },
        {
          "indexed": true,
          "internalType": "uint256",
          "name": "tokenId",
          "type": "uint256"
        }
      ],
      "name": "Approval",
      "type": "event"
    },
    {
      "anonymous": false,
      "inputs": [
        {
          "indexed": true,
          "internalType": "address",
          "name": "owner",
          "type": "address"
        },
        {
          "indexed": true,
          "internalType": "address",
          "name": "operator",
          "type": "address"
        },
        {
          "indexed": false,
          "internalType": "bool",
          "name": "approved",
          "type": "bool"
        }
      ],
      "name": "ApprovalForAll",
      "type": "event"
    },
    {
      "anonymous": false,
      "inputs": [
        {
          "indexed": true,
          "internalType": "uint256",
          "name": "escrowId",
          "type": "uint256"
        },
        {
          "indexed": true,
          "internalType": "address",
          "name": "payer",
          "type": "address"
        },
        {
          "indexed": false,
          "internalType": "uint256",
          "name": "amount",
          "type": "uint256"
        }
      ],
      "name": "ContributionAdded",
      "type": "event"
    },
    {
      "anonymous": false,
      "inputs": [
        {
          "indexed": true,
          "internalType": "uint256",
          "name": "escrowId",
          "type": "uint256"
        },
        {
          "indexed": true,
          "internalType": "address",
          "name": "initiator",
          "type": "address"
        }
      ],
      "name": "DisputeRaised",
      "type": "event"
    },
    {
      "anonymous": false,
      "inputs": [
        {
          "indexed": true,
          "internalType": "uint256",
          "name": "escrowId",
          "type": "uint256"
        },
        {
          "indexed": false,
          "internalType": "uint256[]",
          "name": "releasedMilestones",
          "type": "uint256[]"
        }
      ],
      "name": "DisputeResolved",
      "type": "event"
    },
    {
      "anonymous": false,
      "inputs": [],
      "name": "EIP712DomainChanged",
      "type": "event"
    },
    {
      "anonymous": false,
      "inputs": [
        {
          "indexed": true,
          "internalType": "uint256",
          "name": "escrowId",
          "type": "uint256"
        },
        {
          "indexed": false,
          "internalType": "uint256",
          "name": "refundAmount",
          "type": "uint256"
        }
      ],
      "name": "EscrowCancelled",
      "type": "event"
    },
    {
      "anonymous": false,
      "inputs": [
        {
          "indexed": true,
          "internalType": "uint256",
          "name": "escrowId",
          "type": "uint256"
        }
      ],
      "name": "EscrowCompleted",
      "type": "event"
    },
    {
      "anonymous": false,
      "inputs": [
        {
          "indexed": true,
          "internalType": "uint256",
          "name": "escrowId",
          "type": "uint256"
        },
        {
          "indexed": true,
          "internalType": "address",
          "name": "seller",
          "type": "address"
        },
        {
          "indexed": true,
          "internalType": "address",
          "name": "arbiter",
          "type": "address"
        },
        {
          "indexed": false,
          "internalType": "uint256",
          "name": "totalAmount",
          "type": "uint256"
        },
        {
          "indexed": false,
          "internalType": "uint256",
          "name": "arbiterFee",
          "type": "uint256"
        }
      ],
      "name": "EscrowCreated",
      "type": "event"
    },
    {
      "anonymous": false,
      "inputs": [
        {
          "indexed": true,
          "internalType": "uint256",
          "name": "escrowId",
          "type": "uint256"
        },
        {
          "indexed": true,
          "internalType": "uint256",
          "name": "milestoneIndex",
          "type": "uint256"
        },
        {
          "indexed": false,
          "internalType": "address",
          "name": "approver",
          "type": "address"
        }
      ],
      "name": "MilestoneApproved",
      "type": "event"
    },
    {
      "anonymous": false,
      "inputs": [
        {
          "indexed": true,
          "internalType": "uint256",
          "name": "escrowId",
          "type": "uint256"
        },
        {
          "indexed": true,
          "internalType": "uint256",
          "name": "milestoneIndex",
          "type": "uint256"
        },
        {
          "indexed": false,
          "internalType": "uint256",
          "name": "amount",
          "type": "uint256"
        }
      ],
      "name": "MilestoneReleased",
      "type": "event"
    },
    {
      "anonymous": false,
      "inputs": [
        {
          "indexed": true,
          "internalType": "address",
          "name": "from",
          "type": "address"
        },
        {
          "indexed": true,
          "internalType": "address",
          "name": "to",
          "type": "address"
        },
        {
          "indexed": true,
          "internalType": "uint256",
          "name": "tokenId",
          "type": "uint256"
        }
      ],
      "name": "Transfer",
      "type": "event"
    },
    {
      "inputs": [],
      "name": "DOMAIN",
      "outputs": [
        {
          "internalType": "string",
          "name": "",
          "type": "string"
        }
      ],
      "stateMutability": "view",
      "type": "function"
    },
    {
      "inputs": [
        {
          "internalType": "address",
          "name": "to",
          "type": "address"
        },
        {
          "internalType": "uint256",
          "name": "tokenId",
          "type": "uint256"
        }
      ],
      "name": "approve",
      "outputs": [],
      "stateMutability": "nonpayable",
      "type": "function"
    },
    {
      "inputs": [
        {
          "internalType": "uint256",
          "name": "escrowId",
          "type": "uint256"
        },
        {
          "internalType": "uint256",
          "name": "milestoneIndex",
          "type": "uint256"
        }
      ],
      "name": "approveMilestone",
      "outputs": [],
      "stateMutability": "nonpayable",
      "type": "function"
    },
    {
      "inputs": [
        {
          "internalType": "uint256",
          "name": "escrowId",
          "type": "uint256"
        },
        {
          "internalType": "uint256",
          "name": "milestoneIndex",
          "type": "uint256"
        },
        {
          "internalType": "uint256",
          "name": "signatureDeadline",
          "type": "uint256"
        },
        {
          "internalType": "bytes",
          "name": "signature",
          "type": "bytes"
        }
      ],
      "name": "approveMilestoneWithSignature",
      "outputs": [],
      "stateMutability": "nonpayable",
      "type": "function"
    },
    {
      "inputs": [
        {
          "internalType": "address",
          "name": "owner",
          "type": "address"
        }
      ],
      "name": "balanceOf",
      "outputs": [
        {
          "internalType": "uint256",
          "name": "",
          "type": "uint256"
        }
      ],
      "stateMutability": "view",
      "type": "function"
    },
    {
      "inputs": [
        {
          "internalType": "uint256",
          "name": "escrowId",
          "type": "uint256"
        }
      ],
      "name": "cancelEscrow",
      "outputs": [],
      "stateMutability": "nonpayable",
      "type": "function"
    },
    {
      "inputs": [
        {
          "internalType": "uint256",
          "name": "escrowId",
          "type": "uint256"
        },
        {
          "internalType": "uint256",
          "name": "milestoneIndex",
          "type": "uint256"
        }
      ],
      "name": "claimExpiredMilestone",
      "outputs": [],
      "stateMutability": "nonpayable",
      "type": "function"
    },
    {
      "inputs": [
        {
          "internalType": "uint256",
          "name": "escrowId",
          "type": "uint256"
        }
      ],
      "name": "contributeToEscrow",
      "outputs": [],
      "stateMutability": "payable",
      "type": "function"
    },
    {
      "inputs": [
        {
          "internalType": "address",
          "name": "seller",
          "type": "address"
        },
        {
          "internalType": "address",
          "name": "arbiter",
          "type": "address"
        },
        {
          "internalType": "uint256",
          "name": "arbiterFee",
          "type": "uint256"
        },
        {
          "internalType": "uint256[]",
          "name": "milestoneAmounts",
          "type": "uint256[]"
        },
        {
          "internalType": "uint256[]",
          "name": "milestoneDeadlines",
          "type": "uint256[]"
        }
      ],
      "name": "createEscrow",
      "outputs": [
        {
          "internalType": "uint256",
          "name": "",
          "type": "uint256"
        }
      ],
      "stateMutability": "payable",
      "type": "function"
    },
    {
      "inputs": [],
      "name": "eip712Domain",
      "outputs": [
        {
          "internalType": "bytes1",
          "name": "fields",
          "type": "bytes1"
        },
        {
          "internalType": "string",
          "name": "name",
          "type": "string"
        },
        {
          "internalType": "string",
          "name": "version",
          "type": "string"
        },
        {
          "internalType": "uint256",
          "name": "chainId",
          "type": "uint256"
        },
        {
          "internalType": "address",
          "name": "verifyingContract",
          "type": "address"
        },
        {
          "internalType": "bytes32",
          "name": "salt",
          "type": "bytes32"
        },
        {
          "internalType": "uint256[]",
          "name": "extensions",
          "type": "uint256[]"
        }
      ],
      "stateMutability": "view",
      "type": "function"
    },
    {
      "inputs": [
        {
          "internalType": "uint256",
          "name": "tokenId",
          "type": "uint256"
        }
      ],
      "name": "getApproved",
      "outputs": [
        {
          "internalType": "address",
          "name": "",
          "type": "address"
        }
      ],
      "stateMutability": "view",
      "type": "function"
    },
    {
      "inputs": [
        {
          "internalType": "uint256",
          "name": "escrowId",
          "type": "uint256"
        },
        {
          "internalType": "address",
          "name": "payer",
          "type": "address"
        }
      ],
      "name": "getContribution",
      "outputs": [
        {
          "internalType": "uint256",
          "name": "",
          "type": "uint256"
        }
      ],
      "stateMutability": "view",
      "type": "function"
    },
    {
      "inputs": [
        {
          "internalType": "uint256",
          "name": "escrowId",
          "type": "uint256"
        }
      ],
      "name": "getEscrowDetails",
      "outputs": [
        {
          "internalType": "address[]",
          "name": "payers",
          "type": "address[]"
        },
        {
          "internalType": "address",
          "name": "seller",
          "type": "address"
        },
        {
          "internalType": "address",
          "name": "arbiter",
          "type": "address"
        },
        {
          "internalType": "uint256",
          "name": "totalFunded",
          "type": "uint256"
        },
        {
          "internalType": "uint256",
          "name": "totalReleased",
          "type": "uint256"
        },
        {
          "internalType": "uint256",
          "name": "arbiterFee",
          "type": "uint256"
        },
        {
          "internalType": "enum Athenyx.EscrowState",
          "name": "state",
          "type": "uint8"
        },
        {
          "internalType": "uint256",
          "name": "createdAt",
          "type": "uint256"
        }
      ],
      "stateMutability": "view",
      "type": "function"
    },
    {
      "inputs": [
        {
          "internalType": "uint256",
          "name": "escrowId",
          "type": "uint256"
        },
        {
          "internalType": "uint256",
          "name": "milestoneIndex",
          "type": "uint256"
        }
      ],
      "name": "getMilestone",
      "outputs": [
        {
          "internalType": "uint256",
          "name": "amount",
          "type": "uint256"
        },
        {
          "internalType": "uint256",
          "name": "deadline",
          "type": "uint256"
        },
        {
          "internalType": "bool",
          "name": "approved",
          "type": "bool"
        },
        {
          "internalType": "bool",
          "name": "released",
          "type": "bool"
        }
      ],
      "stateMutability": "view",
      "type": "function"
    },
    {
      "inputs": [
        {
          "internalType": "uint256",
          "name": "escrowId",
          "type": "uint256"
        }
      ],
      "name": "getMilestoneCount",
      "outputs": [
        {
          "internalType": "uint256",
          "name": "",
          "type": "uint256"
        }
      ],
      "stateMutability": "view",
      "type": "function"
    },
    {
      "inputs": [
        {
          "internalType": "uint256",
          "name": "",
          "type": "uint256"
        },
        {
          "internalType": "address",
          "name": "",
          "type": "address"
        }
      ],
      "name": "hasContributed",
      "outputs": [
        {
          "internalType": "bool",
          "name": "",
          "type": "bool"
        }
      ],
      "stateMutability": "view",
      "type": "function"
    },
    {
      "inputs": [
        {
          "internalType": "address",
          "name": "owner",
          "type": "address"
        },
        {
          "internalType": "address",
          "name": "operator",
          "type": "address"
        }
      ],
      "name": "isApprovedForAll",
      "outputs": [
        {
          "internalType": "bool",
          "name": "",
          "type": "bool"
        }
      ],
      "stateMutability": "view",
      "type": "function"
    },
    {
      "inputs": [],
      "name": "name",
      "outputs": [
        {
          "internalType": "string",
          "name": "",
          "type": "string"
        }
      ],
      "stateMutability": "view",
      "type": "function"
    },
    {
      "inputs": [],
      "name": "nextEscrowId",
      "outputs": [
        {
          "internalType": "uint256",
          "name": "",
          "type": "uint256"
        }
      ],
      "stateMutability": "view",
      "type": "function"
    },
    {
      "inputs": [
        {
          "internalType": "address",
          "name": "",
          "type": "address"
        }
      ],
      "name": "nonces",
      "outputs": [
        {
          "internalType": "uint256",
          "name": "",
          "type": "uint256"
        }
      ],
      "stateMutability": "view",
      "type": "function"
    },
    {
      "inputs": [
        {
          "internalType": "uint256",
          "name": "tokenId",
          "type": "uint256"
        }
      ],
      "name": "ownerOf",
      "outputs": [
        {
          "internalType": "address",
          "name": "",
          "type": "address"
        }
      ],
      "stateMutability": "view",
      "type": "function"
    },
    {
      "inputs": [
        {
          "internalType": "uint256",
          "name": "escrowId",
          "type": "uint256"
        }
      ],
      "name": "raiseDispute",
      "outputs": [],
      "stateMutability": "nonpayable",
      "type": "function"
    },
    {
      "inputs": [
        {
          "internalType": "uint256",
          "name": "escrowId",
          "type": "uint256"
        },
        {
          "internalType": "uint256",
          "name": "milestoneIndex",
          "type": "uint256"
        }
      ],
      "name": "refundExpiredMilestone",
      "outputs": [],
      "stateMutability": "nonpayable",
      "type": "function"
    },
    {
      "inputs": [
        {
          "internalType": "uint256",
          "name": "escrowId",
          "type": "uint256"
        },
        {
          "internalType": "uint256",
          "name": "milestoneIndex",
          "type": "uint256"
        }
      ],
      "name": "releaseMilestone",
      "outputs": [],
      "stateMutability": "nonpayable",
      "type": "function"
    },
    {
      "inputs": [
        {
          "internalType": "uint256",
          "name": "escrowId",
          "type": "uint256"
        },
        {
          "internalType": "uint256[]",
          "name": "milestoneIndicesToRelease",
          "type": "uint256[]"
        }
      ],
      "name": "resolveDispute",
      "outputs": [],
      "stateMutability": "nonpayable",
      "type": "function"
    },
    {
      "inputs": [
        {
          "internalType": "address",
          "name": "from",
          "type": "address"
        },
        {
          "internalType": "address",
          "name": "to",
          "type": "address"
        },
        {
          "internalType": "uint256",
          "name": "tokenId",
          "type": "uint256"
        }
      ],
      "name": "safeTransferFrom",
      "outputs": [],
      "stateMutability": "nonpayable",
      "type": "function"
    },
    {
      "inputs": [
        {
          "internalType": "address",
          "name": "from",
          "type": "address"
        },
        {
          "internalType": "address",
          "name": "to",
          "type": "address"
        },
        {
          "internalType": "uint256",
          "name": "tokenId",
          "type": "uint256"
        },
        {
          "internalType": "bytes",
          "name": "data",
          "type": "bytes"
        }
      ],
      "name": "safeTransferFrom",
      "outputs": [],
      "stateMutability": "nonpayable",
      "type": "function"
    },
    {
      "inputs": [
        {
          "internalType": "address",
          "name": "operator",
          "type": "address"
        },
        {
          "internalType": "bool",
          "name": "approved",
          "type": "bool"
        }
      ],
      "name": "setApprovalForAll",
      "outputs": [],
      "stateMutability": "nonpayable",
      "type": "function"
    },
    {
      "inputs": [
        {
          "internalType": "bytes4",
          "name": "interfaceId",
          "type": "bytes4"
        }
      ],
      "name": "supportsInterface",
      "outputs": [
        {
          "internalType": "bool",
          "name": "",
          "type": "bool"
        }
      ],
      "stateMutability": "view",
      "type": "function"
    },
    {
      "inputs": [],
      "name": "symbol",
      "outputs": [
        {
          "internalType": "string",
          "name": "",
          "type": "string"
        }
      ],
      "stateMutability": "view",
      "type": "function"
    },
    {
      "inputs": [
        {
          "internalType": "uint256",
          "name": "tokenId",
          "type": "uint256"
        }
      ],
      "name": "tokenURI",
      "outputs": [
        {
          "internalType": "string",
          "name": "",
          "type": "string"
        }
      ],
      "stateMutability": "view",
      "type": "function"
    },
    {
      "inputs": [
        {
          "internalType": "address",
          "name": "from",
          "type": "address"
        },
        {
          "internalType": "address",
          "name": "to",
          "type": "address"
        },
        {
          "internalType": "uint256",
          "name": "tokenId",
          "type": "uint256"
        }
      ],
      "name": "transferFrom",
      "outputs": [],
      "stateMutability": "nonpayable",
      "type": "function"
    }
  ],
  "bytecode": "0x61016060405234801561001157600080fd5b5060405180604001604052806007815260200166082e8d0cadcf2f60cb1b815250604051806040016040528060018152602001603160f81b8152506040518060400160405280600e81526020016d417468656e797820457363726f7760901b81525060405180604001604052806004815260200163082a890b60e31b815250600160008190555081600190816100a79190610287565b5060026100b48282610287565b506100c49150839050600761016e565b610120526100d381600861016e565b61014052815160208084019190912060e052815190820120610100524660a05261016060e05161010051604080517f8b73c3c69bb8fe3d512ecc4cf759cc79239f7b179b0ffacaa9a75d522b39400f60208201529081019290925260608201524660808201523060a082015260009060c00160405160208183030381529060405280519060200120905090565b60805250503060c0526103b7565b600060208351101561018a57610183836101a1565b905061019b565b816101958482610287565b5060ff90505b92915050565b600080829050601f815111156101d5578260405163305a27a960e01b81526004016101cc9190610345565b60405180910390fd5b80516101e082610393565b179392505050565b634e487b7160e01b600052604160045260246000fd5b600181811c9082168061021257607f821691505b60208210810361023257634e487b7160e01b600052602260045260246000fd5b50919050565b601f82111561028257806000526020600020601f840160051c8101602085101561025f5750805b601f840160051c820191505b8181101561027f576000815560010161026b565b50505b505050565b81516001600160401b038111156102a0576102a06101e8565b6102b4816102ae84546101fe565b84610238565b6020601f8211600181146102e857600083156102d05750848201515b600019600385901b1c1916600184901b17845561027f565b600084815260208120601f198516915b8281101561031857878501518255602094850194600190920191016102f8565b50848210156103365786840151600019600387901b60f8161c191681555b50505050600190811b01905550565b602081526000825180602084015260005b818110156103735760208186018101516040868401015201610356565b506000604082850101526040601f19601f83011684010191505092915050565b805160208083015191908110156102325760001960209190910360031b1b16919050565b60805160a05160c05160e0516101005161012051610140516138fa61041160003960006125d3015260006125a101526000612d9701526000612d6f01526000612cca01526000612cf401526000612d1e01526138fa6000f3fe6080604052600436106101e35760003560e01c806389cb29dd11610102578063b996ec2a11610095578063df4ca4bb11610064578063df4ca4bb1461060d578063e01824361461062d578063e081dbf91461064d578063e985e9c51461069457600080fd5b8063b996ec2a14610569578063c2010e501461059d578063c87b56dd146105cd578063dbaf0910146105ed57600080fd5b8063a22cb465116100d1578063a22cb465146104ce578063a5c1674e146104ee578063b5b96ae01461050e578063b88d4fde1461054957600080fd5b806389cb29dd146104485780638ed9895c1461045e57806395d89b41146104a6578063a0440bdb146104bb57600080fd5b806352a9674b1161017a57806370a082311161014957806370a08231146103b25780637ecebe00146103e057806384a667391461040d57806384b0196e1461042057600080fd5b806352a9674b1461031957806355acc0b5146103525780635e77650d146103725780636352211e1461039257600080fd5b806320913da5116101b657806320913da51461029957806323b872dd146102b95780633b2206d3146102d957806342842e0e146102f957600080fd5b806301ffc9a7146101e857806306fdde031461021d578063081812fc1461023f578063095ea7b314610277575b600080fd5b3480156101f457600080fd5b50610208610203366004613108565b6106b4565b60405190151581526020015b60405180910390f35b34801561022957600080fd5b50610232610706565b6040516102149190613175565b34801561024b57600080fd5b5061025f61025a366004613188565b610798565b6040516001600160a01b039091168152602001610214565b34801561028357600080fd5b506102976102923660046131bd565b6107c1565b005b3480156102a557600080fd5b506102976102b43660046131e7565b6107d0565b3480156102c557600080fd5b506102976102d4366004613209565b61094c565b3480156102e557600080fd5b506102976102f4366004613246565b6109dc565b34801561030557600080fd5b50610297610314366004613209565b610c0a565b34801561032557600080fd5b506102326040518060400160405280600d81526020016c617468656e79782e627261766560981b81525081565b34801561035e57600080fd5b5061029761036d366004613321565b610c2a565b34801561037e57600080fd5b5061029761038d3660046131e7565b610fa6565b34801561039e57600080fd5b5061025f6103ad366004613188565b6111c8565b3480156103be57600080fd5b506103d26103cd36600461336d565b6111d3565b604051908152602001610214565b3480156103ec57600080fd5b506103d26103fb36600461336d565b600c6020526000908152604090205481565b61029761041b366004613188565b61121b565b34801561042c57600080fd5b50610435611373565b6040516102149796959493929190613388565b34801561045457600080fd5b506103d260095481565b34801561046a57600080fd5b5061047e6104793660046131e7565b6113b9565b6040805194855260208501939093529015159183019190915215156060820152608001610214565b3480156104b257600080fd5b50610232611421565b6103d26104c9366004613420565b611430565b3480156104da57600080fd5b506102976104e93660046134c0565b61182a565b3480156104fa57600080fd5b50610297610509366004613188565b611835565b34801561051a57600080fd5b506102086105293660046134fc565b600b60209081526000928352604080842090915290825290205460ff1681565b34801561055557600080fd5b5061029761056436600461353e565b611926565b34801561057557600080fd5b50610589610584366004613188565b61193e565b60405161021498979695949392919061365a565b3480156105a957600080fd5b506103d26105b8366004613188565b6000908152600a602052604090206008015490565b3480156105d957600080fd5b506102326105e8366004613188565b611a14565b3480156105f957600080fd5b506102976106083660046131e7565b611a89565b34801561061957600080fd5b506102976106283660046131e7565b611de0565b34801561063957600080fd5b50610297610648366004613188565b612061565b34801561065957600080fd5b506103d26106683660046134fc565b6000828152600a602090815260408083206001600160a01b038516845260010190915290205492915050565b3480156106a057600080fd5b506102086106af3660046136fa565b612334565b60006001600160e01b031982166380ac58cd60e01b14806106e557506001600160e01b03198216635b5e139f60e01b145b8061070057506301ffc9a760e01b6001600160e01b03198316145b92915050565b60606001805461071590613724565b80601f016020809104026020016040519081016040528092919081815260200182805461074190613724565b801561078e5780601f106107635761010080835404028352916020019161078e565b820191906000526020600020905b81548152906001019060200180831161077157829003601f168201915b5050505050905090565b60006107a382612362565b506000828152600560205260409020546001600160a01b0316610700565b6107cc82823361239b565b5050565b6000828152600b60209081526040808320338452909152902054829060ff1661080b576040516282b42960e81b815260040160405180910390fd5b82600080828152600a602052604090206007015460ff16600381111561083357610833613622565b146108515760405163baf3f0f760e01b815260040160405180910390fd5b6000848152600a60205260409020600881015484106108835760405163162908e360e11b815260040160405180910390fd5b600081600801858154811061089a5761089a61375e565b60009182526020909120600490910201600281015490915060ff16156108d35760405163080fc0bd60e11b815260040160405180910390fd5b6002810154610100900460ff16156108fe576040516331da482760e11b815260040160405180910390fd5b60028101805460ff19166001179055604051338152859087907f9ffbb52f2a1362273cd74689a516ca4f52c4282dc13e2e68b7e0646a9a7af7a39060200160405180910390a3505050505050565b6001600160a01b03821661097b57604051633250574960e11b8152600060048201526024015b60405180910390fd5b60006109888383336123a8565b9050836001600160a01b0316816001600160a01b0316146109d6576040516364283d7b60e01b81526001600160a01b0380861660048301526024820184905282166044820152606401610972565b50505050565b84600080828152600a602052604090206007015460ff166003811115610a0457610a04613622565b14610a225760405163baf3f0f760e01b815260040160405180910390fd5b83421115610a4357604051630819bdcd60e01b815260040160405180910390fd5b6000868152600a6020526040902060088101548610610a755760405163162908e360e11b815260040160405180910390fd5b6000816008018781548110610a8c57610a8c61375e565b60009182526020909120600490910201600281015490915060ff1615610ac55760405163080fc0bd60e11b815260040160405180910390fd5b6002810154610100900460ff1615610af0576040516331da482760e11b815260040160405180910390fd5b6000610aff8989898989612427565b60008a8152600b602090815260408083206001600160a01b038516845290915290205490915060ff16610b44576040516282b42960e81b815260040160405180910390fd5b6001600160a01b0381166000908152600c60205260408120805491829190610b6b8361378a565b909155505060028301805460ff19166001179055604051606083901b6bffffffffffffffffffffffff191660208201526034810182905260540160408051601f1981840301815290829052805160209182012060038601556001600160a01b03841682528a918c917f9ffbb52f2a1362273cd74689a516ca4f52c4282dc13e2e68b7e0646a9a7af7a3910160405180910390a350505050505050505050565b610c2583838360405180602001604052806000815250611926565b505050565b6000838152600a602052604090206003015483906001600160a01b03163314610c65576040516282b42960e81b815260040160405180910390fd5b610c6d61251a565b6000848152600a602052604090206003600782015460ff166003811115610c9657610c96613622565b14610cb45760405163baf3f0f760e01b815260040160405180910390fd5b60005b83811015610e36576000858583818110610cd357610cd361375e565b90506020020135905082600801805490508110610d035760405163162908e360e11b815260040160405180910390fd5b6000836008018281548110610d1a57610d1a61375e565b906000526020600020906004020190508060020160019054906101000a900460ff1615610d48575050610e2e565b60028101805461ffff19166101011790558054600585018054600090610d6f9084906137a3565b9091555050600284015481546040516000926001600160a01b031691908381818185875af1925050503d8060008114610dc4576040519150601f19603f3d011682016040523d82523d6000602084013e610dc9565b606091505b5050905080610deb576040516312171d8360e31b815260040160405180910390fd5b82897fd33fcd27cbfb73a2d9058c968b560ccb306500bf536133802048489ecc7355e98460000154604051610e2291815260200190565b60405180910390a35050505b600101610cb7565b5060078101805460ff19169055600681015415610ec957600381015460068201546040516000926001600160a01b031691908381818185875af1925050503d8060008114610ea0576040519150601f19603f3d011682016040523d82523d6000602084013e610ea5565b606091505b5050905080610ec7576040516312171d8360e31b815260040160405180910390fd5b505b847ffc7e89cd665487a127729bce1ffe2d30367c1ec5a4a78639bddfbee1a645696d8585604051610efb9291906137b6565b60405180910390a2600681015460005b6008830154811015610f5357826008018181548110610f2c57610f2c61375e565b90600052602060002090600402016000015482610f4991906137a3565b9150600101610f0b565b5080826005015403610f9a5760078201805460ff1916600217905560405186907f9285bd636dda01bef18996aa38303bb742f6c67a6941646dddb17630cb492c2e90600090a25b50506109d66001600055565b6000828152600b60209081526040808320338452909152902054829060ff16610fe1576040516282b42960e81b815260040160405180910390fd5b82600080828152600a602052604090206007015460ff16600381111561100957611009613622565b146110275760405163baf3f0f760e01b815260040160405180910390fd5b61102f61251a565b6000848152600a60205260409020600881015484106110615760405163162908e360e11b815260040160405180910390fd5b60008160080185815481106110785761107861375e565b906000526020600020906004020190508060020160019054906101000a900460ff16156110b8576040516331da482760e11b815260040160405180910390fd5b600281015460ff16156110de5760405163080fc0bd60e11b815260040160405180910390fd5b806001015460000361110357604051631da7447960e21b815260040160405180910390fd5b80600101544211611127576040516302eb354360e41b815260040160405180910390fd5b60028101805461ff0019166101001790558054600090611148908890612544565b905080156111bb57604051600090339083908381818185875af1925050503d8060008114611192576040519150601f19603f3d011682016040523d82523d6000602084013e611197565b606091505b50509050806111b9576040516312171d8360e31b815260040160405180910390fd5b505b5050506109d66001600055565b600061070082612362565b60006001600160a01b0382166111ff576040516322718ad960e21b815260006004820152602401610972565b506001600160a01b031660009081526004602052604090205490565b80600080828152600a602052604090206007015460ff16600381111561124357611243613622565b146112615760405163baf3f0f760e01b815260040160405180910390fd5b346000036112825760405163162908e360e11b815260040160405180910390fd5b6000828152600a60209081526040808320600b83528184203385529092529091205460ff166112f5578054600181810183556000838152602080822090930180546001600160a01b03191633908117909155868252600b84526040808320918352935291909120805460ff191690911790555b336000908152600182016020526040812080543492906113169084906137a3565b925050819055503481600401600082825461133191906137a3565b9091555050604051348152339084907f75aecd8d57cb4b1b263271bddb4961b993924dd466e6003c254832572d8a57e1906020015b60405180910390a3505050565b60006060806000806000606061138761259a565b61138f6125cc565b60408051600080825260208201909252600f60f81b9b939a50919850469750309650945092509050565b6000806000806000600a600088815260200190815260200160002060080186815481106113e8576113e861375e565b6000918252602090912060049091020180546001820154600290920154909991985060ff80821698506101009091041695509350505050565b60606002805461071590613724565b60006001600160a01b0388166114595760405163d92e233d60e01b815260040160405180910390fd5b600084900361147b57604051632432fdaf60e11b815260040160405180910390fd5b83821461149b5760405163162908e360e11b815260040160405180910390fd5b6000805b8581101561156d578686828181106114b9576114b961375e565b905060200201356000036114e05760405163162908e360e11b815260040160405180910390fd5b8484828181106114f2576114f261375e565b905060200201356000141580156115215750428585838181106115175761151761375e565b9050602002013511155b1561153f57604051631da7447960e21b815260040160405180910390fd5b8686828181106115515761155161375e565b905060200201358261156391906137a3565b915060010161149f565b508634101561158f5760405163162908e360e11b815260040160405180910390fd5b60098054600091826115a08361378a565b9190505590506000600a600083815260200190815260200160002090508a8160020160006101000a8154816001600160a01b0302191690836001600160a01b03160217905550898160030160006101000a8154816001600160a01b0302191690836001600160a01b031602179055508881600601819055503481600401819055506000816005018190555060008160070160006101000a81548160ff0219169083600381111561165257611652613622565b02179055504260098201558054600181810183556000838152602080822090930180546001600160a01b0319163390811790915580825282850184526040808320349055868352600b85528083209183529352918220805460ff191690911790555b8781101561178357816008016040518060a001604052808b8b858181106116dd576116dd61375e565b9050602002013581526020018989858181106116fb576116fb61375e565b602090810292909201358352506000828201819052604080840182905260609384018290528554600181810188559683529183902085516004909302019182559184015181860155908301516002820180549385015115156101000261ff00199215159290921661ffff199094169390931717909155608090910151600390910155016116b4565b5061178e8b836125f9565b896001600160a01b03168b6001600160a01b0316837f59e4b8728799382406714f1c57de5c893d2772f9a8bf9950c5afe4397e648654868d6040516117dd929190918252602082015260400190565b60405180910390a4604051348152339083907f75aecd8d57cb4b1b263271bddb4961b993924dd466e6003c254832572d8a57e19060200160405180910390a3509998505050505050505050565b6107cc338383612613565b80600080828152600a602052604090206007015460ff16600381111561185d5761185d613622565b1461187b5760405163baf3f0f760e01b815260040160405180910390fd5b6000828152600b6020908152604080832033845290915290205460ff161580156118bf57506000828152600a60205260409020600201546001600160a01b03163314155b156118dc576040516282b42960e81b815260040160405180910390fd5b6000828152600a6020526040808220600701805460ff1916600317905551339184917f84a477df8a28a4276ca6dee4458a06c3015f30c477d9c949ede4e13ff8a552b49190a35050565b61193184848461094c565b6109d633858585856126aa565b6000818152600a60209081526040808320600281015460038201546004830154600584015460068501546007860154600987015487548951818c0281018c01909a52808a5260609b9a8b9a8b9a8b9a8b9a8b9a8b9a93998a996001600160a01b0394851699939094169791969495909460ff9094169390918a918301828280156119f157602002820191906000526020600020905b81546001600160a01b031681526001909101906020018083116119d3575b505050505097509850985098509850985098509850985050919395975091939597565b6060611a1f82612362565b506000611a3760408051602081019091526000815290565b90506000815111611a575760405180602001604052806000815250611a82565b80611a61846127d5565b604051602001611a729291906137ef565b6040516020818303038152906040525b9392505050565b611a9161251a565b81600080828152600a602052604090206007015460ff166003811115611ab957611ab9613622565b14611ad75760405163baf3f0f760e01b815260040160405180910390fd5b6000838152600a6020526040902060088101548310611b095760405163162908e360e11b815260040160405180910390fd5b6000816008018481548110611b2057611b2061375e565b60009182526020909120600490910201600281015490915060ff16611b585760405163c19f17a960e01b815260040160405180910390fd5b6002810154610100900460ff1615611b83576040516331da482760e11b815260040160405180910390fd5b80546005830154611b9491906137a3565b82600401541015611bb85760405163356680b760e01b815260040160405180910390fd5b60028101805461ff0019166101001790558054600583018054600090611bdf9084906137a3565b9091555050600282015481546040516000926001600160a01b031691908381818185875af1925050503d8060008114611c34576040519150601f19603f3d011682016040523d82523d6000602084013e611c39565b606091505b5050905080611c5b576040516312171d8360e31b815260040160405180910390fd5b84867fd33fcd27cbfb73a2d9058c968b560ccb306500bf536133802048489ecc7355e98460000154604051611c9291815260200190565b60405180910390a3600683015460005b6008850154811015611cea57846008018181548110611cc357611cc361375e565b90600052602060002090600402016000015482611ce091906137a3565b9150600101611ca2565b5080846005015403611dd15760078401805460ff19166002179055600684015415801590611d24575060038401546001600160a01b031615155b15611da557600384015460068501546040516000926001600160a01b031691908381818185875af1925050503d8060008114611d7c576040519150601f19603f3d011682016040523d82523d6000602084013e611d81565b606091505b5050905080611da3576040516312171d8360e31b815260040160405180910390fd5b505b60405187907f9285bd636dda01bef18996aa38303bb742f6c67a6941646dddb17630cb492c2e90600090a25b50505050506107cc6001600055565b6000828152600a602052604090206002015482906001600160a01b03163314611e1b576040516282b42960e81b815260040160405180910390fd5b82600080828152600a602052604090206007015460ff166003811115611e4357611e43613622565b14611e615760405163baf3f0f760e01b815260040160405180910390fd5b611e6961251a565b6000848152600a6020526040902060088101548410611e9b5760405163162908e360e11b815260040160405180910390fd5b6000816008018581548110611eb257611eb261375e565b906000526020600020906004020190508060020160019054906101000a900460ff1615611ef2576040516331da482760e11b815260040160405180910390fd5b8060010154600003611f1757604051631da7447960e21b815260040160405180910390fd5b80600101544211611f3b576040516302eb354360e41b815260040160405180910390fd5b60028101805461ffff19166101011790558054600583018054600090611f629084906137a3565b9091555050600282015481546040516000926001600160a01b031691908381818185875af1925050503d8060008114611fb7576040519150601f19603f3d011682016040523d82523d6000602084013e611fbc565b606091505b5050905080611fde576040516312171d8360e31b815260040160405180910390fd5b604051308152869088907f9ffbb52f2a1362273cd74689a516ca4f52c4282dc13e2e68b7e0646a9a7af7a39060200160405180910390a385877fd33fcd27cbfb73a2d9058c968b560ccb306500bf536133802048489ecc7355e9846000015460405161204c91815260200190565b60405180910390a35050506109d66001600055565b6000818152600b60209081526040808320338452909152902054819060ff1661209c576040516282b42960e81b815260040160405180910390fd5b81600080828152600a602052604090206007015460ff1660038111156120c4576120c4613622565b146120e25760405163baf3f0f760e01b815260040160405180910390fd5b6120ea61251a565b6000838152600a60205260408120600681015490915b6008830154811015612148578260080181815481106121215761212161375e565b9060005260206000209060040201600001548261213e91906137a3565b9150600101612100565b5060008260050154836004015461215f919061381e565b9050806000036121825760405163356680b760e01b815260040160405180910390fd5b60078301805460ff1916600117905560005b6008840154811015612220578360080181815481106121b5576121b561375e565b906000526020600020906004020160020160019054906101000a900460ff166122185760018460080182815481106121ef576121ef61375e565b906000526020600020906004020160020160016101000a81548160ff0219169083151502179055505b600101612194565b5060005b83548110156122ec5760008460000182815481106122445761224461375e565b60009182526020822001546001600160a01b031691506122648985612544565b905080156122e2576000826001600160a01b03168260405160006040518083038185875af1925050503d80600081146122b9576040519150601f19603f3d011682016040523d82523d6000602084013e6122be565b606091505b50509050806122e0576040516312171d8360e31b815260040160405180910390fd5b505b5050600101612224565b50857fdc48a08bb890bd1b8e4261212a97a5e711e80830d96ba56b362f3ac5f427d51e8260405161231f91815260200190565b60405180910390a2505050610c256001600055565b6001600160a01b03918216600090815260066020908152604080832093909416825291909152205460ff1690565b6000818152600360205260408120546001600160a01b03168061070057604051637e27328960e01b815260048101849052602401610972565b610c258383836001612868565b6000828152600360205260408120546001600160a01b0316816123cc86868661296e565b90506001600160a01b038216158015906123ee57506001600160a01b03861615155b1561241e576000858152600a6020526040902060020180546001600160a01b0319166001600160a01b0388161790555b95945050505050565b336000908152600c602090815260408083205481517f80024b95af979f7623dfe7c1580d0cfd9373eb07043c3b4f1cf49e92ed8bc949818501528083018a905260608101899052608081019190915260a08082018890528251808303909101815260c090910190915280519101208161249f82612a67565b905060006124e586868080601f0160208091040260200160405190810160405280939291908181526020018383808284376000920191909152508693925050612a949050565b90506001600160a01b03811661250e57604051638baa579f60e01b815260040160405180910390fd5b98975050505050505050565b60026000540361253d57604051633ee5aeb560e01b815260040160405180910390fd5b6002600055565b6000828152600a602090815260408083203384526001810190925282205480158061257157506004820154155b1561258157600092505050610700565b60048201546125908286613831565b61241e9190613848565b60606125c77f00000000000000000000000000000000000000000000000000000000000000006007612abe565b905090565b60606125c77f00000000000000000000000000000000000000000000000000000000000000006008612abe565b6107cc828260405180602001604052806000815250612b69565b6001600160a01b03821661264557604051630b61174360e31b81526001600160a01b0383166004820152602401610972565b6001600160a01b03838116600081815260066020908152604080832094871680845294825291829020805460ff191686151590811790915591519182527f17307eab39ab6107e8899845ad3d59bd9653f200f220920489ca2b5937696c319101611366565b6001600160a01b0383163b156127ce57604051630a85bd0160e11b81526001600160a01b0384169063150b7a02906126ec90889088908790879060040161386a565b6020604051808303816000875af1925050508015612727575060408051601f3d908101601f19168201909252612724918101906138a7565b60015b612790573d808015612755576040519150601f19603f3d011682016040523d82523d6000602084013e61275a565b606091505b50805160000361278857604051633250574960e11b81526001600160a01b0385166004820152602401610972565b805160208201fd5b6001600160e01b03198116630a85bd0160e11b146127cc57604051633250574960e11b81526001600160a01b0385166004820152602401610972565b505b5050505050565b606060006127e283612b81565b600101905060008167ffffffffffffffff81111561280257612802613528565b6040519080825280601f01601f19166020018201604052801561282c576020820181803683370190505b5090508181016020015b600019016f181899199a1a9b1b9c1cb0b131b232b360811b600a86061a8153600a850494508461283657509392505050565b808061287c57506001600160a01b03821615155b1561293e57600061288c84612362565b90506001600160a01b038316158015906128b85750826001600160a01b0316816001600160a01b031614155b80156128cb57506128c98184612334565b155b156128f45760405163a9fbf51f60e01b81526001600160a01b0384166004820152602401610972565b811561293c5783856001600160a01b0316826001600160a01b03167f8c5be1e5ebec7d5bd14f71427d1e84f3dd0314c0f7b2291e5b200ac8c7c3b92560405160405180910390a45b505b5050600090815260056020526040902080546001600160a01b0319166001600160a01b0392909216919091179055565b6000828152600360205260408120546001600160a01b039081169083161561299b5761299b818486612c59565b6001600160a01b038116156129d9576129b8600085600080612868565b6001600160a01b038116600090815260046020526040902080546000190190555b6001600160a01b03851615612a08576001600160a01b0385166000908152600460205260409020805460010190555b60008481526003602052604080822080546001600160a01b0319166001600160a01b0389811691821790925591518793918516917fddf252ad1be2c89b69c2b068fc378daa952ba7f163c4a11628f55a4df523b3ef91a4949350505050565b6000610700612a74612cbd565b8360405161190160f01b8152600281019290925260228201526042902090565b600080600080612aa48686612de8565b925092509250612ab48282612e35565b5090949350505050565b606060ff8314612ad857612ad183612eee565b9050610700565b818054612ae490613724565b80601f0160208091040260200160405190810160405280929190818152602001828054612b1090613724565b8015612b5d5780601f10612b3257610100808354040283529160200191612b5d565b820191906000526020600020905b815481529060010190602001808311612b4057829003601f168201915b50505050509050610700565b612b738383612f2d565b610c253360008585856126aa565b60008072184f03e93ff9f4daa797ed6e38ed64bf6a1f0160401b8310612bc05772184f03e93ff9f4daa797ed6e38ed64bf6a1f0160401b830492506040015b6d04ee2d6d415b85acef81000000008310612bec576d04ee2d6d415b85acef8100000000830492506020015b662386f26fc100008310612c0a57662386f26fc10000830492506010015b6305f5e1008310612c22576305f5e100830492506008015b6127108310612c3657612710830492506004015b60648310612c48576064830492506002015b600a83106107005760010192915050565b612c64838383612f92565b610c25576001600160a01b038316612c9257604051637e27328960e01b815260048101829052602401610972565b60405163177e802f60e01b81526001600160a01b038316600482015260248101829052604401610972565b6000306001600160a01b037f000000000000000000000000000000000000000000000000000000000000000016148015612d1657507f000000000000000000000000000000000000000000000000000000000000000046145b15612d4057507f000000000000000000000000000000000000000000000000000000000000000090565b6125c7604080517f8b73c3c69bb8fe3d512ecc4cf759cc79239f7b179b0ffacaa9a75d522b39400f60208201527f0000000000000000000000000000000000000000000000000000000000000000918101919091527f000000000000000000000000000000000000000000000000000000000000000060608201524660808201523060a082015260009060c00160405160208183030381529060405280519060200120905090565b60008060008351604103612e225760208401516040850151606086015160001a612e1488828585612ff8565b955095509550505050612e2e565b50508151600091506002905b9250925092565b6000826003811115612e4957612e49613622565b03612e52575050565b6001826003811115612e6657612e66613622565b03612e845760405163f645eedf60e01b815260040160405180910390fd5b6002826003811115612e9857612e98613622565b03612eb95760405163fce698f760e01b815260048101829052602401610972565b6003826003811115612ecd57612ecd613622565b036107cc576040516335e2f38360e21b815260048101829052602401610972565b60606000612efb836130c7565b604080516020808252818301909252919250600091906020820181803683375050509182525060208101929092525090565b6001600160a01b038216612f5757604051633250574960e11b815260006004820152602401610972565b6000612f65838360006123a8565b90506001600160a01b03811615610c25576040516339e3563760e11b815260006004820152602401610972565b60006001600160a01b03831615801590612ff05750826001600160a01b0316846001600160a01b03161480612fcc5750612fcc8484612334565b80612ff057506000828152600560205260409020546001600160a01b038481169116145b949350505050565b600080807f7fffffffffffffffffffffffffffffff5d576e7357a4501ddfe92f46681b20a084111561303357506000915060039050826130bd565b604080516000808252602082018084528a905260ff891692820192909252606081018790526080810186905260019060a0016020604051602081039080840390855afa158015613087573d6000803e3d6000fd5b5050604051601f1901519150506001600160a01b0381166130b3575060009250600191508290506130bd565b9250600091508190505b9450945094915050565b600060ff8216601f81111561070057604051632cd44ac360e21b815260040160405180910390fd5b6001600160e01b03198116811461310557600080fd5b50565b60006020828403121561311a57600080fd5b8135611a82816130ef565b60005b83811015613140578181015183820152602001613128565b50506000910152565b60008151808452613161816020860160208601613125565b601f01601f19169290920160200192915050565b602081526000611a826020830184613149565b60006020828403121561319a57600080fd5b5035919050565b80356001600160a01b03811681146131b857600080fd5b919050565b600080604083850312156131d057600080fd5b6131d9836131a1565b946020939093013593505050565b600080604083850312156131fa57600080fd5b50508035926020909101359150565b60008060006060848603121561321e57600080fd5b613227846131a1565b9250613235602085016131a1565b929592945050506040919091013590565b60008060008060006080868803121561325e57600080fd5b853594506020860135935060408601359250606086013567ffffffffffffffff81111561328a57600080fd5b8601601f8101881361329b57600080fd5b803567ffffffffffffffff8111156132b257600080fd5b8860208284010111156132c457600080fd5b959894975092955050506020019190565b60008083601f8401126132e757600080fd5b50813567ffffffffffffffff8111156132ff57600080fd5b6020830191508360208260051b850101111561331a57600080fd5b9250929050565b60008060006040848603121561333657600080fd5b83359250602084013567ffffffffffffffff81111561335457600080fd5b613360868287016132d5565b9497909650939450505050565b60006020828403121561337f57600080fd5b611a82826131a1565b60ff60f81b8816815260e0602082015260006133a760e0830189613149565b82810360408401526133b98189613149565b606084018890526001600160a01b038716608085015260a0840186905283810360c08501528451808252602080870193509091019060005b8181101561340f5783518352602093840193909201916001016133f1565b50909b9a5050505050505050505050565b600080600080600080600060a0888a03121561343b57600080fd5b613444886131a1565b9650613452602089016131a1565b955060408801359450606088013567ffffffffffffffff81111561347557600080fd5b6134818a828b016132d5565b909550935050608088013567ffffffffffffffff8111156134a157600080fd5b6134ad8a828b016132d5565b989b979a50959850939692959293505050565b600080604083850312156134d357600080fd5b6134dc836131a1565b9150602083013580151581146134f157600080fd5b809150509250929050565b6000806040838503121561350f57600080fd5b8235915061351f602084016131a1565b90509250929050565b634e487b7160e01b600052604160045260246000fd5b6000806000806080858703121561355457600080fd5b61355d856131a1565b935061356b602086016131a1565b925060408501359150606085013567ffffffffffffffff81111561358e57600080fd5b8501601f8101871361359f57600080fd5b803567ffffffffffffffff8111156135b9576135b9613528565b604051601f8201601f19908116603f0116810167ffffffffffffffff811182821017156135e8576135e8613528565b60405281815282820160200189101561360057600080fd5b8160208401602083013760006020838301015280935050505092959194509250565b634e487b7160e01b600052602160045260246000fd5b6004811061365657634e487b7160e01b600052602160045260246000fd5b9052565b610100808252895190820181905260009060208b0190610120840190835b8181101561369f5783516001600160a01b0316835260209384019390920191600101613678565b50506001600160a01b038b16602085015291506136b99050565b6001600160a01b03881660408301528660608301528560808301528460a08301526136e760c0830185613638565b8260e08301529998505050505050505050565b6000806040838503121561370d57600080fd5b613716836131a1565b915061351f602084016131a1565b600181811c9082168061373857607f821691505b60208210810361375857634e487b7160e01b600052602260045260246000fd5b50919050565b634e487b7160e01b600052603260045260246000fd5b634e487b7160e01b600052601160045260246000fd5b60006001820161379c5761379c613774565b5060010190565b8082018082111561070057610700613774565b6020808252810182905260006001600160fb1b038311156137d657600080fd5b8260051b80856040850137919091016040019392505050565b60008351613801818460208801613125565b835190830190613815818360208801613125565b01949350505050565b8181038181111561070057610700613774565b808202811582820484141761070057610700613774565b60008261386557634e487b7160e01b600052601260045260246000fd5b500490565b6001600160a01b038581168252841660208201526040810183905260806060820181905260009061389d90830184613149565b9695505050505050565b6000602082840312156138b957600080fd5b8151611a82816130ef56fea264697066735822122050b918f07f6fb6bf47d0a5da4dc1020ed80d208071bfe96aca1f31e1f2f639e464736f6c634300081e0033",
  "linkReferences": {},
  "deployedLinkReferences": {}
}