{
  "_format": "hh-sol-artifact-1",
  "contractName": "GuarantorRegistry",
  "sourceName": "contracts/GuarantorRegistry.sol",
  "abi": [
    {
      "inputs": [],
      "stateMutability": "nonpayable",
      "type": "constructor"
    },
    {
      "inputs": [],
      "name": "AlreadyRegistered",
      "type": "error"
    },
    {
      "inputs": [],
      "name": "CollusionDetected",
      "type": "error"
    },
    {
      "inputs": [],
      "name": "CommitmentAlreadyExists",
      "type": "error"
    },
    {
      "inputs": [],
      "name": "CommitmentNotFound",
      "type": "error"
    },
    {
      "inputs": [],
      "name": "GuarantorIsBanned",
      "type": "error"
    },
    {
      "inputs": [],
      "name": "GuarantorNotRegistered",
      "type": "error"
    },
    {
      "inputs": [
        {
          "internalType": "uint256",
          "name": "required",
          "type": "uint256"
        },
        {
          "internalType": "uint256",
          "name": "current",
          "type": "uint256"
        }
      ],
      "name": "InsufficientReputation",
      "type": "error"
    },
    {
      "inputs": [
        {
          "internalType": "uint256",
          "name": "required",
          "type": "uint256"
        },
        {
          "internalType": "uint256",
          "name": "available",
          "type": "uint256"
        }
      ],
      "name": "InsufficientStake",
      "type": "error"
    },
    {
      "inputs": [],
      "name": "InvalidAddress",
      "type": "error"
    },
    {
      "inputs": [],
      "name": "InvalidSecret",
      "type": "error"
    },
    {
      "inputs": [],
      "name": "InvalidStakeAmount",
      "type": "error"
    },
    {
      "inputs": [],
      "name": "InvalidTier",
      "type": "error"
    },
    {
      "inputs": [
        {
          "internalType": "address",
          "name": "owner",
          "type": "address"
        }
      ],
      "name": "OwnableInvalidOwner",
      "type": "error"
    },
    {
      "inputs": [
        {
          "internalType": "address",
          "name": "account",
          "type": "address"
        }
      ],
      "name": "OwnableUnauthorizedAccount",
      "type": "error"
    },
    {
      "inputs": [],
      "name": "ReentrancyGuardReentrantCall",
      "type": "error"
    },
    {
      "inputs": [],
      "name": "RevealWindowClosed",
      "type": "error"
    },
    {
      "inputs": [],
      "name": "TransferFailed",
      "type": "error"
    },
    {
      "inputs": [],
      "name": "Unauthorized",
      "type": "error"
    },
    {
      "anonymous": false,
      "inputs": [
        {
          "indexed": true,
          "internalType": "address",
          "name": "guarantor",
          "type": "address"
        },
        {
          "indexed": false,
          "internalType": "uint256",
          "name": "bannedUntil",
          "type": "uint256"
        },
        {
          "indexed": false,
          "internalType": "string",
          "name": "reason",
          "type": "string"
        }
      ],
      "name": "GuarantorBannedEvent",
      "type": "event"
    },
    {
      "anonymous": false,
      "inputs": [
        {
          "indexed": true,
          "internalType": "address",
          "name": "guarantor",
          "type": "address"
        },
        {
          "indexed": true,
          "internalType": "uint256",
          "name": "escrowId",
          "type": "uint256"
        },
        {
          "indexed": false,
          "internalType": "enum IGuarantorRegistry.GuarantorTier",
          "name": "tier",
          "type": "uint8"
        },
        {
          "indexed": false,
          "internalType": "uint256",
          "name": "stake",
          "type": "uint256"
        }
      ],
      "name": "GuarantorCommitted",
      "type": "event"
    },
    {
      "anonymous": false,
      "inputs": [
        {
          "indexed": true,
          "internalType": "address",
          "name": "guarantor",
          "type": "address"
        },
        {
          "indexed": false,
          "internalType": "uint256",
          "name": "timestamp",
          "type": "uint256"
        }
      ],
      "name": "GuarantorRegistered",
      "type": "event"
    },
    {
      "anonymous": false,
      "inputs": [
        {
          "indexed": true,
          "internalType": "address",
          "name": "guarantor",
          "type": "address"
        },
        {
          "indexed": true,
          "internalType": "uint256",
          "name": "escrowId",
          "type": "uint256"
        },
        {
          "indexed": false,
          "internalType": "bytes32",
          "name": "secret",
          "type": "bytes32"
        }
      ],
      "name": "GuarantorRevealed",
      "type": "event"
    },
    {
      "anonymous": false,
      "inputs": [
        {
          "indexed": true,
          "internalType": "address",
          "name": "guarantor",
          "type": "address"
        },
        {
          "indexed": true,
          "internalType": "uint256",
          "name": "escrowId",
          "type": "uint256"
        },
        {
          "indexed": false,
          "internalType": "uint256",
          "name": "rewardAmount",
          "type": "uint256"
        }
      ],
      "name": "GuarantorRewarded",
      "type": "event"
    },
    {
      "anonymous": false,
      "inputs": [
        {
          "indexed": true,
          "internalType": "address",
          "name": "guarantor",
          "type": "address"
        },
        {
          "indexed": true,
          "internalType": "uint256",
          "name": "escrowId",
          "type": "uint256"
        },
        {
          "indexed": false,
          "internalType": "uint256",
          "name": "slashedAmount",
          "type": "uint256"
        }
      ],
      "name": "GuarantorSlashed",
      "type": "event"
    },
    {
      "anonymous": false,
      "inputs": [
        {
          "indexed": true,
          "internalType": "address",
          "name": "previousOwner",
          "type": "address"
        },
        {
          "indexed": true,
          "internalType": "address",
          "name": "newOwner",
          "type": "address"
        }
      ],
      "name": "OwnershipTransferred",
      "type": "event"
    },
    {
      "anonymous": false,
      "inputs": [
        {
          "indexed": true,
          "internalType": "address",
          "name": "guarantor",
          "type": "address"
        },
        {
          "indexed": false,
          "internalType": "int256",
          "name": "change",
          "type": "int256"
        },
        {
          "indexed": false,
          "internalType": "uint256",
          "name": "newScore",
          "type": "uint256"
        }
      ],
      "name": "ReputationUpdated",
      "type": "event"
    },
    {
      "inputs": [],
      "name": "BAN_DURATION_COLLUSION",
      "outputs": [
        {
          "internalType": "uint256",
          "name": "",
          "type": "uint256"
        }
      ],
      "stateMutability": "view",
      "type": "function"
    },
    {
      "inputs": [],
      "name": "BAN_DURATION_FAILURE",
      "outputs": [
        {
          "internalType": "uint256",
          "name": "",
          "type": "uint256"
        }
      ],
      "stateMutability": "view",
      "type": "function"
    },
    {
      "inputs": [],
      "name": "COMMITMENT_WINDOW",
      "outputs": [
        {
          "internalType": "uint256",
          "name": "",
          "type": "uint256"
        }
      ],
      "stateMutability": "view",
      "type": "function"
    },
    {
      "inputs": [],
      "name": "INITIAL_REPUTATION",
      "outputs": [
        {
          "internalType": "uint256",
          "name": "",
          "type": "uint256"
        }
      ],
      "stateMutability": "view",
      "type": "function"
    },
    {
      "inputs": [],
      "name": "MAX_STAKE_PERCENTAGE",
      "outputs": [
        {
          "internalType": "uint256",
          "name": "",
          "type": "uint256"
        }
      ],
      "stateMutability": "view",
      "type": "function"
    },
    {
      "inputs": [],
      "name": "MIN_REPUTATION_PRIMARY",
      "outputs": [
        {
          "internalType": "uint256",
          "name": "",
          "type": "uint256"
        }
      ],
      "stateMutability": "view",
      "type": "function"
    },
    {
      "inputs": [],
      "name": "MIN_REPUTATION_SECONDARY",
      "outputs": [
        {
          "internalType": "uint256",
          "name": "",
          "type": "uint256"
        }
      ],
      "stateMutability": "view",
      "type": "function"
    },
    {
      "inputs": [],
      "name": "MIN_STAKE_PERCENTAGE",
      "outputs": [
        {
          "internalType": "uint256",
          "name": "",
          "type": "uint256"
        }
      ],
      "stateMutability": "view",
      "type": "function"
    },
    {
      "inputs": [],
      "name": "REPUTATION_COLLUSION_PENALTY",
      "outputs": [
        {
          "internalType": "uint256",
          "name": "",
          "type": "uint256"
        }
      ],
      "stateMutability": "view",
      "type": "function"
    },
    {
      "inputs": [],
      "name": "REPUTATION_FAILURE_PENALTY",
      "outputs": [
        {
          "internalType": "uint256",
          "name": "",
          "type": "uint256"
        }
      ],
      "stateMutability": "view",
      "type": "function"
    },
    {
      "inputs": [],
      "name": "REPUTATION_SUCCESS_BONUS",
      "outputs": [
        {
          "internalType": "uint256",
          "name": "",
          "type": "uint256"
        }
      ],
      "stateMutability": "view",
      "type": "function"
    },
    {
      "inputs": [],
      "name": "REVEAL_WINDOW",
      "outputs": [
        {
          "internalType": "uint256",
          "name": "",
          "type": "uint256"
        }
      ],
      "stateMutability": "view",
      "type": "function"
    },
    {
      "inputs": [],
      "name": "WHISTLEBLOWER_BONUS",
      "outputs": [
        {
          "internalType": "uint256",
          "name": "",
          "type": "uint256"
        }
      ],
      "stateMutability": "view",
      "type": "function"
    },
    {
      "inputs": [],
      "name": "athenyxCore",
      "outputs": [
        {
          "internalType": "address",
          "name": "",
          "type": "address"
        }
      ],
      "stateMutability": "view",
      "type": "function"
    },
    {
      "inputs": [
        {
          "internalType": "address",
          "name": "guarantor",
          "type": "address"
        },
        {
          "internalType": "uint256",
          "name": "duration",
          "type": "uint256"
        },
        {
          "internalType": "string",
          "name": "reason",
          "type": "string"
        }
      ],
      "name": "banGuarantor",
      "outputs": [],
      "stateMutability": "nonpayable",
      "type": "function"
    },
    {
      "inputs": [
        {
          "internalType": "uint256",
          "name": "escrowId",
          "type": "uint256"
        },
        {
          "internalType": "enum IGuarantorRegistry.GuarantorTier",
          "name": "tier",
          "type": "uint8"
        },
        {
          "internalType": "uint256",
          "name": "stakeAmount",
          "type": "uint256"
        },
        {
          "internalType": "bytes32",
          "name": "commitmentHash",
          "type": "bytes32"
        }
      ],
      "name": "commitAsGuarantor",
      "outputs": [],
      "stateMutability": "nonpayable",
      "type": "function"
    },
    {
      "inputs": [
        {
          "internalType": "uint256",
          "name": "escrowId",
          "type": "uint256"
        },
        {
          "internalType": "address",
          "name": "guarantor",
          "type": "address"
        }
      ],
      "name": "getCommitment",
      "outputs": [
        {
          "components": [
            {
              "internalType": "address",
              "name": "guarantorAddress",
              "type": "address"
            },
            {
              "internalType": "uint256",
              "name": "escrowId",
              "type": "uint256"
            },
            {
              "internalType": "enum IGuarantorRegistry.GuarantorTier",
              "name": "tier",
              "type": "uint8"
            },
            {
              "internalType": "uint256",
              "name": "stakedAmount",
              "type": "uint256"
            },
            {
              "internalType": "bytes32",
              "name": "commitmentHash",
              "type": "bytes32"
            },
            {
              "internalType": "uint256",
              "name": "commitmentTimestamp",
              "type": "uint256"
            },
            {
              "internalType": "bool",
              "name": "isRevealed",
              "type": "bool"
            },
            {
              "internalType": "bool",
              "name": "isActive",
              "type": "bool"
            }
          ],
          "internalType": "struct IGuarantorRegistry.GuarantorCommitment",
          "name": "",
          "type": "tuple"
        }
      ],
      "stateMutability": "view",
      "type": "function"
    },
    {
      "inputs": [
        {
          "internalType": "uint256",
          "name": "escrowId",
          "type": "uint256"
        }
      ],
      "name": "getEscrowGuarantors",
      "outputs": [
        {
          "internalType": "address[]",
          "name": "",
          "type": "address[]"
        }
      ],
      "stateMutability": "view",
      "type": "function"
    },
    {
      "inputs": [
        {
          "internalType": "address",
          "name": "guarantor",
          "type": "address"
        }
      ],
      "name": "getGuarantorProfile",
      "outputs": [
        {
          "components": [
            {
              "internalType": "address",
              "name": "guarantorAddress",
              "type": "address"
            },
            {
              "internalType": "uint256",
              "name": "reputationScore",
              "type": "uint256"
            },
            {
              "internalType": "uint256",
              "name": "totalStaked",
              "type": "uint256"
            },
            {
              "internalType": "uint256",
              "name": "availableStake",
              "type": "uint256"
            },
            {
              "internalType": "uint256",
              "name": "successfulGuarantees",
              "type": "uint256"
            },
            {
              "internalType": "uint256",
              "name": "failedGuarantees",
              "type": "uint256"
            },
            {
              "internalType": "uint256",
              "name": "activeGuarantees",
              "type": "uint256"
            },
            {
              "internalType": "bool",
              "name": "isBanned",
              "type": "bool"
            },
            {
              "internalType": "uint256",
              "name": "bannedUntil",
              "type": "uint256"
            },
            {
              "internalType": "uint256",
              "name": "registeredAt",
              "type": "uint256"
            }
          ],
          "internalType": "struct IGuarantorRegistry.GuarantorProfile",
          "name": "",
          "type": "tuple"
        }
      ],
      "stateMutability": "view",
      "type": "function"
    },
    {
      "inputs": [
        {
          "internalType": "address",
          "name": "guarantor",
          "type": "address"
        },
        {
          "internalType": "enum IGuarantorRegistry.GuarantorTier",
          "name": "tier",
          "type": "uint8"
        },
        {
          "internalType": "uint256",
          "name": "requiredStake",
          "type": "uint256"
        }
      ],
      "name": "isEligibleGuarantor",
      "outputs": [
        {
          "internalType": "bool",
          "name": "",
          "type": "bool"
        }
      ],
      "stateMutability": "view",
      "type": "function"
    },
    {
      "inputs": [],
      "name": "owner",
      "outputs": [
        {
          "internalType": "address",
          "name": "",
          "type": "address"
        }
      ],
      "stateMutability": "view",
      "type": "function"
    },
    {
      "inputs": [],
      "name": "registerGuarantor",
      "outputs": [],
      "stateMutability": "nonpayable",
      "type": "function"
    },
    {
      "inputs": [],
      "name": "renounceOwnership",
      "outputs": [],
      "stateMutability": "nonpayable",
      "type": "function"
    },
    {
      "inputs": [
        {
          "internalType": "uint256",
          "name": "escrowId",
          "type": "uint256"
        },
        {
          "internalType": "bytes32",
          "name": "secret",
          "type": "bytes32"
        }
      ],
      "name": "revealCommitment",
      "outputs": [],
      "stateMutability": "nonpayable",
      "type": "function"
    },
    {
      "inputs": [
        {
          "internalType": "address",
          "name": "guarantor",
          "type": "address"
        },
        {
          "internalType": "uint256",
          "name": "escrowId",
          "type": "uint256"
        },
        {
          "internalType": "uint256",
          "name": "amount",
          "type": "uint256"
        }
      ],
      "name": "rewardGuarantor",
      "outputs": [],
      "stateMutability": "nonpayable",
      "type": "function"
    },
    {
      "inputs": [
        {
          "internalType": "address",
          "name": "coreAddress",
          "type": "address"
        }
      ],
      "name": "setAthenyxCore",
      "outputs": [],
      "stateMutability": "nonpayable",
      "type": "function"
    },
    {
      "inputs": [
        {
          "internalType": "address",
          "name": "guarantor",
          "type": "address"
        },
        {
          "internalType": "uint256",
          "name": "escrowId",
          "type": "uint256"
        },
        {
          "internalType": "uint256",
          "name": "amount",
          "type": "uint256"
        }
      ],
      "name": "slashGuarantor",
      "outputs": [],
      "stateMutability": "nonpayable",
      "type": "function"
    },
    {
      "inputs": [
        {
          "internalType": "address",
          "name": "newOwner",
          "type": "address"
        }
      ],
      "name": "transferOwnership",
      "outputs": [],
      "stateMutability": "nonpayable",
      "type": "function"
    },
    {
      "inputs": [
        {
          "internalType": "address",
          "name": "guarantor",
          "type": "address"
        },
        {
          "internalType": "int256",
          "name": "change",
          "type": "int256"
        }
      ],
      "name": "updateReputation",
      "outputs": [],
      "stateMutability": "nonpayable",
      "type": "function"
    },
    {
      "stateMutability": "payable",
      "type": "receive"
    }
  ],
  "bytecode": "0x6080604052348015600f57600080fd5b5060016000553380603a57604051631e4fbdf760e01b81526000600482015260240160405180910390fd5b6041816046565b506098565b600180546001600160a01b038381166001600160a01b0319831681179093556040519116919082907f8be0079c531659141344cd1fd0a4f28419497f9722a3daafe3b4186f6b6457e090600090a35050565b6117de806100a76000396000f3fe6080604052600436106101c65760003560e01c8063879f3b95116100f7578063ae6003e511610095578063d83dfbe311610064578063d83dfbe31461033e578063db886b4b146103c4578063ee1e4b84146104b5578063f2fde38b146104d557600080fd5b8063ae6003e514610440578063c943fc5614610460578063ce71810714610480578063d74a5e82146104a057600080fd5b80638bcc7a42116100d15780638bcc7a42146103c45780638da5cb5b146103d95780638eaf70651461040b578063957a79ff1461042057600080fd5b8063879f3b95146103825780638937d5151461033e57806389fb26821461039757600080fd5b80636a08b511116101645780637aa97dbc1161013e5780637aa97dbc146103295780637b0572581461033e57806383bd2ab8146103535780638611bfa41461036b57600080fd5b80636a08b511146102d4578063715018a6146102f457806372c975971461030957600080fd5b80633f064bbe116101a05780633f064bbe146102435780634fb6967214610270578063592b73151461029d57806359e19a73146102b257600080fd5b806301501919146101d25780630cb9ce7b1461020757806317e931cf1461022c57600080fd5b366101cd57005b600080fd5b3480156101de57600080fd5b506101f26101ed36600461137e565b6104f5565b60405190151581526020015b60405180910390f35b34801561021357600080fd5b5061021e6202a30081565b6040519081526020016101fe565b34801561023857600080fd5b5061021e6201518081565b34801561024f57600080fd5b5061026361025e3660046113bb565b6105bb565b6040516101fe91906113d4565b34801561027c57600080fd5b5061029061028b366004611420565b610627565b6040516101fe919061143b565b3480156102a957600080fd5b5061021e601e81565b3480156102be57600080fd5b506102d26102cd3660046114bb565b61071c565b005b3480156102e057600080fd5b506102d26102ef3660046114ee565b61084b565b34801561030057600080fd5b506102d261094b565b34801561031557600080fd5b506102d2610324366004611518565b61095f565b34801561033557600080fd5b5061021e601481565b34801561034a57600080fd5b5061021e606481565b34801561035f57600080fd5b5061021e6301e1338081565b34801561037757600080fd5b5061021e62278d0081565b34801561038e57600080fd5b5061021e60c881565b3480156103a357600080fd5b506103b76103b23660046115a2565b610a0e565b6040516101fe9190611606565b3480156103d057600080fd5b5061021e600a81565b3480156103e557600080fd5b506001546001600160a01b03165b6040516001600160a01b0390911681526020016101fe565b34801561041757600080fd5b506102d2610b02565b34801561042c57600080fd5b506102d261043b366004611672565b610bc1565b34801561044c57600080fd5b506007546103f3906001600160a01b031681565b34801561046c57600080fd5b506102d261047b366004611694565b610d83565b34801561048c57600080fd5b506102d261049b3660046114bb565b611092565b3480156104ac57600080fd5b5061021e603281565b3480156104c157600080fd5b506102d26104d0366004611420565b61121b565b3480156104e157600080fd5b506102d26104f0366004611420565b61126c565b6001600160a01b0383166000908152600260205260408120600981015482036105225760009150506105b4565b600781015460ff1680156105395750806008015442105b156105485760009150506105b4565b828160030154101561055e5760009150506105b4565b6002846002811115610572576105726115ce565b03610586576001015460c8111590506105b4565b600184600281111561059a5761059a6115ce565b036105ae57600101546064111590506105b4565b60009150505b9392505050565b60008181526004602090815260409182902080548351818402810184019094528084526060939283018282801561061b57602002820191906000526020600020905b81546001600160a01b031681526001909101906020018083116105fd575b50505050509050919050565b61068860405180610140016040528060006001600160a01b0316815260200160008152602001600081526020016000815260200160008152602001600081526020016000815260200160001515815260200160008152602001600081525090565b506001600160a01b039081166000908152600260208181526040928390208351610140810185528154909516855260018101549185019190915290810154918301919091526003810154606083015260048101546080830152600581015460a0830152600681015460c0830152600781015460ff16151560e083015260088101546101008301526009015461012082015290565b6007546001600160a01b03163314610746576040516282b42960e81b815260040160405180910390fd5b61074e6112aa565b6001600160a01b03831660008181526002602090815260408083208684526003808452828520958552949092529091209182015490919083111561079457806003015492505b828160030160008282546107a891906116e5565b92505081905550828260020160008282546107c391906116e5565b90915550506005820180549060006107da836116f8565b90915550506006820180549060006107f183611711565b919050555083856001600160a01b03167fc7fa7ad1f0aaecd088758f403eddf16f95fe11c768607ce42c91045e3e79e0858560405161083291815260200190565b60405180910390a350506108466001600055565b505050565b6007546001600160a01b03163314610875576040516282b42960e81b815260040160405180910390fd5b6001600160a01b0382166000908152600260205260408120908213156108b457818160010160008282546108a99190611728565b909155506108f69050565b60006108bf8361173b565b905080826001015411156108ec57808260010160008282546108e191906116e5565b909155506108f49050565b600060018301555b505b826001600160a01b03167f5712e29af9e0cda36f7084338830170ccb1f1c4986d27fc1d51d1f53562b9e6683836001015460405161093e929190918252602082015260400190565b60405180910390a2505050565b6109536112d4565b61095d6000611301565b565b6007546001600160a01b03163314610989576040516282b42960e81b815260040160405180910390fd5b6001600160a01b038416600090815260026020526040902060078101805460ff191660011790556109ba8442611728565b600882018190556040516001600160a01b038716917f8c2380e95fefa4fd538b4d4c803c621cc738b0de151f12e486065c995a13a3d6916109ff919087908790611757565b60405180910390a25050505050565b60408051610100808201835260008083526020808401829052838501829052606084018290526080840182905260a0840182905260c0840182905260e08401829052868252600381528482206001600160a01b03878116845290825291859020855193840186528054909216835260018201549083015260028082015493949293919284019160ff1690811115610aa757610aa76115ce565b6002811115610ab857610ab86115ce565b815260038201546020820152600482015460408201526005820154606082015260069091015460ff8082161515608084015261010090910416151560a09091015290505b92915050565b336000908152600260205260409020600981015415610b3457604051630ea075bf60e21b815260040160405180910390fd5b80546001600160a01b031916339081178255606460018301556000600283018190556003830181905560048301819055600583018190556006830181905560078301805460ff19169055600883015542600983018190556040519081527f16b424f60893ea7c6ad028430694023114b40b13c08825675f7d3a83418279b09060200160405180910390a250565b600082815260036020908152604080832033845290915281206005810154909103610bff57604051635b34156960e11b815260040160405180910390fd5b600681015460ff1615610c255760405163145718a760e01b815260040160405180910390fd5b60008381526006602052604090205442811180610c4d5750610c4a6201518082611728565b42115b15610c6b576040516340d8392160e11b815260040160405180910390fd5b6040516bffffffffffffffffffffffff193360601b166020820152603481018490526054810185905260009060740160405160208183030381529060405280519060200120905082600401548114610cd65760405163abab6bd760e01b815260040160405180910390fd5b600085815260056020908152604080832087845290915290205460ff1615610d115760405163ab36e96f60e01b815260040160405180910390fd5b60008581526005602090815260408083208784528252918290208054600160ff19918216811790925560068701805490911690911790559051858152869133917f5829deff83ed07c55572edce1e8a04a99fdbf1c17d85f016b5defcd30ba58102910160405180910390a35050505050565b336000818152600260205260409020600781015460ff168015610da95750806008015442105b15610dc757604051630fabf25360e01b815260040160405180910390fd5b3360009081526002602052604081206009810154909103610dfb57604051635c2d8da360e01b815260040160405180910390fd5b600087815260036020908152604080832033845290915290206005015415610e365760405163145718a760e01b815260040160405180910390fd5b84600003610e5757604051630103be3b60e21b815260040160405180910390fd5b6000866002811115610e6b57610e6b6115ce565b03610e895760405163e142361760e01b815260040160405180910390fd5b6002866002811115610e9d57610e9d6115ce565b148015610eae575060c88160010154105b15610ee15760018101546040516365afe21360e11b815260c8600482015260248101919091526044015b60405180910390fd5b6001866002811115610ef557610ef56115ce565b148015610f06575060648160010154105b15610f345760018101546040516365afe21360e11b8152606460048201526024810191909152604401610ed8565b600087815260036020908152604080832033808552925290912080546001600160a01b03191690911781556001808201899055600280830180548a93919260ff1990911691908490811115610f8b57610f8b6115ce565b02179055506003810186905560048082018690554260058301556006808301805461ffff191661010017905560008a8152602092835260408120805460018101825590825292812090920180546001600160a01b031916331790558301805491610ff4836116f8565b91905055508582600201600082825461100d9190611728565b90915550506000888152600660205260408120549003611044576110346202a30042611728565b6000898152600660205260409020555b87336001600160a01b03167f35bc69dafd7ff7a20d06fc4e8f9a6aea37aee9c58e78d84dbae83a91319dc129898960405161108092919061178d565b60405180910390a35050505050505050565b6007546001600160a01b031633146110bc576040516282b42960e81b815260040160405180910390fd5b6110c46112aa565b6001600160a01b0383166000818152600260209081526040808320868452600383528184209484529390915281206004830180549192611103836116f8565b909155505060068201805490600061111a83611711565b919050555060008382600301546111319190611728565b600060038401819055600285018054929350909182906111529082906116e5565b90915550506040516000906001600160a01b0388169083908381818185875af1925050503d80600081146111a2576040519150601f19603f3d011682016040523d82523d6000602084013e6111a7565b606091505b50509050806111c9576040516312171d8360e31b815260040160405180910390fd5b85876001600160a01b03167f261b8f4f74827b80120a739e253e260a561078860ff9289148899fb8c56bd8878760405161120591815260200190565b60405180910390a3505050506108466001600055565b6112236112d4565b6001600160a01b03811661124a5760405163e6c4247b60e01b815260040160405180910390fd5b600780546001600160a01b0319166001600160a01b0392909216919091179055565b6112746112d4565b6001600160a01b03811661129e57604051631e4fbdf760e01b815260006004820152602401610ed8565b6112a781611301565b50565b6002600054036112cd57604051633ee5aeb560e01b815260040160405180910390fd5b6002600055565b6001546001600160a01b0316331461095d5760405163118cdaa760e01b8152336004820152602401610ed8565b600180546001600160a01b038381166001600160a01b0319831681179093556040519116919082907f8be0079c531659141344cd1fd0a4f28419497f9722a3daafe3b4186f6b6457e090600090a35050565b80356001600160a01b038116811461136a57600080fd5b919050565b80356003811061136a57600080fd5b60008060006060848603121561139357600080fd5b61139c84611353565b92506113aa6020850161136f565b929592945050506040919091013590565b6000602082840312156113cd57600080fd5b5035919050565b602080825282518282018190526000918401906040840190835b818110156114155783516001600160a01b03168352602093840193909201916001016113ee565b509095945050505050565b60006020828403121561143257600080fd5b6105b482611353565b81516001600160a01b0316815261014081016020830151602083015260408301516040830152606083015160608301526080830151608083015260a083015160a083015260c083015160c083015260e083015161149c60e084018215159052565b5061010083015161010083015261012083015161012083015292915050565b6000806000606084860312156114d057600080fd5b6114d984611353565b95602085013595506040909401359392505050565b6000806040838503121561150157600080fd5b61150a83611353565b946020939093013593505050565b6000806000806060858703121561152e57600080fd5b61153785611353565b935060208501359250604085013567ffffffffffffffff81111561155a57600080fd5b8501601f8101871361156b57600080fd5b803567ffffffffffffffff81111561158257600080fd5b87602082840101111561159457600080fd5b949793965060200194505050565b600080604083850312156115b557600080fd5b823591506115c560208401611353565b90509250929050565b634e487b7160e01b600052602160045260246000fd5b6003811061160257634e487b7160e01b600052602160045260246000fd5b9052565b81516001600160a01b0316815260208083015190820152604080830151610100830191611635908401826115e4565b50606083015160608301526080830151608083015260a083015160a083015260c0830151151560c083015260e0830151151560e083015292915050565b6000806040838503121561168557600080fd5b50508035926020909101359150565b600080600080608085870312156116aa57600080fd5b843593506116ba6020860161136f565b93969395505050506040820135916060013590565b634e487b7160e01b600052601160045260246000fd5b81810381811115610afc57610afc6116cf565b60006001820161170a5761170a6116cf565b5060010190565b600081611720576117206116cf565b506000190190565b80820180821115610afc57610afc6116cf565b6000600160ff1b8201611750576117506116cf565b5060000390565b83815260406020820152816040820152818360608301376000818301606090810191909152601f909201601f1916010192915050565b6040810161179b82856115e4565b826020830152939250505056fea264697066735822122091a37b8fa562074f8688662aa6215dbbdb16d8fc402279acf5827aadf745fe5a64736f6c634300081e0033",
  "linkReferences": {},
  "deployedLinkReferences": {}
}