{
  "_format": "hh-sol-artifact-1",
  "contractName": "EscrowCore",
  "sourceName": "contracts/standard/core/EscrowCore.sol",
  "abi": [
    {
      "inputs": [],
      "name": "DeadlineNotPassed",
      "type": "error"
    },
    {
      "inputs": [],
      "name": "EscrowNotFound",
      "type": "error"
    },
    {
      "inputs": [],
      "name": "InsufficientFunds",
      "type": "error"
    },
    {
      "inputs": [],
      "name": "InvalidAmount",
      "type": "error"
    },
    {
      "inputs": [],
      "name": "InvalidDeadline",
      "type": "error"
    },
    {
      "inputs": [],
      "name": "InvalidState",
      "type": "error"
    },
    {
      "inputs": [],
      "name": "ReentrancyGuardReentrantCall",
      "type": "error"
    },
    {
      "inputs": [],
      "name": "TransferFailed",
      "type": "error"
    },
    {
      "inputs": [],
      "name": "Unauthorized",
      "type": "error"
    },
    {
      "inputs": [],
      "name": "ZeroAddress",
      "type": "error"
    },
    {
      "anonymous": false,
      "inputs": [
        {
          "indexed": true,
          "internalType": "uint256",
          "name": "escrowId",
          "type": "uint256"
        },
        {
          "indexed": false,
          "internalType": "uint256",
          "name": "refundedAmount",
          "type": "uint256"
        }
      ],
      "name": "EscrowCancelled",
      "type": "event"
    },
    {
      "anonymous": false,
      "inputs": [
        {
          "indexed": true,
          "internalType": "uint256",
          "name": "escrowId",
          "type": "uint256"
        }
      ],
      "name": "EscrowCompleted",
      "type": "event"
    },
    {
      "anonymous": false,
      "inputs": [
        {
          "indexed": true,
          "internalType": "uint256",
          "name": "escrowId",
          "type": "uint256"
        },
        {
          "indexed": true,
          "internalType": "address",
          "name": "creator",
          "type": "address"
        },
        {
          "indexed": true,
          "internalType": "address",
          "name": "beneficiary",
          "type": "address"
        },
        {
          "indexed": false,
          "internalType": "uint256",
          "name": "amount",
          "type": "uint256"
        }
      ],
      "name": "EscrowCreated",
      "type": "event"
    },
    {
      "anonymous": false,
      "inputs": [
        {
          "indexed": true,
          "internalType": "uint256",
          "name": "escrowId",
          "type": "uint256"
        },
        {
          "indexed": true,
          "internalType": "address",
          "name": "funder",
          "type": "address"
        },
        {
          "indexed": false,
          "internalType": "uint256",
          "name": "amount",
          "type": "uint256"
        }
      ],
      "name": "EscrowFunded",
      "type": "event"
    },
    {
      "anonymous": false,
      "inputs": [
        {
          "indexed": true,
          "internalType": "uint256",
          "name": "escrowId",
          "type": "uint256"
        },
        {
          "indexed": true,
          "internalType": "address",
          "name": "beneficiary",
          "type": "address"
        },
        {
          "indexed": false,
          "internalType": "uint256",
          "name": "amount",
          "type": "uint256"
        }
      ],
      "name": "EscrowReleased",
      "type": "event"
    },
    {
      "inputs": [
        {
          "internalType": "uint256",
          "name": "escrowId",
          "type": "uint256"
        }
      ],
      "name": "cancelEscrow",
      "outputs": [],
      "stateMutability": "nonpayable",
      "type": "function"
    },
    {
      "inputs": [
        {
          "internalType": "address",
          "name": "beneficiary",
          "type": "address"
        },
        {
          "internalType": "address",
          "name": "arbiter",
          "type": "address"
        },
        {
          "internalType": "uint256",
          "name": "amount",
          "type": "uint256"
        },
        {
          "internalType": "uint256",
          "name": "deadline",
          "type": "uint256"
        }
      ],
      "name": "createEscrow",
      "outputs": [
        {
          "internalType": "uint256",
          "name": "escrowId",
          "type": "uint256"
        }
      ],
      "stateMutability": "payable",
      "type": "function"
    },
    {
      "inputs": [
        {
          "internalType": "uint256",
          "name": "escrowId",
          "type": "uint256"
        }
      ],
      "name": "fundEscrow",
      "outputs": [],
      "stateMutability": "payable",
      "type": "function"
    },
    {
      "inputs": [
        {
          "internalType": "uint256",
          "name": "escrowId",
          "type": "uint256"
        }
      ],
      "name": "getEscrowInfo",
      "outputs": [
        {
          "components": [
            {
              "internalType": "address",
              "name": "creator",
              "type": "address"
            },
            {
              "internalType": "address",
              "name": "beneficiary",
              "type": "address"
            },
            {
              "internalType": "address",
              "name": "arbiter",
              "type": "address"
            },
            {
              "internalType": "uint256",
              "name": "amount",
              "type": "uint256"
            },
            {
              "internalType": "uint256",
              "name": "deadline",
              "type": "uint256"
            },
            {
              "internalType": "enum IEscrowCore.EscrowState",
              "name": "state",
              "type": "uint8"
            },
            {
              "internalType": "uint256",
              "name": "createdAt",
              "type": "uint256"
            }
          ],
          "internalType": "struct IEscrowCore.EscrowBasicInfo",
          "name": "",
          "type": "tuple"
        }
      ],
      "stateMutability": "view",
      "type": "function"
    },
    {
      "inputs": [
        {
          "internalType": "uint256",
          "name": "escrowId",
          "type": "uint256"
        }
      ],
      "name": "getEscrowState",
      "outputs": [
        {
          "internalType": "enum IEscrowCore.EscrowState",
          "name": "",
          "type": "uint8"
        }
      ],
      "stateMutability": "view",
      "type": "function"
    },
    {
      "inputs": [
        {
          "internalType": "uint256",
          "name": "",
          "type": "uint256"
        },
        {
          "internalType": "address",
          "name": "",
          "type": "address"
        }
      ],
      "name": "hasContributed",
      "outputs": [
        {
          "internalType": "bool",
          "name": "",
          "type": "bool"
        }
      ],
      "stateMutability": "view",
      "type": "function"
    },
    {
      "inputs": [],
      "name": "nextEscrowId",
      "outputs": [
        {
          "internalType": "uint256",
          "name": "",
          "type": "uint256"
        }
      ],
      "stateMutability": "view",
      "type": "function"
    },
    {
      "inputs": [
        {
          "internalType": "uint256",
          "name": "escrowId",
          "type": "uint256"
        }
      ],
      "name": "releaseEscrow",
      "outputs": [],
      "stateMutability": "nonpayable",
      "type": "function"
    }
  ],
  "bytecode": "0x6080604052348015600f57600080fd5b506001600055610d0e806100246000396000f3fe60806040526004361061007b5760003560e01c8063c9c31af51161004e578063c9c31af51461014d578063ccbae5f614610162578063e018243614610175578063ed6531641461019557600080fd5b80633a49995b146100805780638646405e146100b657806389cb29dd146100e3578063b5b96ae014610102575b600080fd5b34801561008c57600080fd5b506100a061009b366004610b45565b6101b5565b6040516100ad9190610b96565b60405180910390f35b3480156100c257600080fd5b506100d66100d1366004610b45565b610202565b6040516100ad9190610baa565b3480156100ef57600080fd5b506001545b6040519081526020016100ad565b34801561010e57600080fd5b5061013d61011d366004610c28565b600360209081526000928352604080842090915290825290205460ff1681565b60405190151581526020016100ad565b61016061015b366004610b45565b6102fa565b005b6100f4610170366004610c54565b61043b565b34801561018157600080fd5b50610160610190366004610b45565b6104c9565b3480156101a157600080fd5b506101606101b0366004610b45565b6106c1565b600081815260026020526040812060070154829082036101e85760405163f1d80ab160e01b815260040160405180910390fd5b505060009081526002602052604090206006015460ff1690565b6040805160e081018252600080825260208201819052918101829052606081018290526080810182905260a0810182905260c081019190915260008281526002602052604081206007015483910361026d5760405163f1d80ab160e01b815260040160405180910390fd5b600083815260026020818152604092839020835160e08101855281546001600160a01b039081168252600183015481169382019390935292810154909116928201929092526003820154606082015260058201546080820152600682015460a082019060ff1660048111156102e4576102e4610b5e565b8152602001826007015481525092505050919050565b60008181526002602052604081206007015482910361032c5760405163f1d80ab160e01b815260040160405180910390fd5b8160008060008381526002602052604090206006015460ff16600481111561035657610356610b5e565b146103745760405163baf3f0f760e01b815260040160405180910390fd5b346000036103955760405163162908e360e11b815260040160405180910390fd5b6000848152600260205260408120600481018054919234926103b8908490610cac565b909155505060008581526003602090815260408083203380855290835292819020805460ff191660011790555134815287917f4a2cd88ec7a748d5b20b3512d7249c67745777b219009075c745923684e9653d910160405180910390a380600301548160040154106104345760068101805460ff191660011790555b5050505050565b60006001600160a01b0385166104645760405163d92e233d60e01b815260040160405180910390fd5b826000036104855760405163162908e360e11b815260040160405180910390fd5b81158015906104945750428211155b156104b257604051631da7447960e21b815260040160405180910390fd5b6104c03386868634876108d7565b95945050505050565b6104d1610b1b565b6000818152600260205260408120600701548291036105035760405163f1d80ab160e01b815260040160405180910390fd5b600082815260026020526040812090600682015460ff16600481111561052b5761052b610b5e565b1415801561055257506001600682015460ff16600481111561054f5761054f610b5e565b14155b156105705760405163baf3f0f760e01b815260040160405180910390fd5b80546000906001600160a01b0316331480610597575060028201546001600160a01b031633145b806105c857506005820154158015906105b35750816005015442115b80156105c8575081546001600160a01b031633145b9050806105e7576040516282b42960e81b815260040160405180910390fd5b600482015460068301805460ff1916600217905580156106765782546040516000916001600160a01b03169083908381818185875af1925050503d806000811461064d576040519150601f19603f3d011682016040523d82523d6000602084013e610652565b606091505b5050905080610674576040516312171d8360e31b815260040160405180910390fd5b505b847fdc48a08bb890bd1b8e4261212a97a5e711e80830d96ba56b362f3ac5f427d51e826040516106a891815260200190565b60405180910390a2505050506106be6001600055565b50565b6106c9610b1b565b6000818152600260205260408120600701548291036106fb5760405163f1d80ab160e01b815260040160405180910390fd5b8160018060008381526002602052604090206006015460ff16600481111561072557610725610b5e565b146107435760405163baf3f0f760e01b815260040160405180910390fd5b600084815260026020526040812080549091906001600160a01b0316331480610778575060028201546001600160a01b031633145b806107ac57506005820154158015906107945750816005015442115b80156107ac575060018201546001600160a01b031633145b9050806107cb576040516282b42960e81b815260040160405180910390fd5b600482015460068301805460ff1916600317905560018301546040516000916001600160a01b03169083908381818185875af1925050503d806000811461082e576040519150601f19603f3d011682016040523d82523d6000602084013e610833565b606091505b5050905080610855576040516312171d8360e31b815260040160405180910390fd5b60018401546040518381526001600160a01b039091169089907f6244ed823ca6be0f11bc890c3fafcf3c29cb23420c14243642e930b5e07e6d0a9060200160405180910390a360405188907f9285bd636dda01bef18996aa38303bb742f6c67a6941646dddb17630cb492c2e90600090a2505050505050506106be6001600055565b60018054600091826108e883610cbf565b919050559050604051806101000160405280886001600160a01b03168152602001876001600160a01b03168152602001866001600160a01b031681526020018581526020018481526020018381526020018585101561094857600061094b565b60015b600481111561095c5761095c610b5e565b81524260209182015260008381526002808352604091829020845181546001600160a01b03199081166001600160a01b03928316178355948601516001808401805488169284169290921790915593860151928201805490951692169190911790925560608301516003830155608083015160048084019190915560a0840151600584015560c08401516006840180549193909260ff19909216918490811115610a0857610a08610b5e565b021790555060e091909101516007909101558215610a4e5760008181526003602090815260408083206001600160a01b038b1684529091529020805460ff191660011790555b856001600160a01b0316876001600160a01b0316827f9405ad0a6208539879349284d71265479b1623846f70303da1f9890d6e8c10a787604051610a9491815260200190565b60405180910390a48215610ae757866001600160a01b0316817f4a2cd88ec7a748d5b20b3512d7249c67745777b219009075c745923684e9653d85604051610ade91815260200190565b60405180910390a35b600160008281526002602052604090206006015460ff166004811115610b0f57610b0f610b5e565b50509695505050505050565b600260005403610b3e57604051633ee5aeb560e01b815260040160405180910390fd5b6002600055565b600060208284031215610b5757600080fd5b5035919050565b634e487b7160e01b600052602160045260246000fd5b60058110610b9257634e487b7160e01b600052602160045260246000fd5b9052565b60208101610ba48284610b74565b92915050565b81516001600160a01b03908116825260208084015182169083015260408084015190911690820152606080830151908201526080808301519082015260a08281015160e0830191610bfd90840182610b74565b5060c092830151919092015290565b80356001600160a01b0381168114610c2357600080fd5b919050565b60008060408385031215610c3b57600080fd5b82359150610c4b60208401610c0c565b90509250929050565b60008060008060808587031215610c6a57600080fd5b610c7385610c0c565b9350610c8160208601610c0c565b93969395505050506040820135916060013590565b634e487b7160e01b600052601160045260246000fd5b80820180821115610ba457610ba4610c96565b600060018201610cd157610cd1610c96565b506001019056fea26469706673582212203cdd13df8c68829f640553251abfb8a6b814bbd146a94817b2f54d018189867064736f6c634300081e0033",
  "linkReferences": {},
  "deployedLinkReferences": {}
}