{
  "_format": "hh-sol-artifact-1",
  "contractName": "LenderIncentives",
  "sourceName": "contracts/LenderIncentives.sol",
  "abi": [
    {
      "inputs": [],
      "stateMutability": "nonpayable",
      "type": "constructor"
    },
    {
      "inputs": [],
      "name": "AlreadyRegistered",
      "type": "error"
    },
    {
      "inputs": [],
      "name": "InsufficientFunds",
      "type": "error"
    },
    {
      "inputs": [],
      "name": "InvalidAddress",
      "type": "error"
    },
    {
      "inputs": [],
      "name": "InvalidAmount",
      "type": "error"
    },
    {
      "inputs": [],
      "name": "InvalidInterestRate",
      "type": "error"
    },
    {
      "inputs": [],
      "name": "LenderNotRegistered",
      "type": "error"
    },
    {
      "inputs": [],
      "name": "OfferAlreadyExists",
      "type": "error"
    },
    {
      "inputs": [],
      "name": "OfferNotFound",
      "type": "error"
    },
    {
      "inputs": [
        {
          "internalType": "address",
          "name": "owner",
          "type": "address"
        }
      ],
      "name": "OwnableInvalidOwner",
      "type": "error"
    },
    {
      "inputs": [
        {
          "internalType": "address",
          "name": "account",
          "type": "address"
        }
      ],
      "name": "OwnableUnauthorizedAccount",
      "type": "error"
    },
    {
      "inputs": [],
      "name": "ReentrancyGuardReentrantCall",
      "type": "error"
    },
    {
      "inputs": [],
      "name": "TransferFailed",
      "type": "error"
    },
    {
      "inputs": [],
      "name": "Unauthorized",
      "type": "error"
    },
    {
      "anonymous": false,
      "inputs": [
        {
          "indexed": true,
          "internalType": "address",
          "name": "lender",
          "type": "address"
        },
        {
          "indexed": false,
          "internalType": "uint256",
          "name": "bonusAmount",
          "type": "uint256"
        }
      ],
      "name": "EarlyBirdBonusAwarded",
      "type": "event"
    },
    {
      "anonymous": false,
      "inputs": [
        {
          "indexed": true,
          "internalType": "uint256",
          "name": "escrowId",
          "type": "uint256"
        },
        {
          "indexed": true,
          "internalType": "address",
          "name": "lender",
          "type": "address"
        },
        {
          "indexed": false,
          "internalType": "uint256",
          "name": "amount",
          "type": "uint256"
        }
      ],
      "name": "InterestPaid",
      "type": "event"
    },
    {
      "anonymous": false,
      "inputs": [
        {
          "indexed": true,
          "internalType": "address",
          "name": "lender",
          "type": "address"
        },
        {
          "indexed": false,
          "internalType": "uint256",
          "name": "timestamp",
          "type": "uint256"
        }
      ],
      "name": "LenderRegistered",
      "type": "event"
    },
    {
      "anonymous": false,
      "inputs": [
        {
          "indexed": true,
          "internalType": "address",
          "name": "lender",
          "type": "address"
        },
        {
          "indexed": false,
          "internalType": "uint256",
          "name": "rewardAmount",
          "type": "uint256"
        },
        {
          "indexed": false,
          "internalType": "string",
          "name": "reason",
          "type": "string"
        }
      ],
      "name": "LenderRewarded",
      "type": "event"
    },
    {
      "anonymous": false,
      "inputs": [
        {
          "indexed": true,
          "internalType": "uint256",
          "name": "escrowId",
          "type": "uint256"
        },
        {
          "indexed": true,
          "internalType": "address",
          "name": "lender",
          "type": "address"
        },
        {
          "indexed": false,
          "internalType": "uint256",
          "name": "amount",
          "type": "uint256"
        }
      ],
      "name": "LoanOfferAccepted",
      "type": "event"
    },
    {
      "anonymous": false,
      "inputs": [
        {
          "indexed": true,
          "internalType": "uint256",
          "name": "escrowId",
          "type": "uint256"
        },
        {
          "indexed": true,
          "internalType": "address",
          "name": "lender",
          "type": "address"
        },
        {
          "indexed": false,
          "internalType": "uint256",
          "name": "amount",
          "type": "uint256"
        },
        {
          "indexed": false,
          "internalType": "uint256",
          "name": "interestRate",
          "type": "uint256"
        }
      ],
      "name": "LoanOfferPlaced",
      "type": "event"
    },
    {
      "anonymous": false,
      "inputs": [
        {
          "indexed": true,
          "internalType": "address",
          "name": "previousOwner",
          "type": "address"
        },
        {
          "indexed": true,
          "internalType": "address",
          "name": "newOwner",
          "type": "address"
        }
      ],
      "name": "OwnershipTransferred",
      "type": "event"
    },
    {
      "inputs": [],
      "name": "BASE_RATE_BPS",
      "outputs": [
        {
          "internalType": "uint256",
          "name": "",
          "type": "uint256"
        }
      ],
      "stateMutability": "view",
      "type": "function"
    },
    {
      "inputs": [],
      "name": "BASIS_POINTS",
      "outputs": [
        {
          "internalType": "uint256",
          "name": "",
          "type": "uint256"
        }
      ],
      "stateMutability": "view",
      "type": "function"
    },
    {
      "inputs": [],
      "name": "EARLY_BIRD_BONUS_BPS",
      "outputs": [
        {
          "internalType": "uint256",
          "name": "",
          "type": "uint256"
        }
      ],
      "stateMutability": "view",
      "type": "function"
    },
    {
      "inputs": [],
      "name": "EARLY_BIRD_THRESHOLD",
      "outputs": [
        {
          "internalType": "uint256",
          "name": "",
          "type": "uint256"
        }
      ],
      "stateMutability": "view",
      "type": "function"
    },
    {
      "inputs": [],
      "name": "MAX_REPUTATION_DISCOUNT_BPS",
      "outputs": [
        {
          "internalType": "uint256",
          "name": "",
          "type": "uint256"
        }
      ],
      "stateMutability": "view",
      "type": "function"
    },
    {
      "inputs": [],
      "name": "MAX_RISK_PREMIUM_BPS",
      "outputs": [
        {
          "internalType": "uint256",
          "name": "",
          "type": "uint256"
        }
      ],
      "stateMutability": "view",
      "type": "function"
    },
    {
      "inputs": [],
      "name": "MIN_GUARANTOR_COUNT",
      "outputs": [
        {
          "internalType": "uint256",
          "name": "",
          "type": "uint256"
        }
      ],
      "stateMutability": "view",
      "type": "function"
    },
    {
      "inputs": [],
      "name": "OPTIMAL_GUARANTOR_COUNT",
      "outputs": [
        {
          "internalType": "uint256",
          "name": "",
          "type": "uint256"
        }
      ],
      "stateMutability": "view",
      "type": "function"
    },
    {
      "inputs": [
        {
          "internalType": "uint256",
          "name": "escrowId",
          "type": "uint256"
        },
        {
          "internalType": "address",
          "name": "lender",
          "type": "address"
        }
      ],
      "name": "acceptLoanOffer",
      "outputs": [],
      "stateMutability": "nonpayable",
      "type": "function"
    },
    {
      "inputs": [],
      "name": "athenyxCore",
      "outputs": [
        {
          "internalType": "address",
          "name": "",
          "type": "address"
        }
      ],
      "stateMutability": "view",
      "type": "function"
    },
    {
      "inputs": [
        {
          "internalType": "uint256",
          "name": "escrowId",
          "type": "uint256"
        },
        {
          "internalType": "uint256",
          "name": "borrowerReputation",
          "type": "uint256"
        },
        {
          "internalType": "uint256",
          "name": "guarantorCount",
          "type": "uint256"
        },
        {
          "internalType": "uint256",
          "name": "guarantorQuality",
          "type": "uint256"
        }
      ],
      "name": "calculateInterestRate",
      "outputs": [
        {
          "components": [
            {
              "internalType": "uint256",
              "name": "baseRate",
              "type": "uint256"
            },
            {
              "internalType": "uint256",
              "name": "riskPremium",
              "type": "uint256"
            },
            {
              "internalType": "uint256",
              "name": "earlyBirdBonus",
              "type": "uint256"
            },
            {
              "internalType": "uint256",
              "name": "reputationDiscount",
              "type": "uint256"
            },
            {
              "internalType": "uint256",
              "name": "finalRate",
              "type": "uint256"
            }
          ],
          "internalType": "struct ILenderIncentives.InterestCalculation",
          "name": "",
          "type": "tuple"
        }
      ],
      "stateMutability": "view",
      "type": "function"
    },
    {
      "inputs": [
        {
          "internalType": "uint256",
          "name": "escrowId",
          "type": "uint256"
        }
      ],
      "name": "getBestOffer",
      "outputs": [
        {
          "internalType": "address",
          "name": "bestLender",
          "type": "address"
        },
        {
          "internalType": "uint256",
          "name": "lowestRate",
          "type": "uint256"
        }
      ],
      "stateMutability": "view",
      "type": "function"
    },
    {
      "inputs": [
        {
          "internalType": "uint256",
          "name": "escrowId",
          "type": "uint256"
        }
      ],
      "name": "getEscrowOffers",
      "outputs": [
        {
          "internalType": "address[]",
          "name": "",
          "type": "address[]"
        }
      ],
      "stateMutability": "view",
      "type": "function"
    },
    {
      "inputs": [
        {
          "internalType": "address",
          "name": "lender",
          "type": "address"
        }
      ],
      "name": "getLenderProfile",
      "outputs": [
        {
          "components": [
            {
              "internalType": "address",
              "name": "lenderAddress",
              "type": "address"
            },
            {
              "internalType": "uint256",
              "name": "totalLent",
              "type": "uint256"
            },
            {
              "internalType": "uint256",
              "name": "totalRepaid",
              "type": "uint256"
            },
            {
              "internalType": "uint256",
              "name": "activeLoanCount",
              "type": "uint256"
            },
            {
              "internalType": "uint256",
              "name": "successfulLoanCount",
              "type": "uint256"
            },
            {
              "internalType": "uint256",
              "name": "defaultedLoanCount",
              "type": "uint256"
            },
            {
              "internalType": "uint256",
              "name": "rewardsEarned",
              "type": "uint256"
            },
            {
              "internalType": "uint256",
              "name": "joinedAt",
              "type": "uint256"
            }
          ],
          "internalType": "struct ILenderIncentives.LenderProfile",
          "name": "",
          "type": "tuple"
        }
      ],
      "stateMutability": "view",
      "type": "function"
    },
    {
      "inputs": [
        {
          "internalType": "uint256",
          "name": "escrowId",
          "type": "uint256"
        },
        {
          "internalType": "address",
          "name": "lender",
          "type": "address"
        }
      ],
      "name": "getLoanOffer",
      "outputs": [
        {
          "components": [
            {
              "internalType": "uint256",
              "name": "escrowId",
              "type": "uint256"
            },
            {
              "internalType": "address",
              "name": "lender",
              "type": "address"
            },
            {
              "internalType": "uint256",
              "name": "offeredAmount",
              "type": "uint256"
            },
            {
              "internalType": "uint256",
              "name": "interestRateBasisPoints",
              "type": "uint256"
            },
            {
              "internalType": "uint256",
              "name": "offerTimestamp",
              "type": "uint256"
            },
            {
              "internalType": "bool",
              "name": "isAccepted",
              "type": "bool"
            },
            {
              "internalType": "bool",
              "name": "isActive",
              "type": "bool"
            }
          ],
          "internalType": "struct ILenderIncentives.LoanOffer",
          "name": "",
          "type": "tuple"
        }
      ],
      "stateMutability": "view",
      "type": "function"
    },
    {
      "inputs": [],
      "name": "guarantorRegistry",
      "outputs": [
        {
          "internalType": "address",
          "name": "",
          "type": "address"
        }
      ],
      "stateMutability": "view",
      "type": "function"
    },
    {
      "inputs": [
        {
          "internalType": "address",
          "name": "lender",
          "type": "address"
        },
        {
          "internalType": "bool",
          "name": "successful",
          "type": "bool"
        }
      ],
      "name": "markLoanComplete",
      "outputs": [],
      "stateMutability": "nonpayable",
      "type": "function"
    },
    {
      "inputs": [],
      "name": "owner",
      "outputs": [
        {
          "internalType": "address",
          "name": "",
          "type": "address"
        }
      ],
      "stateMutability": "view",
      "type": "function"
    },
    {
      "inputs": [
        {
          "internalType": "uint256",
          "name": "escrowId",
          "type": "uint256"
        },
        {
          "internalType": "address",
          "name": "lender",
          "type": "address"
        },
        {
          "internalType": "uint256",
          "name": "amount",
          "type": "uint256"
        }
      ],
      "name": "payInterest",
      "outputs": [],
      "stateMutability": "nonpayable",
      "type": "function"
    },
    {
      "inputs": [
        {
          "internalType": "uint256",
          "name": "escrowId",
          "type": "uint256"
        },
        {
          "internalType": "uint256",
          "name": "interestRateBasisPoints",
          "type": "uint256"
        }
      ],
      "name": "placeLoanOffer",
      "outputs": [],
      "stateMutability": "payable",
      "type": "function"
    },
    {
      "inputs": [],
      "name": "registerLender",
      "outputs": [],
      "stateMutability": "nonpayable",
      "type": "function"
    },
    {
      "inputs": [],
      "name": "renounceOwnership",
      "outputs": [],
      "stateMutability": "nonpayable",
      "type": "function"
    },
    {
      "inputs": [
        {
          "internalType": "address",
          "name": "lender",
          "type": "address"
        },
        {
          "internalType": "uint256",
          "name": "amount",
          "type": "uint256"
        },
        {
          "internalType": "string",
          "name": "reason",
          "type": "string"
        }
      ],
      "name": "rewardLender",
      "outputs": [],
      "stateMutability": "nonpayable",
      "type": "function"
    },
    {
      "inputs": [
        {
          "internalType": "address",
          "name": "coreAddress",
          "type": "address"
        }
      ],
      "name": "setAthenyxCore",
      "outputs": [],
      "stateMutability": "nonpayable",
      "type": "function"
    },
    {
      "inputs": [
        {
          "internalType": "address",
          "name": "registryAddress",
          "type": "address"
        }
      ],
      "name": "setGuarantorRegistry",
      "outputs": [],
      "stateMutability": "nonpayable",
      "type": "function"
    },
    {
      "inputs": [],
      "name": "totalLendersCount",
      "outputs": [
        {
          "internalType": "uint256",
          "name": "",
          "type": "uint256"
        }
      ],
      "stateMutability": "view",
      "type": "function"
    },
    {
      "inputs": [
        {
          "internalType": "address",
          "name": "newOwner",
          "type": "address"
        }
      ],
      "name": "transferOwnership",
      "outputs": [],
      "stateMutability": "nonpayable",
      "type": "function"
    },
    {
      "stateMutability": "payable",
      "type": "receive"
    }
  ],
  "bytecode": "0x6080604052348015600f57600080fd5b5060016000553380603a57604051631e4fbdf760e01b81526000600482015260240160405180910390fd5b6041816046565b506098565b600180546001600160a01b038381166001600160a01b0319831681179093556040519116919082907f8be0079c531659141344cd1fd0a4f28419497f9722a3daafe3b4186f6b6457e090600090a35050565b611855806100a76000396000f3fe6080604052600436106101a05760003560e01c80637e018889116100ec578063b1ced08a1161008a578063e1f1c4a711610064578063e1f1c4a71461051a578063ee1e4b8414610530578063f2fde38b14610550578063fd4034591461057057600080fd5b8063b1ced08a1461045f578063c4f35e1e1461047f578063dfd1b4791461049557600080fd5b8063aa106349116100c6578063aa106349146103df578063ab31b17b146103ff578063ae6003e51461042c578063b13dda281461044c57600080fd5b80637e018889146103ab5780638da5cb5b146103c1578063a169268f1461033657600080fd5b80635599bc3e11610159578063715018a611610133578063715018a61461034b578063741c89351461036057806376e0bd7d146103765780637df21f7a1461039657600080fd5b80635599bc3e146102e25780635d915260146102f757806369be15001461033657600080fd5b80631261fc6c146101ac5780632fe0ec78146101d55780633d86d3881461025357806344ebf82b1461028b5780634f8bd71d146102ad578063518d67e9146102c257600080fd5b366101a757005b600080fd5b3480156101b857600080fd5b506101c260075481565b6040519081526020015b60405180910390f35b3480156101e157600080fd5b506101f56101f036600461152b565b6105d2565b6040516101cc9190815181526020808301516001600160a01b03169082015260408083015190820152606080830151908201526080808301519082015260a08083015115159082015260c09182015115159181019190915260e00190565b34801561025f57600080fd5b50600654610273906001600160a01b031681565b6040516001600160a01b0390911681526020016101cc565b34801561029757600080fd5b506102ab6102a6366004611557565b6106a1565b005b3480156102b957600080fd5b506101c2600381565b3480156102ce57600080fd5b506102ab6102dd36600461158d565b6107ee565b3480156102ee57600080fd5b506101c2603281565b34801561030357600080fd5b506103176103123660046115c9565b61087a565b604080516001600160a01b0390931683526020830191909152016101cc565b34801561034257600080fd5b506101c2600581565b34801561035757600080fd5b506102ab610a6d565b34801561036c57600080fd5b506101c26105dc81565b34801561038257600080fd5b506102ab6103913660046115e2565b610a81565b3480156103a257600080fd5b506102ab610ad2565b3480156103b757600080fd5b506101c26101f481565b3480156103cd57600080fd5b506001546001600160a01b0316610273565b3480156103eb57600080fd5b506102ab6103fa366004611604565b610b93565b34801561040b57600080fd5b5061041f61041a3660046115c9565b610ce1565b6040516101cc919061168e565b34801561043857600080fd5b50600554610273906001600160a01b031681565b6102ab61045a3660046116da565b610d4d565b34801561046b57600080fd5b506102ab61047a36600461152b565b610f46565b34801561048b57600080fd5b506101c261012c81565b3480156104a157600080fd5b506104b56104b03660046115e2565b61111c565b6040516101cc919081516001600160a01b031681526020808301519082015260408083015190820152606080830151908201526080808301519082015260a0828101519082015260c0808301519082015260e091820151918101919091526101000190565b34801561052657600080fd5b506101c261271081565b34801561053c57600080fd5b506102ab61054b3660046115e2565b6111e6565b34801561055c57600080fd5b506102ab61056b3660046115e2565b611237565b34801561057c57600080fd5b5061059061058b3660046116fc565b61127a565b6040516101cc9190600060a082019050825182526020830151602083015260408301516040830152606083015160608301526080830151608083015292915050565b61061f6040518060e001604052806000815260200160006001600160a01b031681526020016000815260200160008152602001600081526020016000151581526020016000151581525090565b5060008281526003602081815260408084206001600160a01b03808716865290835293819020815160e08101835281548152600182015490951692850192909252600282015490840152908101546060830152600481015460808301526005015460ff808216151560a084015261010090910416151560c08201525b92915050565b6005546001600160a01b031633146106cb576040516282b42960e81b815260040160405180910390fd5b6106d3611466565b806000036106f45760405163162908e360e11b815260040160405180910390fd5b6001600160a01b03821660009081526002602081905260408220908101805491928492610722908490611744565b90915550506040516000906001600160a01b0385169084908381818185875af1925050503d8060008114610772576040519150601f19603f3d011682016040523d82523d6000602084013e610777565b606091505b5050905080610799576040516312171d8360e31b815260040160405180910390fd5b836001600160a01b0316857f1bac279e8b453c21522e8f33c4b9b6b7ffd4807c770f6fcb16970bf0d23fe804856040516107d591815260200190565b60405180910390a350506107e96001600055565b505050565b6005546001600160a01b03163314610818576040516282b42960e81b815260040160405180910390fd5b6001600160a01b0382166000908152600260205260408120600381018054919261084183611757565b919050555081156108685760048101805490600061085e8361176e565b9190505550505050565b60058101805490600061085e8361176e565b60008181526004602090815260408083208054825181850281018501909352808352849384939291908301828280156108dc57602002820191906000526020600020905b81546001600160a01b031681526001909101906020018083116108be575b5050505050905080516000036108f85750600093849350915050565b8060008151811061090b5761090b611787565b602002602001015192506003600085815260200190815260200160002060008260008151811061093d5761093d611787565b60200260200101516001600160a01b03166001600160a01b031681526020019081526020016000206003015491506000600190505b8151811015610a665760008581526003602052604081208351829085908590811061099f5761099f611787565b60200260200101516001600160a01b03166001600160a01b031681526020019081526020016000206003015490508381108015610a3857506003600087815260200190815260200160002060008484815181106109fe576109fe611787565b60200260200101516001600160a01b03166001600160a01b0316815260200190815260200160002060050160019054906101000a900460ff165b15610a5d57809350828281518110610a5257610a52611787565b602002602001015194505b50600101610972565b5050915091565b610a75611490565b610a7f60006114bd565b565b610a89611490565b6001600160a01b038116610ab05760405163e6c4247b60e01b815260040160405180910390fd5b600680546001600160a01b0319166001600160a01b0392909216919091179055565b336000908152600260205260409020600781015415610b0457604051630ea075bf60e21b815260040160405180910390fd5b80546001600160a01b03191633178155600060018201819055600282018190556003820181905560048201819055600582018190556006820181905542600780840191909155805491610b568361176e565b909155505060405142815233907fa0f40b7c0f5a214073b91ac846bcc605c7c35a8fb4c4ea5399cc16746d527c679060200160405180910390a250565b6005546001600160a01b03163314610bbd576040516282b42960e81b815260040160405180910390fd5b610bc5611466565b82600003610be65760405163162908e360e11b815260040160405180910390fd5b6001600160a01b038416600090815260026020526040812060068101805491928692610c13908490611744565b90915550506040516000906001600160a01b0387169086908381818185875af1925050503d8060008114610c63576040519150601f19603f3d011682016040523d82523d6000602084013e610c68565b606091505b5050905080610c8a576040516312171d8360e31b815260040160405180910390fd5b856001600160a01b03167fec275672cf2fc31e03a71d6cc8933e3ff771b55c301e02945dd9d4fea3ad2727868686604051610cc79392919061179d565b60405180910390a25050610cdb6001600055565b50505050565b600081815260046020908152604091829020805483518184028101840190945280845260609392830182828015610d4157602002820191906000526020600020905b81546001600160a01b03168152600190910190602001808311610d23575b50505050509050919050565b3360009081526002602052604081206007810154909103610d8157604051632bbb046560e21b815260040160405180910390fd5b34600003610da25760405163162908e360e11b815260040160405180910390fd5b811580610db0575061138882115b15610dce5760405163b770249b60e01b815260040160405180910390fd5b600083815260036020908152604080832033845290915290206004015415610e095760405163eeee5c8b60e01b815260040160405180910390fd5b600083815260036020818152604080842033808652908352818520888155600180820180546001600160a01b03199081168517909155346002840155958201899055426004808401919091556005808401805461ffff19166101001790558b895290865293872080549182018155808852948720018054909516909117909355928690525490918111610f02576000612710610ea66032346117d3565b610eb091906117ea565b905080846006016000828254610ec69190611744565b909155505060405181815233907f5c48f24471b3ae7ab9aef69a32e4278c7fe53852693ef357ce7f69ec8d5350429060200160405180910390a2505b6040805134815260208101869052339187917f1f23aac9d10327501cb918a21698aff64b8d78793b82a301ab05123985f0f9df910160405180910390a35050505050565b6005546001600160a01b03163314610f70576040516282b42960e81b815260040160405180910390fd5b610f78611466565b60008281526003602090815260408083206001600160a01b038516845290915281206004810154909103610fbf57604051636df5846d60e01b815260040160405180910390fd5b6005810154610100900460ff16610fe957604051636df5846d60e01b815260040160405180910390fd5b60058101805461ffff191660019081179091556001600160a01b03831660009081526002602081905260408220908401549281018054919392909161102f908490611744565b90915550506003810180549060006110468361176e565b909155505060055460028301546040516000926001600160a01b031691908381818185875af1925050503d806000811461109c576040519150601f19603f3d011682016040523d82523d6000602084013e6110a1565b606091505b50509050806110c3576040516312171d8360e31b815260040160405180910390fd5b836001600160a01b0316857f8399a77f3f098f44951929ad042f7d38fe80e5e4d81cfada0fee034e4cfe0f73856002015460405161110391815260200190565b60405180910390a35050506111186001600055565b5050565b61116d60405180610100016040528060006001600160a01b03168152602001600081526020016000815260200160008152602001600081526020016000815260200160008152602001600081525090565b506001600160a01b039081166000908152600260208181526040928390208351610100810185528154909516855260018101549185019190915290810154918301919091526003810154606083015260048101546080830152600581015460a0830152600681015460c08301526007015460e082015290565b6111ee611490565b6001600160a01b0381166112155760405163e6c4247b60e01b815260040160405180910390fd5b600580546001600160a01b0319166001600160a01b0392909216919091179055565b61123f611490565b6001600160a01b03811661126e57604051631e4fbdf760e01b8152600060048201526024015b60405180910390fd5b611277816114bd565b50565b6112ac6040518060a0016040528060008152602001600081526020016000815260200160008152602001600081525090565b6112de6040518060a0016040528060008152602001600081526020016000815260200160008152602001600081525090565b6101f481526064808610156112ff576112f8603282611744565b905061132a565b60c8861015611313576112f8601982611744565b61012c861061132a5761132760148261180c565b90505b60038510156113455761133e601e82611744565b905061135b565b6005851061135b57611358600f8261180c565b90505b60968410156113765761136f601482611744565b905061138c565b60fa841061138c57611389600a8261180c565b90505b606461139a826105dc6117d3565b6113a491906117ea565b602083018190526105dc10156113bd576105dc60208301525b60008781526004602052604090205460058110156113dd57603260408401525b61012c87106113f35761012c606084015261140e565b60c8871061140e57611408600261012c6117ea565b60608401525b6040830151602084015184516114249190611744565b61142e9190611744565b608084018190526060840151101561145a57826060015183608001818151611456919061180c565b9052505b50909695505050505050565b60026000540361148957604051633ee5aeb560e01b815260040160405180910390fd5b6002600055565b6001546001600160a01b03163314610a7f5760405163118cdaa760e01b8152336004820152602401611265565b600180546001600160a01b038381166001600160a01b0319831681179093556040519116919082907f8be0079c531659141344cd1fd0a4f28419497f9722a3daafe3b4186f6b6457e090600090a35050565b80356001600160a01b038116811461152657600080fd5b919050565b6000806040838503121561153e57600080fd5b8235915061154e6020840161150f565b90509250929050565b60008060006060848603121561156c57600080fd5b8335925061157c6020850161150f565b929592945050506040919091013590565b600080604083850312156115a057600080fd5b6115a98361150f565b9150602083013580151581146115be57600080fd5b809150509250929050565b6000602082840312156115db57600080fd5b5035919050565b6000602082840312156115f457600080fd5b6115fd8261150f565b9392505050565b6000806000806060858703121561161a57600080fd5b6116238561150f565b935060208501359250604085013567ffffffffffffffff81111561164657600080fd5b8501601f8101871361165757600080fd5b803567ffffffffffffffff81111561166e57600080fd5b87602082840101111561168057600080fd5b949793965060200194505050565b602080825282518282018190526000918401906040840190835b818110156116cf5783516001600160a01b03168352602093840193909201916001016116a8565b509095945050505050565b600080604083850312156116ed57600080fd5b50508035926020909101359150565b6000806000806080858703121561171257600080fd5b5050823594602084013594506040840135936060013592509050565b634e487b7160e01b600052601160045260246000fd5b8082018082111561069b5761069b61172e565b6000816117665761176661172e565b506000190190565b6000600182016117805761178061172e565b5060010190565b634e487b7160e01b600052603260045260246000fd5b83815260406020820152816040820152818360608301376000818301606090810191909152601f909201601f1916010192915050565b808202811582820484141761069b5761069b61172e565b60008261180757634e487b7160e01b600052601260045260246000fd5b500490565b8181038181111561069b5761069b61172e56fea264697066735822122078e28029d8f56a469e41721bf16dc5fbfef8679048c74bc29670a1150320c0f364736f6c634300081e0033",
  "linkReferences": {},
  "deployedLinkReferences": {}
}