{
  "_format": "hh-sol-artifact-1",
  "contractName": "MilestoneEscrow",
  "sourceName": "contracts/standard/examples/MilestoneEscrow.sol",
  "abi": [
    {
      "inputs": [],
      "stateMutability": "nonpayable",
      "type": "constructor"
    },
    {
      "inputs": [],
      "name": "DeadlineNotPassed",
      "type": "error"
    },
    {
      "inputs": [],
      "name": "EscrowNotFound",
      "type": "error"
    },
    {
      "inputs": [],
      "name": "InsufficientFunds",
      "type": "error"
    },
    {
      "inputs": [],
      "name": "InvalidAmount",
      "type": "error"
    },
    {
      "inputs": [],
      "name": "InvalidDeadline",
      "type": "error"
    },
    {
      "inputs": [],
      "name": "InvalidMilestoneCount",
      "type": "error"
    },
    {
      "inputs": [],
      "name": "InvalidState",
      "type": "error"
    },
    {
      "inputs": [],
      "name": "MilestoneAlreadyApproved",
      "type": "error"
    },
    {
      "inputs": [],
      "name": "MilestoneAlreadyReleased",
      "type": "error"
    },
    {
      "inputs": [],
      "name": "MilestoneNotApproved",
      "type": "error"
    },
    {
      "inputs": [],
      "name": "MilestoneNotFound",
      "type": "error"
    },
    {
      "inputs": [],
      "name": "ReentrancyGuardReentrantCall",
      "type": "error"
    },
    {
      "inputs": [],
      "name": "TransferFailed",
      "type": "error"
    },
    {
      "inputs": [],
      "name": "Unauthorized",
      "type": "error"
    },
    {
      "inputs": [],
      "name": "ZeroAddress",
      "type": "error"
    },
    {
      "anonymous": false,
      "inputs": [
        {
          "indexed": true,
          "internalType": "uint256",
          "name": "escrowId",
          "type": "uint256"
        },
        {
          "indexed": false,
          "internalType": "uint256",
          "name": "refundedAmount",
          "type": "uint256"
        }
      ],
      "name": "EscrowCancelled",
      "type": "event"
    },
    {
      "anonymous": false,
      "inputs": [
        {
          "indexed": true,
          "internalType": "uint256",
          "name": "escrowId",
          "type": "uint256"
        }
      ],
      "name": "EscrowCompleted",
      "type": "event"
    },
    {
      "anonymous": false,
      "inputs": [
        {
          "indexed": true,
          "internalType": "uint256",
          "name": "escrowId",
          "type": "uint256"
        },
        {
          "indexed": true,
          "internalType": "address",
          "name": "creator",
          "type": "address"
        },
        {
          "indexed": true,
          "internalType": "address",
          "name": "beneficiary",
          "type": "address"
        },
        {
          "indexed": false,
          "internalType": "uint256",
          "name": "amount",
          "type": "uint256"
        }
      ],
      "name": "EscrowCreated",
      "type": "event"
    },
    {
      "anonymous": false,
      "inputs": [
        {
          "indexed": true,
          "internalType": "uint256",
          "name": "escrowId",
          "type": "uint256"
        },
        {
          "indexed": true,
          "internalType": "address",
          "name": "funder",
          "type": "address"
        },
        {
          "indexed": false,
          "internalType": "uint256",
          "name": "amount",
          "type": "uint256"
        }
      ],
      "name": "EscrowFunded",
      "type": "event"
    },
    {
      "anonymous": false,
      "inputs": [
        {
          "indexed": true,
          "internalType": "uint256",
          "name": "escrowId",
          "type": "uint256"
        },
        {
          "indexed": true,
          "internalType": "address",
          "name": "beneficiary",
          "type": "address"
        },
        {
          "indexed": false,
          "internalType": "uint256",
          "name": "amount",
          "type": "uint256"
        }
      ],
      "name": "EscrowReleased",
      "type": "event"
    },
    {
      "anonymous": false,
      "inputs": [
        {
          "indexed": true,
          "internalType": "uint256",
          "name": "escrowId",
          "type": "uint256"
        },
        {
          "indexed": true,
          "internalType": "uint256",
          "name": "milestoneIndex",
          "type": "uint256"
        },
        {
          "indexed": true,
          "internalType": "address",
          "name": "approver",
          "type": "address"
        }
      ],
      "name": "MilestoneApproved",
      "type": "event"
    },
    {
      "anonymous": false,
      "inputs": [
        {
          "indexed": true,
          "internalType": "uint256",
          "name": "escrowId",
          "type": "uint256"
        },
        {
          "indexed": true,
          "internalType": "uint256",
          "name": "milestoneIndex",
          "type": "uint256"
        },
        {
          "indexed": false,
          "internalType": "uint256",
          "name": "amount",
          "type": "uint256"
        },
        {
          "indexed": false,
          "internalType": "uint256",
          "name": "deadline",
          "type": "uint256"
        }
      ],
      "name": "MilestoneCreated",
      "type": "event"
    },
    {
      "anonymous": false,
      "inputs": [
        {
          "indexed": true,
          "internalType": "uint256",
          "name": "escrowId",
          "type": "uint256"
        },
        {
          "indexed": true,
          "internalType": "uint256",
          "name": "milestoneIndex",
          "type": "uint256"
        },
        {
          "indexed": false,
          "internalType": "uint256",
          "name": "amount",
          "type": "uint256"
        }
      ],
      "name": "MilestoneReleased",
      "type": "event"
    },
    {
      "inputs": [
        {
          "internalType": "uint256",
          "name": "escrowId",
          "type": "uint256"
        },
        {
          "internalType": "uint256",
          "name": "milestoneIndex",
          "type": "uint256"
        }
      ],
      "name": "approveMilestone",
      "outputs": [],
      "stateMutability": "nonpayable",
      "type": "function"
    },
    {
      "inputs": [
        {
          "internalType": "uint256",
          "name": "escrowId",
          "type": "uint256"
        }
      ],
      "name": "cancelEscrow",
      "outputs": [],
      "stateMutability": "nonpayable",
      "type": "function"
    },
    {
      "inputs": [
        {
          "internalType": "address",
          "name": "beneficiary",
          "type": "address"
        },
        {
          "internalType": "address",
          "name": "arbiter",
          "type": "address"
        },
        {
          "internalType": "uint256",
          "name": "amount",
          "type": "uint256"
        },
        {
          "internalType": "uint256",
          "name": "deadline",
          "type": "uint256"
        }
      ],
      "name": "createEscrow",
      "outputs": [
        {
          "internalType": "uint256",
          "name": "escrowId",
          "type": "uint256"
        }
      ],
      "stateMutability": "payable",
      "type": "function"
    },
    {
      "inputs": [
        {
          "internalType": "address",
          "name": "beneficiary",
          "type": "address"
        },
        {
          "internalType": "address",
          "name": "arbiter",
          "type": "address"
        },
        {
          "internalType": "uint256[]",
          "name": "milestoneAmounts",
          "type": "uint256[]"
        },
        {
          "internalType": "uint256[]",
          "name": "milestoneDeadlines",
          "type": "uint256[]"
        },
        {
          "internalType": "string[]",
          "name": "milestoneDescriptions",
          "type": "string[]"
        }
      ],
      "name": "createEscrowWithMilestones",
      "outputs": [
        {
          "internalType": "uint256",
          "name": "escrowId",
          "type": "uint256"
        }
      ],
      "stateMutability": "payable",
      "type": "function"
    },
    {
      "inputs": [
        {
          "internalType": "uint256",
          "name": "escrowId",
          "type": "uint256"
        }
      ],
      "name": "fundEscrow",
      "outputs": [],
      "stateMutability": "payable",
      "type": "function"
    },
    {
      "inputs": [
        {
          "internalType": "uint256",
          "name": "escrowId",
          "type": "uint256"
        }
      ],
      "name": "getAllMilestones",
      "outputs": [
        {
          "components": [
            {
              "internalType": "uint256",
              "name": "amount",
              "type": "uint256"
            },
            {
              "internalType": "uint256",
              "name": "deadline",
              "type": "uint256"
            },
            {
              "internalType": "bool",
              "name": "approved",
              "type": "bool"
            },
            {
              "internalType": "bool",
              "name": "released",
              "type": "bool"
            },
            {
              "internalType": "string",
              "name": "description",
              "type": "string"
            }
          ],
          "internalType": "struct IEscrowMilestones.Milestone[]",
          "name": "",
          "type": "tuple[]"
        }
      ],
      "stateMutability": "view",
      "type": "function"
    },
    {
      "inputs": [
        {
          "internalType": "uint256",
          "name": "escrowId",
          "type": "uint256"
        }
      ],
      "name": "getEscrowInfo",
      "outputs": [
        {
          "components": [
            {
              "internalType": "address",
              "name": "creator",
              "type": "address"
            },
            {
              "internalType": "address",
              "name": "beneficiary",
              "type": "address"
            },
            {
              "internalType": "address",
              "name": "arbiter",
              "type": "address"
            },
            {
              "internalType": "uint256",
              "name": "amount",
              "type": "uint256"
            },
            {
              "internalType": "uint256",
              "name": "deadline",
              "type": "uint256"
            },
            {
              "internalType": "enum IEscrowCore.EscrowState",
              "name": "state",
              "type": "uint8"
            },
            {
              "internalType": "uint256",
              "name": "createdAt",
              "type": "uint256"
            }
          ],
          "internalType": "struct IEscrowCore.EscrowBasicInfo",
          "name": "",
          "type": "tuple"
        }
      ],
      "stateMutability": "view",
      "type": "function"
    },
    {
      "inputs": [
        {
          "internalType": "uint256",
          "name": "escrowId",
          "type": "uint256"
        }
      ],
      "name": "getEscrowState",
      "outputs": [
        {
          "internalType": "enum IEscrowCore.EscrowState",
          "name": "",
          "type": "uint8"
        }
      ],
      "stateMutability": "view",
      "type": "function"
    },
    {
      "inputs": [
        {
          "internalType": "uint256",
          "name": "escrowId",
          "type": "uint256"
        },
        {
          "internalType": "uint256",
          "name": "milestoneIndex",
          "type": "uint256"
        }
      ],
      "name": "getMilestone",
      "outputs": [
        {
          "components": [
            {
              "internalType": "uint256",
              "name": "amount",
              "type": "uint256"
            },
            {
              "internalType": "uint256",
              "name": "deadline",
              "type": "uint256"
            },
            {
              "internalType": "bool",
              "name": "approved",
              "type": "bool"
            },
            {
              "internalType": "bool",
              "name": "released",
              "type": "bool"
            },
            {
              "internalType": "string",
              "name": "description",
              "type": "string"
            }
          ],
          "internalType": "struct IEscrowMilestones.Milestone",
          "name": "",
          "type": "tuple"
        }
      ],
      "stateMutability": "view",
      "type": "function"
    },
    {
      "inputs": [
        {
          "internalType": "uint256",
          "name": "escrowId",
          "type": "uint256"
        }
      ],
      "name": "getMilestoneCount",
      "outputs": [
        {
          "internalType": "uint256",
          "name": "",
          "type": "uint256"
        }
      ],
      "stateMutability": "view",
      "type": "function"
    },
    {
      "inputs": [
        {
          "internalType": "uint256",
          "name": "",
          "type": "uint256"
        },
        {
          "internalType": "address",
          "name": "",
          "type": "address"
        }
      ],
      "name": "hasContributed",
      "outputs": [
        {
          "internalType": "bool",
          "name": "",
          "type": "bool"
        }
      ],
      "stateMutability": "view",
      "type": "function"
    },
    {
      "inputs": [],
      "name": "nextEscrowId",
      "outputs": [
        {
          "internalType": "uint256",
          "name": "",
          "type": "uint256"
        }
      ],
      "stateMutability": "view",
      "type": "function"
    },
    {
      "inputs": [
        {
          "internalType": "uint256",
          "name": "escrowId",
          "type": "uint256"
        }
      ],
      "name": "releaseEscrow",
      "outputs": [],
      "stateMutability": "nonpayable",
      "type": "function"
    },
    {
      "inputs": [
        {
          "internalType": "uint256",
          "name": "escrowId",
          "type": "uint256"
        },
        {
          "internalType": "uint256",
          "name": "milestoneIndex",
          "type": "uint256"
        }
      ],
      "name": "releaseMilestone",
      "outputs": [],
      "stateMutability": "nonpayable",
      "type": "function"
    }
  ],
  "bytecode": "0x6080604052348015600f57600080fd5b506001600055611dbf806100246000396000f3fe6080604052600436106100dd5760003560e01c8063b5b96ae01161007f578063ccbae5f611610059578063ccbae5f614610271578063dbaf091014610284578063e0182436146102a4578063ed653164146102c457600080fd5b8063b5b96ae0146101f3578063c2010e501461023e578063c9c31af51461025e57600080fd5b806389cb29dd116100bb57806389cb29dd146101675780638ed9895c14610186578063a0b2389b146101b3578063b3090231146101e057600080fd5b806320913da5146100e25780633a49995b146101045780638646405e1461013a575b600080fd5b3480156100ee57600080fd5b506101026100fd366004611800565b6102e4565b005b34801561011057600080fd5b5061012461011f366004611822565b61048f565b6040516101319190611873565b60405180910390f35b34801561014657600080fd5b5061015a610155366004611822565b6104e0565b6040516101319190611887565b34801561017357600080fd5b506001545b604051908152602001610131565b34801561019257600080fd5b506101a66101a1366004611800565b6105d8565b6040516101319190611966565b3480156101bf57600080fd5b506101d36101ce366004611822565b61077e565b6040516101319190611980565b6101786101ee366004611a4d565b6108e6565b3480156101ff57600080fd5b5061022e61020e366004611b14565b600360209081526000928352604080842090915290825290205460ff1681565b6040519015158152602001610131565b34801561024a57600080fd5b50610178610259366004611822565b610c25565b61010261026c366004611822565b610c6c565b61017861027f366004611b40565b610dad565b34801561029057600080fd5b5061010261029f366004611800565b610e3b565b3480156102b057600080fd5b506101026102bf366004611822565b61111a565b3480156102d057600080fd5b506101026102df366004611822565b611312565b6000828152600260205260408120600701548391036103165760405163f1d80ab160e01b815260040160405180910390fd5b8260018060008381526002602052604090206006015460ff1660048111156103405761034061183b565b1461035e5760405163baf3f0f760e01b815260040160405180910390fd5b600085815260036020908152604080832033845290915290205460ff16610397576040516282b42960e81b815260040160405180910390fd5b60008581526004602052604090205484106103c557604051630f10172360e11b815260040160405180910390fd5b60008581526004602052604081208054869081106103e5576103e5611b82565b60009182526020909120600490910201600281015490915060ff161561041e57604051630535ed3960e41b815260040160405180910390fd5b6002810154610100900460ff1615610449576040516340dabeef60e11b815260040160405180910390fd5b60028101805460ff191660011790556040513390869088907f9ffbb52f2a1362273cd74689a516ca4f52c4282dc13e2e68b7e0646a9a7af7a390600090a4505050505050565b600081815260026020526040812060070154829082036104c25760405163f1d80ab160e01b815260040160405180910390fd5b60008381526002602052604090206006015460ff1691505b50919050565b6040805160e081018252600080825260208201819052918101829052606081018290526080810182905260a0810182905260c081019190915260008281526002602052604081206007015483910361054b5760405163f1d80ab160e01b815260040160405180910390fd5b600083815260026020818152604092839020835160e08101855281546001600160a01b039081168252600183015481169382019390935292810154909116928201929092526003820154606082015260058201546080820152600682015460a082019060ff1660048111156105c2576105c261183b565b8152602001826007015481525092505050919050565b61060e6040518060a001604052806000815260200160008152602001600015158152602001600015158152602001606081525090565b6000838152600260205260408120600701548491036106405760405163f1d80ab160e01b815260040160405180910390fd5b600084815260046020526040902054831061066e57604051630f10172360e11b815260040160405180910390fd5b600084815260046020526040902080548490811061068e5761068e611b82565b60009182526020918290206040805160a081018252600490930290910180548352600181015493830193909352600283015460ff808216151592840192909252610100900416151560608201526003820180549192916080840191906106f390611b98565b80601f016020809104026020016040519081016040528092919081815260200182805461071f90611b98565b801561076c5780601f106107415761010080835404028352916020019161076c565b820191906000526020600020905b81548152906001019060200180831161074f57829003601f168201915b50505050508152505091505092915050565b600081815260026020526040812060070154606091839190036107b45760405163f1d80ab160e01b815260040160405180910390fd5b600083815260046020908152604080832080548251818502810185019093528083529193909284015b828210156108da5760008481526020908190206040805160a0810182526004860290920180548352600181015493830193909352600283015460ff8082161515928401929092526101009004161515606082015260038201805491929160808401919061084990611b98565b80601f016020809104026020016040519081016040528092919081815260200182805461087590611b98565b80156108c25780601f10610897576101008083540402835291602001916108c2565b820191906000526020600020905b8154815290600101906020018083116108a557829003601f168201915b505050505081525050815260200190600101906107dd565b50505050915050919050565b600085810361090857604051633e4932f960e21b815260040160405180910390fd5b85841461092857604051633e4932f960e21b815260040160405180910390fd5b81158015906109375750818614155b1561095557604051633e4932f960e21b815260040160405180910390fd5b6000805b87811015610a275788888281811061097357610973611b82565b9050602002013560000361099a5760405163162908e360e11b815260040160405180910390fd5b8888828181106109ac576109ac611b82565b90506020020135826109be9190611be2565b91508686828181106109d2576109d2611b82565b90506020020135600014158015610a015750428787838181106109f7576109f7611b82565b9050602002013511155b15610a1f57604051631da7447960e21b815260040160405180910390fd5b600101610959565b50610a37338b8b84346000611528565b915060005b87811015610c1757600084610a605760405180602001604052806000815250610ab9565b858583818110610a7257610a72611b82565b9050602002810190610a849190611bf5565b8080601f0160208091040260200160405190810160405280939291908181526020018383808284376000920191909152505050505b9050600460008581526020019081526020016000206040518060a001604052808c8c86818110610aeb57610aeb611b82565b9050602002013581526020018a8a86818110610b0957610b09611b82565b6020908102929092013583525060008282018190526040808401829052606093840187905285546001818101885596835291839020855160049093020191825591840151948101949094558201516002840180549284015115156101000261ff00199215159290921661ffff199093169290921717905560808101519091906003820190610b979082611c9e565b50505081847fdd9c8b628c5ee6e97f53a818750c89e0ff818c9250075b01cb58b42d998589438c8c86818110610bcf57610bcf611b82565b905060200201358b8b87818110610be857610be8611b82565b90506020020135604051610c06929190918252602082015260400190565b60405180910390a350600101610a3c565b505098975050505050505050565b60008181526002602052604081206007015482908203610c585760405163f1d80ab160e01b815260040160405180910390fd5b505060009081526004602052604090205490565b600081815260026020526040812060070154829103610c9e5760405163f1d80ab160e01b815260040160405180910390fd5b8160008060008381526002602052604090206006015460ff166004811115610cc857610cc861183b565b14610ce65760405163baf3f0f760e01b815260040160405180910390fd5b34600003610d075760405163162908e360e11b815260040160405180910390fd5b600084815260026020526040812060048101805491923492610d2a908490611be2565b909155505060008581526003602090815260408083203380855290835292819020805460ff191660011790555134815287917f4a2cd88ec7a748d5b20b3512d7249c67745777b219009075c745923684e9653d910160405180910390a38060030154816004015410610da65760068101805460ff191660011790555b5050505050565b60006001600160a01b038516610dd65760405163d92e233d60e01b815260040160405180910390fd5b82600003610df75760405163162908e360e11b815260040160405180910390fd5b8115801590610e065750428211155b15610e2457604051631da7447960e21b815260040160405180910390fd5b610e32338686863487611528565b95945050505050565b610e4361176c565b600082815260026020526040812060070154839103610e755760405163f1d80ab160e01b815260040160405180910390fd5b8260018060008381526002602052604090206006015460ff166004811115610e9f57610e9f61183b565b14610ebd5760405163baf3f0f760e01b815260040160405180910390fd5b6000858152600460205260409020548410610eeb57604051630f10172360e11b815260040160405180910390fd5b6000858152600460205260408120805486908110610f0b57610f0b611b82565b60009182526020808320898452600291829052604084206004909302019081015490935090919060ff1680610f695750600183015415801590610f515750826001015442115b8015610f69575060018201546001600160a01b031633145b905080610f895760405163b755348d60e01b815260040160405180910390fd5b6002830154610100900460ff1615610fb4576040516340dabeef60e11b815260040160405180910390fd5b825460048301541015610fda5760405163356680b760e01b815260040160405180910390fd5b60028301805461ff0019166101001790558254600483018054600090611001908490611d5d565b9091555050600182015483546040516000926001600160a01b031691908381818185875af1925050503d8060008114611056576040519150601f19603f3d011682016040523d82523d6000602084013e61105b565b606091505b505090508061107d576040516312171d8360e31b815260040160405180910390fd5b87897fd33fcd27cbfb73a2d9058c968b560ccb306500bf536133802048489ecc7355e986600001546040516110b491815260200190565b60405180910390a36110c589611796565b156111055760068301805460ff1916600317905560405189907f9285bd636dda01bef18996aa38303bb742f6c67a6941646dddb17630cb492c2e90600090a25b505050505050506111166001600055565b5050565b61112261176c565b6000818152600260205260408120600701548291036111545760405163f1d80ab160e01b815260040160405180910390fd5b600082815260026020526040812090600682015460ff16600481111561117c5761117c61183b565b141580156111a357506001600682015460ff1660048111156111a0576111a061183b565b14155b156111c15760405163baf3f0f760e01b815260040160405180910390fd5b80546000906001600160a01b03163314806111e8575060028201546001600160a01b031633145b8061121957506005820154158015906112045750816005015442115b8015611219575081546001600160a01b031633145b905080611238576040516282b42960e81b815260040160405180910390fd5b600482015460068301805460ff1916600217905580156112c75782546040516000916001600160a01b03169083908381818185875af1925050503d806000811461129e576040519150601f19603f3d011682016040523d82523d6000602084013e6112a3565b606091505b50509050806112c5576040516312171d8360e31b815260040160405180910390fd5b505b847fdc48a08bb890bd1b8e4261212a97a5e711e80830d96ba56b362f3ac5f427d51e826040516112f991815260200190565b60405180910390a25050505061130f6001600055565b50565b61131a61176c565b60008181526002602052604081206007015482910361134c5760405163f1d80ab160e01b815260040160405180910390fd5b8160018060008381526002602052604090206006015460ff1660048111156113765761137661183b565b146113945760405163baf3f0f760e01b815260040160405180910390fd5b600084815260026020526040812080549091906001600160a01b03163314806113c9575060028201546001600160a01b031633145b806113fd57506005820154158015906113e55750816005015442115b80156113fd575060018201546001600160a01b031633145b90508061141c576040516282b42960e81b815260040160405180910390fd5b600482015460068301805460ff1916600317905560018301546040516000916001600160a01b03169083908381818185875af1925050503d806000811461147f576040519150601f19603f3d011682016040523d82523d6000602084013e611484565b606091505b50509050806114a6576040516312171d8360e31b815260040160405180910390fd5b60018401546040518381526001600160a01b039091169089907f6244ed823ca6be0f11bc890c3fafcf3c29cb23420c14243642e930b5e07e6d0a9060200160405180910390a360405188907f9285bd636dda01bef18996aa38303bb742f6c67a6941646dddb17630cb492c2e90600090a25050505050505061130f6001600055565b600180546000918261153983611d70565b919050559050604051806101000160405280886001600160a01b03168152602001876001600160a01b03168152602001866001600160a01b031681526020018581526020018481526020018381526020018585101561159957600061159c565b60015b60048111156115ad576115ad61183b565b81524260209182015260008381526002808352604091829020845181546001600160a01b03199081166001600160a01b03928316178355948601516001808401805488169284169290921790915593860151928201805490951692169190911790925560608301516003830155608083015160048084019190915560a0840151600584015560c08401516006840180549193909260ff199092169184908111156116595761165961183b565b021790555060e09190910151600790910155821561169f5760008181526003602090815260408083206001600160a01b038b1684529091529020805460ff191660011790555b856001600160a01b0316876001600160a01b0316827f9405ad0a6208539879349284d71265479b1623846f70303da1f9890d6e8c10a7876040516116e591815260200190565b60405180910390a4821561173857866001600160a01b0316817f4a2cd88ec7a748d5b20b3512d7249c67745777b219009075c745923684e9653d8560405161172f91815260200190565b60405180910390a35b600160008281526002602052604090206006015460ff1660048111156117605761176061183b565b50509695505050505050565b60026000540361178f57604051633ee5aeb560e01b815260040160405180910390fd5b6002600055565b6000818152600460205260408120815b81548110156117f6578181815481106117c1576117c1611b82565b906000526020600020906004020160020160019054906101000a900460ff166117ee575060009392505050565b6001016117a6565b5060019392505050565b6000806040838503121561181357600080fd5b50508035926020909101359150565b60006020828403121561183457600080fd5b5035919050565b634e487b7160e01b600052602160045260246000fd5b6005811061186f57634e487b7160e01b600052602160045260246000fd5b9052565b602081016118818284611851565b92915050565b81516001600160a01b03908116825260208084015182169083015260408084015190911690820152606080830151908201526080808301519082015260a08281015160e08301916118da90840182611851565b5060c092830151919092015290565b80518252602081015160208301526040810151151560408301526060810151151560608301526000608082015160a0608085015280518060a086015260005b8181101561194557602081840181015160c0888401015201611928565b50600060c0828701015260c0601f19601f8301168601019250505092915050565b60208152600061197960208301846118e9565b9392505050565b6000602082016020835280845180835260408501915060408160051b86010192506020860160005b828110156119d957603f198786030184526119c48583516118e9565b945060209384019391909101906001016119a8565b50929695505050505050565b80356001600160a01b03811681146119fc57600080fd5b919050565b60008083601f840112611a1357600080fd5b50813567ffffffffffffffff811115611a2b57600080fd5b6020830191508360208260051b8501011115611a4657600080fd5b9250929050565b60008060008060008060008060a0898b031215611a6957600080fd5b611a72896119e5565b9750611a8060208a016119e5565b9650604089013567ffffffffffffffff811115611a9c57600080fd5b611aa88b828c01611a01565b909750955050606089013567ffffffffffffffff811115611ac857600080fd5b611ad48b828c01611a01565b909550935050608089013567ffffffffffffffff811115611af457600080fd5b611b008b828c01611a01565b999c989b5096995094979396929594505050565b60008060408385031215611b2757600080fd5b82359150611b37602084016119e5565b90509250929050565b60008060008060808587031215611b5657600080fd5b611b5f856119e5565b9350611b6d602086016119e5565b93969395505050506040820135916060013590565b634e487b7160e01b600052603260045260246000fd5b600181811c90821680611bac57607f821691505b6020821081036104da57634e487b7160e01b600052602260045260246000fd5b634e487b7160e01b600052601160045260246000fd5b8082018082111561188157611881611bcc565b6000808335601e19843603018112611c0c57600080fd5b83018035915067ffffffffffffffff821115611c2757600080fd5b602001915036819003821315611a4657600080fd5b634e487b7160e01b600052604160045260246000fd5b601f821115611c9957806000526020600020601f840160051c81016020851015611c795750805b601f840160051c820191505b81811015610da65760008155600101611c85565b505050565b815167ffffffffffffffff811115611cb857611cb8611c3c565b611ccc81611cc68454611b98565b84611c52565b6020601f821160018114611d005760008315611ce85750848201515b600019600385901b1c1916600184901b178455610da6565b600084815260208120601f198516915b82811015611d305787850151825560209485019460019092019101611d10565b5084821015611d4e5786840151600019600387901b60f8161c191681555b50505050600190811b01905550565b8181038181111561188157611881611bcc565b600060018201611d8257611d82611bcc565b506001019056fea26469706673582212203914e6aeeabca4144c8d9c8a554c41046e1e905f3cb568c6c51130ccc23ffe4264736f6c634300081e0033",
  "linkReferences": {},
  "deployedLinkReferences": {}
}