{
  "_format": "hh-sol-artifact-1",
  "contractName": "FullFeaturedEscrow",
  "sourceName": "contracts/standard/examples/FullFeaturedEscrow.sol",
  "abi": [
    {
      "inputs": [],
      "stateMutability": "nonpayable",
      "type": "constructor"
    },
    {
      "inputs": [],
      "name": "CommitmentWindowClosed",
      "type": "error"
    },
    {
      "inputs": [],
      "name": "DeadlineNotPassed",
      "type": "error"
    },
    {
      "inputs": [],
      "name": "EscrowNotFound",
      "type": "error"
    },
    {
      "inputs": [],
      "name": "GuarantorAlreadyCommitted",
      "type": "error"
    },
    {
      "inputs": [],
      "name": "GuarantorNotCommitted",
      "type": "error"
    },
    {
      "inputs": [],
      "name": "InsufficientFunds",
      "type": "error"
    },
    {
      "inputs": [],
      "name": "InsufficientGuarantors",
      "type": "error"
    },
    {
      "inputs": [],
      "name": "InsufficientStake",
      "type": "error"
    },
    {
      "inputs": [],
      "name": "InvalidAmount",
      "type": "error"
    },
    {
      "inputs": [],
      "name": "InvalidCommitmentHash",
      "type": "error"
    },
    {
      "inputs": [],
      "name": "InvalidDeadline",
      "type": "error"
    },
    {
      "inputs": [],
      "name": "InvalidMilestoneCount",
      "type": "error"
    },
    {
      "inputs": [],
      "name": "InvalidState",
      "type": "error"
    },
    {
      "inputs": [],
      "name": "InvalidTier",
      "type": "error"
    },
    {
      "inputs": [],
      "name": "MilestoneAlreadyApproved",
      "type": "error"
    },
    {
      "inputs": [],
      "name": "MilestoneAlreadyReleased",
      "type": "error"
    },
    {
      "inputs": [],
      "name": "MilestoneNotApproved",
      "type": "error"
    },
    {
      "inputs": [],
      "name": "MilestoneNotFound",
      "type": "error"
    },
    {
      "inputs": [],
      "name": "ReentrancyGuardReentrantCall",
      "type": "error"
    },
    {
      "inputs": [],
      "name": "RevealWindowNotOpen",
      "type": "error"
    },
    {
      "inputs": [],
      "name": "TransferFailed",
      "type": "error"
    },
    {
      "inputs": [],
      "name": "Unauthorized",
      "type": "error"
    },
    {
      "inputs": [],
      "name": "ZeroAddress",
      "type": "error"
    },
    {
      "anonymous": false,
      "inputs": [
        {
          "indexed": true,
          "internalType": "uint256",
          "name": "escrowId",
          "type": "uint256"
        },
        {
          "indexed": false,
          "internalType": "uint256",
          "name": "refundedAmount",
          "type": "uint256"
        }
      ],
      "name": "EscrowCancelled",
      "type": "event"
    },
    {
      "anonymous": false,
      "inputs": [
        {
          "indexed": true,
          "internalType": "uint256",
          "name": "escrowId",
          "type": "uint256"
        }
      ],
      "name": "EscrowCompleted",
      "type": "event"
    },
    {
      "anonymous": false,
      "inputs": [
        {
          "indexed": true,
          "internalType": "uint256",
          "name": "escrowId",
          "type": "uint256"
        },
        {
          "indexed": true,
          "internalType": "address",
          "name": "creator",
          "type": "address"
        },
        {
          "indexed": true,
          "internalType": "address",
          "name": "beneficiary",
          "type": "address"
        },
        {
          "indexed": false,
          "internalType": "uint256",
          "name": "amount",
          "type": "uint256"
        }
      ],
      "name": "EscrowCreated",
      "type": "event"
    },
    {
      "anonymous": false,
      "inputs": [
        {
          "indexed": true,
          "internalType": "uint256",
          "name": "escrowId",
          "type": "uint256"
        },
        {
          "indexed": true,
          "internalType": "address",
          "name": "funder",
          "type": "address"
        },
        {
          "indexed": false,
          "internalType": "uint256",
          "name": "amount",
          "type": "uint256"
        }
      ],
      "name": "EscrowFunded",
      "type": "event"
    },
    {
      "anonymous": false,
      "inputs": [
        {
          "indexed": true,
          "internalType": "uint256",
          "name": "escrowId",
          "type": "uint256"
        },
        {
          "indexed": true,
          "internalType": "address",
          "name": "beneficiary",
          "type": "address"
        },
        {
          "indexed": false,
          "internalType": "uint256",
          "name": "amount",
          "type": "uint256"
        }
      ],
      "name": "EscrowReleased",
      "type": "event"
    },
    {
      "anonymous": false,
      "inputs": [
        {
          "indexed": true,
          "internalType": "uint256",
          "name": "escrowId",
          "type": "uint256"
        },
        {
          "indexed": true,
          "internalType": "address",
          "name": "guarantor",
          "type": "address"
        },
        {
          "indexed": false,
          "internalType": "enum IEscrowGuarantors.GuarantorTier",
          "name": "tier",
          "type": "uint8"
        },
        {
          "indexed": false,
          "internalType": "uint256",
          "name": "stakeAmount",
          "type": "uint256"
        }
      ],
      "name": "GuarantorCommitted",
      "type": "event"
    },
    {
      "anonymous": false,
      "inputs": [
        {
          "indexed": true,
          "internalType": "uint256",
          "name": "escrowId",
          "type": "uint256"
        },
        {
          "indexed": true,
          "internalType": "address",
          "name": "guarantor",
          "type": "address"
        }
      ],
      "name": "GuarantorRevealed",
      "type": "event"
    },
    {
      "anonymous": false,
      "inputs": [
        {
          "indexed": true,
          "internalType": "uint256",
          "name": "escrowId",
          "type": "uint256"
        },
        {
          "indexed": true,
          "internalType": "address",
          "name": "guarantor",
          "type": "address"
        },
        {
          "indexed": false,
          "internalType": "uint256",
          "name": "rewardAmount",
          "type": "uint256"
        }
      ],
      "name": "GuarantorRewarded",
      "type": "event"
    },
    {
      "anonymous": false,
      "inputs": [
        {
          "indexed": true,
          "internalType": "uint256",
          "name": "escrowId",
          "type": "uint256"
        },
        {
          "indexed": true,
          "internalType": "address",
          "name": "guarantor",
          "type": "address"
        },
        {
          "indexed": false,
          "internalType": "uint256",
          "name": "slashedAmount",
          "type": "uint256"
        }
      ],
      "name": "GuarantorSlashed",
      "type": "event"
    },
    {
      "anonymous": false,
      "inputs": [
        {
          "indexed": true,
          "internalType": "uint256",
          "name": "escrowId",
          "type": "uint256"
        },
        {
          "indexed": true,
          "internalType": "uint256",
          "name": "milestoneIndex",
          "type": "uint256"
        },
        {
          "indexed": true,
          "internalType": "address",
          "name": "approver",
          "type": "address"
        }
      ],
      "name": "MilestoneApproved",
      "type": "event"
    },
    {
      "anonymous": false,
      "inputs": [
        {
          "indexed": true,
          "internalType": "uint256",
          "name": "escrowId",
          "type": "uint256"
        },
        {
          "indexed": true,
          "internalType": "uint256",
          "name": "milestoneIndex",
          "type": "uint256"
        },
        {
          "indexed": false,
          "internalType": "uint256",
          "name": "amount",
          "type": "uint256"
        },
        {
          "indexed": false,
          "internalType": "uint256",
          "name": "deadline",
          "type": "uint256"
        }
      ],
      "name": "MilestoneCreated",
      "type": "event"
    },
    {
      "anonymous": false,
      "inputs": [
        {
          "indexed": true,
          "internalType": "uint256",
          "name": "escrowId",
          "type": "uint256"
        },
        {
          "indexed": true,
          "internalType": "uint256",
          "name": "milestoneIndex",
          "type": "uint256"
        },
        {
          "indexed": false,
          "internalType": "uint256",
          "name": "amount",
          "type": "uint256"
        }
      ],
      "name": "MilestoneReleased",
      "type": "event"
    },
    {
      "inputs": [],
      "name": "COMMITMENT_WINDOW",
      "outputs": [
        {
          "internalType": "uint256",
          "name": "",
          "type": "uint256"
        }
      ],
      "stateMutability": "view",
      "type": "function"
    },
    {
      "inputs": [],
      "name": "MIN_PRIMARY_STAKE_PERCENTAGE",
      "outputs": [
        {
          "internalType": "uint256",
          "name": "",
          "type": "uint256"
        }
      ],
      "stateMutability": "view",
      "type": "function"
    },
    {
      "inputs": [],
      "name": "MIN_SECONDARY_STAKE_PERCENTAGE",
      "outputs": [
        {
          "internalType": "uint256",
          "name": "",
          "type": "uint256"
        }
      ],
      "stateMutability": "view",
      "type": "function"
    },
    {
      "inputs": [],
      "name": "REVEAL_WINDOW",
      "outputs": [
        {
          "internalType": "uint256",
          "name": "",
          "type": "uint256"
        }
      ],
      "stateMutability": "view",
      "type": "function"
    },
    {
      "inputs": [
        {
          "internalType": "uint256",
          "name": "escrowId",
          "type": "uint256"
        },
        {
          "internalType": "uint256",
          "name": "milestoneIndex",
          "type": "uint256"
        }
      ],
      "name": "approveMilestone",
      "outputs": [],
      "stateMutability": "nonpayable",
      "type": "function"
    },
    {
      "inputs": [
        {
          "internalType": "uint256",
          "name": "escrowId",
          "type": "uint256"
        }
      ],
      "name": "cancelEscrow",
      "outputs": [],
      "stateMutability": "nonpayable",
      "type": "function"
    },
    {
      "inputs": [
        {
          "internalType": "uint256",
          "name": "escrowId",
          "type": "uint256"
        },
        {
          "internalType": "enum IEscrowGuarantors.GuarantorTier",
          "name": "tier",
          "type": "uint8"
        },
        {
          "internalType": "bytes32",
          "name": "commitmentHash",
          "type": "bytes32"
        }
      ],
      "name": "commitAsGuarantor",
      "outputs": [],
      "stateMutability": "payable",
      "type": "function"
    },
    {
      "inputs": [
        {
          "internalType": "address",
          "name": "beneficiary",
          "type": "address"
        },
        {
          "internalType": "address",
          "name": "arbiter",
          "type": "address"
        },
        {
          "internalType": "uint256",
          "name": "amount",
          "type": "uint256"
        },
        {
          "internalType": "uint256",
          "name": "deadline",
          "type": "uint256"
        }
      ],
      "name": "createEscrow",
      "outputs": [
        {
          "internalType": "uint256",
          "name": "escrowId",
          "type": "uint256"
        }
      ],
      "stateMutability": "payable",
      "type": "function"
    },
    {
      "inputs": [
        {
          "internalType": "address",
          "name": "beneficiary",
          "type": "address"
        },
        {
          "internalType": "address",
          "name": "arbiter",
          "type": "address"
        },
        {
          "internalType": "uint256",
          "name": "amount",
          "type": "uint256"
        },
        {
          "internalType": "uint256",
          "name": "deadline",
          "type": "uint256"
        },
        {
          "internalType": "uint256",
          "name": "minGuarantors",
          "type": "uint256"
        }
      ],
      "name": "createEscrowWithGuarantors",
      "outputs": [
        {
          "internalType": "uint256",
          "name": "escrowId",
          "type": "uint256"
        }
      ],
      "stateMutability": "payable",
      "type": "function"
    },
    {
      "inputs": [
        {
          "internalType": "address",
          "name": "beneficiary",
          "type": "address"
        },
        {
          "internalType": "address",
          "name": "arbiter",
          "type": "address"
        },
        {
          "internalType": "uint256[]",
          "name": "milestoneAmounts",
          "type": "uint256[]"
        },
        {
          "internalType": "uint256[]",
          "name": "milestoneDeadlines",
          "type": "uint256[]"
        },
        {
          "internalType": "string[]",
          "name": "milestoneDescriptions",
          "type": "string[]"
        }
      ],
      "name": "createEscrowWithMilestones",
      "outputs": [
        {
          "internalType": "uint256",
          "name": "escrowId",
          "type": "uint256"
        }
      ],
      "stateMutability": "payable",
      "type": "function"
    },
    {
      "inputs": [
        {
          "internalType": "uint256",
          "name": "escrowId",
          "type": "uint256"
        }
      ],
      "name": "fundEscrow",
      "outputs": [],
      "stateMutability": "payable",
      "type": "function"
    },
    {
      "inputs": [
        {
          "internalType": "uint256",
          "name": "escrowId",
          "type": "uint256"
        }
      ],
      "name": "getAllMilestones",
      "outputs": [
        {
          "components": [
            {
              "internalType": "uint256",
              "name": "amount",
              "type": "uint256"
            },
            {
              "internalType": "uint256",
              "name": "deadline",
              "type": "uint256"
            },
            {
              "internalType": "bool",
              "name": "approved",
              "type": "bool"
            },
            {
              "internalType": "bool",
              "name": "released",
              "type": "bool"
            },
            {
              "internalType": "string",
              "name": "description",
              "type": "string"
            }
          ],
          "internalType": "struct IEscrowMilestones.Milestone[]",
          "name": "",
          "type": "tuple[]"
        }
      ],
      "stateMutability": "view",
      "type": "function"
    },
    {
      "inputs": [
        {
          "internalType": "uint256",
          "name": "escrowId",
          "type": "uint256"
        }
      ],
      "name": "getEscrowInfo",
      "outputs": [
        {
          "components": [
            {
              "internalType": "address",
              "name": "creator",
              "type": "address"
            },
            {
              "internalType": "address",
              "name": "beneficiary",
              "type": "address"
            },
            {
              "internalType": "address",
              "name": "arbiter",
              "type": "address"
            },
            {
              "internalType": "uint256",
              "name": "amount",
              "type": "uint256"
            },
            {
              "internalType": "uint256",
              "name": "deadline",
              "type": "uint256"
            },
            {
              "internalType": "enum IEscrowCore.EscrowState",
              "name": "state",
              "type": "uint8"
            },
            {
              "internalType": "uint256",
              "name": "createdAt",
              "type": "uint256"
            }
          ],
          "internalType": "struct IEscrowCore.EscrowBasicInfo",
          "name": "",
          "type": "tuple"
        }
      ],
      "stateMutability": "view",
      "type": "function"
    },
    {
      "inputs": [
        {
          "internalType": "uint256",
          "name": "escrowId",
          "type": "uint256"
        }
      ],
      "name": "getEscrowState",
      "outputs": [
        {
          "internalType": "enum IEscrowCore.EscrowState",
          "name": "",
          "type": "uint8"
        }
      ],
      "stateMutability": "view",
      "type": "function"
    },
    {
      "inputs": [
        {
          "internalType": "uint256",
          "name": "escrowId",
          "type": "uint256"
        },
        {
          "internalType": "address",
          "name": "guarantor",
          "type": "address"
        }
      ],
      "name": "getGuarantorCommitment",
      "outputs": [
        {
          "components": [
            {
              "internalType": "address",
              "name": "guarantor",
              "type": "address"
            },
            {
              "internalType": "enum IEscrowGuarantors.GuarantorTier",
              "name": "tier",
              "type": "uint8"
            },
            {
              "internalType": "uint256",
              "name": "stakeAmount",
              "type": "uint256"
            },
            {
              "internalType": "bytes32",
              "name": "commitmentHash",
              "type": "bytes32"
            },
            {
              "internalType": "bool",
              "name": "revealed",
              "type": "bool"
            },
            {
              "internalType": "uint256",
              "name": "commitedAt",
              "type": "uint256"
            }
          ],
          "internalType": "struct IEscrowGuarantors.GuarantorCommitment",
          "name": "",
          "type": "tuple"
        }
      ],
      "stateMutability": "view",
      "type": "function"
    },
    {
      "inputs": [
        {
          "internalType": "uint256",
          "name": "escrowId",
          "type": "uint256"
        }
      ],
      "name": "getGuarantors",
      "outputs": [
        {
          "internalType": "address[]",
          "name": "",
          "type": "address[]"
        }
      ],
      "stateMutability": "view",
      "type": "function"
    },
    {
      "inputs": [
        {
          "internalType": "uint256",
          "name": "escrowId",
          "type": "uint256"
        },
        {
          "internalType": "uint256",
          "name": "milestoneIndex",
          "type": "uint256"
        }
      ],
      "name": "getMilestone",
      "outputs": [
        {
          "components": [
            {
              "internalType": "uint256",
              "name": "amount",
              "type": "uint256"
            },
            {
              "internalType": "uint256",
              "name": "deadline",
              "type": "uint256"
            },
            {
              "internalType": "bool",
              "name": "approved",
              "type": "bool"
            },
            {
              "internalType": "bool",
              "name": "released",
              "type": "bool"
            },
            {
              "internalType": "string",
              "name": "description",
              "type": "string"
            }
          ],
          "internalType": "struct IEscrowMilestones.Milestone",
          "name": "",
          "type": "tuple"
        }
      ],
      "stateMutability": "view",
      "type": "function"
    },
    {
      "inputs": [
        {
          "internalType": "uint256",
          "name": "escrowId",
          "type": "uint256"
        }
      ],
      "name": "getMilestoneCount",
      "outputs": [
        {
          "internalType": "uint256",
          "name": "",
          "type": "uint256"
        }
      ],
      "stateMutability": "view",
      "type": "function"
    },
    {
      "inputs": [
        {
          "internalType": "uint256",
          "name": "",
          "type": "uint256"
        },
        {
          "internalType": "address",
          "name": "",
          "type": "address"
        }
      ],
      "name": "hasContributed",
      "outputs": [
        {
          "internalType": "bool",
          "name": "",
          "type": "bool"
        }
      ],
      "stateMutability": "view",
      "type": "function"
    },
    {
      "inputs": [
        {
          "internalType": "uint256",
          "name": "escrowId",
          "type": "uint256"
        },
        {
          "internalType": "address",
          "name": "guarantor",
          "type": "address"
        }
      ],
      "name": "isGuarantorVerified",
      "outputs": [
        {
          "internalType": "bool",
          "name": "",
          "type": "bool"
        }
      ],
      "stateMutability": "view",
      "type": "function"
    },
    {
      "inputs": [],
      "name": "nextEscrowId",
      "outputs": [
        {
          "internalType": "uint256",
          "name": "",
          "type": "uint256"
        }
      ],
      "stateMutability": "view",
      "type": "function"
    },
    {
      "inputs": [
        {
          "internalType": "uint256",
          "name": "escrowId",
          "type": "uint256"
        }
      ],
      "name": "releaseEscrow",
      "outputs": [],
      "stateMutability": "nonpayable",
      "type": "function"
    },
    {
      "inputs": [
        {
          "internalType": "uint256",
          "name": "escrowId",
          "type": "uint256"
        },
        {
          "internalType": "uint256",
          "name": "milestoneIndex",
          "type": "uint256"
        }
      ],
      "name": "releaseMilestone",
      "outputs": [],
      "stateMutability": "nonpayable",
      "type": "function"
    },
    {
      "inputs": [
        {
          "internalType": "uint256",
          "name": "escrowId",
          "type": "uint256"
        },
        {
          "internalType": "bytes32",
          "name": "secret",
          "type": "bytes32"
        }
      ],
      "name": "revealCommitment",
      "outputs": [],
      "stateMutability": "nonpayable",
      "type": "function"
    },
    {
      "inputs": [
        {
          "internalType": "uint256",
          "name": "escrowId",
          "type": "uint256"
        },
        {
          "internalType": "address",
          "name": "guarantor",
          "type": "address"
        },
        {
          "internalType": "uint256",
          "name": "rewardAmount",
          "type": "uint256"
        }
      ],
      "name": "rewardGuarantor",
      "outputs": [],
      "stateMutability": "nonpayable",
      "type": "function"
    },
    {
      "inputs": [
        {
          "internalType": "uint256",
          "name": "escrowId",
          "type": "uint256"
        },
        {
          "internalType": "address",
          "name": "guarantor",
          "type": "address"
        },
        {
          "internalType": "uint256",
          "name": "slashAmount",
          "type": "uint256"
        }
      ],
      "name": "slashGuarantor",
      "outputs": [],
      "stateMutability": "nonpayable",
      "type": "function"
    }
  ],
  "bytecode": "0x6080604052348015600f57600080fd5b506001600055612ced806100246000396000f3fe6080604052600436106101815760003560e01c8063a177531f116100d1578063c2010e501161008a578063ccbae5f611610064578063ccbae5f61461046d578063dbaf091014610480578063e0182436146104a0578063ed653164146104c057600080fd5b8063c2010e501461041a578063c9c31af51461043a578063cc24e30b1461044d57600080fd5b8063a177531f14610357578063a7d6120914610384578063ae0c025214610399578063b3090231146103b9578063b44b44a3146103cc578063b5b96ae0146103df57600080fd5b80638646405e1161013e5780638ed9895c116101185780638ed9895c146102b0578063957a79ff146102dd5780639bffca54146102fd578063a0b2389b1461032a57600080fd5b80638646405e1461025957806389ab75191461028657806389cb29dd1461029b57600080fd5b80630cb9ce7b1461018657806310737d24146101b057806317e931cf146101e057806320913da5146101f75780633a49995b146102195780635a8f6a8914610246575b600080fd5b34801561019257600080fd5b5061019d6202a30081565b6040519081526020015b60405180910390f35b3480156101bc57600080fd5b506101d06101cb3660046125aa565b6104e0565b60405190151581526020016101a7565b3480156101ec57600080fd5b5061019d6201518081565b34801561020357600080fd5b506102176102123660046125d6565b610555565b005b34801561022557600080fd5b506102396102343660046125f8565b610700565b6040516101a7919061263b565b61021761025436600461264f565b610751565b34801561026557600080fd5b506102796102743660046125f8565b6109f9565b6040516101a7919061268b565b34801561029257600080fd5b5061019d601481565b3480156102a757600080fd5b5060015461019d565b3480156102bc57600080fd5b506102d06102cb3660046125d6565b610af1565b6040516101a7919061276a565b3480156102e957600080fd5b506102176102f83660046125d6565b610c97565b34801561030957600080fd5b5061031d6103183660046125f8565b610e4f565b6040516101a79190612784565b34801561033657600080fd5b5061034a6103453660046125f8565b610ef0565b6040516101a791906127d0565b34801561036357600080fd5b506103776103723660046125aa565b611058565b6040516101a79190612845565b34801561039057600080fd5b5061019d600a81565b3480156103a557600080fd5b506102176103b436600461289a565b61115d565b61019d6103c736600461290b565b6112c3565b61019d6103da3660046129d2565b611602565b3480156103eb57600080fd5b506101d06103fa3660046125aa565b600360209081526000928352604080842090915290825290205460ff1681565b34801561042657600080fd5b5061019d6104353660046125f8565b611647565b6102176104483660046125f8565b61168e565b34801561045957600080fd5b5061021761046836600461289a565b6117cc565b61019d61047b366004612a1f565b61190f565b34801561048c57600080fd5b5061021761049b3660046125d6565b611994565b3480156104ac57600080fd5b506102176104bb3660046125f8565b611c86565b3480156104cc57600080fd5b506102176104db3660046125f8565b611e7e565b600082815260026020526040812060070154839082036105135760405163f1d80ab160e01b815260040160405180910390fd5b60008481526005602090815260408083206001600160a01b03871684529091529020600381015460ff16801561054c5750600481015415155b95945050505050565b6000828152600260205260408120600701548391036105875760405163f1d80ab160e01b815260040160405180910390fd5b8260018060008381526002602052604090206006015460ff1660048111156105b1576105b1612611565b146105cf5760405163baf3f0f760e01b815260040160405180910390fd5b600085815260036020908152604080832033845290915290205460ff16610608576040516282b42960e81b815260040160405180910390fd5b600085815260046020526040902054841061063657604051630f10172360e11b815260040160405180910390fd5b600085815260046020526040812080548690811061065657610656612a61565b60009182526020909120600490910201600281015490915060ff161561068f57604051630535ed3960e41b815260040160405180910390fd5b6002810154610100900460ff16156106ba576040516340dabeef60e11b815260040160405180910390fd5b60028101805460ff191660011790556040513390869088907f9ffbb52f2a1362273cd74689a516ca4f52c4282dc13e2e68b7e0646a9a7af7a390600090a4505050505050565b600081815260026020526040812060070154829082036107335760405163f1d80ab160e01b815260040160405180910390fd5b60008381526002602052604090206006015460ff1691505b50919050565b6000838152600260205260408120600701548491036107835760405163f1d80ab160e01b815260040160405180910390fd5b6000848152600760205260409020544211156107b25760405163ef7e72b360e01b815260040160405180910390fd5b6000848152600560209081526040808320338452909152902060040154156107ed57604051636d5572f960e01b815260040160405180910390fd5b600083600281111561080157610801612611565b0361081f5760405163e142361760e01b815260040160405180910390fd5b6000848152600260205260408120905060006064600286600281111561084757610847612611565b1461085357600a610856565b60145b83600301546108659190612a8d565b61086f9190612aa4565b905080341015610892576040516378de4a6960e11b815260040160405180910390fd5b6040518060c00160405280336001600160a01b031681526020018660028111156108be576108be612611565b815234602080830191909152604080830188905260006060840181905242608090940193909352898352600582528083203384528252909120825181546001600160a01b03919091166001600160a01b031982168117835592840151919283916001600160a81b03191617600160a01b83600281111561094057610940612611565b021790555060408281015160018381019190915560608401516002840155608084015160038401805460ff191691151591909117905560a09093015160049092019190915560008881526006602090815282822080549485018155825290209091018054336001600160a01b03199091168117909155905187907f983c5b9827d25fd511d90dd0616fc845ed16f91d3c9cecc8640d159d23df677e906109e99089903490612ac6565b60405180910390a3505050505050565b6040805160e081018252600080825260208201819052918101829052606081018290526080810182905260a0810182905260c0810191909152600082815260026020526040812060070154839103610a645760405163f1d80ab160e01b815260040160405180910390fd5b600083815260026020818152604092839020835160e08101855281546001600160a01b039081168252600183015481169382019390935292810154909116928201929092526003820154606082015260058201546080820152600682015460a082019060ff166004811115610adb57610adb612611565b8152602001826007015481525092505050919050565b610b276040518060a001604052806000815260200160008152602001600015158152602001600015158152602001606081525090565b600083815260026020526040812060070154849103610b595760405163f1d80ab160e01b815260040160405180910390fd5b6000848152600460205260409020548310610b8757604051630f10172360e11b815260040160405180910390fd5b6000848152600460205260409020805484908110610ba757610ba7612a61565b60009182526020918290206040805160a081018252600490930290910180548352600181015493830193909352600283015460ff80821615159284019290925261010090041615156060820152600382018054919291608084019190610c0c90612ae1565b80601f0160208091040260200160405190810160405280929190818152602001828054610c3890612ae1565b8015610c855780601f10610c5a57610100808354040283529160200191610c85565b820191906000526020600020905b815481529060010190602001808311610c6857829003601f168201915b50505050508152505091505092915050565b600082815260026020526040812060070154839103610cc95760405163f1d80ab160e01b815260040160405180910390fd5b6000838152600760205260409020544211610cf75760405163916176f760e01b815260040160405180910390fd5b600083815260076020526040902054610d14906201518090612b15565b421115610d345760405163916176f760e01b815260040160405180910390fd5b600083815260056020908152604080832033845290915281206004810154909103610d725760405163078daeb160e41b815260040160405180910390fd5b600381015460ff1615610d9857604051636d5572f960e01b815260040160405180910390fd5b6040516bffffffffffffffffffffffff193360601b166020820152603481018490526054810185905260009060740160405160208183030381529060405280519060200120905081600201548114610e035760405163029dd5dd60e41b815260040160405180910390fd5b60038201805460ff19166001179055604051339086907ff57a03868e2006a2efea9e9937096234348e58d47daf1b998ef34a6951bea6ea90600090a3610e488561209d565b5050505050565b60008181526002602052604081206007015460609183919003610e855760405163f1d80ab160e01b815260040160405180910390fd5b60008381526006602090815260409182902080548351818402810184019094528084529091830182828015610ee357602002820191906000526020600020905b81546001600160a01b03168152600190910190602001808311610ec5575b5050505050915050919050565b60008181526002602052604081206007015460609183919003610f265760405163f1d80ab160e01b815260040160405180910390fd5b600083815260046020908152604080832080548251818502810185019093528083529193909284015b8282101561104c5760008481526020908190206040805160a0810182526004860290920180548352600181015493830193909352600283015460ff80821615159284019290925261010090041615156060820152600382018054919291608084019190610fbb90612ae1565b80601f0160208091040260200160405190810160405280929190818152602001828054610fe790612ae1565b80156110345780601f1061100957610100808354040283529160200191611034565b820191906000526020600020905b81548152906001019060200180831161101757829003601f168201915b50505050508152505081526020019060010190610f4f565b50505050915050919050565b6040805160c081018252600080825260208201819052918101829052606081018290526080810182905260a08101919091526000838152600260205260408120600701548491036110bc5760405163f1d80ab160e01b815260040160405180910390fd5b60008481526005602090815260408083206001600160a01b03878116855290835292819020815160c081019092528054938416825290929091830190600160a01b900460ff16600281111561111357611113612611565b600281111561112457611124612611565b81526001820154602082015260028201546040820152600382015460ff1615156060820152600490910154608090910152949350505050565b60008381526002602052604081206007015484910361118f5760405163f1d80ab160e01b815260040160405180910390fd5b6000848152600260208190526040909120015484906001600160a01b031633146111cb576040516282b42960e81b815260040160405180910390fd5b60008581526005602090815260408083206001600160a01b0388168452909152812060048101549091036112125760405163078daeb160e41b815260040160405180910390fd5b8060010154841115611237576040516378de4a6960e11b815260040160405180910390fd5b8381600101600082825461124b9190612b28565b909155505060008681526002602052604081209050848160040160008282546112749190612b15565b90915550506040518581526001600160a01b0387169088907fc589f50dddc35114cf3f48b6b230d8a1896bc2b40c09fc409d18f9d2104a5ab9906020015b60405180910390a350505050505050565b60008581036112e557604051633e4932f960e21b815260040160405180910390fd5b85841461130557604051633e4932f960e21b815260040160405180910390fd5b81158015906113145750818614155b1561133257604051633e4932f960e21b815260040160405180910390fd5b6000805b878110156114045788888281811061135057611350612a61565b905060200201356000036113775760405163162908e360e11b815260040160405180910390fd5b88888281811061138957611389612a61565b905060200201358261139b9190612b15565b91508686828181106113af576113af612a61565b905060200201356000141580156113de5750428787838181106113d4576113d4612a61565b9050602002013511155b156113fc57604051631da7447960e21b815260040160405180910390fd5b600101611336565b50611414338b8b84346000612166565b915060005b878110156115f45760008461143d5760405180602001604052806000815250611496565b85858381811061144f5761144f612a61565b90506020028101906114619190612b3b565b8080601f0160208091040260200160405190810160405280939291908181526020018383808284376000920191909152505050505b9050600460008581526020019081526020016000206040518060a001604052808c8c868181106114c8576114c8612a61565b9050602002013581526020018a8a868181106114e6576114e6612a61565b6020908102929092013583525060008282018190526040808401829052606093840187905285546001818101885596835291839020855160049093020191825591840151948101949094558201516002840180549284015115156101000261ff00199215159290921661ffff1990931692909217179055608081015190919060038201906115749082612bdf565b50505081847fdd9c8b628c5ee6e97f53a818750c89e0ff818c9250075b01cb58b42d998589438c8c868181106115ac576115ac612a61565b905060200201358b8b878181106115c5576115c5612a61565b905060200201356040516115e3929190918252602082015260400190565b60405180910390a350600101611419565b505098975050505050505050565b6000611612338787873488612166565b90506116216202a30042612b15565b600082815260076020908152604080832093909355600890522082905595945050505050565b6000818152600260205260408120600701548290820361167a5760405163f1d80ab160e01b815260040160405180910390fd5b505060009081526004602052604090205490565b6000818152600260205260408120600701548291036116c05760405163f1d80ab160e01b815260040160405180910390fd5b8160008060008381526002602052604090206006015460ff1660048111156116ea576116ea612611565b146117085760405163baf3f0f760e01b815260040160405180910390fd5b346000036117295760405163162908e360e11b815260040160405180910390fd5b60008481526002602052604081206004810180549192349261174c908490612b15565b909155505060008581526003602090815260408083203380855290835292819020805460ff191660011790555134815287917f4a2cd88ec7a748d5b20b3512d7249c67745777b219009075c745923684e9653d910160405180910390a38060030154816004015410610e485760068101805460ff19166001179055610e48565b6000838152600260205260408120600701548491036117fe5760405163f1d80ab160e01b815260040160405180910390fd5b60008481526005602090815260408083206001600160a01b0387168452909152812060048101549091036118455760405163078daeb160e41b815260040160405180910390fd5b60008382600101546118579190612b15565b600060018401819055604051919250906001600160a01b0387169083908381818185875af1925050503d80600081146118ac576040519150601f19603f3d011682016040523d82523d6000602084013e6118b1565b606091505b50509050806118d3576040516312171d8360e31b815260040160405180910390fd5b856001600160a01b0316877f37520d8fd090b71ac4380faa4334ae2e9f58bae768e4c8a88f112bbde669f832876040516112b291815260200190565b60006001600160a01b0385166119385760405163d92e233d60e01b815260040160405180910390fd5b826000036119595760405163162908e360e11b815260040160405180910390fd5b81158015906119685750428211155b1561198657604051631da7447960e21b815260040160405180910390fd5b61054c338686863487612166565b61199c6123aa565b6000828152600260205260408120600701548391036119ce5760405163f1d80ab160e01b815260040160405180910390fd5b8260018060008381526002602052604090206006015460ff1660048111156119f8576119f8612611565b14611a165760405163baf3f0f760e01b815260040160405180910390fd5b6000858152600460205260409020548410611a4457604051630f10172360e11b815260040160405180910390fd5b6000858152600460205260408120805486908110611a6457611a64612a61565b906000526020600020906004020190506000611a8b87600090815260026020526040902090565b600283015490915060009060ff1680611acd5750600183015415801590611ab55750826001015442115b8015611acd575060018201546001600160a01b031633145b905080611aed5760405163b755348d60e01b815260040160405180910390fd5b6002830154610100900460ff1615611b18576040516340dabeef60e11b815260040160405180910390fd5b825460048301541015611b3e5760405163356680b760e01b815260040160405180910390fd5b60028301805461ff0019166101001790558254600483018054600090611b65908490612b28565b9091555050600182015483546040516000926001600160a01b031691908381818185875af1925050503d8060008114611bba576040519150601f19603f3d011682016040523d82523d6000602084013e611bbf565b606091505b5050905080611be1576040516312171d8360e31b815260040160405180910390fd5b87897fd33fcd27cbfb73a2d9058c968b560ccb306500bf536133802048489ecc7355e98660000154604051611c1891815260200190565b60405180910390a3611c29896123d4565b15611c715760068301805460ff1916600317905560405189907f9285bd636dda01bef18996aa38303bb742f6c67a6941646dddb17630cb492c2e90600090a2611c718961243e565b50505050505050611c826001600055565b5050565b611c8e6123aa565b600081815260026020526040812060070154829103611cc05760405163f1d80ab160e01b815260040160405180910390fd5b600082815260026020526040812090600682015460ff166004811115611ce857611ce8612611565b14158015611d0f57506001600682015460ff166004811115611d0c57611d0c612611565b14155b15611d2d5760405163baf3f0f760e01b815260040160405180910390fd5b80546000906001600160a01b0316331480611d54575060028201546001600160a01b031633145b80611d855750600582015415801590611d705750816005015442115b8015611d85575081546001600160a01b031633145b905080611da4576040516282b42960e81b815260040160405180910390fd5b600482015460068301805460ff191660021790558015611e335782546040516000916001600160a01b03169083908381818185875af1925050503d8060008114611e0a576040519150601f19603f3d011682016040523d82523d6000602084013e611e0f565b606091505b5050905080611e31576040516312171d8360e31b815260040160405180910390fd5b505b847fdc48a08bb890bd1b8e4261212a97a5e711e80830d96ba56b362f3ac5f427d51e82604051611e6591815260200190565b60405180910390a250505050611e7b6001600055565b50565b611e866123aa565b600081815260026020526040812060070154829103611eb85760405163f1d80ab160e01b815260040160405180910390fd5b8160018060008381526002602052604090206006015460ff166004811115611ee257611ee2612611565b14611f005760405163baf3f0f760e01b815260040160405180910390fd5b600084815260026020526040812080549091906001600160a01b0316331480611f35575060028201546001600160a01b031633145b80611f695750600582015415801590611f515750816005015442115b8015611f69575060018201546001600160a01b031633145b905080611f88576040516282b42960e81b815260040160405180910390fd5b600482015460068301805460ff1916600317905560018301546040516000916001600160a01b03169083908381818185875af1925050503d8060008114611feb576040519150601f19603f3d011682016040523d82523d6000602084013e611ff0565b606091505b5050905080612012576040516312171d8360e31b815260040160405180910390fd5b60018401546040518381526001600160a01b039091169089907f6244ed823ca6be0f11bc890c3fafcf3c29cb23420c14243642e930b5e07e6d0a9060200160405180910390a360405188907f9285bd636dda01bef18996aa38303bb742f6c67a6941646dddb17630cb492c2e90600090a261208c8861243e565b50505050505050611e7b6001600055565b600081815260086020526040812054908190036120b8575050565b6000828152600660205260408120815b815481101561213e576005600086815260200190815260200160002060008383815481106120f8576120f8612a61565b60009182526020808320909101546001600160a01b0316835282019290925260400190206003015460ff1615612136578261213281612c9e565b9350505b6001016120c8565b50828210156121605760405163ec82086f60e01b815260040160405180910390fd5b50505050565b600180546000918261217783612c9e565b919050559050604051806101000160405280886001600160a01b03168152602001876001600160a01b03168152602001866001600160a01b03168152602001858152602001848152602001838152602001858510156121d75760006121da565b60015b60048111156121eb576121eb612611565b81524260209182015260008381526002808352604091829020845181546001600160a01b03199081166001600160a01b03928316178355948601516001808401805488169284169290921790915593860151928201805490951692169190911790925560608301516003830155608083015160048084019190915560a0840151600584015560c08401516006840180549193909260ff1990921691849081111561229757612297612611565b021790555060e0919091015160079091015582156122dd5760008181526003602090815260408083206001600160a01b038b1684529091529020805460ff191660011790555b856001600160a01b0316876001600160a01b0316827f9405ad0a6208539879349284d71265479b1623846f70303da1f9890d6e8c10a78760405161232391815260200190565b60405180910390a4821561237657866001600160a01b0316817f4a2cd88ec7a748d5b20b3512d7249c67745777b219009075c745923684e9653d8560405161236d91815260200190565b60405180910390a35b600160008281526002602052604090206006015460ff16600481111561239e5761239e612611565b50509695505050505050565b6002600054036123cd57604051633ee5aeb560e01b815260040160405180910390fd5b6002600055565b6000818152600460205260408120815b8154811015612434578181815481106123ff576123ff612a61565b906000526020600020906004020160020160019054906101000a900460ff1661242c575060009392505050565b6001016123e4565b5060019392505050565b611e7b816000818152600660205260408120905b81548110156125895760008381526005602052604081208354829085908590811061247f5761247f612a61565b60009182526020808320909101546001600160a01b0316835282019290925260400190206001810154909150156125805760008383815481106124c4576124c4612a61565b600091825260208220015460018401546040516001600160a01b039092169290919081818185875af1925050503d806000811461251d576040519150601f19603f3d011682016040523d82523d6000602084013e612522565b606091505b50509050806125775760405162461bcd60e51b815260206004820152601760248201527f47756172616e746f7220726566756e64206661696c6564000000000000000000604482015260640160405180910390fd5b50600060018201555b50600101612452565b505050565b80356001600160a01b03811681146125a557600080fd5b919050565b600080604083850312156125bd57600080fd5b823591506125cd6020840161258e565b90509250929050565b600080604083850312156125e957600080fd5b50508035926020909101359150565b60006020828403121561260a57600080fd5b5035919050565b634e487b7160e01b600052602160045260246000fd5b6005811061263757612637612611565b9052565b602081016126498284612627565b92915050565b60008060006060848603121561266457600080fd5b8335925060208401356003811061267a57600080fd5b929592945050506040919091013590565b81516001600160a01b03908116825260208084015182169083015260408084015190911690820152606080830151908201526080808301519082015260a08281015160e08301916126de90840182612627565b5060c092830151919092015290565b80518252602081015160208301526040810151151560408301526060810151151560608301526000608082015160a0608085015280518060a086015260005b8181101561274957602081840181015160c088840101520161272c565b50600060c0828701015260c0601f19601f8301168601019250505092915050565b60208152600061277d60208301846126ed565b9392505050565b602080825282518282018190526000918401906040840190835b818110156127c55783516001600160a01b031683526020938401939092019160010161279e565b509095945050505050565b6000602082016020835280845180835260408501915060408160051b86010192506020860160005b8281101561282957603f198786030184526128148583516126ed565b945060209384019391909101906001016127f8565b50929695505050505050565b6003811061263757612637612611565b81516001600160a01b0316815260208083015160c083019161286990840182612835565b50604083015160408301526060830151606083015260808301511515608083015260a083015160a083015292915050565b6000806000606084860312156128af57600080fd5b8335925061267a6020850161258e565b60008083601f8401126128d157600080fd5b50813567ffffffffffffffff8111156128e957600080fd5b6020830191508360208260051b850101111561290457600080fd5b9250929050565b60008060008060008060008060a0898b03121561292757600080fd5b6129308961258e565b975061293e60208a0161258e565b9650604089013567ffffffffffffffff81111561295a57600080fd5b6129668b828c016128bf565b909750955050606089013567ffffffffffffffff81111561298657600080fd5b6129928b828c016128bf565b909550935050608089013567ffffffffffffffff8111156129b257600080fd5b6129be8b828c016128bf565b999c989b5096995094979396929594505050565b600080600080600060a086880312156129ea57600080fd5b6129f38661258e565b9450612a016020870161258e565b94979496505050506040830135926060810135926080909101359150565b60008060008060808587031215612a3557600080fd5b612a3e8561258e565b9350612a4c6020860161258e565b93969395505050506040820135916060013590565b634e487b7160e01b600052603260045260246000fd5b634e487b7160e01b600052601160045260246000fd5b808202811582820484141761264957612649612a77565b600082612ac157634e487b7160e01b600052601260045260246000fd5b500490565b60408101612ad48285612835565b8260208301529392505050565b600181811c90821680612af557607f821691505b60208210810361074b57634e487b7160e01b600052602260045260246000fd5b8082018082111561264957612649612a77565b8181038181111561264957612649612a77565b6000808335601e19843603018112612b5257600080fd5b83018035915067ffffffffffffffff821115612b6d57600080fd5b60200191503681900382131561290457600080fd5b634e487b7160e01b600052604160045260246000fd5b601f82111561258957806000526020600020601f840160051c81016020851015612bbf5750805b601f840160051c820191505b81811015610e485760008155600101612bcb565b815167ffffffffffffffff811115612bf957612bf9612b82565b612c0d81612c078454612ae1565b84612b98565b6020601f821160018114612c415760008315612c295750848201515b600019600385901b1c1916600184901b178455610e48565b600084815260208120601f198516915b82811015612c715787850151825560209485019460019092019101612c51565b5084821015612c8f5786840151600019600387901b60f8161c191681555b50505050600190811b01905550565b600060018201612cb057612cb0612a77565b506001019056fea2646970667358221220ead2023c06d1ce12f16bf645b5f8ed288acbeabc2623724d930da1e71042c0a364736f6c634300081e0033",
  "linkReferences": {},
  "deployedLinkReferences": {}
}