{
  "_format": "hh-sol-artifact-1",
  "contractName": "FullFeaturedEscrow",
  "sourceName": "contracts/standard/examples/FullFeaturedEscrow.sol",
  "abi": [
    {
      "inputs": [],
      "stateMutability": "nonpayable",
      "type": "constructor"
    },
    {
      "inputs": [],
      "name": "CommitmentWindowClosed",
      "type": "error"
    },
    {
      "inputs": [],
      "name": "DeadlineNotPassed",
      "type": "error"
    },
    {
      "inputs": [],
      "name": "EscrowNotFound",
      "type": "error"
    },
    {
      "inputs": [],
      "name": "GuarantorAlreadyCommitted",
      "type": "error"
    },
    {
      "inputs": [],
      "name": "GuarantorNotCommitted",
      "type": "error"
    },
    {
      "inputs": [],
      "name": "InsufficientFunds",
      "type": "error"
    },
    {
      "inputs": [],
      "name": "InsufficientGuarantors",
      "type": "error"
    },
    {
      "inputs": [],
      "name": "InsufficientStake",
      "type": "error"
    },
    {
      "inputs": [],
      "name": "InvalidAmount",
      "type": "error"
    },
    {
      "inputs": [],
      "name": "InvalidCommitmentHash",
      "type": "error"
    },
    {
      "inputs": [],
      "name": "InvalidDeadline",
      "type": "error"
    },
    {
      "inputs": [],
      "name": "InvalidMilestoneCount",
      "type": "error"
    },
    {
      "inputs": [],
      "name": "InvalidState",
      "type": "error"
    },
    {
      "inputs": [],
      "name": "InvalidTier",
      "type": "error"
    },
    {
      "inputs": [],
      "name": "MilestoneAlreadyApproved",
      "type": "error"
    },
    {
      "inputs": [],
      "name": "MilestoneAlreadyReleased",
      "type": "error"
    },
    {
      "inputs": [],
      "name": "MilestoneNotApproved",
      "type": "error"
    },
    {
      "inputs": [],
      "name": "MilestoneNotFound",
      "type": "error"
    },
    {
      "inputs": [],
      "name": "ReentrancyGuardReentrantCall",
      "type": "error"
    },
    {
      "inputs": [],
      "name": "RevealWindowNotOpen",
      "type": "error"
    },
    {
      "inputs": [],
      "name": "TransferFailed",
      "type": "error"
    },
    {
      "inputs": [],
      "name": "Unauthorized",
      "type": "error"
    },
    {
      "inputs": [],
      "name": "ZeroAddress",
      "type": "error"
    },
    {
      "anonymous": false,
      "inputs": [
        {
          "indexed": true,
          "internalType": "uint256",
          "name": "escrowId",
          "type": "uint256"
        },
        {
          "indexed": false,
          "internalType": "uint256",
          "name": "refundedAmount",
          "type": "uint256"
        }
      ],
      "name": "EscrowCancelled",
      "type": "event"
    },
    {
      "anonymous": false,
      "inputs": [
        {
          "indexed": true,
          "internalType": "uint256",
          "name": "escrowId",
          "type": "uint256"
        }
      ],
      "name": "EscrowCompleted",
      "type": "event"
    },
    {
      "anonymous": false,
      "inputs": [
        {
          "indexed": true,
          "internalType": "uint256",
          "name": "escrowId",
          "type": "uint256"
        },
        {
          "indexed": true,
          "internalType": "address",
          "name": "creator",
          "type": "address"
        },
        {
          "indexed": true,
          "internalType": "address",
          "name": "beneficiary",
          "type": "address"
        },
        {
          "indexed": false,
          "internalType": "uint256",
          "name": "amount",
          "type": "uint256"
        }
      ],
      "name": "EscrowCreated",
      "type": "event"
    },
    {
      "anonymous": false,
      "inputs": [
        {
          "indexed": true,
          "internalType": "uint256",
          "name": "escrowId",
          "type": "uint256"
        },
        {
          "indexed": true,
          "internalType": "address",
          "name": "funder",
          "type": "address"
        },
        {
          "indexed": false,
          "internalType": "uint256",
          "name": "amount",
          "type": "uint256"
        }
      ],
      "name": "EscrowFunded",
      "type": "event"
    },
    {
      "anonymous": false,
      "inputs": [
        {
          "indexed": true,
          "internalType": "uint256",
          "name": "escrowId",
          "type": "uint256"
        },
        {
          "indexed": true,
          "internalType": "address",
          "name": "beneficiary",
          "type": "address"
        },
        {
          "indexed": false,
          "internalType": "uint256",
          "name": "amount",
          "type": "uint256"
        }
      ],
      "name": "EscrowReleased",
      "type": "event"
    },
    {
      "anonymous": false,
      "inputs": [
        {
          "indexed": true,
          "internalType": "uint256",
          "name": "escrowId",
          "type": "uint256"
        },
        {
          "indexed": true,
          "internalType": "address",
          "name": "guarantor",
          "type": "address"
        },
        {
          "indexed": false,
          "internalType": "enum IEscrowGuarantors.GuarantorTier",
          "name": "tier",
          "type": "uint8"
        },
        {
          "indexed": false,
          "internalType": "uint256",
          "name": "stakeAmount",
          "type": "uint256"
        }
      ],
      "name": "GuarantorCommitted",
      "type": "event"
    },
    {
      "anonymous": false,
      "inputs": [
        {
          "indexed": true,
          "internalType": "uint256",
          "name": "escrowId",
          "type": "uint256"
        },
        {
          "indexed": true,
          "internalType": "address",
          "name": "guarantor",
          "type": "address"
        }
      ],
      "name": "GuarantorRevealed",
      "type": "event"
    },
    {
      "anonymous": false,
      "inputs": [
        {
          "indexed": true,
          "internalType": "uint256",
          "name": "escrowId",
          "type": "uint256"
        },
        {
          "indexed": true,
          "internalType": "address",
          "name": "guarantor",
          "type": "address"
        },
        {
          "indexed": false,
          "internalType": "uint256",
          "name": "rewardAmount",
          "type": "uint256"
        }
      ],
      "name": "GuarantorRewarded",
      "type": "event"
    },
    {
      "anonymous": false,
      "inputs": [
        {
          "indexed": true,
          "internalType": "uint256",
          "name": "escrowId",
          "type": "uint256"
        },
        {
          "indexed": true,
          "internalType": "address",
          "name": "guarantor",
          "type": "address"
        },
        {
          "indexed": false,
          "internalType": "uint256",
          "name": "slashedAmount",
          "type": "uint256"
        }
      ],
      "name": "GuarantorSlashed",
      "type": "event"
    },
    {
      "anonymous": false,
      "inputs": [
        {
          "indexed": true,
          "internalType": "uint256",
          "name": "escrowId",
          "type": "uint256"
        },
        {
          "indexed": true,
          "internalType": "uint256",
          "name": "milestoneIndex",
          "type": "uint256"
        },
        {
          "indexed": true,
          "internalType": "address",
          "name": "approver",
          "type": "address"
        }
      ],
      "name": "MilestoneApproved",
      "type": "event"
    },
    {
      "anonymous": false,
      "inputs": [
        {
          "indexed": true,
          "internalType": "uint256",
          "name": "escrowId",
          "type": "uint256"
        },
        {
          "indexed": true,
          "internalType": "uint256",
          "name": "milestoneIndex",
          "type": "uint256"
        },
        {
          "indexed": false,
          "internalType": "uint256",
          "name": "amount",
          "type": "uint256"
        },
        {
          "indexed": false,
          "internalType": "uint256",
          "name": "deadline",
          "type": "uint256"
        }
      ],
      "name": "MilestoneCreated",
      "type": "event"
    },
    {
      "anonymous": false,
      "inputs": [
        {
          "indexed": true,
          "internalType": "uint256",
          "name": "escrowId",
          "type": "uint256"
        },
        {
          "indexed": true,
          "internalType": "uint256",
          "name": "milestoneIndex",
          "type": "uint256"
        },
        {
          "indexed": false,
          "internalType": "uint256",
          "name": "amount",
          "type": "uint256"
        }
      ],
      "name": "MilestoneReleased",
      "type": "event"
    },
    {
      "inputs": [],
      "name": "COMMITMENT_WINDOW",
      "outputs": [
        {
          "internalType": "uint256",
          "name": "",
          "type": "uint256"
        }
      ],
      "stateMutability": "view",
      "type": "function"
    },
    {
      "inputs": [],
      "name": "MIN_PRIMARY_STAKE_PERCENTAGE",
      "outputs": [
        {
          "internalType": "uint256",
          "name": "",
          "type": "uint256"
        }
      ],
      "stateMutability": "view",
      "type": "function"
    },
    {
      "inputs": [],
      "name": "MIN_SECONDARY_STAKE_PERCENTAGE",
      "outputs": [
        {
          "internalType": "uint256",
          "name": "",
          "type": "uint256"
        }
      ],
      "stateMutability": "view",
      "type": "function"
    },
    {
      "inputs": [],
      "name": "REVEAL_WINDOW",
      "outputs": [
        {
          "internalType": "uint256",
          "name": "",
          "type": "uint256"
        }
      ],
      "stateMutability": "view",
      "type": "function"
    },
    {
      "inputs": [
        {
          "internalType": "uint256",
          "name": "escrowId",
          "type": "uint256"
        },
        {
          "internalType": "uint256",
          "name": "milestoneIndex",
          "type": "uint256"
        }
      ],
      "name": "approveMilestone",
      "outputs": [],
      "stateMutability": "nonpayable",
      "type": "function"
    },
    {
      "inputs": [
        {
          "internalType": "uint256",
          "name": "escrowId",
          "type": "uint256"
        }
      ],
      "name": "canActivateEscrow",
      "outputs": [
        {
          "internalType": "bool",
          "name": "",
          "type": "bool"
        }
      ],
      "stateMutability": "view",
      "type": "function"
    },
    {
      "inputs": [
        {
          "internalType": "uint256",
          "name": "escrowId",
          "type": "uint256"
        }
      ],
      "name": "cancelEscrow",
      "outputs": [],
      "stateMutability": "nonpayable",
      "type": "function"
    },
    {
      "inputs": [
        {
          "internalType": "uint256",
          "name": "escrowId",
          "type": "uint256"
        },
        {
          "internalType": "enum IEscrowGuarantors.GuarantorTier",
          "name": "tier",
          "type": "uint8"
        },
        {
          "internalType": "bytes32",
          "name": "commitmentHash",
          "type": "bytes32"
        }
      ],
      "name": "commitAsGuarantor",
      "outputs": [],
      "stateMutability": "payable",
      "type": "function"
    },
    {
      "inputs": [
        {
          "internalType": "address",
          "name": "beneficiary",
          "type": "address"
        },
        {
          "internalType": "address",
          "name": "arbiter",
          "type": "address"
        },
        {
          "internalType": "uint256",
          "name": "amount",
          "type": "uint256"
        },
        {
          "internalType": "uint256",
          "name": "deadline",
          "type": "uint256"
        }
      ],
      "name": "createEscrow",
      "outputs": [
        {
          "internalType": "uint256",
          "name": "escrowId",
          "type": "uint256"
        }
      ],
      "stateMutability": "payable",
      "type": "function"
    },
    {
      "inputs": [
        {
          "internalType": "address",
          "name": "beneficiary",
          "type": "address"
        },
        {
          "internalType": "address",
          "name": "arbiter",
          "type": "address"
        },
        {
          "internalType": "uint256",
          "name": "amount",
          "type": "uint256"
        },
        {
          "internalType": "uint256",
          "name": "deadline",
          "type": "uint256"
        },
        {
          "internalType": "uint256",
          "name": "minGuarantors",
          "type": "uint256"
        }
      ],
      "name": "createEscrowWithGuarantors",
      "outputs": [
        {
          "internalType": "uint256",
          "name": "escrowId",
          "type": "uint256"
        }
      ],
      "stateMutability": "payable",
      "type": "function"
    },
    {
      "inputs": [
        {
          "internalType": "address",
          "name": "beneficiary",
          "type": "address"
        },
        {
          "internalType": "address",
          "name": "arbiter",
          "type": "address"
        },
        {
          "internalType": "uint256[]",
          "name": "milestoneAmounts",
          "type": "uint256[]"
        },
        {
          "internalType": "uint256[]",
          "name": "milestoneDeadlines",
          "type": "uint256[]"
        },
        {
          "internalType": "string[]",
          "name": "milestoneDescriptions",
          "type": "string[]"
        }
      ],
      "name": "createEscrowWithMilestones",
      "outputs": [
        {
          "internalType": "uint256",
          "name": "escrowId",
          "type": "uint256"
        }
      ],
      "stateMutability": "payable",
      "type": "function"
    },
    {
      "inputs": [
        {
          "internalType": "uint256",
          "name": "escrowId",
          "type": "uint256"
        }
      ],
      "name": "fundEscrow",
      "outputs": [],
      "stateMutability": "payable",
      "type": "function"
    },
    {
      "inputs": [
        {
          "internalType": "uint256",
          "name": "escrowId",
          "type": "uint256"
        }
      ],
      "name": "getAllMilestones",
      "outputs": [
        {
          "components": [
            {
              "internalType": "uint256",
              "name": "amount",
              "type": "uint256"
            },
            {
              "internalType": "uint256",
              "name": "deadline",
              "type": "uint256"
            },
            {
              "internalType": "bool",
              "name": "approved",
              "type": "bool"
            },
            {
              "internalType": "bool",
              "name": "released",
              "type": "bool"
            },
            {
              "internalType": "string",
              "name": "description",
              "type": "string"
            }
          ],
          "internalType": "struct IEscrowMilestones.Milestone[]",
          "name": "",
          "type": "tuple[]"
        }
      ],
      "stateMutability": "view",
      "type": "function"
    },
    {
      "inputs": [
        {
          "internalType": "uint256",
          "name": "escrowId",
          "type": "uint256"
        }
      ],
      "name": "getEscrowInfo",
      "outputs": [
        {
          "components": [
            {
              "internalType": "address",
              "name": "creator",
              "type": "address"
            },
            {
              "internalType": "address",
              "name": "beneficiary",
              "type": "address"
            },
            {
              "internalType": "address",
              "name": "arbiter",
              "type": "address"
            },
            {
              "internalType": "uint256",
              "name": "amount",
              "type": "uint256"
            },
            {
              "internalType": "uint256",
              "name": "deadline",
              "type": "uint256"
            },
            {
              "internalType": "enum IEscrowCore.EscrowState",
              "name": "state",
              "type": "uint8"
            },
            {
              "internalType": "uint256",
              "name": "createdAt",
              "type": "uint256"
            }
          ],
          "internalType": "struct IEscrowCore.EscrowBasicInfo",
          "name": "",
          "type": "tuple"
        }
      ],
      "stateMutability": "view",
      "type": "function"
    },
    {
      "inputs": [
        {
          "internalType": "uint256",
          "name": "escrowId",
          "type": "uint256"
        }
      ],
      "name": "getEscrowState",
      "outputs": [
        {
          "internalType": "enum IEscrowCore.EscrowState",
          "name": "",
          "type": "uint8"
        }
      ],
      "stateMutability": "view",
      "type": "function"
    },
    {
      "inputs": [
        {
          "internalType": "uint256",
          "name": "escrowId",
          "type": "uint256"
        },
        {
          "internalType": "address",
          "name": "guarantor",
          "type": "address"
        }
      ],
      "name": "getGuarantorCommitment",
      "outputs": [
        {
          "components": [
            {
              "internalType": "address",
              "name": "guarantor",
              "type": "address"
            },
            {
              "internalType": "enum IEscrowGuarantors.GuarantorTier",
              "name": "tier",
              "type": "uint8"
            },
            {
              "internalType": "uint256",
              "name": "stakeAmount",
              "type": "uint256"
            },
            {
              "internalType": "bytes32",
              "name": "commitmentHash",
              "type": "bytes32"
            },
            {
              "internalType": "bool",
              "name": "revealed",
              "type": "bool"
            },
            {
              "internalType": "uint256",
              "name": "commitedAt",
              "type": "uint256"
            }
          ],
          "internalType": "struct IEscrowGuarantors.GuarantorCommitment",
          "name": "",
          "type": "tuple"
        }
      ],
      "stateMutability": "view",
      "type": "function"
    },
    {
      "inputs": [
        {
          "internalType": "uint256",
          "name": "escrowId",
          "type": "uint256"
        }
      ],
      "name": "getGuarantors",
      "outputs": [
        {
          "internalType": "address[]",
          "name": "",
          "type": "address[]"
        }
      ],
      "stateMutability": "view",
      "type": "function"
    },
    {
      "inputs": [
        {
          "internalType": "uint256",
          "name": "escrowId",
          "type": "uint256"
        },
        {
          "internalType": "uint256",
          "name": "milestoneIndex",
          "type": "uint256"
        }
      ],
      "name": "getMilestone",
      "outputs": [
        {
          "components": [
            {
              "internalType": "uint256",
              "name": "amount",
              "type": "uint256"
            },
            {
              "internalType": "uint256",
              "name": "deadline",
              "type": "uint256"
            },
            {
              "internalType": "bool",
              "name": "approved",
              "type": "bool"
            },
            {
              "internalType": "bool",
              "name": "released",
              "type": "bool"
            },
            {
              "internalType": "string",
              "name": "description",
              "type": "string"
            }
          ],
          "internalType": "struct IEscrowMilestones.Milestone",
          "name": "",
          "type": "tuple"
        }
      ],
      "stateMutability": "view",
      "type": "function"
    },
    {
      "inputs": [
        {
          "internalType": "uint256",
          "name": "escrowId",
          "type": "uint256"
        }
      ],
      "name": "getMilestoneCount",
      "outputs": [
        {
          "internalType": "uint256",
          "name": "",
          "type": "uint256"
        }
      ],
      "stateMutability": "view",
      "type": "function"
    },
    {
      "inputs": [
        {
          "internalType": "uint256",
          "name": "",
          "type": "uint256"
        },
        {
          "internalType": "address",
          "name": "",
          "type": "address"
        }
      ],
      "name": "hasContributed",
      "outputs": [
        {
          "internalType": "bool",
          "name": "",
          "type": "bool"
        }
      ],
      "stateMutability": "view",
      "type": "function"
    },
    {
      "inputs": [
        {
          "internalType": "uint256",
          "name": "escrowId",
          "type": "uint256"
        },
        {
          "internalType": "address",
          "name": "guarantor",
          "type": "address"
        }
      ],
      "name": "isGuarantorVerified",
      "outputs": [
        {
          "internalType": "bool",
          "name": "",
          "type": "bool"
        }
      ],
      "stateMutability": "view",
      "type": "function"
    },
    {
      "inputs": [],
      "name": "nextEscrowId",
      "outputs": [
        {
          "internalType": "uint256",
          "name": "",
          "type": "uint256"
        }
      ],
      "stateMutability": "view",
      "type": "function"
    },
    {
      "inputs": [
        {
          "internalType": "uint256",
          "name": "escrowId",
          "type": "uint256"
        }
      ],
      "name": "releaseEscrow",
      "outputs": [],
      "stateMutability": "nonpayable",
      "type": "function"
    },
    {
      "inputs": [
        {
          "internalType": "uint256",
          "name": "escrowId",
          "type": "uint256"
        },
        {
          "internalType": "uint256",
          "name": "milestoneIndex",
          "type": "uint256"
        }
      ],
      "name": "releaseMilestone",
      "outputs": [],
      "stateMutability": "nonpayable",
      "type": "function"
    },
    {
      "inputs": [
        {
          "internalType": "uint256",
          "name": "escrowId",
          "type": "uint256"
        },
        {
          "internalType": "bytes32",
          "name": "secret",
          "type": "bytes32"
        }
      ],
      "name": "revealCommitment",
      "outputs": [],
      "stateMutability": "nonpayable",
      "type": "function"
    },
    {
      "inputs": [
        {
          "internalType": "uint256",
          "name": "escrowId",
          "type": "uint256"
        },
        {
          "internalType": "address",
          "name": "guarantor",
          "type": "address"
        },
        {
          "internalType": "uint256",
          "name": "rewardAmount",
          "type": "uint256"
        }
      ],
      "name": "rewardGuarantor",
      "outputs": [],
      "stateMutability": "nonpayable",
      "type": "function"
    },
    {
      "inputs": [
        {
          "internalType": "uint256",
          "name": "escrowId",
          "type": "uint256"
        },
        {
          "internalType": "address",
          "name": "guarantor",
          "type": "address"
        },
        {
          "internalType": "uint256",
          "name": "slashAmount",
          "type": "uint256"
        }
      ],
      "name": "slashGuarantor",
      "outputs": [],
      "stateMutability": "nonpayable",
      "type": "function"
    }
  ],
  "bytecode": "0x6080604052348015600f57600080fd5b506001600055612cfa806100246000396000f3fe60806040526004361061019c5760003560e01c8063a0b2389b116100ec578063c2010e501161008a578063ccbae5f611610064578063ccbae5f6146104a8578063dbaf0910146104bb578063e0182436146104db578063ed653164146104fb57600080fd5b8063c2010e5014610455578063c9c31af514610475578063cc24e30b1461048857600080fd5b8063ae0c0252116100c6578063ae0c0252146103d4578063b3090231146103f4578063b44b44a314610407578063b5b96ae01461041a57600080fd5b8063a0b2389b14610365578063a177531f14610392578063a7d61209146103bf57600080fd5b80635a8f6a891161015957806389cb29dd1161013357806389cb29dd146102d65780638ed9895c146102eb578063957a79ff146103185780639bffca541461033857600080fd5b80635a8f6a89146102815780638646405e1461029457806389ab7519146102c157600080fd5b80630cb9ce7b146101a157806310737d24146101cb57806314db2e7d146101fb57806317e931cf1461021b57806320913da5146102325780633a49995b14610254575b600080fd5b3480156101ad57600080fd5b506101b86202a30081565b6040519081526020015b60405180910390f35b3480156101d757600080fd5b506101eb6101e63660046125b7565b61051b565b60405190151581526020016101c2565b34801561020757600080fd5b506101eb6102163660046125e3565b610590565b34801561022757600080fd5b506101b86201518081565b34801561023e57600080fd5b5061025261024d3660046125fc565b61063f565b005b34801561026057600080fd5b5061027461026f3660046125e3565b6107ea565b6040516101c29190612648565b61025261028f36600461265c565b61083b565b3480156102a057600080fd5b506102b46102af3660046125e3565b610ae5565b6040516101c29190612698565b3480156102cd57600080fd5b506101b8601481565b3480156102e257600080fd5b506001546101b8565b3480156102f757600080fd5b5061030b6103063660046125fc565b610bdd565b6040516101c29190612777565b34801561032457600080fd5b506102526103333660046125fc565b610d83565b34801561034457600080fd5b506103586103533660046125e3565b610f32565b6040516101c29190612791565b34801561037157600080fd5b506103856103803660046125e3565b610fd3565b6040516101c291906127dd565b34801561039e57600080fd5b506103b26103ad3660046125b7565b61113b565b6040516101c29190612852565b3480156103cb57600080fd5b506101b8600a81565b3480156103e057600080fd5b506102526103ef3660046128a7565b611240565b6101b8610402366004612918565b6113a1565b6101b86104153660046129df565b6116e0565b34801561042657600080fd5b506101eb6104353660046125b7565b600360209081526000928352604080842090915290825290205460ff1681565b34801561046157600080fd5b506101b86104703660046125e3565b611725565b6102526104833660046125e3565b61176c565b34801561049457600080fd5b506102526104a33660046128a7565b6118ad565b6101b86104b6366004612a2c565b6119f0565b3480156104c757600080fd5b506102526104d63660046125fc565b611a75565b3480156104e757600080fd5b506102526104f63660046125e3565b611d5c565b34801561050757600080fd5b506102526105163660046125e3565b611f54565b6000828152600260205260408120600701548390820361054e5760405163f1d80ab160e01b815260040160405180910390fd5b60008481526005602090815260408083206001600160a01b03871684529091529020600381015460ff1680156105875750600481015415155b95945050505050565b6000818152600860205260408120548082036105af5750600192915050565b6000838152600660205260408120815b8154811015610635576005600087815260200190815260200160002060008383815481106105ef576105ef612a6e565b60009182526020808320909101546001600160a01b0316835282019290925260400190206003015460ff161561062d578261062981612a9a565b9350505b6001016105bf565b5050101592915050565b6000828152600260205260408120600701548391036106715760405163f1d80ab160e01b815260040160405180910390fd5b8260018060008381526002602052604090206006015460ff16600481111561069b5761069b61261e565b146106b95760405163baf3f0f760e01b815260040160405180910390fd5b600085815260036020908152604080832033845290915290205460ff166106f2576040516282b42960e81b815260040160405180910390fd5b600085815260046020526040902054841061072057604051630f10172360e11b815260040160405180910390fd5b600085815260046020526040812080548690811061074057610740612a6e565b60009182526020909120600490910201600281015490915060ff161561077957604051630535ed3960e41b815260040160405180910390fd5b6002810154610100900460ff16156107a4576040516340dabeef60e11b815260040160405180910390fd5b60028101805460ff191660011790556040513390869088907f9ffbb52f2a1362273cd74689a516ca4f52c4282dc13e2e68b7e0646a9a7af7a390600090a4505050505050565b6000818152600260205260408120600701548290820361081d5760405163f1d80ab160e01b815260040160405180910390fd5b60008381526002602052604090206006015460ff1691505b50919050565b60008381526002602052604081206007015484910361086d5760405163f1d80ab160e01b815260040160405180910390fd5b60008481526007602052604090205442111561089c5760405163ef7e72b360e01b815260040160405180910390fd5b6000848152600560209081526040808320338452909152902060040154156108d757604051636d5572f960e01b815260040160405180910390fd5b60008360028111156108eb576108eb61261e565b036109095760405163e142361760e01b815260040160405180910390fd5b600084815260026020819052604082206003015491908560028111156109315761093161261e565b1461093d57600a610940565b60145b9050600060646109508385612ab3565b61095a9190612aca565b90508034101561097d576040516378de4a6960e11b815260040160405180910390fd5b6040518060c00160405280336001600160a01b031681526020018760028111156109a9576109a961261e565b8152346020808301919091526040808301899052600060608401819052426080909401939093528a8352600582528083203384528252909120825181546001600160a01b03919091166001600160a01b031982168117835592840151919283916001600160a81b03191617600160a01b836002811115610a2b57610a2b61261e565b021790555060408281015160018381019190915560608401516002840155608084015160038401805460ff191691151591909117905560a09093015160049092019190915560008981526006602090815282822080549485018155825290209091018054336001600160a01b03199091168117909155905188907f983c5b9827d25fd511d90dd0616fc845ed16f91d3c9cecc8640d159d23df677e90610ad4908a903490612aec565b60405180910390a350505050505050565b6040805160e081018252600080825260208201819052918101829052606081018290526080810182905260a0810182905260c0810191909152600082815260026020526040812060070154839103610b505760405163f1d80ab160e01b815260040160405180910390fd5b600083815260026020818152604092839020835160e08101855281546001600160a01b039081168252600183015481169382019390935292810154909116928201929092526003820154606082015260058201546080820152600682015460a082019060ff166004811115610bc757610bc761261e565b8152602001826007015481525092505050919050565b610c136040518060a001604052806000815260200160008152602001600015158152602001600015158152602001606081525090565b600083815260026020526040812060070154849103610c455760405163f1d80ab160e01b815260040160405180910390fd5b6000848152600460205260409020548310610c7357604051630f10172360e11b815260040160405180910390fd5b6000848152600460205260409020805484908110610c9357610c93612a6e565b60009182526020918290206040805160a081018252600490930290910180548352600181015493830193909352600283015460ff80821615159284019290925261010090041615156060820152600382018054919291608084019190610cf890612b07565b80601f0160208091040260200160405190810160405280929190818152602001828054610d2490612b07565b8015610d715780601f10610d4657610100808354040283529160200191610d71565b820191906000526020600020905b815481529060010190602001808311610d5457829003601f168201915b50505050508152505091505092915050565b600082815260026020526040812060070154839103610db55760405163f1d80ab160e01b815260040160405180910390fd5b6000838152600760205260409020544211610de35760405163916176f760e01b815260040160405180910390fd5b600083815260076020526040902054610e00906201518090612b3b565b421115610e205760405163916176f760e01b815260040160405180910390fd5b600083815260056020908152604080832033845290915281206004810154909103610e5e5760405163078daeb160e41b815260040160405180910390fd5b600381015460ff1615610e8457604051636d5572f960e01b815260040160405180910390fd5b6040516bffffffffffffffffffffffff193360601b166020820152603481018490526054810185905260009060740160405160208183030381529060405280519060200120905081600201548114610eef5760405163029dd5dd60e41b815260040160405180910390fd5b60038201805460ff19166001179055604051339086907ff57a03868e2006a2efea9e9937096234348e58d47daf1b998ef34a6951bea6ea90600090a35050505050565b60008181526002602052604081206007015460609183919003610f685760405163f1d80ab160e01b815260040160405180910390fd5b60008381526006602090815260409182902080548351818402810184019094528084529091830182828015610fc657602002820191906000526020600020905b81546001600160a01b03168152600190910190602001808311610fa8575b5050505050915050919050565b600081815260026020526040812060070154606091839190036110095760405163f1d80ab160e01b815260040160405180910390fd5b600083815260046020908152604080832080548251818502810185019093528083529193909284015b8282101561112f5760008481526020908190206040805160a0810182526004860290920180548352600181015493830193909352600283015460ff8082161515928401929092526101009004161515606082015260038201805491929160808401919061109e90612b07565b80601f01602080910402602001604051908101604052809291908181526020018280546110ca90612b07565b80156111175780601f106110ec57610100808354040283529160200191611117565b820191906000526020600020905b8154815290600101906020018083116110fa57829003601f168201915b50505050508152505081526020019060010190611032565b50505050915050919050565b6040805160c081018252600080825260208201819052918101829052606081018290526080810182905260a081019190915260008381526002602052604081206007015484910361119f5760405163f1d80ab160e01b815260040160405180910390fd5b60008481526005602090815260408083206001600160a01b03878116855290835292819020815160c081019092528054938416825290929091830190600160a01b900460ff1660028111156111f6576111f661261e565b60028111156112075761120761261e565b81526001820154602082015260028201546040820152600382015460ff1615156060820152600490910154608090910152949350505050565b6000838152600260205260408120600701548491036112725760405163f1d80ab160e01b815260040160405180910390fd5b6000848152600260208190526040909120015484906001600160a01b031633146112ae576040516282b42960e81b815260040160405180910390fd5b60008581526005602090815260408083206001600160a01b0388168452909152812060048101549091036112f55760405163078daeb160e41b815260040160405180910390fd5b806001015484111561131a576040516378de4a6960e11b815260040160405180910390fd5b8381600101600082825461132e9190612b4e565b909155505060008681526002602052604081206004018054869290611354908490612b3b565b90915550506040518481526001600160a01b0386169087907fc589f50dddc35114cf3f48b6b230d8a1896bc2b40c09fc409d18f9d2104a5ab99060200160405180910390a3505050505050565b60008581036113c357604051633e4932f960e21b815260040160405180910390fd5b8584146113e357604051633e4932f960e21b815260040160405180910390fd5b81158015906113f25750818614155b1561141057604051633e4932f960e21b815260040160405180910390fd5b6000805b878110156114e25788888281811061142e5761142e612a6e565b905060200201356000036114555760405163162908e360e11b815260040160405180910390fd5b88888281811061146757611467612a6e565b90506020020135826114799190612b3b565b915086868281811061148d5761148d612a6e565b905060200201356000141580156114bc5750428787838181106114b2576114b2612a6e565b9050602002013511155b156114da57604051631da7447960e21b815260040160405180910390fd5b600101611414565b506114f2338b8b84346000612173565b915060005b878110156116d25760008461151b5760405180602001604052806000815250611574565b85858381811061152d5761152d612a6e565b905060200281019061153f9190612b61565b8080601f0160208091040260200160405190810160405280939291908181526020018383808284376000920191909152505050505b9050600460008581526020019081526020016000206040518060a001604052808c8c868181106115a6576115a6612a6e565b9050602002013581526020018a8a868181106115c4576115c4612a6e565b6020908102929092013583525060008282018190526040808401829052606093840187905285546001818101885596835291839020855160049093020191825591840151948101949094558201516002840180549284015115156101000261ff00199215159290921661ffff1990931692909217179055608081015190919060038201906116529082612c05565b50505081847fdd9c8b628c5ee6e97f53a818750c89e0ff818c9250075b01cb58b42d998589438c8c8681811061168a5761168a612a6e565b905060200201358b8b878181106116a3576116a3612a6e565b905060200201356040516116c1929190918252602082015260400190565b60405180910390a3506001016114f7565b505098975050505050505050565b60006116f0338787873488612173565b90506116ff6202a30042612b3b565b600082815260076020908152604080832093909355600890522082905595945050505050565b600081815260026020526040812060070154829082036117585760405163f1d80ab160e01b815260040160405180910390fd5b505060009081526004602052604090205490565b60008181526002602052604081206007015482910361179e5760405163f1d80ab160e01b815260040160405180910390fd5b8160008060008381526002602052604090206006015460ff1660048111156117c8576117c861261e565b146117e65760405163baf3f0f760e01b815260040160405180910390fd5b346000036118075760405163162908e360e11b815260040160405180910390fd5b60008481526002602052604081206004810180549192349261182a908490612b3b565b909155505060008581526003602090815260408083203380855290835292819020805460ff191660011790555134815287917f4a2cd88ec7a748d5b20b3512d7249c67745777b219009075c745923684e9653d910160405180910390a380600301548160040154106118a65760068101805460ff191660011790555b5050505050565b6000838152600260205260408120600701548491036118df5760405163f1d80ab160e01b815260040160405180910390fd5b60008481526005602090815260408083206001600160a01b0387168452909152812060048101549091036119265760405163078daeb160e41b815260040160405180910390fd5b60008382600101546119389190612b3b565b600060018401819055604051919250906001600160a01b0387169083908381818185875af1925050503d806000811461198d576040519150601f19603f3d011682016040523d82523d6000602084013e611992565b606091505b50509050806119b4576040516312171d8360e31b815260040160405180910390fd5b856001600160a01b0316877f37520d8fd090b71ac4380faa4334ae2e9f58bae768e4c8a88f112bbde669f83287604051610ad491815260200190565b60006001600160a01b038516611a195760405163d92e233d60e01b815260040160405180910390fd5b82600003611a3a5760405163162908e360e11b815260040160405180910390fd5b8115801590611a495750428211155b15611a6757604051631da7447960e21b815260040160405180910390fd5b610587338686863487612173565b611a7d6123b7565b600082815260026020526040812060070154839103611aaf5760405163f1d80ab160e01b815260040160405180910390fd5b8260018060008381526002602052604090206006015460ff166004811115611ad957611ad961261e565b14611af75760405163baf3f0f760e01b815260040160405180910390fd5b6000858152600460205260409020548410611b2557604051630f10172360e11b815260040160405180910390fd5b6000858152600460205260408120805486908110611b4557611b45612a6e565b60009182526020808320898452600291829052604084206004909302019081015490935090919060ff1680611ba35750600183015415801590611b8b5750826001015442115b8015611ba3575060018201546001600160a01b031633145b905080611bc35760405163b755348d60e01b815260040160405180910390fd5b6002830154610100900460ff1615611bee576040516340dabeef60e11b815260040160405180910390fd5b825460048301541015611c145760405163356680b760e01b815260040160405180910390fd5b60028301805461ff0019166101001790558254600483018054600090611c3b908490612b4e565b9091555050600182015483546040516000926001600160a01b031691908381818185875af1925050503d8060008114611c90576040519150601f19603f3d011682016040523d82523d6000602084013e611c95565b606091505b5050905080611cb7576040516312171d8360e31b815260040160405180910390fd5b87897fd33fcd27cbfb73a2d9058c968b560ccb306500bf536133802048489ecc7355e98660000154604051611cee91815260200190565b60405180910390a3611cff896123e1565b15611d475760068301805460ff1916600317905560405189907f9285bd636dda01bef18996aa38303bb742f6c67a6941646dddb17630cb492c2e90600090a2611d478961244b565b50505050505050611d586001600055565b5050565b611d646123b7565b600081815260026020526040812060070154829103611d965760405163f1d80ab160e01b815260040160405180910390fd5b600082815260026020526040812090600682015460ff166004811115611dbe57611dbe61261e565b14158015611de557506001600682015460ff166004811115611de257611de261261e565b14155b15611e035760405163baf3f0f760e01b815260040160405180910390fd5b80546000906001600160a01b0316331480611e2a575060028201546001600160a01b031633145b80611e5b5750600582015415801590611e465750816005015442115b8015611e5b575081546001600160a01b031633145b905080611e7a576040516282b42960e81b815260040160405180910390fd5b600482015460068301805460ff191660021790558015611f095782546040516000916001600160a01b03169083908381818185875af1925050503d8060008114611ee0576040519150601f19603f3d011682016040523d82523d6000602084013e611ee5565b606091505b5050905080611f07576040516312171d8360e31b815260040160405180910390fd5b505b847fdc48a08bb890bd1b8e4261212a97a5e711e80830d96ba56b362f3ac5f427d51e82604051611f3b91815260200190565b60405180910390a250505050611f516001600055565b50565b611f5c6123b7565b600081815260026020526040812060070154829103611f8e5760405163f1d80ab160e01b815260040160405180910390fd5b8160018060008381526002602052604090206006015460ff166004811115611fb857611fb861261e565b14611fd65760405163baf3f0f760e01b815260040160405180910390fd5b600084815260026020526040812080549091906001600160a01b031633148061200b575060028201546001600160a01b031633145b8061203f57506005820154158015906120275750816005015442115b801561203f575060018201546001600160a01b031633145b90508061205e576040516282b42960e81b815260040160405180910390fd5b600482015460068301805460ff1916600317905560018301546040516000916001600160a01b03169083908381818185875af1925050503d80600081146120c1576040519150601f19603f3d011682016040523d82523d6000602084013e6120c6565b606091505b50509050806120e8576040516312171d8360e31b815260040160405180910390fd5b60018401546040518381526001600160a01b039091169089907f6244ed823ca6be0f11bc890c3fafcf3c29cb23420c14243642e930b5e07e6d0a9060200160405180910390a360405188907f9285bd636dda01bef18996aa38303bb742f6c67a6941646dddb17630cb492c2e90600090a26121628861244b565b50505050505050611f516001600055565b600180546000918261218483612a9a565b919050559050604051806101000160405280886001600160a01b03168152602001876001600160a01b03168152602001866001600160a01b03168152602001858152602001848152602001838152602001858510156121e45760006121e7565b60015b60048111156121f8576121f861261e565b81524260209182015260008381526002808352604091829020845181546001600160a01b03199081166001600160a01b03928316178355948601516001808401805488169284169290921790915593860151928201805490951692169190911790925560608301516003830155608083015160048084019190915560a0840151600584015560c08401516006840180549193909260ff199092169184908111156122a4576122a461261e565b021790555060e0919091015160079091015582156122ea5760008181526003602090815260408083206001600160a01b038b1684529091529020805460ff191660011790555b856001600160a01b0316876001600160a01b0316827f9405ad0a6208539879349284d71265479b1623846f70303da1f9890d6e8c10a78760405161233091815260200190565b60405180910390a4821561238357866001600160a01b0316817f4a2cd88ec7a748d5b20b3512d7249c67745777b219009075c745923684e9653d8560405161237a91815260200190565b60405180910390a35b600160008281526002602052604090206006015460ff1660048111156123ab576123ab61261e565b50509695505050505050565b6002600054036123da57604051633ee5aeb560e01b815260040160405180910390fd5b6002600055565b6000818152600460205260408120815b81548110156124415781818154811061240c5761240c612a6e565b906000526020600020906004020160020160019054906101000a900460ff16612439575060009392505050565b6001016123f1565b5060019392505050565b611f51816000818152600660205260408120905b81548110156125965760008381526005602052604081208354829085908590811061248c5761248c612a6e565b60009182526020808320909101546001600160a01b03168352820192909252604001902060018101549091501561258d5760008383815481106124d1576124d1612a6e565b600091825260208220015460018401546040516001600160a01b039092169290919081818185875af1925050503d806000811461252a576040519150601f19603f3d011682016040523d82523d6000602084013e61252f565b606091505b50509050806125845760405162461bcd60e51b815260206004820152601760248201527f47756172616e746f7220726566756e64206661696c6564000000000000000000604482015260640160405180910390fd5b50600060018201555b5060010161245f565b505050565b80356001600160a01b03811681146125b257600080fd5b919050565b600080604083850312156125ca57600080fd5b823591506125da6020840161259b565b90509250929050565b6000602082840312156125f557600080fd5b5035919050565b6000806040838503121561260f57600080fd5b50508035926020909101359150565b634e487b7160e01b600052602160045260246000fd5b600581106126445761264461261e565b9052565b602081016126568284612634565b92915050565b60008060006060848603121561267157600080fd5b8335925060208401356003811061268757600080fd5b929592945050506040919091013590565b81516001600160a01b03908116825260208084015182169083015260408084015190911690820152606080830151908201526080808301519082015260a08281015160e08301916126eb90840182612634565b5060c092830151919092015290565b80518252602081015160208301526040810151151560408301526060810151151560608301526000608082015160a0608085015280518060a086015260005b8181101561275657602081840181015160c0888401015201612739565b50600060c0828701015260c0601f19601f8301168601019250505092915050565b60208152600061278a60208301846126fa565b9392505050565b602080825282518282018190526000918401906040840190835b818110156127d25783516001600160a01b03168352602093840193909201916001016127ab565b509095945050505050565b6000602082016020835280845180835260408501915060408160051b86010192506020860160005b8281101561283657603f198786030184526128218583516126fa565b94506020938401939190910190600101612805565b50929695505050505050565b600381106126445761264461261e565b81516001600160a01b0316815260208083015160c083019161287690840182612842565b50604083015160408301526060830151606083015260808301511515608083015260a083015160a083015292915050565b6000806000606084860312156128bc57600080fd5b833592506126876020850161259b565b60008083601f8401126128de57600080fd5b50813567ffffffffffffffff8111156128f657600080fd5b6020830191508360208260051b850101111561291157600080fd5b9250929050565b60008060008060008060008060a0898b03121561293457600080fd5b61293d8961259b565b975061294b60208a0161259b565b9650604089013567ffffffffffffffff81111561296757600080fd5b6129738b828c016128cc565b909750955050606089013567ffffffffffffffff81111561299357600080fd5b61299f8b828c016128cc565b909550935050608089013567ffffffffffffffff8111156129bf57600080fd5b6129cb8b828c016128cc565b999c989b5096995094979396929594505050565b600080600080600060a086880312156129f757600080fd5b612a008661259b565b9450612a0e6020870161259b565b94979496505050506040830135926060810135926080909101359150565b60008060008060808587031215612a4257600080fd5b612a4b8561259b565b9350612a596020860161259b565b93969395505050506040820135916060013590565b634e487b7160e01b600052603260045260246000fd5b634e487b7160e01b600052601160045260246000fd5b600060018201612aac57612aac612a84565b5060010190565b808202811582820484141761265657612656612a84565b600082612ae757634e487b7160e01b600052601260045260246000fd5b500490565b60408101612afa8285612842565b8260208301529392505050565b600181811c90821680612b1b57607f821691505b60208210810361083557634e487b7160e01b600052602260045260246000fd5b8082018082111561265657612656612a84565b8181038181111561265657612656612a84565b6000808335601e19843603018112612b7857600080fd5b83018035915067ffffffffffffffff821115612b9357600080fd5b60200191503681900382131561291157600080fd5b634e487b7160e01b600052604160045260246000fd5b601f82111561259657806000526020600020601f840160051c81016020851015612be55750805b601f840160051c820191505b818110156118a65760008155600101612bf1565b815167ffffffffffffffff811115612c1f57612c1f612ba8565b612c3381612c2d8454612b07565b84612bbe565b6020601f821160018114612c675760008315612c4f5750848201515b600019600385901b1c1916600184901b1784556118a6565b600084815260208120601f198516915b82811015612c975787850151825560209485019460019092019101612c77565b5084821015612cb55786840151600019600387901b60f8161c191681555b50505050600190811b0190555056fea2646970667358221220ac1018aab849c6b71405ae4cbaa49841e249e9c5a750a17ee3c1e2201118275b64736f6c634300081e0033",
  "linkReferences": {},
  "deployedLinkReferences": {}
}